{
  "address": "0x22021A6B0E2eeC9753BAE4593847e8a90eaf4bF4",
  "abi": [
    {
      "inputs": [],
      "name": "CannotBorrowAmount",
      "type": "error"
    },
    {
      "inputs": [],
      "name": "InsufficientFunds",
      "type": "error"
    },
    {
      "inputs": [],
      "name": "NoAmountAvailableToBorrow",
      "type": "error"
    },
    {
      "inputs": [],
      "name": "ShouldBeGreaterThanZero",
      "type": "error"
    },
    {
      "inputs": [],
      "name": "UnsupportedToken",
      "type": "error"
    },
    {
      "inputs": [
        {
          "internalType": "address",
          "name": "tokenAddress",
          "type": "address"
        },
        {
          "internalType": "uint256",
          "name": "tokenAmount",
          "type": "uint256"
        }
      ],
      "name": "borrow",
      "outputs": [],
      "stateMutability": "nonpayable",
      "type": "function"
    },
    {
      "inputs": [
        {
          "internalType": "address",
          "name": "tokenAddress",
          "type": "address"
        },
        {
          "components": [
            {
              "internalType": "address",
              "name": "tokenAddress",
              "type": "address"
            },
            {
              "internalType": "address",
              "name": "borrowerAddress",
              "type": "address"
            },
            {
              "internalType": "uint256",
              "name": "amountBorrowed",
              "type": "uint256"
            },
            {
              "internalType": "uint256",
              "name": "startAccumulatingDay",
              "type": "uint256"
            },
            {
              "internalType": "uint256",
              "name": "borrowedInterest",
              "type": "uint256"
            },
            {
              "internalType": "uint256",
              "name": "stableRate",
              "type": "uint256"
            }
          ],
          "internalType": "struct BorrowedToken[]",
          "name": "tokenArray",
          "type": "tuple[]"
        }
      ],
      "name": "indexOf",
      "outputs": [
        {
          "internalType": "int256",
          "name": "",
          "type": "int256"
        }
      ],
      "stateMutability": "pure",
      "type": "function"
    }
  ],
  "transactionHash": "0xcb159058c7672868be880c6f88e82d104ba4e194324746cbe6d86b3e3f4be66c",
  "args": [],
  "numDeployments": 1,
  "solcInputHash": "cf65816a446aad3e8658e98fd5e0ee94",
  "bytecode": "0x608060405234801561001057600080fd5b506001600081905550612529806100286000396000f3fe608060405234801561001057600080fd5b50600436106100365760003560e01c80634b8a35291461003b5780636c15f03c14610057575b600080fd5b61005560048036038101906100509190611b94565b610087565b005b610071600480360381019061006c9190611dd2565b610dbc565b60405161007e9190611e47565b60405180910390f35b600081116100c1576040517fa489d71500000000000000000000000000000000000000000000000000000000815260040160405180910390fd5b6000610155836001800180548060200260200160405190810160405280929190818152602001828054801561014b57602002820191906000526020600020905b8160009054906101000a900473ffffffffffffffffffffffffffffffffffffffff1673ffffffffffffffffffffffffffffffffffffffff1681526020019060010190808311610101575b5050505050610e6c565b90507fffffffffffffffffffffffffffffffffffffffffffffffffffffffffffffffff81036101b0576040517f6a17288200000000000000000000000000000000000000000000000000000000815260040160405180910390fd5b60006101bd600133610f11565b9050600081136101f9576040517fab32f92800000000000000000000000000000000000000000000000000000000815260040160405180910390fd5b600061020760018587610f6b565b905060008573ffffffffffffffffffffffffffffffffffffffff1663313ce5676040518163ffffffff1660e01b8152600401602060405180830381865afa158015610256573d6000803e3d6000fd5b505050506040513d601f19601f8201168201806040525081019061027a9190611e9b565b9050600081600a61028b919061202a565b670de0b6b3a76400008461029f9190612075565b6102a991906120e6565b9050600081856102b99190612117565b12156102f1576040517f34dca62700000000000000000000000000000000000000000000000000000000815260040160405180910390fd5b858773ffffffffffffffffffffffffffffffffffffffff166370a08231306040518263ffffffff1660e01b815260040161032b9190612169565b602060405180830381865afa158015610348573d6000803e3d6000fd5b505050506040513d601f19601f8201168201806040525081019061036c9190612199565b10156103a4576040517f356680b700000000000000000000000000000000000000000000000000000000815260040160405180910390fd5b6000600160050160003373ffffffffffffffffffffffffffffffffffffffff1673ffffffffffffffffffffffffffffffffffffffff168152602001908152602001600020805480602002602001604051908101604052809291908181526020016000905b8282101561050e57838290600052602060002090600602016040518060c00160405290816000820160009054906101000a900473ffffffffffffffffffffffffffffffffffffffff1673ffffffffffffffffffffffffffffffffffffffff1673ffffffffffffffffffffffffffffffffffffffff1681526020016001820160009054906101000a900473ffffffffffffffffffffffffffffffffffffffff1673ffffffffffffffffffffffffffffffffffffffff1673ffffffffffffffffffffffffffffffffffffffff16815260200160028201548152602001600382015481526020016004820154815260200160058201548152505081526020019060010190610408565b50505050905060008151036108df576000600160020160008a73ffffffffffffffffffffffffffffffffffffffff1673ffffffffffffffffffffffffffffffffffffffff1681526020019081526020016000206040518060c00160405290816000820160009054906101000a900473ffffffffffffffffffffffffffffffffffffffff1673ffffffffffffffffffffffffffffffffffffffff1673ffffffffffffffffffffffffffffffffffffffff1681526020016000820160149054906101000a900463ffffffff1663ffffffff1663ffffffff1681526020016000820160189054906101000a900463ffffffff1663ffffffff1663ffffffff16815260200160008201601c9054906101000a900463ffffffff1663ffffffff1663ffffffff1681526020016001820160009054906101000a900463ffffffff1663ffffffff1663ffffffff1681526020016001820160049054906101000a900463ffffffff1663ffffffff1663ffffffff1681525050905061068a611a8a565b89816000019073ffffffffffffffffffffffffffffffffffffffff16908173ffffffffffffffffffffffffffffffffffffffff16815250508881604001818152505042816060018181525050816060015163ffffffff168160a001818152505061271089836060015163ffffffff166107039190612075565b61070d91906120e6565b81608001818152505033816020019073ffffffffffffffffffffffffffffffffffffffff16908173ffffffffffffffffffffffffffffffffffffffff1681525050600160050160003373ffffffffffffffffffffffffffffffffffffffff1673ffffffffffffffffffffffffffffffffffffffff16815260200190815260200160002081908060018154018082558091505060019003906000526020600020906006020160009091909190915060008201518160000160006101000a81548173ffffffffffffffffffffffffffffffffffffffff021916908373ffffffffffffffffffffffffffffffffffffffff16021790555060208201518160010160006101000a81548173ffffffffffffffffffffffffffffffffffffffff021916908373ffffffffffffffffffffffffffffffffffffffff16021790555060408201518160020155606082015181600301556080820151816004015560a0820151816005015550506001600701339080600181540180825580915050600190039060005260206000200160009091909190916101000a81548173ffffffffffffffffffffffffffffffffffffffff021916908373ffffffffffffffffffffffffffffffffffffffff1602179055505050610cf5565b60006108eb8983610dbc565b90507fffffffffffffffffffffffffffffffffffffffffffffffffffffffffffffffff8103610c70576000600160020160008b73ffffffffffffffffffffffffffffffffffffffff1673ffffffffffffffffffffffffffffffffffffffff1681526020019081526020016000206040518060c00160405290816000820160009054906101000a900473ffffffffffffffffffffffffffffffffffffffff1673ffffffffffffffffffffffffffffffffffffffff1673ffffffffffffffffffffffffffffffffffffffff1681526020016000820160149054906101000a900463ffffffff1663ffffffff1663ffffffff1681526020016000820160189054906101000a900463ffffffff1663ffffffff1663ffffffff16815260200160008201601c9054906101000a900463ffffffff1663ffffffff1663ffffffff1681526020016001820160009054906101000a900463ffffffff1663ffffffff1663ffffffff1681526020016001820160049054906101000a900463ffffffff1663ffffffff1663ffffffff16815250509050610a81611a8a565b8a816000019073ffffffffffffffffffffffffffffffffffffffff16908173ffffffffffffffffffffffffffffffffffffffff16815250508981604001818152505042816060018181525050816060015163ffffffff168160a00181815250506127108a836060015163ffffffff16610afa9190612075565b610b0491906120e6565b81608001818152505033816020019073ffffffffffffffffffffffffffffffffffffffff16908173ffffffffffffffffffffffffffffffffffffffff1681525050600160050160003373ffffffffffffffffffffffffffffffffffffffff1673ffffffffffffffffffffffffffffffffffffffff16815260200190815260200160002081908060018154018082558091505060019003906000526020600020906006020160009091909190915060008201518160000160006101000a81548173ffffffffffffffffffffffffffffffffffffffff021916908373ffffffffffffffffffffffffffffffffffffffff16021790555060208201518160010160006101000a81548173ffffffffffffffffffffffffffffffffffffffff021916908373ffffffffffffffffffffffffffffffffffffffff16021790555060408201518160020155606082015181600301556080820151816004015560a0820151816005015550505050610cf3565b6000600160050160003373ffffffffffffffffffffffffffffffffffffffff1673ffffffffffffffffffffffffffffffffffffffff1681526020019081526020016000208281548110610cc657610cc56121c6565b5b9060005260206000209060060201905088816002016000828254610cea91906121f5565b92505081905550505b505b8773ffffffffffffffffffffffffffffffffffffffff1663a9059cbb33896040518363ffffffff1660e01b8152600401610d30929190612238565b6020604051808303816000875af1158015610d4f573d6000803e3d6000fd5b505050506040513d601f19601f82011682018060405250810190610d739190612299565b610db2576040517f08c379a0000000000000000000000000000000000000000000000000000000008152600401610da990612323565b60405180910390fd5b5050505050505050565b600080600090505b8251811015610e41576000838281518110610de257610de16121c6565b5b602002602001015190508473ffffffffffffffffffffffffffffffffffffffff16816000015173ffffffffffffffffffffffffffffffffffffffff1603610e2d578192505050610e66565b508080610e3990612343565b915050610dc4565b507fffffffffffffffffffffffffffffffffffffffffffffffffffffffffffffffff90505b92915050565b600080600090505b8251811015610ee657828181518110610e9057610e8f6121c6565b5b602002602001015173ffffffffffffffffffffffffffffffffffffffff168473ffffffffffffffffffffffffffffffffffffffff1603610ed35780915050610f0b565b8080610ede90612343565b915050610e74565b507fffffffffffffffffffffffffffffffffffffffffffffffffffffffffffffffff90505b92915050565b600080610f1e8484610fb2565b90506000610f2c85856113ef565b90506000610f3a8686611694565b9050806127108385610f4c9190612075565b610f5691906120e6565b610f60919061238b565b935050505092915050565b6000806000610f7a868561191e565b91509150600081600a610f8d91906123bf565b8387610f999190612075565b610fa391906120e6565b90508093505050509392505050565b6000808360040160008473ffffffffffffffffffffffffffffffffffffffff1673ffffffffffffffffffffffffffffffffffffffff168152602001908152602001600020805480602002602001604051908101604052809291908181526020016000905b8282101561113757838290600052602060002090600702016040518060e00160405290816000820160009054906101000a900473ffffffffffffffffffffffffffffffffffffffff1673ffffffffffffffffffffffffffffffffffffffff1673ffffffffffffffffffffffffffffffffffffffff1681526020016001820160009054906101000a900473ffffffffffffffffffffffffffffffffffffffff1673ffffffffffffffffffffffffffffffffffffffff1673ffffffffffffffffffffffffffffffffffffffff168152602001600282015481526020016003820154815260200160048201548152602001600582015481526020016006820160009054906101000a900460ff16151515158152505081526020019060010190611016565b50505050905060008061114a86866113ef565b905060005b83518110156113d757600084828151811061116d5761116c6121c6565b5b602002602001015190506000886002016000836000015173ffffffffffffffffffffffffffffffffffffffff1673ffffffffffffffffffffffffffffffffffffffff1681526020019081526020016000206040518060c00160405290816000820160009054906101000a900473ffffffffffffffffffffffffffffffffffffffff1673ffffffffffffffffffffffffffffffffffffffff1673ffffffffffffffffffffffffffffffffffffffff1681526020016000820160149054906101000a900463ffffffff1663ffffffff1663ffffffff1681526020016000820160189054906101000a900463ffffffff1663ffffffff1663ffffffff16815260200160008201601c9054906101000a900463ffffffff1663ffffffff1663ffffffff1681526020016001820160009054906101000a900463ffffffff1663ffffffff1663ffffffff1681526020016001820160049054906101000a900463ffffffff1663ffffffff1663ffffffff168152505090506000826000015173ffffffffffffffffffffffffffffffffffffffff1663313ce5676040518163ffffffff1660e01b8152600401602060405180830381865afa158015611330573d6000803e3d6000fd5b505050506040513d601f19601f820116820180604052508101906113549190611e9b565b9050600061136b8b85604001518660000151610f6b565b9050600082600a61137c919061202a565b670de0b6b3a7640000836113909190612075565b61139a91906120e6565b9050836040015163ffffffff16816113b29190612075565b886113bd91906121f5565b9750505050505080806113cf90612343565b91505061114f565b5080826113e491906120e6565b935050505092915050565b6000808360040160008473ffffffffffffffffffffffffffffffffffffffff1673ffffffffffffffffffffffffffffffffffffffff168152602001908152602001600020805480602002602001604051908101604052809291908181526020016000905b8282101561157457838290600052602060002090600702016040518060e00160405290816000820160009054906101000a900473ffffffffffffffffffffffffffffffffffffffff1673ffffffffffffffffffffffffffffffffffffffff1673ffffffffffffffffffffffffffffffffffffffff1681526020016001820160009054906101000a900473ffffffffffffffffffffffffffffffffffffffff1673ffffffffffffffffffffffffffffffffffffffff1673ffffffffffffffffffffffffffffffffffffffff168152602001600282015481526020016003820154815260200160048201548152602001600582015481526020016006820160009054906101000a900460ff16151515158152505081526020019060010190611453565b5050505090506000805b825181101561168857600083828151811061159c5761159b6121c6565b5b602002602001015190506000816000015173ffffffffffffffffffffffffffffffffffffffff1663313ce5676040518163ffffffff1660e01b8152600401602060405180830381865afa1580156115f7573d6000803e3d6000fd5b505050506040513d601f19601f8201168201806040525081019061161b9190611e9b565b905060006116328984604001518560000151610f6b565b9050600082600a611643919061202a565b670de0b6b3a7640000836116579190612075565b61166191906120e6565b9050808661166f91906121f5565b955050505050808061168090612343565b91505061157e565b50809250505092915050565b6000808360050160008473ffffffffffffffffffffffffffffffffffffffff1673ffffffffffffffffffffffffffffffffffffffff168152602001908152602001600020805480602002602001604051908101604052809291908181526020016000905b828210156117fe57838290600052602060002090600602016040518060c00160405290816000820160009054906101000a900473ffffffffffffffffffffffffffffffffffffffff1673ffffffffffffffffffffffffffffffffffffffff1673ffffffffffffffffffffffffffffffffffffffff1681526020016001820160009054906101000a900473ffffffffffffffffffffffffffffffffffffffff1673ffffffffffffffffffffffffffffffffffffffff1673ffffffffffffffffffffffffffffffffffffffff168152602001600282015481526020016003820154815260200160048201548152602001600582015481525050815260200190600101906116f8565b5050505090506000805b8251811015611912576000838281518110611826576118256121c6565b5b602002602001015190506000816000015173ffffffffffffffffffffffffffffffffffffffff1663313ce5676040518163ffffffff1660e01b8152600401602060405180830381865afa158015611881573d6000803e3d6000fd5b505050506040513d601f19601f820116820180604052508101906118a59190611e9b565b905060006118bc8984604001518560000151610f6b565b9050600082600a6118cd919061202a565b670de0b6b3a7640000836118e19190612075565b6118eb91906120e6565b905080866118f991906121f5565b955050505050808061190a90612343565b915050611808565b50809250505092915050565b60008060008460030160008573ffffffffffffffffffffffffffffffffffffffff1673ffffffffffffffffffffffffffffffffffffffff16815260200190815260200160002060009054906101000a900473ffffffffffffffffffffffffffffffffffffffff169050600081905060008173ffffffffffffffffffffffffffffffffffffffff1663feaf968c6040518163ffffffff1660e01b815260040160a060405180830381865afa1580156119d9573d6000803e3d6000fd5b505050506040513d601f19601f820116820180604052508101906119fd9190612478565b50505091505060008273ffffffffffffffffffffffffffffffffffffffff1663313ce5676040518163ffffffff1660e01b8152600401602060405180830381865afa158015611a50573d6000803e3d6000fd5b505050506040513d601f19601f82011682018060405250810190611a749190611e9b565b60ff169050818195509550505050509250929050565b6040518060c00160405280600073ffffffffffffffffffffffffffffffffffffffff168152602001600073ffffffffffffffffffffffffffffffffffffffff168152602001600081526020016000815260200160008152602001600081525090565b6000604051905090565b600080fd5b600080fd5b600073ffffffffffffffffffffffffffffffffffffffff82169050919050565b6000611b2b82611b00565b9050919050565b611b3b81611b20565b8114611b4657600080fd5b50565b600081359050611b5881611b32565b92915050565b6000819050919050565b611b7181611b5e565b8114611b7c57600080fd5b50565b600081359050611b8e81611b68565b92915050565b60008060408385031215611bab57611baa611af6565b5b6000611bb985828601611b49565b9250506020611bca85828601611b7f565b9150509250929050565b600080fd5b6000601f19601f8301169050919050565b7f4e487b7100000000000000000000000000000000000000000000000000000000600052604160045260246000fd5b611c2282611bd9565b810181811067ffffffffffffffff82111715611c4157611c40611bea565b5b80604052505050565b6000611c54611aec565b9050611c608282611c19565b919050565b600067ffffffffffffffff821115611c8057611c7f611bea565b5b602082029050602081019050919050565b600080fd5b600080fd5b600060c08284031215611cb157611cb0611c96565b5b611cbb60c0611c4a565b90506000611ccb84828501611b49565b6000830152506020611cdf84828501611b49565b6020830152506040611cf384828501611b7f565b6040830152506060611d0784828501611b7f565b6060830152506080611d1b84828501611b7f565b60808301525060a0611d2f84828501611b7f565b60a08301525092915050565b6000611d4e611d4984611c65565b611c4a565b90508083825260208201905060c08402830185811115611d7157611d70611c91565b5b835b81811015611d9a5780611d868882611c9b565b84526020840193505060c081019050611d73565b5050509392505050565b600082601f830112611db957611db8611bd4565b5b8135611dc9848260208601611d3b565b91505092915050565b60008060408385031215611de957611de8611af6565b5b6000611df785828601611b49565b925050602083013567ffffffffffffffff811115611e1857611e17611afb565b5b611e2485828601611da4565b9150509250929050565b6000819050919050565b611e4181611e2e565b82525050565b6000602082019050611e5c6000830184611e38565b92915050565b600060ff82169050919050565b611e7881611e62565b8114611e8357600080fd5b50565b600081519050611e9581611e6f565b92915050565b600060208284031215611eb157611eb0611af6565b5b6000611ebf84828501611e86565b91505092915050565b7f4e487b7100000000000000000000000000000000000000000000000000000000600052601160045260246000fd5b60008160011c9050919050565b6000808291508390505b6001851115611f4e57808604811115611f2a57611f29611ec8565b5b6001851615611f395780820291505b8081029050611f4785611ef7565b9450611f0e565b94509492505050565b600082611f675760019050612023565b81611f755760009050612023565b8160018114611f8b5760028114611f9557611fc4565b6001915050612023565b60ff841115611fa757611fa6611ec8565b5b8360020a915084821115611fbe57611fbd611ec8565b5b50612023565b5060208310610133831016604e8410600b8410161715611ff95782820a905083811115611ff457611ff3611ec8565b5b612023565b6120068484846001611f04565b9250905081840481111561201d5761201c611ec8565b5b81810290505b9392505050565b600061203582611b5e565b915061204083611e62565b925061206d7fffffffffffffffffffffffffffffffffffffffffffffffffffffffffffffffff8484611f57565b905092915050565b600061208082611b5e565b915061208b83611b5e565b925082820261209981611b5e565b915082820484148315176120b0576120af611ec8565b5b5092915050565b7f4e487b7100000000000000000000000000000000000000000000000000000000600052601260045260246000fd5b60006120f182611b5e565b91506120fc83611b5e565b92508261210c5761210b6120b7565b5b828204905092915050565b600061212282611e2e565b915061212d83611e2e565b925082820390508181126000841216828213600085121516171561215457612153611ec8565b5b92915050565b61216381611b20565b82525050565b600060208201905061217e600083018461215a565b92915050565b60008151905061219381611b68565b92915050565b6000602082840312156121af576121ae611af6565b5b60006121bd84828501612184565b91505092915050565b7f4e487b7100000000000000000000000000000000000000000000000000000000600052603260045260246000fd5b600061220082611b5e565b915061220b83611b5e565b925082820190508082111561222357612222611ec8565b5b92915050565b61223281611b5e565b82525050565b600060408201905061224d600083018561215a565b61225a6020830184612229565b9392505050565b60008115159050919050565b61227681612261565b811461228157600080fd5b50565b6000815190506122938161226d565b92915050565b6000602082840312156122af576122ae611af6565b5b60006122bd84828501612284565b91505092915050565b600082825260208201905092915050565b7f5472616e73666572206661696c65640000000000000000000000000000000000600082015250565b600061230d600f836122c6565b9150612318826122d7565b602082019050919050565b6000602082019050818103600083015261233c81612300565b9050919050565b600061234e82611b5e565b91507fffffffffffffffffffffffffffffffffffffffffffffffffffffffffffffffff82036123805761237f611ec8565b5b600182019050919050565b600061239682611b5e565b91506123a183611b5e565b92508282039050818111156123b9576123b8611ec8565b5b92915050565b60006123ca82611b5e565b91506123d583611b5e565b92506124027fffffffffffffffffffffffffffffffffffffffffffffffffffffffffffffffff8484611f57565b905092915050565b600069ffffffffffffffffffff82169050919050565b6124298161240a565b811461243457600080fd5b50565b60008151905061244681612420565b92915050565b61245581611e2e565b811461246057600080fd5b50565b6000815190506124728161244c565b92915050565b600080600080600060a0868803121561249457612493611af6565b5b60006124a288828901612437565b95505060206124b388828901612463565b94505060406124c488828901612184565b93505060606124d588828901612184565b92505060806124e688828901612437565b915050929550929590935056fea2646970667358221220c00df7d13f08fd387dea905e0e16be8d8369df6b1ffa499c2d1f5828f7a93bb964736f6c63430008110033",
  "devdoc": {
    "kind": "dev",
    "methods": {},
    "version": 1
  },
  "userdoc": {
    "kind": "user",
    "methods": {},
    "version": 1
  },
  "storageLayout": {
    "storage": [
      {
        "astId": 56,
        "contract": "contracts/facets/BorrowFacet.sol:BorrowFacet",
        "label": "_status",
        "offset": 0,
        "slot": "0",
        "type": "t_uint256"
      },
      {
        "astId": 4815,
        "contract": "contracts/facets/BorrowFacet.sol:BorrowFacet",
        "label": "s",
        "offset": 0,
        "slot": "1",
        "type": "t_struct(AppStorage)4214_storage"
      }
    ],
    "types": {
      "t_address": {
        "encoding": "inplace",
        "label": "address",
        "numberOfBytes": "20"
      },
      "t_array(t_address)dyn_storage": {
        "base": "t_address",
        "encoding": "dynamic_array",
        "label": "address[]",
        "numberOfBytes": "32"
      },
      "t_array(t_struct(BorrowedToken)4176_storage)dyn_storage": {
        "base": "t_struct(BorrowedToken)4176_storage",
        "encoding": "dynamic_array",
        "label": "struct BorrowedToken[]",
        "numberOfBytes": "32"
      },
      "t_array(t_struct(SuppliedToken)4163_storage)dyn_storage": {
        "base": "t_struct(SuppliedToken)4163_storage",
        "encoding": "dynamic_array",
        "label": "struct SuppliedToken[]",
        "numberOfBytes": "32"
      },
      "t_bool": {
        "encoding": "inplace",
        "label": "bool",
        "numberOfBytes": "1"
      },
      "t_mapping(t_address,t_address)": {
        "encoding": "mapping",
        "key": "t_address",
        "label": "mapping(address => address)",
        "numberOfBytes": "32",
        "value": "t_address"
      },
      "t_mapping(t_address,t_array(t_struct(BorrowedToken)4176_storage)dyn_storage)": {
        "encoding": "mapping",
        "key": "t_address",
        "label": "mapping(address => struct BorrowedToken[])",
        "numberOfBytes": "32",
        "value": "t_array(t_struct(BorrowedToken)4176_storage)dyn_storage"
      },
      "t_mapping(t_address,t_array(t_struct(SuppliedToken)4163_storage)dyn_storage)": {
        "encoding": "mapping",
        "key": "t_address",
        "label": "mapping(address => struct SuppliedToken[])",
        "numberOfBytes": "32",
        "value": "t_array(t_struct(SuppliedToken)4163_storage)dyn_storage"
      },
      "t_mapping(t_address,t_struct(Token)4148_storage)": {
        "encoding": "mapping",
        "key": "t_address",
        "label": "mapping(address => struct Token)",
        "numberOfBytes": "32",
        "value": "t_struct(Token)4148_storage"
      },
      "t_struct(AppStorage)4214_storage": {
        "encoding": "inplace",
        "label": "struct AppStorage",
        "members": [
          {
            "astId": 4183,
            "contract": "contracts/facets/BorrowFacet.sol:BorrowFacet",
            "label": "larTokenAddress",
            "offset": 0,
            "slot": "0",
            "type": "t_address"
          },
          {
            "astId": 4186,
            "contract": "contracts/facets/BorrowFacet.sol:BorrowFacet",
            "label": "supportedTokens",
            "offset": 0,
            "slot": "1",
            "type": "t_array(t_address)dyn_storage"
          },
          {
            "astId": 4191,
            "contract": "contracts/facets/BorrowFacet.sol:BorrowFacet",
            "label": "addressToToken",
            "offset": 0,
            "slot": "2",
            "type": "t_mapping(t_address,t_struct(Token)4148_storage)"
          },
          {
            "astId": 4195,
            "contract": "contracts/facets/BorrowFacet.sol:BorrowFacet",
            "label": "tokenToPriceFeed",
            "offset": 0,
            "slot": "3",
            "type": "t_mapping(t_address,t_address)"
          },
          {
            "astId": 4201,
            "contract": "contracts/facets/BorrowFacet.sol:BorrowFacet",
            "label": "tokensSupplied",
            "offset": 0,
            "slot": "4",
            "type": "t_mapping(t_address,t_array(t_struct(SuppliedToken)4163_storage)dyn_storage)"
          },
          {
            "astId": 4207,
            "contract": "contracts/facets/BorrowFacet.sol:BorrowFacet",
            "label": "tokensBorrowed",
            "offset": 0,
            "slot": "5",
            "type": "t_mapping(t_address,t_array(t_struct(BorrowedToken)4176_storage)dyn_storage)"
          },
          {
            "astId": 4210,
            "contract": "contracts/facets/BorrowFacet.sol:BorrowFacet",
            "label": "allSuppliers",
            "offset": 0,
            "slot": "6",
            "type": "t_array(t_address)dyn_storage"
          },
          {
            "astId": 4213,
            "contract": "contracts/facets/BorrowFacet.sol:BorrowFacet",
            "label": "allBorrowers",
            "offset": 0,
            "slot": "7",
            "type": "t_array(t_address)dyn_storage"
          }
        ],
        "numberOfBytes": "256"
      },
      "t_struct(BorrowedToken)4176_storage": {
        "encoding": "inplace",
        "label": "struct BorrowedToken",
        "members": [
          {
            "astId": 4165,
            "contract": "contracts/facets/BorrowFacet.sol:BorrowFacet",
            "label": "tokenAddress",
            "offset": 0,
            "slot": "0",
            "type": "t_address"
          },
          {
            "astId": 4167,
            "contract": "contracts/facets/BorrowFacet.sol:BorrowFacet",
            "label": "borrowerAddress",
            "offset": 0,
            "slot": "1",
            "type": "t_address"
          },
          {
            "astId": 4169,
            "contract": "contracts/facets/BorrowFacet.sol:BorrowFacet",
            "label": "amountBorrowed",
            "offset": 0,
            "slot": "2",
            "type": "t_uint256"
          },
          {
            "astId": 4171,
            "contract": "contracts/facets/BorrowFacet.sol:BorrowFacet",
            "label": "startAccumulatingDay",
            "offset": 0,
            "slot": "3",
            "type": "t_uint256"
          },
          {
            "astId": 4173,
            "contract": "contracts/facets/BorrowFacet.sol:BorrowFacet",
            "label": "borrowedInterest",
            "offset": 0,
            "slot": "4",
            "type": "t_uint256"
          },
          {
            "astId": 4175,
            "contract": "contracts/facets/BorrowFacet.sol:BorrowFacet",
            "label": "stableRate",
            "offset": 0,
            "slot": "5",
            "type": "t_uint256"
          }
        ],
        "numberOfBytes": "192"
      },
      "t_struct(SuppliedToken)4163_storage": {
        "encoding": "inplace",
        "label": "struct SuppliedToken",
        "members": [
          {
            "astId": 4150,
            "contract": "contracts/facets/BorrowFacet.sol:BorrowFacet",
            "label": "tokenAddress",
            "offset": 0,
            "slot": "0",
            "type": "t_address"
          },
          {
            "astId": 4152,
            "contract": "contracts/facets/BorrowFacet.sol:BorrowFacet",
            "label": "supplierAddress",
            "offset": 0,
            "slot": "1",
            "type": "t_address"
          },
          {
            "astId": 4154,
            "contract": "contracts/facets/BorrowFacet.sol:BorrowFacet",
            "label": "amountSupplied",
            "offset": 0,
            "slot": "2",
            "type": "t_uint256"
          },
          {
            "astId": 4156,
            "contract": "contracts/facets/BorrowFacet.sol:BorrowFacet",
            "label": "supplyInterest",
            "offset": 0,
            "slot": "3",
            "type": "t_uint256"
          },
          {
            "astId": 4158,
            "contract": "contracts/facets/BorrowFacet.sol:BorrowFacet",
            "label": "supplyStableRate",
            "offset": 0,
            "slot": "4",
            "type": "t_uint256"
          },
          {
            "astId": 4160,
            "contract": "contracts/facets/BorrowFacet.sol:BorrowFacet",
            "label": "startAccumulatingDay",
            "offset": 0,
            "slot": "5",
            "type": "t_uint256"
          },
          {
            "astId": 4162,
            "contract": "contracts/facets/BorrowFacet.sol:BorrowFacet",
            "label": "isCollateral",
            "offset": 0,
            "slot": "6",
            "type": "t_bool"
          }
        ],
        "numberOfBytes": "224"
      },
      "t_struct(Token)4148_storage": {
        "encoding": "inplace",
        "label": "struct Token",
        "members": [
          {
            "astId": 4137,
            "contract": "contracts/facets/BorrowFacet.sol:BorrowFacet",
            "label": "tokenAddress",
            "offset": 0,
            "slot": "0",
            "type": "t_address"
          },
          {
            "astId": 4139,
            "contract": "contracts/facets/BorrowFacet.sol:BorrowFacet",
            "label": "liquidationThreshold",
            "offset": 20,
            "slot": "0",
            "type": "t_uint32"
          },
          {
            "astId": 4141,
            "contract": "contracts/facets/BorrowFacet.sol:BorrowFacet",
            "label": "loanToValue",
            "offset": 24,
            "slot": "0",
            "type": "t_uint32"
          },
          {
            "astId": 4143,
            "contract": "contracts/facets/BorrowFacet.sol:BorrowFacet",
            "label": "borrowStableRate",
            "offset": 28,
            "slot": "0",
            "type": "t_uint32"
          },
          {
            "astId": 4145,
            "contract": "contracts/facets/BorrowFacet.sol:BorrowFacet",
            "label": "supplyStableRate",
            "offset": 0,
            "slot": "1",
            "type": "t_uint32"
          },
          {
            "astId": 4147,
            "contract": "contracts/facets/BorrowFacet.sol:BorrowFacet",
            "label": "liquidationPenalty",
            "offset": 4,
            "slot": "1",
            "type": "t_uint32"
          }
        ],
        "numberOfBytes": "64"
      },
      "t_uint256": {
        "encoding": "inplace",
        "label": "uint256",
        "numberOfBytes": "32"
      },
      "t_uint32": {
        "encoding": "inplace",
        "label": "uint32",
        "numberOfBytes": "4"
      }
    }
  }
}