{
  "address": "0xc34b509D4cEbB7e44DA5fdb3f6B096514f59c440",
  "abi": [
    {
      "inputs": [],
      "name": "CannotBorrowAmount",
      "type": "error"
    },
    {
      "inputs": [],
      "name": "InsufficientFunds",
      "type": "error"
    },
    {
      "inputs": [],
      "name": "NoAmountAvailableToBorrow",
      "type": "error"
    },
    {
      "inputs": [],
      "name": "ShouldBeGreaterThanZero",
      "type": "error"
    },
    {
      "inputs": [],
      "name": "UnsupportedToken",
      "type": "error"
    },
    {
      "inputs": [
        {
          "internalType": "address",
          "name": "tokenAddress",
          "type": "address"
        },
        {
          "internalType": "uint256",
          "name": "tokenAmount",
          "type": "uint256"
        }
      ],
      "name": "borrow",
      "outputs": [],
      "stateMutability": "nonpayable",
      "type": "function"
    },
    {
      "inputs": [
        {
          "internalType": "address",
          "name": "tokenAddress",
          "type": "address"
        },
        {
          "components": [
            {
              "internalType": "address",
              "name": "tokenAddress",
              "type": "address"
            },
            {
              "internalType": "address",
              "name": "borrowerAddress",
              "type": "address"
            },
            {
              "internalType": "uint256",
              "name": "amountBorrowed",
              "type": "uint256"
            },
            {
              "internalType": "uint256",
              "name": "startAccumulatingDay",
              "type": "uint256"
            },
            {
              "internalType": "uint256",
              "name": "borrowedInterest",
              "type": "uint256"
            },
            {
              "internalType": "uint256",
              "name": "stableRate",
              "type": "uint256"
            }
          ],
          "internalType": "struct BorrowedToken[]",
          "name": "tokenArray",
          "type": "tuple[]"
        }
      ],
      "name": "indexOf",
      "outputs": [
        {
          "internalType": "int256",
          "name": "",
          "type": "int256"
        }
      ],
      "stateMutability": "pure",
      "type": "function"
    }
  ],
  "transactionHash": "0x22eeb2a9519ebd7007b2d3785eaab12617f3287f1cbd40a2760a5b239a04936e",
  "args": [],
  "numDeployments": 1,
  "solcInputHash": "75fdbab3f97c25afc930f569c413aee9",
  "bytecode": "0x608060405234801561001057600080fd5b506001600081905550612248806100286000396000f3fe608060405234801561001057600080fd5b50600436106100365760003560e01c80634b8a35291461003b5780636c15f03c14610057575b600080fd5b610055600480360381019061005091906118fe565b610087565b005b610071600480360381019061006c9190611b3c565b610d1e565b60405161007e9190611bb1565b60405180910390f35b600081116100c1576040517fa489d71500000000000000000000000000000000000000000000000000000000815260040160405180910390fd5b6000610155836001800180548060200260200160405190810160405280929190818152602001828054801561014b57602002820191906000526020600020905b8160009054906101000a900473ffffffffffffffffffffffffffffffffffffffff1673ffffffffffffffffffffffffffffffffffffffff1681526020019060010190808311610101575b5050505050610dce565b90507fffffffffffffffffffffffffffffffffffffffffffffffffffffffffffffffff81036101b0576040517f6a17288200000000000000000000000000000000000000000000000000000000815260040160405180910390fd5b60006101bd600133610e73565b9050600081136101f9576040517fab32f92800000000000000000000000000000000000000000000000000000000815260040160405180910390fd5b6000819050600061020c60018688610ecd565b90506000818461021c9190611bfb565b1215610254576040517f34dca62700000000000000000000000000000000000000000000000000000000815260040160405180910390fd5b848673ffffffffffffffffffffffffffffffffffffffff166370a08231306040518263ffffffff1660e01b815260040161028e9190611c4d565b602060405180830381865afa1580156102ab573d6000803e3d6000fd5b505050506040513d601f19601f820116820180604052508101906102cf9190611c7d565b1015610307576040517f356680b700000000000000000000000000000000000000000000000000000000815260040160405180910390fd5b6000600160050160003373ffffffffffffffffffffffffffffffffffffffff1673ffffffffffffffffffffffffffffffffffffffff168152602001908152602001600020805480602002602001604051908101604052809291908181526020016000905b8282101561047157838290600052602060002090600602016040518060c00160405290816000820160009054906101000a900473ffffffffffffffffffffffffffffffffffffffff1673ffffffffffffffffffffffffffffffffffffffff1673ffffffffffffffffffffffffffffffffffffffff1681526020016001820160009054906101000a900473ffffffffffffffffffffffffffffffffffffffff1673ffffffffffffffffffffffffffffffffffffffff1673ffffffffffffffffffffffffffffffffffffffff1681526020016002820154815260200160038201548152602001600482015481526020016005820154815250508152602001906001019061036b565b5050505090506000815103610842576000600160020160008973ffffffffffffffffffffffffffffffffffffffff1673ffffffffffffffffffffffffffffffffffffffff1681526020019081526020016000206040518060c00160405290816000820160009054906101000a900473ffffffffffffffffffffffffffffffffffffffff1673ffffffffffffffffffffffffffffffffffffffff1673ffffffffffffffffffffffffffffffffffffffff1681526020016000820160149054906101000a900463ffffffff1663ffffffff1663ffffffff1681526020016000820160189054906101000a900463ffffffff1663ffffffff1663ffffffff16815260200160008201601c9054906101000a900463ffffffff1663ffffffff1663ffffffff1681526020016001820160009054906101000a900463ffffffff1663ffffffff1663ffffffff1681526020016001820160049054906101000a900463ffffffff1663ffffffff1663ffffffff168152505090506105ed6117f4565b88816000019073ffffffffffffffffffffffffffffffffffffffff16908173ffffffffffffffffffffffffffffffffffffffff16815250508781604001818152505042816060018181525050816060015163ffffffff168160a001818152505061271088836060015163ffffffff166106669190611caa565b6106709190611d1b565b81608001818152505033816020019073ffffffffffffffffffffffffffffffffffffffff16908173ffffffffffffffffffffffffffffffffffffffff1681525050600160050160003373ffffffffffffffffffffffffffffffffffffffff1673ffffffffffffffffffffffffffffffffffffffff16815260200190815260200160002081908060018154018082558091505060019003906000526020600020906006020160009091909190915060008201518160000160006101000a81548173ffffffffffffffffffffffffffffffffffffffff021916908373ffffffffffffffffffffffffffffffffffffffff16021790555060208201518160010160006101000a81548173ffffffffffffffffffffffffffffffffffffffff021916908373ffffffffffffffffffffffffffffffffffffffff16021790555060408201518160020155606082015181600301556080820151816004015560a0820151816005015550506001600701339080600181540180825580915050600190039060005260206000200160009091909190916101000a81548173ffffffffffffffffffffffffffffffffffffffff021916908373ffffffffffffffffffffffffffffffffffffffff1602179055505050610c58565b600061084e8883610d1e565b90507fffffffffffffffffffffffffffffffffffffffffffffffffffffffffffffffff8103610bd3576000600160020160008a73ffffffffffffffffffffffffffffffffffffffff1673ffffffffffffffffffffffffffffffffffffffff1681526020019081526020016000206040518060c00160405290816000820160009054906101000a900473ffffffffffffffffffffffffffffffffffffffff1673ffffffffffffffffffffffffffffffffffffffff1673ffffffffffffffffffffffffffffffffffffffff1681526020016000820160149054906101000a900463ffffffff1663ffffffff1663ffffffff1681526020016000820160189054906101000a900463ffffffff1663ffffffff1663ffffffff16815260200160008201601c9054906101000a900463ffffffff1663ffffffff1663ffffffff1681526020016001820160009054906101000a900463ffffffff1663ffffffff1663ffffffff1681526020016001820160049054906101000a900463ffffffff1663ffffffff1663ffffffff168152505090506109e46117f4565b89816000019073ffffffffffffffffffffffffffffffffffffffff16908173ffffffffffffffffffffffffffffffffffffffff16815250508881604001818152505042816060018181525050816060015163ffffffff168160a001818152505061271089836060015163ffffffff16610a5d9190611caa565b610a679190611d1b565b81608001818152505033816020019073ffffffffffffffffffffffffffffffffffffffff16908173ffffffffffffffffffffffffffffffffffffffff1681525050600160050160003373ffffffffffffffffffffffffffffffffffffffff1673ffffffffffffffffffffffffffffffffffffffff16815260200190815260200160002081908060018154018082558091505060019003906000526020600020906006020160009091909190915060008201518160000160006101000a81548173ffffffffffffffffffffffffffffffffffffffff021916908373ffffffffffffffffffffffffffffffffffffffff16021790555060208201518160010160006101000a81548173ffffffffffffffffffffffffffffffffffffffff021916908373ffffffffffffffffffffffffffffffffffffffff16021790555060408201518160020155606082015181600301556080820151816004015560a0820151816005015550505050610c56565b6000600160050160003373ffffffffffffffffffffffffffffffffffffffff1673ffffffffffffffffffffffffffffffffffffffff1681526020019081526020016000208281548110610c2957610c28611d4c565b5b9060005260206000209060060201905087816002016000828254610c4d9190611d7b565b92505081905550505b505b8673ffffffffffffffffffffffffffffffffffffffff1663a9059cbb33886040518363ffffffff1660e01b8152600401610c93929190611dbe565b6020604051808303816000875af1158015610cb2573d6000803e3d6000fd5b505050506040513d601f19601f82011682018060405250810190610cd69190611e1f565b610d15576040517f08c379a0000000000000000000000000000000000000000000000000000000008152600401610d0c90611ea9565b60405180910390fd5b50505050505050565b600080600090505b8251811015610da3576000838281518110610d4457610d43611d4c565b5b602002602001015190508473ffffffffffffffffffffffffffffffffffffffff16816000015173ffffffffffffffffffffffffffffffffffffffff1603610d8f578192505050610dc8565b508080610d9b90611ec9565b915050610d26565b507fffffffffffffffffffffffffffffffffffffffffffffffffffffffffffffffff90505b92915050565b600080600090505b8251811015610e4857828181518110610df257610df1611d4c565b5b602002602001015173ffffffffffffffffffffffffffffffffffffffff168473ffffffffffffffffffffffffffffffffffffffff1603610e355780915050610e6d565b8080610e4090611ec9565b915050610dd6565b507fffffffffffffffffffffffffffffffffffffffffffffffffffffffffffffffff90505b92915050565b600080610e808484610f14565b90506000610e8e85856112a9565b90506000610e9c86866114a6565b9050806127108385610eae9190611caa565b610eb89190611d1b565b610ec29190611f11565b935050505092915050565b6000806000610edc8685611688565b91509150600081600a610eef9190612078565b8387610efb9190611caa565b610f059190611d1b565b90508093505050509392505050565b6000808360040160008473ffffffffffffffffffffffffffffffffffffffff1673ffffffffffffffffffffffffffffffffffffffff168152602001908152602001600020805480602002602001604051908101604052809291908181526020016000905b8282101561109957838290600052602060002090600702016040518060e00160405290816000820160009054906101000a900473ffffffffffffffffffffffffffffffffffffffff1673ffffffffffffffffffffffffffffffffffffffff1673ffffffffffffffffffffffffffffffffffffffff1681526020016001820160009054906101000a900473ffffffffffffffffffffffffffffffffffffffff1673ffffffffffffffffffffffffffffffffffffffff1673ffffffffffffffffffffffffffffffffffffffff168152602001600282015481526020016003820154815260200160048201548152602001600582015481526020016006820160009054906101000a900460ff16151515158152505081526020019060010190610f78565b5050505090506000806110ac86866112a9565b905060005b83518110156112915760008482815181106110cf576110ce611d4c565b5b602002602001015190506000886002016000836000015173ffffffffffffffffffffffffffffffffffffffff1673ffffffffffffffffffffffffffffffffffffffff1681526020019081526020016000206040518060c00160405290816000820160009054906101000a900473ffffffffffffffffffffffffffffffffffffffff1673ffffffffffffffffffffffffffffffffffffffff1673ffffffffffffffffffffffffffffffffffffffff1681526020016000820160149054906101000a900463ffffffff1663ffffffff1663ffffffff1681526020016000820160189054906101000a900463ffffffff1663ffffffff1663ffffffff16815260200160008201601c9054906101000a900463ffffffff1663ffffffff1663ffffffff1681526020016001820160009054906101000a900463ffffffff1663ffffffff1663ffffffff1681526020016001820160049054906101000a900463ffffffff1663ffffffff1663ffffffff1681525050905060006112568a84604001518560000151610ecd565b9050816040015163ffffffff168161126e9190611caa565b866112799190611d7b565b9550505050808061128990611ec9565b9150506110b1565b50808261129e9190611d1b565b935050505092915050565b6000808360040160008473ffffffffffffffffffffffffffffffffffffffff1673ffffffffffffffffffffffffffffffffffffffff168152602001908152602001600020805480602002602001604051908101604052809291908181526020016000905b8282101561142e57838290600052602060002090600702016040518060e00160405290816000820160009054906101000a900473ffffffffffffffffffffffffffffffffffffffff1673ffffffffffffffffffffffffffffffffffffffff1673ffffffffffffffffffffffffffffffffffffffff1681526020016001820160009054906101000a900473ffffffffffffffffffffffffffffffffffffffff1673ffffffffffffffffffffffffffffffffffffffff1673ffffffffffffffffffffffffffffffffffffffff168152602001600282015481526020016003820154815260200160048201548152602001600582015481526020016006820160009054906101000a900460ff1615151515815250508152602001906001019061130d565b5050505090506000805b825181101561149a57600083828151811061145657611455611d4c565b5b6020026020010151905060006114758883604001518460000151610ecd565b905080846114839190611d7b565b93505050808061149290611ec9565b915050611438565b50809250505092915050565b6000808360050160008473ffffffffffffffffffffffffffffffffffffffff1673ffffffffffffffffffffffffffffffffffffffff168152602001908152602001600020805480602002602001604051908101604052809291908181526020016000905b8282101561161057838290600052602060002090600602016040518060c00160405290816000820160009054906101000a900473ffffffffffffffffffffffffffffffffffffffff1673ffffffffffffffffffffffffffffffffffffffff1673ffffffffffffffffffffffffffffffffffffffff1681526020016001820160009054906101000a900473ffffffffffffffffffffffffffffffffffffffff1673ffffffffffffffffffffffffffffffffffffffff1673ffffffffffffffffffffffffffffffffffffffff1681526020016002820154815260200160038201548152602001600482015481526020016005820154815250508152602001906001019061150a565b5050505090506000805b825181101561167c57600083828151811061163857611637611d4c565b5b6020026020010151905060006116578883604001518460000151610ecd565b905080846116659190611d7b565b93505050808061167490611ec9565b91505061161a565b50809250505092915050565b60008060008460030160008573ffffffffffffffffffffffffffffffffffffffff1673ffffffffffffffffffffffffffffffffffffffff16815260200190815260200160002060009054906101000a900473ffffffffffffffffffffffffffffffffffffffff169050600081905060008173ffffffffffffffffffffffffffffffffffffffff1663feaf968c6040518163ffffffff1660e01b815260040160a060405180830381865afa158015611743573d6000803e3d6000fd5b505050506040513d601f19601f820116820180604052508101906117679190612131565b50505091505060008273ffffffffffffffffffffffffffffffffffffffff1663313ce5676040518163ffffffff1660e01b8152600401602060405180830381865afa1580156117ba573d6000803e3d6000fd5b505050506040513d601f19601f820116820180604052508101906117de91906121e5565b60ff169050818195509550505050509250929050565b6040518060c00160405280600073ffffffffffffffffffffffffffffffffffffffff168152602001600073ffffffffffffffffffffffffffffffffffffffff168152602001600081526020016000815260200160008152602001600081525090565b6000604051905090565b600080fd5b600080fd5b600073ffffffffffffffffffffffffffffffffffffffff82169050919050565b60006118958261186a565b9050919050565b6118a58161188a565b81146118b057600080fd5b50565b6000813590506118c28161189c565b92915050565b6000819050919050565b6118db816118c8565b81146118e657600080fd5b50565b6000813590506118f8816118d2565b92915050565b6000806040838503121561191557611914611860565b5b6000611923858286016118b3565b9250506020611934858286016118e9565b9150509250929050565b600080fd5b6000601f19601f8301169050919050565b7f4e487b7100000000000000000000000000000000000000000000000000000000600052604160045260246000fd5b61198c82611943565b810181811067ffffffffffffffff821117156119ab576119aa611954565b5b80604052505050565b60006119be611856565b90506119ca8282611983565b919050565b600067ffffffffffffffff8211156119ea576119e9611954565b5b602082029050602081019050919050565b600080fd5b600080fd5b600060c08284031215611a1b57611a1a611a00565b5b611a2560c06119b4565b90506000611a35848285016118b3565b6000830152506020611a49848285016118b3565b6020830152506040611a5d848285016118e9565b6040830152506060611a71848285016118e9565b6060830152506080611a85848285016118e9565b60808301525060a0611a99848285016118e9565b60a08301525092915050565b6000611ab8611ab3846119cf565b6119b4565b90508083825260208201905060c08402830185811115611adb57611ada6119fb565b5b835b81811015611b045780611af08882611a05565b84526020840193505060c081019050611add565b5050509392505050565b600082601f830112611b2357611b2261193e565b5b8135611b33848260208601611aa5565b91505092915050565b60008060408385031215611b5357611b52611860565b5b6000611b61858286016118b3565b925050602083013567ffffffffffffffff811115611b8257611b81611865565b5b611b8e85828601611b0e565b9150509250929050565b6000819050919050565b611bab81611b98565b82525050565b6000602082019050611bc66000830184611ba2565b92915050565b7f4e487b7100000000000000000000000000000000000000000000000000000000600052601160045260246000fd5b6000611c0682611b98565b9150611c1183611b98565b9250828203905081811260008412168282136000851215161715611c3857611c37611bcc565b5b92915050565b611c478161188a565b82525050565b6000602082019050611c626000830184611c3e565b92915050565b600081519050611c77816118d2565b92915050565b600060208284031215611c9357611c92611860565b5b6000611ca184828501611c68565b91505092915050565b6000611cb5826118c8565b9150611cc0836118c8565b9250828202611cce816118c8565b91508282048414831517611ce557611ce4611bcc565b5b5092915050565b7f4e487b7100000000000000000000000000000000000000000000000000000000600052601260045260246000fd5b6000611d26826118c8565b9150611d31836118c8565b925082611d4157611d40611cec565b5b828204905092915050565b7f4e487b7100000000000000000000000000000000000000000000000000000000600052603260045260246000fd5b6000611d86826118c8565b9150611d91836118c8565b9250828201905080821115611da957611da8611bcc565b5b92915050565b611db8816118c8565b82525050565b6000604082019050611dd36000830185611c3e565b611de06020830184611daf565b9392505050565b60008115159050919050565b611dfc81611de7565b8114611e0757600080fd5b50565b600081519050611e1981611df3565b92915050565b600060208284031215611e3557611e34611860565b5b6000611e4384828501611e0a565b91505092915050565b600082825260208201905092915050565b7f5472616e73666572206661696c65640000000000000000000000000000000000600082015250565b6000611e93600f83611e4c565b9150611e9e82611e5d565b602082019050919050565b60006020820190508181036000830152611ec281611e86565b9050919050565b6000611ed4826118c8565b91507fffffffffffffffffffffffffffffffffffffffffffffffffffffffffffffffff8203611f0657611f05611bcc565b5b600182019050919050565b6000611f1c826118c8565b9150611f27836118c8565b9250828203905081811115611f3f57611f3e611bcc565b5b92915050565b60008160011c9050919050565b6000808291508390505b6001851115611f9c57808604811115611f7857611f77611bcc565b5b6001851615611f875780820291505b8081029050611f9585611f45565b9450611f5c565b94509492505050565b600082611fb55760019050612071565b81611fc35760009050612071565b8160018114611fd95760028114611fe357612012565b6001915050612071565b60ff841115611ff557611ff4611bcc565b5b8360020a91508482111561200c5761200b611bcc565b5b50612071565b5060208310610133831016604e8410600b84101617156120475782820a90508381111561204257612041611bcc565b5b612071565b6120548484846001611f52565b9250905081840481111561206b5761206a611bcc565b5b81810290505b9392505050565b6000612083826118c8565b915061208e836118c8565b92506120bb7fffffffffffffffffffffffffffffffffffffffffffffffffffffffffffffffff8484611fa5565b905092915050565b600069ffffffffffffffffffff82169050919050565b6120e2816120c3565b81146120ed57600080fd5b50565b6000815190506120ff816120d9565b92915050565b61210e81611b98565b811461211957600080fd5b50565b60008151905061212b81612105565b92915050565b600080600080600060a0868803121561214d5761214c611860565b5b600061215b888289016120f0565b955050602061216c8882890161211c565b945050604061217d88828901611c68565b935050606061218e88828901611c68565b925050608061219f888289016120f0565b9150509295509295909350565b600060ff82169050919050565b6121c2816121ac565b81146121cd57600080fd5b50565b6000815190506121df816121b9565b92915050565b6000602082840312156121fb576121fa611860565b5b6000612209848285016121d0565b9150509291505056fea2646970667358221220918f698ce424bc0231f73f5279c5066c3f336db50f99334ce6680993cf894bdf64736f6c63430008110033",
  "devdoc": {
    "kind": "dev",
    "methods": {},
    "version": 1
  },
  "userdoc": {
    "kind": "user",
    "methods": {},
    "version": 1
  },
  "storageLayout": {
    "storage": [
      {
        "astId": 56,
        "contract": "contracts/facets/BorrowFacet.sol:BorrowFacet",
        "label": "_status",
        "offset": 0,
        "slot": "0",
        "type": "t_uint256"
      },
      {
        "astId": 3961,
        "contract": "contracts/facets/BorrowFacet.sol:BorrowFacet",
        "label": "s",
        "offset": 0,
        "slot": "1",
        "type": "t_struct(AppStorage)3448_storage"
      }
    ],
    "types": {
      "t_address": {
        "encoding": "inplace",
        "label": "address",
        "numberOfBytes": "20"
      },
      "t_array(t_address)dyn_storage": {
        "base": "t_address",
        "encoding": "dynamic_array",
        "label": "address[]",
        "numberOfBytes": "32"
      },
      "t_array(t_struct(BorrowedToken)3410_storage)dyn_storage": {
        "base": "t_struct(BorrowedToken)3410_storage",
        "encoding": "dynamic_array",
        "label": "struct BorrowedToken[]",
        "numberOfBytes": "32"
      },
      "t_array(t_struct(SuppliedToken)3397_storage)dyn_storage": {
        "base": "t_struct(SuppliedToken)3397_storage",
        "encoding": "dynamic_array",
        "label": "struct SuppliedToken[]",
        "numberOfBytes": "32"
      },
      "t_bool": {
        "encoding": "inplace",
        "label": "bool",
        "numberOfBytes": "1"
      },
      "t_mapping(t_address,t_address)": {
        "encoding": "mapping",
        "key": "t_address",
        "label": "mapping(address => address)",
        "numberOfBytes": "32",
        "value": "t_address"
      },
      "t_mapping(t_address,t_array(t_struct(BorrowedToken)3410_storage)dyn_storage)": {
        "encoding": "mapping",
        "key": "t_address",
        "label": "mapping(address => struct BorrowedToken[])",
        "numberOfBytes": "32",
        "value": "t_array(t_struct(BorrowedToken)3410_storage)dyn_storage"
      },
      "t_mapping(t_address,t_array(t_struct(SuppliedToken)3397_storage)dyn_storage)": {
        "encoding": "mapping",
        "key": "t_address",
        "label": "mapping(address => struct SuppliedToken[])",
        "numberOfBytes": "32",
        "value": "t_array(t_struct(SuppliedToken)3397_storage)dyn_storage"
      },
      "t_mapping(t_address,t_struct(Token)3382_storage)": {
        "encoding": "mapping",
        "key": "t_address",
        "label": "mapping(address => struct Token)",
        "numberOfBytes": "32",
        "value": "t_struct(Token)3382_storage"
      },
      "t_struct(AppStorage)3448_storage": {
        "encoding": "inplace",
        "label": "struct AppStorage",
        "members": [
          {
            "astId": 3417,
            "contract": "contracts/facets/BorrowFacet.sol:BorrowFacet",
            "label": "larTokenAddress",
            "offset": 0,
            "slot": "0",
            "type": "t_address"
          },
          {
            "astId": 3420,
            "contract": "contracts/facets/BorrowFacet.sol:BorrowFacet",
            "label": "supportedTokens",
            "offset": 0,
            "slot": "1",
            "type": "t_array(t_address)dyn_storage"
          },
          {
            "astId": 3425,
            "contract": "contracts/facets/BorrowFacet.sol:BorrowFacet",
            "label": "addressToToken",
            "offset": 0,
            "slot": "2",
            "type": "t_mapping(t_address,t_struct(Token)3382_storage)"
          },
          {
            "astId": 3429,
            "contract": "contracts/facets/BorrowFacet.sol:BorrowFacet",
            "label": "tokenToPriceFeed",
            "offset": 0,
            "slot": "3",
            "type": "t_mapping(t_address,t_address)"
          },
          {
            "astId": 3435,
            "contract": "contracts/facets/BorrowFacet.sol:BorrowFacet",
            "label": "tokensSupplied",
            "offset": 0,
            "slot": "4",
            "type": "t_mapping(t_address,t_array(t_struct(SuppliedToken)3397_storage)dyn_storage)"
          },
          {
            "astId": 3441,
            "contract": "contracts/facets/BorrowFacet.sol:BorrowFacet",
            "label": "tokensBorrowed",
            "offset": 0,
            "slot": "5",
            "type": "t_mapping(t_address,t_array(t_struct(BorrowedToken)3410_storage)dyn_storage)"
          },
          {
            "astId": 3444,
            "contract": "contracts/facets/BorrowFacet.sol:BorrowFacet",
            "label": "allSuppliers",
            "offset": 0,
            "slot": "6",
            "type": "t_array(t_address)dyn_storage"
          },
          {
            "astId": 3447,
            "contract": "contracts/facets/BorrowFacet.sol:BorrowFacet",
            "label": "allBorrowers",
            "offset": 0,
            "slot": "7",
            "type": "t_array(t_address)dyn_storage"
          }
        ],
        "numberOfBytes": "256"
      },
      "t_struct(BorrowedToken)3410_storage": {
        "encoding": "inplace",
        "label": "struct BorrowedToken",
        "members": [
          {
            "astId": 3399,
            "contract": "contracts/facets/BorrowFacet.sol:BorrowFacet",
            "label": "tokenAddress",
            "offset": 0,
            "slot": "0",
            "type": "t_address"
          },
          {
            "astId": 3401,
            "contract": "contracts/facets/BorrowFacet.sol:BorrowFacet",
            "label": "borrowerAddress",
            "offset": 0,
            "slot": "1",
            "type": "t_address"
          },
          {
            "astId": 3403,
            "contract": "contracts/facets/BorrowFacet.sol:BorrowFacet",
            "label": "amountBorrowed",
            "offset": 0,
            "slot": "2",
            "type": "t_uint256"
          },
          {
            "astId": 3405,
            "contract": "contracts/facets/BorrowFacet.sol:BorrowFacet",
            "label": "startAccumulatingDay",
            "offset": 0,
            "slot": "3",
            "type": "t_uint256"
          },
          {
            "astId": 3407,
            "contract": "contracts/facets/BorrowFacet.sol:BorrowFacet",
            "label": "borrowedInterest",
            "offset": 0,
            "slot": "4",
            "type": "t_uint256"
          },
          {
            "astId": 3409,
            "contract": "contracts/facets/BorrowFacet.sol:BorrowFacet",
            "label": "stableRate",
            "offset": 0,
            "slot": "5",
            "type": "t_uint256"
          }
        ],
        "numberOfBytes": "192"
      },
      "t_struct(SuppliedToken)3397_storage": {
        "encoding": "inplace",
        "label": "struct SuppliedToken",
        "members": [
          {
            "astId": 3384,
            "contract": "contracts/facets/BorrowFacet.sol:BorrowFacet",
            "label": "tokenAddress",
            "offset": 0,
            "slot": "0",
            "type": "t_address"
          },
          {
            "astId": 3386,
            "contract": "contracts/facets/BorrowFacet.sol:BorrowFacet",
            "label": "supplierAddress",
            "offset": 0,
            "slot": "1",
            "type": "t_address"
          },
          {
            "astId": 3388,
            "contract": "contracts/facets/BorrowFacet.sol:BorrowFacet",
            "label": "amountSupplied",
            "offset": 0,
            "slot": "2",
            "type": "t_uint256"
          },
          {
            "astId": 3390,
            "contract": "contracts/facets/BorrowFacet.sol:BorrowFacet",
            "label": "supplyInterest",
            "offset": 0,
            "slot": "3",
            "type": "t_uint256"
          },
          {
            "astId": 3392,
            "contract": "contracts/facets/BorrowFacet.sol:BorrowFacet",
            "label": "supplyStableRate",
            "offset": 0,
            "slot": "4",
            "type": "t_uint256"
          },
          {
            "astId": 3394,
            "contract": "contracts/facets/BorrowFacet.sol:BorrowFacet",
            "label": "startAccumulatingDay",
            "offset": 0,
            "slot": "5",
            "type": "t_uint256"
          },
          {
            "astId": 3396,
            "contract": "contracts/facets/BorrowFacet.sol:BorrowFacet",
            "label": "isCollateral",
            "offset": 0,
            "slot": "6",
            "type": "t_bool"
          }
        ],
        "numberOfBytes": "224"
      },
      "t_struct(Token)3382_storage": {
        "encoding": "inplace",
        "label": "struct Token",
        "members": [
          {
            "astId": 3371,
            "contract": "contracts/facets/BorrowFacet.sol:BorrowFacet",
            "label": "tokenAddress",
            "offset": 0,
            "slot": "0",
            "type": "t_address"
          },
          {
            "astId": 3373,
            "contract": "contracts/facets/BorrowFacet.sol:BorrowFacet",
            "label": "liquidationThreshold",
            "offset": 20,
            "slot": "0",
            "type": "t_uint32"
          },
          {
            "astId": 3375,
            "contract": "contracts/facets/BorrowFacet.sol:BorrowFacet",
            "label": "loanToValue",
            "offset": 24,
            "slot": "0",
            "type": "t_uint32"
          },
          {
            "astId": 3377,
            "contract": "contracts/facets/BorrowFacet.sol:BorrowFacet",
            "label": "borrowStableRate",
            "offset": 28,
            "slot": "0",
            "type": "t_uint32"
          },
          {
            "astId": 3379,
            "contract": "contracts/facets/BorrowFacet.sol:BorrowFacet",
            "label": "supplyStableRate",
            "offset": 0,
            "slot": "1",
            "type": "t_uint32"
          },
          {
            "astId": 3381,
            "contract": "contracts/facets/BorrowFacet.sol:BorrowFacet",
            "label": "liquidationPenalty",
            "offset": 4,
            "slot": "1",
            "type": "t_uint32"
          }
        ],
        "numberOfBytes": "64"
      },
      "t_uint256": {
        "encoding": "inplace",
        "label": "uint256",
        "numberOfBytes": "32"
      },
      "t_uint32": {
        "encoding": "inplace",
        "label": "uint32",
        "numberOfBytes": "4"
      }
    }
  }
}