{
  "address": "0x0e3519207C8D12AFeF60b2Ceb5C93Bfd06d16e11",
  "abi": [
    {
      "inputs": [
        {
          "internalType": "bytes4",
          "name": "_functionSelector",
          "type": "bytes4"
        }
      ],
      "name": "facetAddress",
      "outputs": [
        {
          "internalType": "address",
          "name": "facetAddress_",
          "type": "address"
        }
      ],
      "stateMutability": "view",
      "type": "function"
    },
    {
      "inputs": [],
      "name": "facetAddresses",
      "outputs": [
        {
          "internalType": "address[]",
          "name": "facetAddresses_",
          "type": "address[]"
        }
      ],
      "stateMutability": "view",
      "type": "function"
    },
    {
      "inputs": [
        {
          "internalType": "address",
          "name": "_facet",
          "type": "address"
        }
      ],
      "name": "facetFunctionSelectors",
      "outputs": [
        {
          "internalType": "bytes4[]",
          "name": "facetFunctionSelectors_",
          "type": "bytes4[]"
        }
      ],
      "stateMutability": "view",
      "type": "function"
    },
    {
      "inputs": [],
      "name": "facets",
      "outputs": [
        {
          "components": [
            {
              "internalType": "address",
              "name": "facetAddress",
              "type": "address"
            },
            {
              "internalType": "bytes4[]",
              "name": "functionSelectors",
              "type": "bytes4[]"
            }
          ],
          "internalType": "struct IDiamondLoupe.Facet[]",
          "name": "facets_",
          "type": "tuple[]"
        }
      ],
      "stateMutability": "view",
      "type": "function"
    },
    {
      "inputs": [
        {
          "internalType": "bytes4",
          "name": "_interfaceId",
          "type": "bytes4"
        }
      ],
      "name": "supportsInterface",
      "outputs": [
        {
          "internalType": "bool",
          "name": "",
          "type": "bool"
        }
      ],
      "stateMutability": "view",
      "type": "function"
    }
  ],
  "transactionHash": "0xb447f6492c07f5e71f3d65b440204888522c9f2f832f9d2cd89bf9c7179b6d11",
  "args": [],
  "numDeployments": 1,
  "solcInputHash": "cf65816a446aad3e8658e98fd5e0ee94",
  "bytecode": "0x608060405234801561001057600080fd5b50610c0c806100206000396000f3fe608060405234801561001057600080fd5b50600436106100575760003560e01c806301ffc9a71461005c57806352ef6b2c1461008c5780637a0ed627146100aa578063adfca15e146100c8578063cdffacc6146100f8575b600080fd5b6100766004803603810190610071919061068f565b610128565b60405161008391906106d7565b60405180910390f35b61009461019e565b6040516100a191906107e2565b60405180910390f35b6100b261023b565b6040516100bf91906109c1565b60405180910390f35b6100e260048036038101906100dd9190610a0f565b61045e565b6040516100ef9190610aab565b60405180910390f35b610112600480360381019061010d919061068f565b610549565b60405161011f9190610adc565b60405180910390f35b6000806101336105d5565b9050806003016000847bffffffffffffffffffffffffffffffffffffffffffffffffffffffff19167bffffffffffffffffffffffffffffffffffffffffffffffffffffffff1916815260200190815260200160002060009054906101000a900460ff16915050919050565b606060006101aa6105d5565b90508060020180548060200260200160405190810160405280929190818152602001828054801561023057602002820191906000526020600020905b8160009054906101000a900473ffffffffffffffffffffffffffffffffffffffff1673ffffffffffffffffffffffffffffffffffffffff16815260200190600101908083116101e6575b505050505091505090565b606060006102476105d5565b90506000816002018054905090508067ffffffffffffffff81111561026f5761026e610af7565b5b6040519080825280602002602001820160405280156102a857816020015b610295610602565b81526020019060019003908161028d5790505b50925060005b818110156104585760008360020182815481106102ce576102cd610b26565b5b9060005260206000200160009054906101000a900473ffffffffffffffffffffffffffffffffffffffff1690508085838151811061030f5761030e610b26565b5b60200260200101516000019073ffffffffffffffffffffffffffffffffffffffff16908173ffffffffffffffffffffffffffffffffffffffff16815250508360010160008273ffffffffffffffffffffffffffffffffffffffff1673ffffffffffffffffffffffffffffffffffffffff16815260200190815260200160002060000180548060200260200160405190810160405280929190818152602001828054801561041d57602002820191906000526020600020906000905b82829054906101000a900460e01b7bffffffffffffffffffffffffffffffffffffffffffffffffffffffff1916815260200190600401906020826003010492830192600103820291508084116103ca5790505b505050505085838151811061043557610434610b26565b5b60200260200101516020018190525050808061045090610b8e565b9150506102ae565b50505090565b6060600061046a6105d5565b90508060010160008473ffffffffffffffffffffffffffffffffffffffff1673ffffffffffffffffffffffffffffffffffffffff16815260200190815260200160002060000180548060200260200160405190810160405280929190818152602001828054801561053c57602002820191906000526020600020906000905b82829054906101000a900460e01b7bffffffffffffffffffffffffffffffffffffffffffffffffffffffff1916815260200190600401906020826003010492830192600103820291508084116104e95790505b5050505050915050919050565b6000806105546105d5565b9050806000016000847bffffffffffffffffffffffffffffffffffffffffffffffffffffffff19167bffffffffffffffffffffffffffffffffffffffffffffffffffffffff1916815260200190815260200160002060000160009054906101000a900473ffffffffffffffffffffffffffffffffffffffff16915050919050565b6000807fc8fcad8db84d3cc18b4c41d551ea0ee66dd599cde068d998e57d5e09332c131c90508091505090565b6040518060400160405280600073ffffffffffffffffffffffffffffffffffffffff168152602001606081525090565b600080fd5b60007fffffffff0000000000000000000000000000000000000000000000000000000082169050919050565b61066c81610637565b811461067757600080fd5b50565b60008135905061068981610663565b92915050565b6000602082840312156106a5576106a4610632565b5b60006106b38482850161067a565b91505092915050565b60008115159050919050565b6106d1816106bc565b82525050565b60006020820190506106ec60008301846106c8565b92915050565b600081519050919050565b600082825260208201905092915050565b6000819050602082019050919050565b600073ffffffffffffffffffffffffffffffffffffffff82169050919050565b60006107498261071e565b9050919050565b6107598161073e565b82525050565b600061076b8383610750565b60208301905092915050565b6000602082019050919050565b600061078f826106f2565b61079981856106fd565b93506107a48361070e565b8060005b838110156107d55781516107bc888261075f565b97506107c783610777565b9250506001810190506107a8565b5085935050505092915050565b600060208201905081810360008301526107fc8184610784565b905092915050565b600081519050919050565b600082825260208201905092915050565b6000819050602082019050919050565b600081519050919050565b600082825260208201905092915050565b6000819050602082019050919050565b61086581610637565b82525050565b6000610877838361085c565b60208301905092915050565b6000602082019050919050565b600061089b82610830565b6108a5818561083b565b93506108b08361084c565b8060005b838110156108e15781516108c8888261086b565b97506108d383610883565b9250506001810190506108b4565b5085935050505092915050565b60006040830160008301516109066000860182610750565b506020830151848203602086015261091e8282610890565b9150508091505092915050565b600061093783836108ee565b905092915050565b6000602082019050919050565b600061095782610804565b610961818561080f565b93508360208202850161097385610820565b8060005b858110156109af5784840389528151610990858261092b565b945061099b8361093f565b925060208a01995050600181019050610977565b50829750879550505050505092915050565b600060208201905081810360008301526109db818461094c565b905092915050565b6109ec8161073e565b81146109f757600080fd5b50565b600081359050610a09816109e3565b92915050565b600060208284031215610a2557610a24610632565b5b6000610a33848285016109fa565b91505092915050565b600082825260208201905092915050565b6000610a5882610830565b610a628185610a3c565b9350610a6d8361084c565b8060005b83811015610a9e578151610a85888261086b565b9750610a9083610883565b925050600181019050610a71565b5085935050505092915050565b60006020820190508181036000830152610ac58184610a4d565b905092915050565b610ad68161073e565b82525050565b6000602082019050610af16000830184610acd565b92915050565b7f4e487b7100000000000000000000000000000000000000000000000000000000600052604160045260246000fd5b7f4e487b7100000000000000000000000000000000000000000000000000000000600052603260045260246000fd5b7f4e487b7100000000000000000000000000000000000000000000000000000000600052601160045260246000fd5b6000819050919050565b6000610b9982610b84565b91507fffffffffffffffffffffffffffffffffffffffffffffffffffffffffffffffff8203610bcb57610bca610b55565b5b60018201905091905056fea2646970667358221220eb90a3bf613104e342b8ff3211419463412d849ff2d04728c3dcff19e39aa07064736f6c63430008110033",
  "devdoc": {
    "kind": "dev",
    "methods": {
      "facetAddress(bytes4)": {
        "details": "If facet is not found return address(0).",
        "params": {
          "_functionSelector": "The function selector."
        },
        "returns": {
          "facetAddress_": "The facet address."
        }
      },
      "facetAddresses()": {
        "returns": {
          "facetAddresses_": "facetAddresses_"
        }
      },
      "facetFunctionSelectors(address)": {
        "params": {
          "_facet": "The facet address."
        },
        "returns": {
          "facetFunctionSelectors_": "facetFunctionSelectors_"
        }
      },
      "facets()": {
        "returns": {
          "facets_": "Facet"
        }
      }
    },
    "version": 1
  },
  "userdoc": {
    "kind": "user",
    "methods": {
      "facetAddress(bytes4)": {
        "notice": "Gets the facet that supports the given selector."
      },
      "facetAddresses()": {
        "notice": "Get all the facet addresses used by a diamond."
      },
      "facetFunctionSelectors(address)": {
        "notice": "Gets all the function selectors provided by a facet."
      },
      "facets()": {
        "notice": "Gets all facets and their selectors."
      }
    },
    "version": 1
  },
  "storageLayout": {
    "storage": [],
    "types": null
  }
}