{
  "address": "0x71B1775E18EA508770a55B719Ed5814068d03c9F",
  "abi": [
    {
      "inputs": [
        {
          "internalType": "address",
          "name": "newTokenAddress",
          "type": "address"
        }
      ],
      "name": "addToState",
      "outputs": [],
      "stateMutability": "nonpayable",
      "type": "function"
    },
    {
      "inputs": [
        {
          "internalType": "address",
          "name": "tokenAddress",
          "type": "address"
        },
        {
          "internalType": "uint256",
          "name": "usdAmount",
          "type": "uint256"
        }
      ],
      "name": "convertUsdToToken",
      "outputs": [
        {
          "internalType": "uint256",
          "name": "",
          "type": "uint256"
        }
      ],
      "stateMutability": "view",
      "type": "function"
    },
    {
      "inputs": [],
      "name": "getAllBorrowers",
      "outputs": [
        {
          "internalType": "address[]",
          "name": "",
          "type": "address[]"
        }
      ],
      "stateMutability": "view",
      "type": "function"
    },
    {
      "inputs": [
        {
          "internalType": "address",
          "name": "user",
          "type": "address"
        }
      ],
      "name": "getAllBorrows",
      "outputs": [
        {
          "components": [
            {
              "internalType": "address",
              "name": "tokenAddress",
              "type": "address"
            },
            {
              "internalType": "address",
              "name": "borrowerAddress",
              "type": "address"
            },
            {
              "internalType": "uint256",
              "name": "amountBorrowed",
              "type": "uint256"
            },
            {
              "internalType": "uint256",
              "name": "startAccumulatingDay",
              "type": "uint256"
            },
            {
              "internalType": "uint256",
              "name": "borrowedInterest",
              "type": "uint256"
            },
            {
              "internalType": "uint256",
              "name": "stableRate",
              "type": "uint256"
            }
          ],
          "internalType": "struct BorrowedToken[]",
          "name": "",
          "type": "tuple[]"
        }
      ],
      "stateMutability": "view",
      "type": "function"
    },
    {
      "inputs": [],
      "name": "getAllSuppliers",
      "outputs": [
        {
          "internalType": "address[]",
          "name": "",
          "type": "address[]"
        }
      ],
      "stateMutability": "view",
      "type": "function"
    },
    {
      "inputs": [
        {
          "internalType": "address",
          "name": "user",
          "type": "address"
        }
      ],
      "name": "getAllSupplies",
      "outputs": [
        {
          "components": [
            {
              "internalType": "address",
              "name": "tokenAddress",
              "type": "address"
            },
            {
              "internalType": "address",
              "name": "supplierAddress",
              "type": "address"
            },
            {
              "internalType": "uint256",
              "name": "amountSupplied",
              "type": "uint256"
            },
            {
              "internalType": "uint256",
              "name": "supplyInterest",
              "type": "uint256"
            },
            {
              "internalType": "uint256",
              "name": "supplyStableRate",
              "type": "uint256"
            },
            {
              "internalType": "uint256",
              "name": "startAccumulatingDay",
              "type": "uint256"
            },
            {
              "internalType": "bool",
              "name": "isCollateral",
              "type": "bool"
            }
          ],
          "internalType": "struct SuppliedToken[]",
          "name": "",
          "type": "tuple[]"
        }
      ],
      "stateMutability": "view",
      "type": "function"
    },
    {
      "inputs": [],
      "name": "getAllSupportedTokens",
      "outputs": [
        {
          "internalType": "address[]",
          "name": "",
          "type": "address[]"
        }
      ],
      "stateMutability": "view",
      "type": "function"
    },
    {
      "inputs": [
        {
          "internalType": "address",
          "name": "user",
          "type": "address"
        }
      ],
      "name": "getBorrowPower",
      "outputs": [
        {
          "internalType": "uint256",
          "name": "",
          "type": "uint256"
        }
      ],
      "stateMutability": "view",
      "type": "function"
    },
    {
      "inputs": [
        {
          "internalType": "address",
          "name": "user",
          "type": "address"
        }
      ],
      "name": "getCurrentLTV",
      "outputs": [
        {
          "internalType": "uint256",
          "name": "",
          "type": "uint256"
        }
      ],
      "stateMutability": "view",
      "type": "function"
    },
    {
      "inputs": [
        {
          "internalType": "address",
          "name": "user",
          "type": "address"
        }
      ],
      "name": "getHealthFactor",
      "outputs": [
        {
          "internalType": "int256",
          "name": "",
          "type": "int256"
        }
      ],
      "stateMutability": "view",
      "type": "function"
    },
    {
      "inputs": [
        {
          "internalType": "address",
          "name": "user",
          "type": "address"
        }
      ],
      "name": "getLiquidationThreshold",
      "outputs": [
        {
          "internalType": "uint256",
          "name": "",
          "type": "uint256"
        }
      ],
      "stateMutability": "view",
      "type": "function"
    },
    {
      "inputs": [
        {
          "internalType": "address",
          "name": "user",
          "type": "address"
        }
      ],
      "name": "getMaxAvailableToBorrowInUsd",
      "outputs": [
        {
          "internalType": "int256",
          "name": "",
          "type": "int256"
        }
      ],
      "stateMutability": "view",
      "type": "function"
    },
    {
      "inputs": [
        {
          "internalType": "address",
          "name": "user",
          "type": "address"
        }
      ],
      "name": "getMaxLTV",
      "outputs": [
        {
          "internalType": "uint256",
          "name": "",
          "type": "uint256"
        }
      ],
      "stateMutability": "view",
      "type": "function"
    },
    {
      "inputs": [
        {
          "internalType": "address",
          "name": "user",
          "type": "address"
        }
      ],
      "name": "getNetworth",
      "outputs": [
        {
          "internalType": "uint256",
          "name": "",
          "type": "uint256"
        }
      ],
      "stateMutability": "view",
      "type": "function"
    },
    {
      "inputs": [
        {
          "internalType": "address",
          "name": "tokenAddress",
          "type": "address"
        },
        {
          "internalType": "uint256",
          "name": "tokenAmount",
          "type": "uint256"
        }
      ],
      "name": "getUsdEquivalence",
      "outputs": [
        {
          "internalType": "uint256",
          "name": "",
          "type": "uint256"
        }
      ],
      "stateMutability": "view",
      "type": "function"
    },
    {
      "inputs": [
        {
          "internalType": "address",
          "name": "user",
          "type": "address"
        }
      ],
      "name": "getUserTotalBorrowedInUsd",
      "outputs": [
        {
          "internalType": "uint256",
          "name": "",
          "type": "uint256"
        }
      ],
      "stateMutability": "view",
      "type": "function"
    },
    {
      "inputs": [
        {
          "internalType": "address",
          "name": "user",
          "type": "address"
        }
      ],
      "name": "getUserTotalCollateralInUsd",
      "outputs": [
        {
          "internalType": "uint256",
          "name": "",
          "type": "uint256"
        }
      ],
      "stateMutability": "view",
      "type": "function"
    }
  ],
  "transactionHash": "0x8379cabd2b8e9b39d21afd119c02b0c00c1b568256fd0addbd74e3995080c7d3",
  "args": [],
  "numDeployments": 1,
  "solcInputHash": "cf65816a446aad3e8658e98fd5e0ee94",
  "bytecode": "0x608060405234801561001057600080fd5b5060016000806101000a81548160ff0219169083151502179055506124cb8061003a6000396000f3fe608060405234801561001057600080fd5b506004361061010b5760003560e01c80639931e256116100a2578063d78d169211610071578063d78d16921461031a578063dba4e10714610336578063e21f0b5514610366578063f4f11d5f14610396578063fe6bcd7c146103c65761010b565b80639931e2561461026c578063b53305dc1461029c578063b8982134146102ba578063cc3920d8146102ea5761010b565b806332abcdbe116100de57806332abcdbe146101be578063345d5fb2146101dc5780637b86e42c1461020c57806382a8f94e1461023c5761010b565b80630107e472146101105780631bad665f1461012e5780632a769e661461015e578063312b4f7e1461018e575b600080fd5b6101186103f6565b6040516101259190611b8f565b60405180910390f35b61014860048036038101906101439190611be2565b610486565b6040516101559190611c28565b60405180910390f35b61017860048036038101906101739190611be2565b61049a565b6040516101859190611c5c565b60405180910390f35b6101a860048036038101906101a39190611be2565b6104ae565b6040516101b59190611dde565b60405180910390f35b6101c661063e565b6040516101d39190611b8f565b60405180910390f35b6101f660048036038101906101f19190611be2565b6106cf565b6040516102039190611c5c565b60405180910390f35b61022660048036038101906102219190611be2565b610705565b6040516102339190611c5c565b60405180910390f35b61025660048036038101906102519190611e2c565b610719565b6040516102639190611c5c565b60405180910390f35b61028660048036038101906102819190611be2565b61075a565b6040516102939190611c5c565b60405180910390f35b6102a461076e565b6040516102b19190611b8f565b60405180910390f35b6102d460048036038101906102cf9190611be2565b6107ff565b6040516102e19190611c5c565b60405180910390f35b61030460048036038101906102ff9190611e2c565b610813565b6040516103119190611c5c565b60405180910390f35b610334600480360381019061032f9190611be2565b610829565b005b610350600480360381019061034b9190611be2565b610870565b60405161035d9190611c5c565b60405180910390f35b610380600480360381019061037b9190611be2565b610899565b60405161038d9190611c5c565b60405180910390f35b6103b060048036038101906103ab9190611be2565b6108e4565b6040516103bd9190611f96565b60405180910390f35b6103e060048036038101906103db9190611be2565b610a59565b6040516103ed9190611c28565b60405180910390f35b60606001800180548060200260200160405190810160405280929190818152602001828054801561047c57602002820191906000526020600020905b8160009054906101000a900473ffffffffffffffffffffffffffffffffffffffff1673ffffffffffffffffffffffffffffffffffffffff1681526020019060010190808311610432575b5050505050905090565b6000610493600183610a6d565b9050919050565b60006104a7600183610ac7565b9050919050565b6060600160040160008373ffffffffffffffffffffffffffffffffffffffff1673ffffffffffffffffffffffffffffffffffffffff168152602001908152602001600020805480602002602001604051908101604052809291908181526020016000905b8282101561063357838290600052602060002090600702016040518060e00160405290816000820160009054906101000a900473ffffffffffffffffffffffffffffffffffffffff1673ffffffffffffffffffffffffffffffffffffffff1673ffffffffffffffffffffffffffffffffffffffff1681526020016001820160009054906101000a900473ffffffffffffffffffffffffffffffffffffffff1673ffffffffffffffffffffffffffffffffffffffff1673ffffffffffffffffffffffffffffffffffffffff168152602001600282015481526020016003820154815260200160048201548152602001600582015481526020016006820160009054906101000a900460ff16151515158152505081526020019060010190610512565b505050509050919050565b606060016007018054806020026020016040519081016040528092919081815260200182805480156106c557602002820191906000526020600020905b8160009054906101000a900473ffffffffffffffffffffffffffffffffffffffff1673ffffffffffffffffffffffffffffffffffffffff168152602001906001019080831161067b575b5050505050905090565b60006106dc600183610ac7565b6127106106ea600185610d6c565b6106f49190611fe7565b6106fe9190612058565b9050919050565b6000610712600183610ff6565b9050919050565b6000806000610729600186611433565b915091508181600a61073b91906121bc565b856107469190611fe7565b6107509190612058565b9250505092915050565b6000610767600183610d6c565b9050919050565b606060016006018054806020026020016040519081016040528092919081815260200182805480156107f557602002820191906000526020600020905b8160009054906101000a900473ffffffffffffffffffffffffffffffffffffffff1673ffffffffffffffffffffffffffffffffffffffff16815260200190600101908083116107ab575b5050505050905090565b600061080c60018361159f565b9050919050565b6000610821600183856119dc565b905092915050565b80600160000160006101000a81548173ffffffffffffffffffffffffffffffffffffffff021916908373ffffffffffffffffffffffffffffffffffffffff16021790555050565b600061087d600183610d6c565b610888600184610ac7565b6108929190612207565b9050919050565b60006108a6600183610ac7565b6108b160018461159f565b6108bb9190611fe7565b6127106108c9600185610d6c565b6108d39190611fe7565b6108dd9190612058565b9050919050565b6060600160050160008373ffffffffffffffffffffffffffffffffffffffff1673ffffffffffffffffffffffffffffffffffffffff168152602001908152602001600020805480602002602001604051908101604052809291908181526020016000905b82821015610a4e57838290600052602060002090600602016040518060c00160405290816000820160009054906101000a900473ffffffffffffffffffffffffffffffffffffffff1673ffffffffffffffffffffffffffffffffffffffff1673ffffffffffffffffffffffffffffffffffffffff1681526020016001820160009054906101000a900473ffffffffffffffffffffffffffffffffffffffff1673ffffffffffffffffffffffffffffffffffffffff1673ffffffffffffffffffffffffffffffffffffffff16815260200160028201548152602001600382015481526020016004820154815260200160058201548152505081526020019060010190610948565b505050509050919050565b6000610a66600183611a23565b9050919050565b600080610a7a848461159f565b90506000610a888585610ac7565b90506000610a968686610d6c565b9050806127108385610aa89190611fe7565b610ab29190612058565b610abc9190612207565b935050505092915050565b6000808360040160008473ffffffffffffffffffffffffffffffffffffffff1673ffffffffffffffffffffffffffffffffffffffff168152602001908152602001600020805480602002602001604051908101604052809291908181526020016000905b82821015610c4c57838290600052602060002090600702016040518060e00160405290816000820160009054906101000a900473ffffffffffffffffffffffffffffffffffffffff1673ffffffffffffffffffffffffffffffffffffffff1673ffffffffffffffffffffffffffffffffffffffff1681526020016001820160009054906101000a900473ffffffffffffffffffffffffffffffffffffffff1673ffffffffffffffffffffffffffffffffffffffff1673ffffffffffffffffffffffffffffffffffffffff168152602001600282015481526020016003820154815260200160048201548152602001600582015481526020016006820160009054906101000a900460ff16151515158152505081526020019060010190610b2b565b5050505090506000805b8251811015610d60576000838281518110610c7457610c7361223b565b5b602002602001015190506000816000015173ffffffffffffffffffffffffffffffffffffffff1663313ce5676040518163ffffffff1660e01b8152600401602060405180830381865afa158015610ccf573d6000803e3d6000fd5b505050506040513d601f19601f82011682018060405250810190610cf391906122a3565b90506000610d0a89846040015185600001516119dc565b9050600082600a610d1b91906122d0565b670de0b6b3a764000083610d2f9190611fe7565b610d399190612058565b90508086610d47919061231b565b9550505050508080610d589061234f565b915050610c56565b50809250505092915050565b6000808360050160008473ffffffffffffffffffffffffffffffffffffffff1673ffffffffffffffffffffffffffffffffffffffff168152602001908152602001600020805480602002602001604051908101604052809291908181526020016000905b82821015610ed657838290600052602060002090600602016040518060c00160405290816000820160009054906101000a900473ffffffffffffffffffffffffffffffffffffffff1673ffffffffffffffffffffffffffffffffffffffff1673ffffffffffffffffffffffffffffffffffffffff1681526020016001820160009054906101000a900473ffffffffffffffffffffffffffffffffffffffff1673ffffffffffffffffffffffffffffffffffffffff1673ffffffffffffffffffffffffffffffffffffffff16815260200160028201548152602001600382015481526020016004820154815260200160058201548152505081526020019060010190610dd0565b5050505090506000805b8251811015610fea576000838281518110610efe57610efd61223b565b5b602002602001015190506000816000015173ffffffffffffffffffffffffffffffffffffffff1663313ce5676040518163ffffffff1660e01b8152600401602060405180830381865afa158015610f59573d6000803e3d6000fd5b505050506040513d601f19601f82011682018060405250810190610f7d91906122a3565b90506000610f9489846040015185600001516119dc565b9050600082600a610fa591906122d0565b670de0b6b3a764000083610fb99190611fe7565b610fc39190612058565b90508086610fd1919061231b565b9550505050508080610fe29061234f565b915050610ee0565b50809250505092915050565b6000808360040160008473ffffffffffffffffffffffffffffffffffffffff1673ffffffffffffffffffffffffffffffffffffffff168152602001908152602001600020805480602002602001604051908101604052809291908181526020016000905b8282101561117b57838290600052602060002090600702016040518060e00160405290816000820160009054906101000a900473ffffffffffffffffffffffffffffffffffffffff1673ffffffffffffffffffffffffffffffffffffffff1673ffffffffffffffffffffffffffffffffffffffff1681526020016001820160009054906101000a900473ffffffffffffffffffffffffffffffffffffffff1673ffffffffffffffffffffffffffffffffffffffff1673ffffffffffffffffffffffffffffffffffffffff168152602001600282015481526020016003820154815260200160048201548152602001600582015481526020016006820160009054906101000a900460ff1615151515815250508152602001906001019061105a565b50505050905060008061118e8686610ac7565b905060005b835181101561141b5760008482815181106111b1576111b061223b565b5b602002602001015190506000886002016000836000015173ffffffffffffffffffffffffffffffffffffffff1673ffffffffffffffffffffffffffffffffffffffff1681526020019081526020016000206040518060c00160405290816000820160009054906101000a900473ffffffffffffffffffffffffffffffffffffffff1673ffffffffffffffffffffffffffffffffffffffff1673ffffffffffffffffffffffffffffffffffffffff1681526020016000820160149054906101000a900463ffffffff1663ffffffff1663ffffffff1681526020016000820160189054906101000a900463ffffffff1663ffffffff1663ffffffff16815260200160008201601c9054906101000a900463ffffffff1663ffffffff1663ffffffff1681526020016001820160009054906101000a900463ffffffff1663ffffffff1663ffffffff1681526020016001820160049054906101000a900463ffffffff1663ffffffff1663ffffffff168152505090506000826000015173ffffffffffffffffffffffffffffffffffffffff1663313ce5676040518163ffffffff1660e01b8152600401602060405180830381865afa158015611374573d6000803e3d6000fd5b505050506040513d601f19601f8201168201806040525081019061139891906122a3565b905060006113af8b856040015186600001516119dc565b9050600082600a6113c091906122d0565b670de0b6b3a7640000836113d49190611fe7565b6113de9190612058565b9050836020015163ffffffff16816113f69190611fe7565b88611401919061231b565b9750505050505080806114139061234f565b915050611193565b5080826114289190612058565b935050505092915050565b60008060008460030160008573ffffffffffffffffffffffffffffffffffffffff1673ffffffffffffffffffffffffffffffffffffffff16815260200190815260200160002060009054906101000a900473ffffffffffffffffffffffffffffffffffffffff169050600081905060008173ffffffffffffffffffffffffffffffffffffffff1663feaf968c6040518163ffffffff1660e01b815260040160a060405180830381865afa1580156114ee573d6000803e3d6000fd5b505050506040513d601f19601f82011682018060405250810190611512919061241a565b50505091505060008273ffffffffffffffffffffffffffffffffffffffff1663313ce5676040518163ffffffff1660e01b8152600401602060405180830381865afa158015611565573d6000803e3d6000fd5b505050506040513d601f19601f8201168201806040525081019061158991906122a3565b60ff169050818195509550505050509250929050565b6000808360040160008473ffffffffffffffffffffffffffffffffffffffff1673ffffffffffffffffffffffffffffffffffffffff168152602001908152602001600020805480602002602001604051908101604052809291908181526020016000905b8282101561172457838290600052602060002090600702016040518060e00160405290816000820160009054906101000a900473ffffffffffffffffffffffffffffffffffffffff1673ffffffffffffffffffffffffffffffffffffffff1673ffffffffffffffffffffffffffffffffffffffff1681526020016001820160009054906101000a900473ffffffffffffffffffffffffffffffffffffffff1673ffffffffffffffffffffffffffffffffffffffff1673ffffffffffffffffffffffffffffffffffffffff168152602001600282015481526020016003820154815260200160048201548152602001600582015481526020016006820160009054906101000a900460ff16151515158152505081526020019060010190611603565b5050505090506000806117378686610ac7565b905060005b83518110156119c457600084828151811061175a5761175961223b565b5b602002602001015190506000886002016000836000015173ffffffffffffffffffffffffffffffffffffffff1673ffffffffffffffffffffffffffffffffffffffff1681526020019081526020016000206040518060c00160405290816000820160009054906101000a900473ffffffffffffffffffffffffffffffffffffffff1673ffffffffffffffffffffffffffffffffffffffff1673ffffffffffffffffffffffffffffffffffffffff1681526020016000820160149054906101000a900463ffffffff1663ffffffff1663ffffffff1681526020016000820160189054906101000a900463ffffffff1663ffffffff1663ffffffff16815260200160008201601c9054906101000a900463ffffffff1663ffffffff1663ffffffff1681526020016001820160009054906101000a900463ffffffff1663ffffffff1663ffffffff1681526020016001820160049054906101000a900463ffffffff1663ffffffff1663ffffffff168152505090506000826000015173ffffffffffffffffffffffffffffffffffffffff1663313ce5676040518163ffffffff1660e01b8152600401602060405180830381865afa15801561191d573d6000803e3d6000fd5b505050506040513d601f19601f8201168201806040525081019061194191906122a3565b905060006119588b856040015186600001516119dc565b9050600082600a61196991906122d0565b670de0b6b3a76400008361197d9190611fe7565b6119879190612058565b9050836040015163ffffffff168161199f9190611fe7565b886119aa919061231b565b9750505050505080806119bc9061234f565b91505061173c565b5080826119d19190612058565b935050505092915050565b60008060006119eb8685611433565b91509150600081600a6119fe91906121bc565b8387611a0a9190611fe7565b611a149190612058565b90508093505050509392505050565b600080611a308484610ac7565b90506000611a3e8585610ff6565b90506000611a4c8686610d6c565b905060008114611a7257808284611a639190611fe7565b611a6d9190612058565b611a94565b7fffffffffffffffffffffffffffffffffffffffffffffffffffffffffffffffff5b935050505092915050565b600081519050919050565b600082825260208201905092915050565b6000819050602082019050919050565b600073ffffffffffffffffffffffffffffffffffffffff82169050919050565b6000611af682611acb565b9050919050565b611b0681611aeb565b82525050565b6000611b188383611afd565b60208301905092915050565b6000602082019050919050565b6000611b3c82611a9f565b611b468185611aaa565b9350611b5183611abb565b8060005b83811015611b82578151611b698882611b0c565b9750611b7483611b24565b925050600181019050611b55565b5085935050505092915050565b60006020820190508181036000830152611ba98184611b31565b905092915050565b600080fd5b611bbf81611aeb565b8114611bca57600080fd5b50565b600081359050611bdc81611bb6565b92915050565b600060208284031215611bf857611bf7611bb1565b5b6000611c0684828501611bcd565b91505092915050565b6000819050919050565b611c2281611c0f565b82525050565b6000602082019050611c3d6000830184611c19565b92915050565b6000819050919050565b611c5681611c43565b82525050565b6000602082019050611c716000830184611c4d565b92915050565b600081519050919050565b600082825260208201905092915050565b6000819050602082019050919050565b611cac81611c43565b82525050565b60008115159050919050565b611cc781611cb2565b82525050565b60e082016000820151611ce36000850182611afd565b506020820151611cf66020850182611afd565b506040820151611d096040850182611ca3565b506060820151611d1c6060850182611ca3565b506080820151611d2f6080850182611ca3565b5060a0820151611d4260a0850182611ca3565b5060c0820151611d5560c0850182611cbe565b50505050565b6000611d678383611ccd565b60e08301905092915050565b6000602082019050919050565b6000611d8b82611c77565b611d958185611c82565b9350611da083611c93565b8060005b83811015611dd1578151611db88882611d5b565b9750611dc383611d73565b925050600181019050611da4565b5085935050505092915050565b60006020820190508181036000830152611df88184611d80565b905092915050565b611e0981611c43565b8114611e1457600080fd5b50565b600081359050611e2681611e00565b92915050565b60008060408385031215611e4357611e42611bb1565b5b6000611e5185828601611bcd565b9250506020611e6285828601611e17565b9150509250929050565b600081519050919050565b600082825260208201905092915050565b6000819050602082019050919050565b60c082016000820151611eae6000850182611afd565b506020820151611ec16020850182611afd565b506040820151611ed46040850182611ca3565b506060820151611ee76060850182611ca3565b506080820151611efa6080850182611ca3565b5060a0820151611f0d60a0850182611ca3565b50505050565b6000611f1f8383611e98565b60c08301905092915050565b6000602082019050919050565b6000611f4382611e6c565b611f4d8185611e77565b9350611f5883611e88565b8060005b83811015611f89578151611f708882611f13565b9750611f7b83611f2b565b925050600181019050611f5c565b5085935050505092915050565b60006020820190508181036000830152611fb08184611f38565b905092915050565b7f4e487b7100000000000000000000000000000000000000000000000000000000600052601160045260246000fd5b6000611ff282611c43565b9150611ffd83611c43565b925082820261200b81611c43565b9150828204841483151761202257612021611fb8565b5b5092915050565b7f4e487b7100000000000000000000000000000000000000000000000000000000600052601260045260246000fd5b600061206382611c43565b915061206e83611c43565b92508261207e5761207d612029565b5b828204905092915050565b60008160011c9050919050565b6000808291508390505b60018511156120e0578086048111156120bc576120bb611fb8565b5b60018516156120cb5780820291505b80810290506120d985612089565b94506120a0565b94509492505050565b6000826120f957600190506121b5565b8161210757600090506121b5565b816001811461211d576002811461212757612156565b60019150506121b5565b60ff84111561213957612138611fb8565b5b8360020a9150848211156121505761214f611fb8565b5b506121b5565b5060208310610133831016604e8410600b841016171561218b5782820a90508381111561218657612185611fb8565b5b6121b5565b6121988484846001612096565b925090508184048111156121af576121ae611fb8565b5b81810290505b9392505050565b60006121c782611c43565b91506121d283611c43565b92506121ff7fffffffffffffffffffffffffffffffffffffffffffffffffffffffffffffffff84846120e9565b905092915050565b600061221282611c43565b915061221d83611c43565b925082820390508181111561223557612234611fb8565b5b92915050565b7f4e487b7100000000000000000000000000000000000000000000000000000000600052603260045260246000fd5b600060ff82169050919050565b6122808161226a565b811461228b57600080fd5b50565b60008151905061229d81612277565b92915050565b6000602082840312156122b9576122b8611bb1565b5b60006122c78482850161228e565b91505092915050565b60006122db82611c43565b91506122e68361226a565b92506123137fffffffffffffffffffffffffffffffffffffffffffffffffffffffffffffffff84846120e9565b905092915050565b600061232682611c43565b915061233183611c43565b925082820190508082111561234957612348611fb8565b5b92915050565b600061235a82611c43565b91507fffffffffffffffffffffffffffffffffffffffffffffffffffffffffffffffff820361238c5761238b611fb8565b5b600182019050919050565b600069ffffffffffffffffffff82169050919050565b6123b681612397565b81146123c157600080fd5b50565b6000815190506123d3816123ad565b92915050565b6123e281611c0f565b81146123ed57600080fd5b50565b6000815190506123ff816123d9565b92915050565b60008151905061241481611e00565b92915050565b600080600080600060a0868803121561243657612435611bb1565b5b6000612444888289016123c4565b9550506020612455888289016123f0565b945050604061246688828901612405565b935050606061247788828901612405565b9250506080612488888289016123c4565b915050929550929590935056fea2646970667358221220e75aafb7d01c16ad6ebaf6407cc00f4459bfa54c9e53cff7217db6b98b7482ce64736f6c63430008110033",
  "devdoc": {
    "kind": "dev",
    "methods": {},
    "version": 1
  },
  "userdoc": {
    "kind": "user",
    "methods": {},
    "version": 1
  },
  "storageLayout": {
    "storage": [
      {
        "astId": 1902,
        "contract": "contracts/facets/GetterFacet.sol:GetterFacet",
        "label": "_TRIGGER",
        "offset": 0,
        "slot": "0",
        "type": "t_bool"
      },
      {
        "astId": 4815,
        "contract": "contracts/facets/GetterFacet.sol:GetterFacet",
        "label": "s",
        "offset": 0,
        "slot": "1",
        "type": "t_struct(AppStorage)4214_storage"
      }
    ],
    "types": {
      "t_address": {
        "encoding": "inplace",
        "label": "address",
        "numberOfBytes": "20"
      },
      "t_array(t_address)dyn_storage": {
        "base": "t_address",
        "encoding": "dynamic_array",
        "label": "address[]",
        "numberOfBytes": "32"
      },
      "t_array(t_struct(BorrowedToken)4176_storage)dyn_storage": {
        "base": "t_struct(BorrowedToken)4176_storage",
        "encoding": "dynamic_array",
        "label": "struct BorrowedToken[]",
        "numberOfBytes": "32"
      },
      "t_array(t_struct(SuppliedToken)4163_storage)dyn_storage": {
        "base": "t_struct(SuppliedToken)4163_storage",
        "encoding": "dynamic_array",
        "label": "struct SuppliedToken[]",
        "numberOfBytes": "32"
      },
      "t_bool": {
        "encoding": "inplace",
        "label": "bool",
        "numberOfBytes": "1"
      },
      "t_mapping(t_address,t_address)": {
        "encoding": "mapping",
        "key": "t_address",
        "label": "mapping(address => address)",
        "numberOfBytes": "32",
        "value": "t_address"
      },
      "t_mapping(t_address,t_array(t_struct(BorrowedToken)4176_storage)dyn_storage)": {
        "encoding": "mapping",
        "key": "t_address",
        "label": "mapping(address => struct BorrowedToken[])",
        "numberOfBytes": "32",
        "value": "t_array(t_struct(BorrowedToken)4176_storage)dyn_storage"
      },
      "t_mapping(t_address,t_array(t_struct(SuppliedToken)4163_storage)dyn_storage)": {
        "encoding": "mapping",
        "key": "t_address",
        "label": "mapping(address => struct SuppliedToken[])",
        "numberOfBytes": "32",
        "value": "t_array(t_struct(SuppliedToken)4163_storage)dyn_storage"
      },
      "t_mapping(t_address,t_struct(Token)4148_storage)": {
        "encoding": "mapping",
        "key": "t_address",
        "label": "mapping(address => struct Token)",
        "numberOfBytes": "32",
        "value": "t_struct(Token)4148_storage"
      },
      "t_struct(AppStorage)4214_storage": {
        "encoding": "inplace",
        "label": "struct AppStorage",
        "members": [
          {
            "astId": 4183,
            "contract": "contracts/facets/GetterFacet.sol:GetterFacet",
            "label": "larTokenAddress",
            "offset": 0,
            "slot": "0",
            "type": "t_address"
          },
          {
            "astId": 4186,
            "contract": "contracts/facets/GetterFacet.sol:GetterFacet",
            "label": "supportedTokens",
            "offset": 0,
            "slot": "1",
            "type": "t_array(t_address)dyn_storage"
          },
          {
            "astId": 4191,
            "contract": "contracts/facets/GetterFacet.sol:GetterFacet",
            "label": "addressToToken",
            "offset": 0,
            "slot": "2",
            "type": "t_mapping(t_address,t_struct(Token)4148_storage)"
          },
          {
            "astId": 4195,
            "contract": "contracts/facets/GetterFacet.sol:GetterFacet",
            "label": "tokenToPriceFeed",
            "offset": 0,
            "slot": "3",
            "type": "t_mapping(t_address,t_address)"
          },
          {
            "astId": 4201,
            "contract": "contracts/facets/GetterFacet.sol:GetterFacet",
            "label": "tokensSupplied",
            "offset": 0,
            "slot": "4",
            "type": "t_mapping(t_address,t_array(t_struct(SuppliedToken)4163_storage)dyn_storage)"
          },
          {
            "astId": 4207,
            "contract": "contracts/facets/GetterFacet.sol:GetterFacet",
            "label": "tokensBorrowed",
            "offset": 0,
            "slot": "5",
            "type": "t_mapping(t_address,t_array(t_struct(BorrowedToken)4176_storage)dyn_storage)"
          },
          {
            "astId": 4210,
            "contract": "contracts/facets/GetterFacet.sol:GetterFacet",
            "label": "allSuppliers",
            "offset": 0,
            "slot": "6",
            "type": "t_array(t_address)dyn_storage"
          },
          {
            "astId": 4213,
            "contract": "contracts/facets/GetterFacet.sol:GetterFacet",
            "label": "allBorrowers",
            "offset": 0,
            "slot": "7",
            "type": "t_array(t_address)dyn_storage"
          }
        ],
        "numberOfBytes": "256"
      },
      "t_struct(BorrowedToken)4176_storage": {
        "encoding": "inplace",
        "label": "struct BorrowedToken",
        "members": [
          {
            "astId": 4165,
            "contract": "contracts/facets/GetterFacet.sol:GetterFacet",
            "label": "tokenAddress",
            "offset": 0,
            "slot": "0",
            "type": "t_address"
          },
          {
            "astId": 4167,
            "contract": "contracts/facets/GetterFacet.sol:GetterFacet",
            "label": "borrowerAddress",
            "offset": 0,
            "slot": "1",
            "type": "t_address"
          },
          {
            "astId": 4169,
            "contract": "contracts/facets/GetterFacet.sol:GetterFacet",
            "label": "amountBorrowed",
            "offset": 0,
            "slot": "2",
            "type": "t_uint256"
          },
          {
            "astId": 4171,
            "contract": "contracts/facets/GetterFacet.sol:GetterFacet",
            "label": "startAccumulatingDay",
            "offset": 0,
            "slot": "3",
            "type": "t_uint256"
          },
          {
            "astId": 4173,
            "contract": "contracts/facets/GetterFacet.sol:GetterFacet",
            "label": "borrowedInterest",
            "offset": 0,
            "slot": "4",
            "type": "t_uint256"
          },
          {
            "astId": 4175,
            "contract": "contracts/facets/GetterFacet.sol:GetterFacet",
            "label": "stableRate",
            "offset": 0,
            "slot": "5",
            "type": "t_uint256"
          }
        ],
        "numberOfBytes": "192"
      },
      "t_struct(SuppliedToken)4163_storage": {
        "encoding": "inplace",
        "label": "struct SuppliedToken",
        "members": [
          {
            "astId": 4150,
            "contract": "contracts/facets/GetterFacet.sol:GetterFacet",
            "label": "tokenAddress",
            "offset": 0,
            "slot": "0",
            "type": "t_address"
          },
          {
            "astId": 4152,
            "contract": "contracts/facets/GetterFacet.sol:GetterFacet",
            "label": "supplierAddress",
            "offset": 0,
            "slot": "1",
            "type": "t_address"
          },
          {
            "astId": 4154,
            "contract": "contracts/facets/GetterFacet.sol:GetterFacet",
            "label": "amountSupplied",
            "offset": 0,
            "slot": "2",
            "type": "t_uint256"
          },
          {
            "astId": 4156,
            "contract": "contracts/facets/GetterFacet.sol:GetterFacet",
            "label": "supplyInterest",
            "offset": 0,
            "slot": "3",
            "type": "t_uint256"
          },
          {
            "astId": 4158,
            "contract": "contracts/facets/GetterFacet.sol:GetterFacet",
            "label": "supplyStableRate",
            "offset": 0,
            "slot": "4",
            "type": "t_uint256"
          },
          {
            "astId": 4160,
            "contract": "contracts/facets/GetterFacet.sol:GetterFacet",
            "label": "startAccumulatingDay",
            "offset": 0,
            "slot": "5",
            "type": "t_uint256"
          },
          {
            "astId": 4162,
            "contract": "contracts/facets/GetterFacet.sol:GetterFacet",
            "label": "isCollateral",
            "offset": 0,
            "slot": "6",
            "type": "t_bool"
          }
        ],
        "numberOfBytes": "224"
      },
      "t_struct(Token)4148_storage": {
        "encoding": "inplace",
        "label": "struct Token",
        "members": [
          {
            "astId": 4137,
            "contract": "contracts/facets/GetterFacet.sol:GetterFacet",
            "label": "tokenAddress",
            "offset": 0,
            "slot": "0",
            "type": "t_address"
          },
          {
            "astId": 4139,
            "contract": "contracts/facets/GetterFacet.sol:GetterFacet",
            "label": "liquidationThreshold",
            "offset": 20,
            "slot": "0",
            "type": "t_uint32"
          },
          {
            "astId": 4141,
            "contract": "contracts/facets/GetterFacet.sol:GetterFacet",
            "label": "loanToValue",
            "offset": 24,
            "slot": "0",
            "type": "t_uint32"
          },
          {
            "astId": 4143,
            "contract": "contracts/facets/GetterFacet.sol:GetterFacet",
            "label": "borrowStableRate",
            "offset": 28,
            "slot": "0",
            "type": "t_uint32"
          },
          {
            "astId": 4145,
            "contract": "contracts/facets/GetterFacet.sol:GetterFacet",
            "label": "supplyStableRate",
            "offset": 0,
            "slot": "1",
            "type": "t_uint32"
          },
          {
            "astId": 4147,
            "contract": "contracts/facets/GetterFacet.sol:GetterFacet",
            "label": "liquidationPenalty",
            "offset": 4,
            "slot": "1",
            "type": "t_uint32"
          }
        ],
        "numberOfBytes": "64"
      },
      "t_uint256": {
        "encoding": "inplace",
        "label": "uint256",
        "numberOfBytes": "32"
      },
      "t_uint32": {
        "encoding": "inplace",
        "label": "uint32",
        "numberOfBytes": "4"
      }
    }
  }
}