{
  "address": "0xe2804bDDd8C1401abAC0C74467a0B6ED529f50f8",
  "abi": [
    {
      "inputs": [
        {
          "internalType": "address",
          "name": "newTokenAddress",
          "type": "address"
        }
      ],
      "name": "addToState",
      "outputs": [],
      "stateMutability": "nonpayable",
      "type": "function"
    },
    {
      "inputs": [
        {
          "internalType": "address",
          "name": "tokenAddress",
          "type": "address"
        },
        {
          "internalType": "uint256",
          "name": "usdAmount",
          "type": "uint256"
        }
      ],
      "name": "convertUsdToToken",
      "outputs": [
        {
          "internalType": "uint256",
          "name": "",
          "type": "uint256"
        }
      ],
      "stateMutability": "view",
      "type": "function"
    },
    {
      "inputs": [],
      "name": "getAllBorrowers",
      "outputs": [
        {
          "internalType": "address[]",
          "name": "",
          "type": "address[]"
        }
      ],
      "stateMutability": "view",
      "type": "function"
    },
    {
      "inputs": [
        {
          "internalType": "address",
          "name": "user",
          "type": "address"
        }
      ],
      "name": "getAllBorrows",
      "outputs": [
        {
          "components": [
            {
              "internalType": "address",
              "name": "tokenAddress",
              "type": "address"
            },
            {
              "internalType": "address",
              "name": "borrowerAddress",
              "type": "address"
            },
            {
              "internalType": "uint256",
              "name": "amountBorrowed",
              "type": "uint256"
            },
            {
              "internalType": "uint256",
              "name": "startAccumulatingDay",
              "type": "uint256"
            },
            {
              "internalType": "uint256",
              "name": "borrowedInterest",
              "type": "uint256"
            },
            {
              "internalType": "uint256",
              "name": "stableRate",
              "type": "uint256"
            }
          ],
          "internalType": "struct BorrowedToken[]",
          "name": "",
          "type": "tuple[]"
        }
      ],
      "stateMutability": "view",
      "type": "function"
    },
    {
      "inputs": [],
      "name": "getAllSuppliers",
      "outputs": [
        {
          "internalType": "address[]",
          "name": "",
          "type": "address[]"
        }
      ],
      "stateMutability": "view",
      "type": "function"
    },
    {
      "inputs": [
        {
          "internalType": "address",
          "name": "user",
          "type": "address"
        }
      ],
      "name": "getAllSupplies",
      "outputs": [
        {
          "components": [
            {
              "internalType": "address",
              "name": "tokenAddress",
              "type": "address"
            },
            {
              "internalType": "address",
              "name": "supplierAddress",
              "type": "address"
            },
            {
              "internalType": "uint256",
              "name": "amountSupplied",
              "type": "uint256"
            },
            {
              "internalType": "uint256",
              "name": "supplyInterest",
              "type": "uint256"
            },
            {
              "internalType": "uint256",
              "name": "supplyStableRate",
              "type": "uint256"
            },
            {
              "internalType": "uint256",
              "name": "startAccumulatingDay",
              "type": "uint256"
            },
            {
              "internalType": "bool",
              "name": "isCollateral",
              "type": "bool"
            }
          ],
          "internalType": "struct SuppliedToken[]",
          "name": "",
          "type": "tuple[]"
        }
      ],
      "stateMutability": "view",
      "type": "function"
    },
    {
      "inputs": [],
      "name": "getAllSupportedTokens",
      "outputs": [
        {
          "internalType": "address[]",
          "name": "",
          "type": "address[]"
        }
      ],
      "stateMutability": "view",
      "type": "function"
    },
    {
      "inputs": [
        {
          "internalType": "address",
          "name": "user",
          "type": "address"
        }
      ],
      "name": "getBorrowPower",
      "outputs": [
        {
          "internalType": "uint256",
          "name": "",
          "type": "uint256"
        }
      ],
      "stateMutability": "view",
      "type": "function"
    },
    {
      "inputs": [
        {
          "internalType": "address",
          "name": "user",
          "type": "address"
        }
      ],
      "name": "getCurrentLTV",
      "outputs": [
        {
          "internalType": "uint256",
          "name": "",
          "type": "uint256"
        }
      ],
      "stateMutability": "view",
      "type": "function"
    },
    {
      "inputs": [
        {
          "internalType": "address",
          "name": "user",
          "type": "address"
        }
      ],
      "name": "getHealthFactor",
      "outputs": [
        {
          "internalType": "int256",
          "name": "",
          "type": "int256"
        }
      ],
      "stateMutability": "view",
      "type": "function"
    },
    {
      "inputs": [
        {
          "internalType": "address",
          "name": "user",
          "type": "address"
        }
      ],
      "name": "getLiquidationThreshold",
      "outputs": [
        {
          "internalType": "uint256",
          "name": "",
          "type": "uint256"
        }
      ],
      "stateMutability": "view",
      "type": "function"
    },
    {
      "inputs": [
        {
          "internalType": "address",
          "name": "user",
          "type": "address"
        }
      ],
      "name": "getMaxAvailableToBorrowInUsd",
      "outputs": [
        {
          "internalType": "int256",
          "name": "",
          "type": "int256"
        }
      ],
      "stateMutability": "view",
      "type": "function"
    },
    {
      "inputs": [
        {
          "internalType": "address",
          "name": "user",
          "type": "address"
        }
      ],
      "name": "getMaxLTV",
      "outputs": [
        {
          "internalType": "uint256",
          "name": "",
          "type": "uint256"
        }
      ],
      "stateMutability": "view",
      "type": "function"
    },
    {
      "inputs": [
        {
          "internalType": "address",
          "name": "user",
          "type": "address"
        }
      ],
      "name": "getNetworth",
      "outputs": [
        {
          "internalType": "uint256",
          "name": "",
          "type": "uint256"
        }
      ],
      "stateMutability": "view",
      "type": "function"
    },
    {
      "inputs": [
        {
          "internalType": "address",
          "name": "tokenAddress",
          "type": "address"
        },
        {
          "internalType": "uint256",
          "name": "tokenAmount",
          "type": "uint256"
        }
      ],
      "name": "getUsdEquivalence",
      "outputs": [
        {
          "internalType": "uint256",
          "name": "",
          "type": "uint256"
        }
      ],
      "stateMutability": "view",
      "type": "function"
    },
    {
      "inputs": [
        {
          "internalType": "address",
          "name": "user",
          "type": "address"
        }
      ],
      "name": "getUserTotalBorrowedInUsd",
      "outputs": [
        {
          "internalType": "uint256",
          "name": "",
          "type": "uint256"
        }
      ],
      "stateMutability": "view",
      "type": "function"
    },
    {
      "inputs": [
        {
          "internalType": "address",
          "name": "user",
          "type": "address"
        }
      ],
      "name": "getUserTotalCollateralInUsd",
      "outputs": [
        {
          "internalType": "uint256",
          "name": "",
          "type": "uint256"
        }
      ],
      "stateMutability": "view",
      "type": "function"
    }
  ],
  "transactionHash": "0xb212471ae176321bc133410911820636d9fedfac646b441a89f5ad0c3024d4b0",
  "args": [],
  "numDeployments": 1,
  "solcInputHash": "75fdbab3f97c25afc930f569c413aee9",
  "bytecode": "0x608060405234801561001057600080fd5b5060016000806101000a81548160ff0219169083151502179055506121e08061003a6000396000f3fe608060405234801561001057600080fd5b506004361061010b5760003560e01c80639931e256116100a2578063d78d169211610071578063d78d16921461031a578063dba4e10714610336578063e21f0b5514610366578063f4f11d5f14610396578063fe6bcd7c146103c65761010b565b80639931e2561461026c578063b53305dc1461029c578063b8982134146102ba578063cc3920d8146102ea5761010b565b806332abcdbe116100de57806332abcdbe146101be578063345d5fb2146101dc5780637b86e42c1461020c57806382a8f94e1461023c5761010b565b80630107e472146101105780631bad665f1461012e5780632a769e661461015e578063312b4f7e1461018e575b600080fd5b6101186103f6565b60405161012591906118ef565b60405180910390f35b61014860048036038101906101439190611942565b610486565b6040516101559190611988565b60405180910390f35b61017860048036038101906101739190611942565b61049a565b60405161018591906119bc565b60405180910390f35b6101a860048036038101906101a39190611942565b6104ae565b6040516101b59190611b3e565b60405180910390f35b6101c661063e565b6040516101d391906118ef565b60405180910390f35b6101f660048036038101906101f19190611942565b6106cf565b60405161020391906119bc565b60405180910390f35b61022660048036038101906102219190611942565b610705565b60405161023391906119bc565b60405180910390f35b61025660048036038101906102519190611b8c565b610719565b60405161026391906119bc565b60405180910390f35b61028660048036038101906102819190611942565b61075a565b60405161029391906119bc565b60405180910390f35b6102a461076e565b6040516102b191906118ef565b60405180910390f35b6102d460048036038101906102cf9190611942565b6107ff565b6040516102e191906119bc565b60405180910390f35b61030460048036038101906102ff9190611b8c565b610813565b60405161031191906119bc565b60405180910390f35b610334600480360381019061032f9190611942565b610829565b005b610350600480360381019061034b9190611942565b610870565b60405161035d91906119bc565b60405180910390f35b610380600480360381019061037b9190611942565b610899565b60405161038d91906119bc565b60405180910390f35b6103b060048036038101906103ab9190611942565b6108e4565b6040516103bd9190611cf6565b60405180910390f35b6103e060048036038101906103db9190611942565b610a59565b6040516103ed9190611988565b60405180910390f35b60606001800180548060200260200160405190810160405280929190818152602001828054801561047c57602002820191906000526020600020905b8160009054906101000a900473ffffffffffffffffffffffffffffffffffffffff1673ffffffffffffffffffffffffffffffffffffffff1681526020019060010190808311610432575b5050505050905090565b6000610493600183610a6d565b9050919050565b60006104a7600183610ac7565b9050919050565b6060600160040160008373ffffffffffffffffffffffffffffffffffffffff1673ffffffffffffffffffffffffffffffffffffffff168152602001908152602001600020805480602002602001604051908101604052809291908181526020016000905b8282101561063357838290600052602060002090600702016040518060e00160405290816000820160009054906101000a900473ffffffffffffffffffffffffffffffffffffffff1673ffffffffffffffffffffffffffffffffffffffff1673ffffffffffffffffffffffffffffffffffffffff1681526020016001820160009054906101000a900473ffffffffffffffffffffffffffffffffffffffff1673ffffffffffffffffffffffffffffffffffffffff1673ffffffffffffffffffffffffffffffffffffffff168152602001600282015481526020016003820154815260200160048201548152602001600582015481526020016006820160009054906101000a900460ff16151515158152505081526020019060010190610512565b505050509050919050565b606060016007018054806020026020016040519081016040528092919081815260200182805480156106c557602002820191906000526020600020905b8160009054906101000a900473ffffffffffffffffffffffffffffffffffffffff1673ffffffffffffffffffffffffffffffffffffffff168152602001906001019080831161067b575b5050505050905090565b60006106dc600183610ac7565b6127106106ea600185610cc4565b6106f49190611d47565b6106fe9190611db8565b9050919050565b6000610712600183610ea6565b9050919050565b600080600061072960018661123b565b915091508181600a61073b9190611f1c565b856107469190611d47565b6107509190611db8565b9250505092915050565b6000610767600183610cc4565b9050919050565b606060016006018054806020026020016040519081016040528092919081815260200182805480156107f557602002820191906000526020600020905b8160009054906101000a900473ffffffffffffffffffffffffffffffffffffffff1673ffffffffffffffffffffffffffffffffffffffff16815260200190600101908083116107ab575b5050505050905090565b600061080c6001836113a7565b9050919050565b60006108216001838561173c565b905092915050565b80600160000160006101000a81548173ffffffffffffffffffffffffffffffffffffffff021916908373ffffffffffffffffffffffffffffffffffffffff16021790555050565b600061087d600183610cc4565b610888600184610ac7565b6108929190611f67565b9050919050565b60006108a6600183610ac7565b6108b16001846113a7565b6108bb9190611d47565b6127106108c9600185610cc4565b6108d39190611d47565b6108dd9190611db8565b9050919050565b6060600160050160008373ffffffffffffffffffffffffffffffffffffffff1673ffffffffffffffffffffffffffffffffffffffff168152602001908152602001600020805480602002602001604051908101604052809291908181526020016000905b82821015610a4e57838290600052602060002090600602016040518060c00160405290816000820160009054906101000a900473ffffffffffffffffffffffffffffffffffffffff1673ffffffffffffffffffffffffffffffffffffffff1673ffffffffffffffffffffffffffffffffffffffff1681526020016001820160009054906101000a900473ffffffffffffffffffffffffffffffffffffffff1673ffffffffffffffffffffffffffffffffffffffff1673ffffffffffffffffffffffffffffffffffffffff16815260200160028201548152602001600382015481526020016004820154815260200160058201548152505081526020019060010190610948565b505050509050919050565b6000610a66600183611783565b9050919050565b600080610a7a84846113a7565b90506000610a888585610ac7565b90506000610a968686610cc4565b9050806127108385610aa89190611d47565b610ab29190611db8565b610abc9190611f67565b935050505092915050565b6000808360040160008473ffffffffffffffffffffffffffffffffffffffff1673ffffffffffffffffffffffffffffffffffffffff168152602001908152602001600020805480602002602001604051908101604052809291908181526020016000905b82821015610c4c57838290600052602060002090600702016040518060e00160405290816000820160009054906101000a900473ffffffffffffffffffffffffffffffffffffffff1673ffffffffffffffffffffffffffffffffffffffff1673ffffffffffffffffffffffffffffffffffffffff1681526020016001820160009054906101000a900473ffffffffffffffffffffffffffffffffffffffff1673ffffffffffffffffffffffffffffffffffffffff1673ffffffffffffffffffffffffffffffffffffffff168152602001600282015481526020016003820154815260200160048201548152602001600582015481526020016006820160009054906101000a900460ff16151515158152505081526020019060010190610b2b565b5050505090506000805b8251811015610cb8576000838281518110610c7457610c73611f9b565b5b602002602001015190506000610c93888360400151846000015161173c565b90508084610ca19190611fca565b935050508080610cb090611ffe565b915050610c56565b50809250505092915050565b6000808360050160008473ffffffffffffffffffffffffffffffffffffffff1673ffffffffffffffffffffffffffffffffffffffff168152602001908152602001600020805480602002602001604051908101604052809291908181526020016000905b82821015610e2e57838290600052602060002090600602016040518060c00160405290816000820160009054906101000a900473ffffffffffffffffffffffffffffffffffffffff1673ffffffffffffffffffffffffffffffffffffffff1673ffffffffffffffffffffffffffffffffffffffff1681526020016001820160009054906101000a900473ffffffffffffffffffffffffffffffffffffffff1673ffffffffffffffffffffffffffffffffffffffff1673ffffffffffffffffffffffffffffffffffffffff16815260200160028201548152602001600382015481526020016004820154815260200160058201548152505081526020019060010190610d28565b5050505090506000805b8251811015610e9a576000838281518110610e5657610e55611f9b565b5b602002602001015190506000610e75888360400151846000015161173c565b90508084610e839190611fca565b935050508080610e9290611ffe565b915050610e38565b50809250505092915050565b6000808360040160008473ffffffffffffffffffffffffffffffffffffffff1673ffffffffffffffffffffffffffffffffffffffff168152602001908152602001600020805480602002602001604051908101604052809291908181526020016000905b8282101561102b57838290600052602060002090600702016040518060e00160405290816000820160009054906101000a900473ffffffffffffffffffffffffffffffffffffffff1673ffffffffffffffffffffffffffffffffffffffff1673ffffffffffffffffffffffffffffffffffffffff1681526020016001820160009054906101000a900473ffffffffffffffffffffffffffffffffffffffff1673ffffffffffffffffffffffffffffffffffffffff1673ffffffffffffffffffffffffffffffffffffffff168152602001600282015481526020016003820154815260200160048201548152602001600582015481526020016006820160009054906101000a900460ff16151515158152505081526020019060010190610f0a565b50505050905060008061103e8686610ac7565b905060005b835181101561122357600084828151811061106157611060611f9b565b5b602002602001015190506000886002016000836000015173ffffffffffffffffffffffffffffffffffffffff1673ffffffffffffffffffffffffffffffffffffffff1681526020019081526020016000206040518060c00160405290816000820160009054906101000a900473ffffffffffffffffffffffffffffffffffffffff1673ffffffffffffffffffffffffffffffffffffffff1673ffffffffffffffffffffffffffffffffffffffff1681526020016000820160149054906101000a900463ffffffff1663ffffffff1663ffffffff1681526020016000820160189054906101000a900463ffffffff1663ffffffff1663ffffffff16815260200160008201601c9054906101000a900463ffffffff1663ffffffff1663ffffffff1681526020016001820160009054906101000a900463ffffffff1663ffffffff1663ffffffff1681526020016001820160049054906101000a900463ffffffff1663ffffffff1663ffffffff1681525050905060006111e88a8460400151856000015161173c565b9050816020015163ffffffff16816112009190611d47565b8661120b9190611fca565b9550505050808061121b90611ffe565b915050611043565b5080826112309190611db8565b935050505092915050565b60008060008460030160008573ffffffffffffffffffffffffffffffffffffffff1673ffffffffffffffffffffffffffffffffffffffff16815260200190815260200160002060009054906101000a900473ffffffffffffffffffffffffffffffffffffffff169050600081905060008173ffffffffffffffffffffffffffffffffffffffff1663feaf968c6040518163ffffffff1660e01b815260040160a060405180830381865afa1580156112f6573d6000803e3d6000fd5b505050506040513d601f19601f8201168201806040525081019061131a91906120c9565b50505091505060008273ffffffffffffffffffffffffffffffffffffffff1663313ce5676040518163ffffffff1660e01b8152600401602060405180830381865afa15801561136d573d6000803e3d6000fd5b505050506040513d601f19601f82011682018060405250810190611391919061217d565b60ff169050818195509550505050509250929050565b6000808360040160008473ffffffffffffffffffffffffffffffffffffffff1673ffffffffffffffffffffffffffffffffffffffff168152602001908152602001600020805480602002602001604051908101604052809291908181526020016000905b8282101561152c57838290600052602060002090600702016040518060e00160405290816000820160009054906101000a900473ffffffffffffffffffffffffffffffffffffffff1673ffffffffffffffffffffffffffffffffffffffff1673ffffffffffffffffffffffffffffffffffffffff1681526020016001820160009054906101000a900473ffffffffffffffffffffffffffffffffffffffff1673ffffffffffffffffffffffffffffffffffffffff1673ffffffffffffffffffffffffffffffffffffffff168152602001600282015481526020016003820154815260200160048201548152602001600582015481526020016006820160009054906101000a900460ff1615151515815250508152602001906001019061140b565b50505050905060008061153f8686610ac7565b905060005b835181101561172457600084828151811061156257611561611f9b565b5b602002602001015190506000886002016000836000015173ffffffffffffffffffffffffffffffffffffffff1673ffffffffffffffffffffffffffffffffffffffff1681526020019081526020016000206040518060c00160405290816000820160009054906101000a900473ffffffffffffffffffffffffffffffffffffffff1673ffffffffffffffffffffffffffffffffffffffff1673ffffffffffffffffffffffffffffffffffffffff1681526020016000820160149054906101000a900463ffffffff1663ffffffff1663ffffffff1681526020016000820160189054906101000a900463ffffffff1663ffffffff1663ffffffff16815260200160008201601c9054906101000a900463ffffffff1663ffffffff1663ffffffff1681526020016001820160009054906101000a900463ffffffff1663ffffffff1663ffffffff1681526020016001820160049054906101000a900463ffffffff1663ffffffff1663ffffffff1681525050905060006116e98a8460400151856000015161173c565b9050816040015163ffffffff16816117019190611d47565b8661170c9190611fca565b9550505050808061171c90611ffe565b915050611544565b5080826117319190611db8565b935050505092915050565b600080600061174b868561123b565b91509150600081600a61175e9190611f1c565b838761176a9190611d47565b6117749190611db8565b90508093505050509392505050565b6000806117908484610ac7565b9050600061179e8585610ea6565b905060006117ac8686610cc4565b9050600081146117d2578082846117c39190611d47565b6117cd9190611db8565b6117f4565b7fffffffffffffffffffffffffffffffffffffffffffffffffffffffffffffffff5b935050505092915050565b600081519050919050565b600082825260208201905092915050565b6000819050602082019050919050565b600073ffffffffffffffffffffffffffffffffffffffff82169050919050565b60006118568261182b565b9050919050565b6118668161184b565b82525050565b6000611878838361185d565b60208301905092915050565b6000602082019050919050565b600061189c826117ff565b6118a6818561180a565b93506118b18361181b565b8060005b838110156118e25781516118c9888261186c565b97506118d483611884565b9250506001810190506118b5565b5085935050505092915050565b600060208201905081810360008301526119098184611891565b905092915050565b600080fd5b61191f8161184b565b811461192a57600080fd5b50565b60008135905061193c81611916565b92915050565b60006020828403121561195857611957611911565b5b60006119668482850161192d565b91505092915050565b6000819050919050565b6119828161196f565b82525050565b600060208201905061199d6000830184611979565b92915050565b6000819050919050565b6119b6816119a3565b82525050565b60006020820190506119d160008301846119ad565b92915050565b600081519050919050565b600082825260208201905092915050565b6000819050602082019050919050565b611a0c816119a3565b82525050565b60008115159050919050565b611a2781611a12565b82525050565b60e082016000820151611a43600085018261185d565b506020820151611a56602085018261185d565b506040820151611a696040850182611a03565b506060820151611a7c6060850182611a03565b506080820151611a8f6080850182611a03565b5060a0820151611aa260a0850182611a03565b5060c0820151611ab560c0850182611a1e565b50505050565b6000611ac78383611a2d565b60e08301905092915050565b6000602082019050919050565b6000611aeb826119d7565b611af581856119e2565b9350611b00836119f3565b8060005b83811015611b31578151611b188882611abb565b9750611b2383611ad3565b925050600181019050611b04565b5085935050505092915050565b60006020820190508181036000830152611b588184611ae0565b905092915050565b611b69816119a3565b8114611b7457600080fd5b50565b600081359050611b8681611b60565b92915050565b60008060408385031215611ba357611ba2611911565b5b6000611bb18582860161192d565b9250506020611bc285828601611b77565b9150509250929050565b600081519050919050565b600082825260208201905092915050565b6000819050602082019050919050565b60c082016000820151611c0e600085018261185d565b506020820151611c21602085018261185d565b506040820151611c346040850182611a03565b506060820151611c476060850182611a03565b506080820151611c5a6080850182611a03565b5060a0820151611c6d60a0850182611a03565b50505050565b6000611c7f8383611bf8565b60c08301905092915050565b6000602082019050919050565b6000611ca382611bcc565b611cad8185611bd7565b9350611cb883611be8565b8060005b83811015611ce9578151611cd08882611c73565b9750611cdb83611c8b565b925050600181019050611cbc565b5085935050505092915050565b60006020820190508181036000830152611d108184611c98565b905092915050565b7f4e487b7100000000000000000000000000000000000000000000000000000000600052601160045260246000fd5b6000611d52826119a3565b9150611d5d836119a3565b9250828202611d6b816119a3565b91508282048414831517611d8257611d81611d18565b5b5092915050565b7f4e487b7100000000000000000000000000000000000000000000000000000000600052601260045260246000fd5b6000611dc3826119a3565b9150611dce836119a3565b925082611dde57611ddd611d89565b5b828204905092915050565b60008160011c9050919050565b6000808291508390505b6001851115611e4057808604811115611e1c57611e1b611d18565b5b6001851615611e2b5780820291505b8081029050611e3985611de9565b9450611e00565b94509492505050565b600082611e595760019050611f15565b81611e675760009050611f15565b8160018114611e7d5760028114611e8757611eb6565b6001915050611f15565b60ff841115611e9957611e98611d18565b5b8360020a915084821115611eb057611eaf611d18565b5b50611f15565b5060208310610133831016604e8410600b8410161715611eeb5782820a905083811115611ee657611ee5611d18565b5b611f15565b611ef88484846001611df6565b92509050818404811115611f0f57611f0e611d18565b5b81810290505b9392505050565b6000611f27826119a3565b9150611f32836119a3565b9250611f5f7fffffffffffffffffffffffffffffffffffffffffffffffffffffffffffffffff8484611e49565b905092915050565b6000611f72826119a3565b9150611f7d836119a3565b9250828203905081811115611f9557611f94611d18565b5b92915050565b7f4e487b7100000000000000000000000000000000000000000000000000000000600052603260045260246000fd5b6000611fd5826119a3565b9150611fe0836119a3565b9250828201905080821115611ff857611ff7611d18565b5b92915050565b6000612009826119a3565b91507fffffffffffffffffffffffffffffffffffffffffffffffffffffffffffffffff820361203b5761203a611d18565b5b600182019050919050565b600069ffffffffffffffffffff82169050919050565b61206581612046565b811461207057600080fd5b50565b6000815190506120828161205c565b92915050565b6120918161196f565b811461209c57600080fd5b50565b6000815190506120ae81612088565b92915050565b6000815190506120c381611b60565b92915050565b600080600080600060a086880312156120e5576120e4611911565b5b60006120f388828901612073565b95505060206121048882890161209f565b9450506040612115888289016120b4565b9350506060612126888289016120b4565b925050608061213788828901612073565b9150509295509295909350565b600060ff82169050919050565b61215a81612144565b811461216557600080fd5b50565b60008151905061217781612151565b92915050565b60006020828403121561219357612192611911565b5b60006121a184828501612168565b9150509291505056fea2646970667358221220d1205d8ba9a2fdd1da410773de6d6427bbc33fcdb633c50975e1bc6953b9f7b164736f6c63430008110033",
  "devdoc": {
    "kind": "dev",
    "methods": {},
    "version": 1
  },
  "userdoc": {
    "kind": "user",
    "methods": {},
    "version": 1
  },
  "storageLayout": {
    "storage": [
      {
        "astId": 1381,
        "contract": "contracts/facets/GetterFacet.sol:GetterFacet",
        "label": "_TRIGGER",
        "offset": 0,
        "slot": "0",
        "type": "t_bool"
      },
      {
        "astId": 3961,
        "contract": "contracts/facets/GetterFacet.sol:GetterFacet",
        "label": "s",
        "offset": 0,
        "slot": "1",
        "type": "t_struct(AppStorage)3448_storage"
      }
    ],
    "types": {
      "t_address": {
        "encoding": "inplace",
        "label": "address",
        "numberOfBytes": "20"
      },
      "t_array(t_address)dyn_storage": {
        "base": "t_address",
        "encoding": "dynamic_array",
        "label": "address[]",
        "numberOfBytes": "32"
      },
      "t_array(t_struct(BorrowedToken)3410_storage)dyn_storage": {
        "base": "t_struct(BorrowedToken)3410_storage",
        "encoding": "dynamic_array",
        "label": "struct BorrowedToken[]",
        "numberOfBytes": "32"
      },
      "t_array(t_struct(SuppliedToken)3397_storage)dyn_storage": {
        "base": "t_struct(SuppliedToken)3397_storage",
        "encoding": "dynamic_array",
        "label": "struct SuppliedToken[]",
        "numberOfBytes": "32"
      },
      "t_bool": {
        "encoding": "inplace",
        "label": "bool",
        "numberOfBytes": "1"
      },
      "t_mapping(t_address,t_address)": {
        "encoding": "mapping",
        "key": "t_address",
        "label": "mapping(address => address)",
        "numberOfBytes": "32",
        "value": "t_address"
      },
      "t_mapping(t_address,t_array(t_struct(BorrowedToken)3410_storage)dyn_storage)": {
        "encoding": "mapping",
        "key": "t_address",
        "label": "mapping(address => struct BorrowedToken[])",
        "numberOfBytes": "32",
        "value": "t_array(t_struct(BorrowedToken)3410_storage)dyn_storage"
      },
      "t_mapping(t_address,t_array(t_struct(SuppliedToken)3397_storage)dyn_storage)": {
        "encoding": "mapping",
        "key": "t_address",
        "label": "mapping(address => struct SuppliedToken[])",
        "numberOfBytes": "32",
        "value": "t_array(t_struct(SuppliedToken)3397_storage)dyn_storage"
      },
      "t_mapping(t_address,t_struct(Token)3382_storage)": {
        "encoding": "mapping",
        "key": "t_address",
        "label": "mapping(address => struct Token)",
        "numberOfBytes": "32",
        "value": "t_struct(Token)3382_storage"
      },
      "t_struct(AppStorage)3448_storage": {
        "encoding": "inplace",
        "label": "struct AppStorage",
        "members": [
          {
            "astId": 3417,
            "contract": "contracts/facets/GetterFacet.sol:GetterFacet",
            "label": "larTokenAddress",
            "offset": 0,
            "slot": "0",
            "type": "t_address"
          },
          {
            "astId": 3420,
            "contract": "contracts/facets/GetterFacet.sol:GetterFacet",
            "label": "supportedTokens",
            "offset": 0,
            "slot": "1",
            "type": "t_array(t_address)dyn_storage"
          },
          {
            "astId": 3425,
            "contract": "contracts/facets/GetterFacet.sol:GetterFacet",
            "label": "addressToToken",
            "offset": 0,
            "slot": "2",
            "type": "t_mapping(t_address,t_struct(Token)3382_storage)"
          },
          {
            "astId": 3429,
            "contract": "contracts/facets/GetterFacet.sol:GetterFacet",
            "label": "tokenToPriceFeed",
            "offset": 0,
            "slot": "3",
            "type": "t_mapping(t_address,t_address)"
          },
          {
            "astId": 3435,
            "contract": "contracts/facets/GetterFacet.sol:GetterFacet",
            "label": "tokensSupplied",
            "offset": 0,
            "slot": "4",
            "type": "t_mapping(t_address,t_array(t_struct(SuppliedToken)3397_storage)dyn_storage)"
          },
          {
            "astId": 3441,
            "contract": "contracts/facets/GetterFacet.sol:GetterFacet",
            "label": "tokensBorrowed",
            "offset": 0,
            "slot": "5",
            "type": "t_mapping(t_address,t_array(t_struct(BorrowedToken)3410_storage)dyn_storage)"
          },
          {
            "astId": 3444,
            "contract": "contracts/facets/GetterFacet.sol:GetterFacet",
            "label": "allSuppliers",
            "offset": 0,
            "slot": "6",
            "type": "t_array(t_address)dyn_storage"
          },
          {
            "astId": 3447,
            "contract": "contracts/facets/GetterFacet.sol:GetterFacet",
            "label": "allBorrowers",
            "offset": 0,
            "slot": "7",
            "type": "t_array(t_address)dyn_storage"
          }
        ],
        "numberOfBytes": "256"
      },
      "t_struct(BorrowedToken)3410_storage": {
        "encoding": "inplace",
        "label": "struct BorrowedToken",
        "members": [
          {
            "astId": 3399,
            "contract": "contracts/facets/GetterFacet.sol:GetterFacet",
            "label": "tokenAddress",
            "offset": 0,
            "slot": "0",
            "type": "t_address"
          },
          {
            "astId": 3401,
            "contract": "contracts/facets/GetterFacet.sol:GetterFacet",
            "label": "borrowerAddress",
            "offset": 0,
            "slot": "1",
            "type": "t_address"
          },
          {
            "astId": 3403,
            "contract": "contracts/facets/GetterFacet.sol:GetterFacet",
            "label": "amountBorrowed",
            "offset": 0,
            "slot": "2",
            "type": "t_uint256"
          },
          {
            "astId": 3405,
            "contract": "contracts/facets/GetterFacet.sol:GetterFacet",
            "label": "startAccumulatingDay",
            "offset": 0,
            "slot": "3",
            "type": "t_uint256"
          },
          {
            "astId": 3407,
            "contract": "contracts/facets/GetterFacet.sol:GetterFacet",
            "label": "borrowedInterest",
            "offset": 0,
            "slot": "4",
            "type": "t_uint256"
          },
          {
            "astId": 3409,
            "contract": "contracts/facets/GetterFacet.sol:GetterFacet",
            "label": "stableRate",
            "offset": 0,
            "slot": "5",
            "type": "t_uint256"
          }
        ],
        "numberOfBytes": "192"
      },
      "t_struct(SuppliedToken)3397_storage": {
        "encoding": "inplace",
        "label": "struct SuppliedToken",
        "members": [
          {
            "astId": 3384,
            "contract": "contracts/facets/GetterFacet.sol:GetterFacet",
            "label": "tokenAddress",
            "offset": 0,
            "slot": "0",
            "type": "t_address"
          },
          {
            "astId": 3386,
            "contract": "contracts/facets/GetterFacet.sol:GetterFacet",
            "label": "supplierAddress",
            "offset": 0,
            "slot": "1",
            "type": "t_address"
          },
          {
            "astId": 3388,
            "contract": "contracts/facets/GetterFacet.sol:GetterFacet",
            "label": "amountSupplied",
            "offset": 0,
            "slot": "2",
            "type": "t_uint256"
          },
          {
            "astId": 3390,
            "contract": "contracts/facets/GetterFacet.sol:GetterFacet",
            "label": "supplyInterest",
            "offset": 0,
            "slot": "3",
            "type": "t_uint256"
          },
          {
            "astId": 3392,
            "contract": "contracts/facets/GetterFacet.sol:GetterFacet",
            "label": "supplyStableRate",
            "offset": 0,
            "slot": "4",
            "type": "t_uint256"
          },
          {
            "astId": 3394,
            "contract": "contracts/facets/GetterFacet.sol:GetterFacet",
            "label": "startAccumulatingDay",
            "offset": 0,
            "slot": "5",
            "type": "t_uint256"
          },
          {
            "astId": 3396,
            "contract": "contracts/facets/GetterFacet.sol:GetterFacet",
            "label": "isCollateral",
            "offset": 0,
            "slot": "6",
            "type": "t_bool"
          }
        ],
        "numberOfBytes": "224"
      },
      "t_struct(Token)3382_storage": {
        "encoding": "inplace",
        "label": "struct Token",
        "members": [
          {
            "astId": 3371,
            "contract": "contracts/facets/GetterFacet.sol:GetterFacet",
            "label": "tokenAddress",
            "offset": 0,
            "slot": "0",
            "type": "t_address"
          },
          {
            "astId": 3373,
            "contract": "contracts/facets/GetterFacet.sol:GetterFacet",
            "label": "liquidationThreshold",
            "offset": 20,
            "slot": "0",
            "type": "t_uint32"
          },
          {
            "astId": 3375,
            "contract": "contracts/facets/GetterFacet.sol:GetterFacet",
            "label": "loanToValue",
            "offset": 24,
            "slot": "0",
            "type": "t_uint32"
          },
          {
            "astId": 3377,
            "contract": "contracts/facets/GetterFacet.sol:GetterFacet",
            "label": "borrowStableRate",
            "offset": 28,
            "slot": "0",
            "type": "t_uint32"
          },
          {
            "astId": 3379,
            "contract": "contracts/facets/GetterFacet.sol:GetterFacet",
            "label": "supplyStableRate",
            "offset": 0,
            "slot": "1",
            "type": "t_uint32"
          },
          {
            "astId": 3381,
            "contract": "contracts/facets/GetterFacet.sol:GetterFacet",
            "label": "liquidationPenalty",
            "offset": 4,
            "slot": "1",
            "type": "t_uint32"
          }
        ],
        "numberOfBytes": "64"
      },
      "t_uint256": {
        "encoding": "inplace",
        "label": "uint256",
        "numberOfBytes": "32"
      },
      "t_uint32": {
        "encoding": "inplace",
        "label": "uint32",
        "numberOfBytes": "4"
      }
    }
  }
}