{
  "address": "0xEEd3a4E4b30104365BEfFFbe3dC6BA4695AE51e1",
  "abi": [
    {
      "inputs": [
        {
          "internalType": "address",
          "name": "newTokenAddress",
          "type": "address"
        }
      ],
      "name": "addToState",
      "outputs": [],
      "stateMutability": "nonpayable",
      "type": "function"
    },
    {
      "inputs": [
        {
          "internalType": "address",
          "name": "tokenAddress",
          "type": "address"
        },
        {
          "internalType": "uint256",
          "name": "usdAmount",
          "type": "uint256"
        }
      ],
      "name": "convertUsdToToken",
      "outputs": [
        {
          "internalType": "uint256",
          "name": "",
          "type": "uint256"
        }
      ],
      "stateMutability": "view",
      "type": "function"
    },
    {
      "inputs": [],
      "name": "getAllBorrowers",
      "outputs": [
        {
          "internalType": "address[]",
          "name": "",
          "type": "address[]"
        }
      ],
      "stateMutability": "view",
      "type": "function"
    },
    {
      "inputs": [
        {
          "internalType": "address",
          "name": "user",
          "type": "address"
        }
      ],
      "name": "getAllBorrows",
      "outputs": [
        {
          "components": [
            {
              "internalType": "address",
              "name": "tokenAddress",
              "type": "address"
            },
            {
              "internalType": "address",
              "name": "borrowerAddress",
              "type": "address"
            },
            {
              "internalType": "uint256",
              "name": "amountBorrowed",
              "type": "uint256"
            },
            {
              "internalType": "uint256",
              "name": "startAccumulatingDay",
              "type": "uint256"
            },
            {
              "internalType": "uint256",
              "name": "borrowedInterest",
              "type": "uint256"
            },
            {
              "internalType": "uint256",
              "name": "stableRate",
              "type": "uint256"
            }
          ],
          "internalType": "struct BorrowedToken[]",
          "name": "",
          "type": "tuple[]"
        }
      ],
      "stateMutability": "view",
      "type": "function"
    },
    {
      "inputs": [],
      "name": "getAllSuppliers",
      "outputs": [
        {
          "internalType": "address[]",
          "name": "",
          "type": "address[]"
        }
      ],
      "stateMutability": "view",
      "type": "function"
    },
    {
      "inputs": [
        {
          "internalType": "address",
          "name": "user",
          "type": "address"
        }
      ],
      "name": "getAllSupplies",
      "outputs": [
        {
          "components": [
            {
              "internalType": "address",
              "name": "tokenAddress",
              "type": "address"
            },
            {
              "internalType": "address",
              "name": "supplierAddress",
              "type": "address"
            },
            {
              "internalType": "uint256",
              "name": "amountSupplied",
              "type": "uint256"
            },
            {
              "internalType": "uint256",
              "name": "supplyInterest",
              "type": "uint256"
            },
            {
              "internalType": "uint256",
              "name": "supplyStableRate",
              "type": "uint256"
            },
            {
              "internalType": "uint256",
              "name": "startAccumulatingDay",
              "type": "uint256"
            },
            {
              "internalType": "bool",
              "name": "isCollateral",
              "type": "bool"
            }
          ],
          "internalType": "struct SuppliedToken[]",
          "name": "",
          "type": "tuple[]"
        }
      ],
      "stateMutability": "view",
      "type": "function"
    },
    {
      "inputs": [],
      "name": "getAllSupportedTokens",
      "outputs": [
        {
          "internalType": "address[]",
          "name": "",
          "type": "address[]"
        }
      ],
      "stateMutability": "view",
      "type": "function"
    },
    {
      "inputs": [
        {
          "internalType": "address",
          "name": "user",
          "type": "address"
        }
      ],
      "name": "getBorrowPower",
      "outputs": [
        {
          "internalType": "uint256",
          "name": "",
          "type": "uint256"
        }
      ],
      "stateMutability": "view",
      "type": "function"
    },
    {
      "inputs": [
        {
          "internalType": "address",
          "name": "user",
          "type": "address"
        }
      ],
      "name": "getCurrentLTV",
      "outputs": [
        {
          "internalType": "uint256",
          "name": "",
          "type": "uint256"
        }
      ],
      "stateMutability": "view",
      "type": "function"
    },
    {
      "inputs": [
        {
          "internalType": "address",
          "name": "user",
          "type": "address"
        }
      ],
      "name": "getHealthFactor",
      "outputs": [
        {
          "internalType": "int256",
          "name": "",
          "type": "int256"
        }
      ],
      "stateMutability": "view",
      "type": "function"
    },
    {
      "inputs": [
        {
          "internalType": "address",
          "name": "user",
          "type": "address"
        }
      ],
      "name": "getLiquidationThreshold",
      "outputs": [
        {
          "internalType": "uint256",
          "name": "",
          "type": "uint256"
        }
      ],
      "stateMutability": "view",
      "type": "function"
    },
    {
      "inputs": [
        {
          "internalType": "address",
          "name": "user",
          "type": "address"
        }
      ],
      "name": "getMaxAvailableToBorrowInUsd",
      "outputs": [
        {
          "internalType": "int256",
          "name": "",
          "type": "int256"
        }
      ],
      "stateMutability": "view",
      "type": "function"
    },
    {
      "inputs": [
        {
          "internalType": "address",
          "name": "user",
          "type": "address"
        }
      ],
      "name": "getMaxLTV",
      "outputs": [
        {
          "internalType": "uint256",
          "name": "",
          "type": "uint256"
        }
      ],
      "stateMutability": "view",
      "type": "function"
    },
    {
      "inputs": [
        {
          "internalType": "address",
          "name": "user",
          "type": "address"
        }
      ],
      "name": "getNetworth",
      "outputs": [
        {
          "internalType": "uint256",
          "name": "",
          "type": "uint256"
        }
      ],
      "stateMutability": "view",
      "type": "function"
    },
    {
      "inputs": [
        {
          "internalType": "address",
          "name": "tokenAddress",
          "type": "address"
        }
      ],
      "name": "getTokenDetails",
      "outputs": [
        {
          "components": [
            {
              "internalType": "address",
              "name": "tokenAddress",
              "type": "address"
            },
            {
              "internalType": "uint32",
              "name": "liquidationThreshold",
              "type": "uint32"
            },
            {
              "internalType": "uint32",
              "name": "loanToValue",
              "type": "uint32"
            },
            {
              "internalType": "uint32",
              "name": "borrowStableRate",
              "type": "uint32"
            },
            {
              "internalType": "uint32",
              "name": "supplyStableRate",
              "type": "uint32"
            },
            {
              "internalType": "uint32",
              "name": "liquidationPenalty",
              "type": "uint32"
            }
          ],
          "internalType": "struct Token",
          "name": "",
          "type": "tuple"
        }
      ],
      "stateMutability": "view",
      "type": "function"
    },
    {
      "inputs": [
        {
          "internalType": "address",
          "name": "tokenAddress",
          "type": "address"
        }
      ],
      "name": "getTokenTotalBorrowed",
      "outputs": [
        {
          "internalType": "uint256",
          "name": "",
          "type": "uint256"
        }
      ],
      "stateMutability": "view",
      "type": "function"
    },
    {
      "inputs": [
        {
          "internalType": "address",
          "name": "tokenAddress",
          "type": "address"
        }
      ],
      "name": "getTokenTotalSupplied",
      "outputs": [
        {
          "internalType": "uint256",
          "name": "",
          "type": "uint256"
        }
      ],
      "stateMutability": "view",
      "type": "function"
    },
    {
      "inputs": [
        {
          "internalType": "address",
          "name": "tokenAddress",
          "type": "address"
        },
        {
          "internalType": "uint256",
          "name": "tokenAmount",
          "type": "uint256"
        }
      ],
      "name": "getUsdEquivalence",
      "outputs": [
        {
          "internalType": "uint256",
          "name": "",
          "type": "uint256"
        }
      ],
      "stateMutability": "view",
      "type": "function"
    },
    {
      "inputs": [
        {
          "internalType": "address",
          "name": "user",
          "type": "address"
        }
      ],
      "name": "getUserTotalBorrowedInUsd",
      "outputs": [
        {
          "internalType": "uint256",
          "name": "",
          "type": "uint256"
        }
      ],
      "stateMutability": "view",
      "type": "function"
    },
    {
      "inputs": [
        {
          "internalType": "address",
          "name": "user",
          "type": "address"
        }
      ],
      "name": "getUserTotalCollateralInUsd",
      "outputs": [
        {
          "internalType": "uint256",
          "name": "",
          "type": "uint256"
        }
      ],
      "stateMutability": "view",
      "type": "function"
    }
  ],
  "transactionHash": "0x8d2f5c2fba6e2fe312ca489ca67cef36a9df3621b0e8dc3e455829d2917de059",
  "args": [],
  "numDeployments": 1,
  "solcInputHash": "35f081c9444daf6d8a5a784419fcabdb",
  "bytecode": "0x608060405234801561001057600080fd5b5060016000806101000a81548160ff0219169083151502179055506128a38061003a6000396000f3fe608060405234801561001057600080fd5b506004361061012c5760003560e01c8063b53305dc116100ad578063dba4e10711610071578063dba4e107146103b7578063ddd3b51a146103e7578063e21f0b5514610417578063f4f11d5f14610447578063fe6bcd7c146104775761012c565b8063b53305dc146102ed578063b89821341461030b578063c3d0dc7a1461033b578063cc3920d81461036b578063d78d16921461039b5761012c565b8063345d5fb2116100f4578063345d5fb2146101fd5780637b86e42c1461022d57806382a8f94e1461025d57806388aa8bee1461028d5780639931e256146102bd5761012c565b80630107e472146101315780631bad665f1461014f5780632a769e661461017f578063312b4f7e146101af57806332abcdbe146101df575b600080fd5b6101396104a7565b6040516101469190611eb2565b60405180910390f35b61016960048036038101906101649190611f05565b610537565b6040516101769190611f4b565b60405180910390f35b61019960048036038101906101949190611f05565b61054b565b6040516101a69190611f7f565b60405180910390f35b6101c960048036038101906101c49190611f05565b61055f565b6040516101d69190612101565b60405180910390f35b6101e76106ef565b6040516101f49190611eb2565b60405180910390f35b61021760048036038101906102129190611f05565b610780565b6040516102249190611f7f565b60405180910390f35b61024760048036038101906102429190611f05565b6107b6565b6040516102549190611f7f565b60405180910390f35b6102776004803603810190610272919061214f565b6107ca565b6040516102849190611f7f565b60405180910390f35b6102a760048036038101906102a29190611f05565b61080b565b6040516102b49190612229565b60405180910390f35b6102d760048036038101906102d29190611f05565b61097b565b6040516102e49190611f7f565b60405180910390f35b6102f561098f565b6040516103029190611eb2565b60405180910390f35b61032560048036038101906103209190611f05565b610a20565b6040516103329190611f7f565b60405180910390f35b61035560048036038101906103509190611f05565b610a34565b6040516103629190611f7f565b60405180910390f35b6103856004803603810190610380919061214f565b610a80565b6040516103929190611f7f565b60405180910390f35b6103b560048036038101906103b09190611f05565b610a96565b005b6103d160048036038101906103cc9190611f05565b610add565b6040516103de9190611f7f565b60405180910390f35b61040160048036038101906103fc9190611f05565b610b06565b60405161040e9190611f7f565b60405180910390f35b610431600480360381019061042c9190611f05565b610b52565b60405161043e9190611f7f565b60405180910390f35b610461600480360381019061045c9190611f05565b610b9d565b60405161046e919061236e565b60405180910390f35b610491600480360381019061048c9190611f05565b610d12565b60405161049e9190611f4b565b60405180910390f35b60606001800180548060200260200160405190810160405280929190818152602001828054801561052d57602002820191906000526020600020905b8160009054906101000a900473ffffffffffffffffffffffffffffffffffffffff1673ffffffffffffffffffffffffffffffffffffffff16815260200190600101908083116104e3575b5050505050905090565b6000610544600183610d26565b9050919050565b6000610558600183610d80565b9050919050565b6060600160040160008373ffffffffffffffffffffffffffffffffffffffff1673ffffffffffffffffffffffffffffffffffffffff168152602001908152602001600020805480602002602001604051908101604052809291908181526020016000905b828210156106e457838290600052602060002090600702016040518060e00160405290816000820160009054906101000a900473ffffffffffffffffffffffffffffffffffffffff1673ffffffffffffffffffffffffffffffffffffffff1673ffffffffffffffffffffffffffffffffffffffff1681526020016001820160009054906101000a900473ffffffffffffffffffffffffffffffffffffffff1673ffffffffffffffffffffffffffffffffffffffff1673ffffffffffffffffffffffffffffffffffffffff168152602001600282015481526020016003820154815260200160048201548152602001600582015481526020016006820160009054906101000a900460ff161515151581525050815260200190600101906105c3565b505050509050919050565b6060600160070180548060200260200160405190810160405280929190818152602001828054801561077657602002820191906000526020600020905b8160009054906101000a900473ffffffffffffffffffffffffffffffffffffffff1673ffffffffffffffffffffffffffffffffffffffff168152602001906001019080831161072c575b5050505050905090565b600061078d600183610d80565b61271061079b600185611025565b6107a591906123bf565b6107af9190612430565b9050919050565b60006107c36001836112af565b9050919050565b60008060006107da6001866116ec565b915091508181600a6107ec9190612594565b856107f791906123bf565b6108019190612430565b9250505092915050565b610813611d58565b600160020160008373ffffffffffffffffffffffffffffffffffffffff1673ffffffffffffffffffffffffffffffffffffffff1681526020019081526020016000206040518060c00160405290816000820160009054906101000a900473ffffffffffffffffffffffffffffffffffffffff1673ffffffffffffffffffffffffffffffffffffffff1673ffffffffffffffffffffffffffffffffffffffff1681526020016000820160149054906101000a900463ffffffff1663ffffffff1663ffffffff1681526020016000820160189054906101000a900463ffffffff1663ffffffff1663ffffffff16815260200160008201601c9054906101000a900463ffffffff1663ffffffff1663ffffffff1681526020016001820160009054906101000a900463ffffffff1663ffffffff1663ffffffff1681526020016001820160049054906101000a900463ffffffff1663ffffffff1663ffffffff16815250509050919050565b6000610988600183611025565b9050919050565b60606001600601805480602002602001604051908101604052809291908181526020018280548015610a1657602002820191906000526020600020905b8160009054906101000a900473ffffffffffffffffffffffffffffffffffffffff1673ffffffffffffffffffffffffffffffffffffffff16815260200190600101908083116109cc575b5050505050905090565b6000610a2d600183611858565b9050919050565b6000600160080160008373ffffffffffffffffffffffffffffffffffffffff1673ffffffffffffffffffffffffffffffffffffffff168152602001908152602001600020549050919050565b6000610a8e60018385611c95565b905092915050565b80600160000160006101000a81548173ffffffffffffffffffffffffffffffffffffffff021916908373ffffffffffffffffffffffffffffffffffffffff16021790555050565b6000610aea600183611025565b610af5600184610d80565b610aff91906125df565b9050919050565b6000600160090160008373ffffffffffffffffffffffffffffffffffffffff1673ffffffffffffffffffffffffffffffffffffffff168152602001908152602001600020549050919050565b6000610b5f600183610d80565b610b6a600184611858565b610b7491906123bf565b612710610b82600185611025565b610b8c91906123bf565b610b969190612430565b9050919050565b6060600160050160008373ffffffffffffffffffffffffffffffffffffffff1673ffffffffffffffffffffffffffffffffffffffff168152602001908152602001600020805480602002602001604051908101604052809291908181526020016000905b82821015610d0757838290600052602060002090600602016040518060c00160405290816000820160009054906101000a900473ffffffffffffffffffffffffffffffffffffffff1673ffffffffffffffffffffffffffffffffffffffff1673ffffffffffffffffffffffffffffffffffffffff1681526020016001820160009054906101000a900473ffffffffffffffffffffffffffffffffffffffff1673ffffffffffffffffffffffffffffffffffffffff1673ffffffffffffffffffffffffffffffffffffffff16815260200160028201548152602001600382015481526020016004820154815260200160058201548152505081526020019060010190610c01565b505050509050919050565b6000610d1f600183611cdc565b9050919050565b600080610d338484611858565b90506000610d418585610d80565b90506000610d4f8686611025565b9050806127108385610d6191906123bf565b610d6b9190612430565b610d7591906125df565b935050505092915050565b6000808360040160008473ffffffffffffffffffffffffffffffffffffffff1673ffffffffffffffffffffffffffffffffffffffff168152602001908152602001600020805480602002602001604051908101604052809291908181526020016000905b82821015610f0557838290600052602060002090600702016040518060e00160405290816000820160009054906101000a900473ffffffffffffffffffffffffffffffffffffffff1673ffffffffffffffffffffffffffffffffffffffff1673ffffffffffffffffffffffffffffffffffffffff1681526020016001820160009054906101000a900473ffffffffffffffffffffffffffffffffffffffff1673ffffffffffffffffffffffffffffffffffffffff1673ffffffffffffffffffffffffffffffffffffffff168152602001600282015481526020016003820154815260200160048201548152602001600582015481526020016006820160009054906101000a900460ff16151515158152505081526020019060010190610de4565b5050505090506000805b8251811015611019576000838281518110610f2d57610f2c612613565b5b602002602001015190506000816000015173ffffffffffffffffffffffffffffffffffffffff1663313ce5676040518163ffffffff1660e01b8152600401602060405180830381865afa158015610f88573d6000803e3d6000fd5b505050506040513d601f19601f82011682018060405250810190610fac919061267b565b90506000610fc38984604001518560000151611c95565b9050600082600a610fd491906126a8565b670de0b6b3a764000083610fe891906123bf565b610ff29190612430565b9050808661100091906126f3565b955050505050808061101190612727565b915050610f0f565b50809250505092915050565b6000808360050160008473ffffffffffffffffffffffffffffffffffffffff1673ffffffffffffffffffffffffffffffffffffffff168152602001908152602001600020805480602002602001604051908101604052809291908181526020016000905b8282101561118f57838290600052602060002090600602016040518060c00160405290816000820160009054906101000a900473ffffffffffffffffffffffffffffffffffffffff1673ffffffffffffffffffffffffffffffffffffffff1673ffffffffffffffffffffffffffffffffffffffff1681526020016001820160009054906101000a900473ffffffffffffffffffffffffffffffffffffffff1673ffffffffffffffffffffffffffffffffffffffff1673ffffffffffffffffffffffffffffffffffffffff16815260200160028201548152602001600382015481526020016004820154815260200160058201548152505081526020019060010190611089565b5050505090506000805b82518110156112a35760008382815181106111b7576111b6612613565b5b602002602001015190506000816000015173ffffffffffffffffffffffffffffffffffffffff1663313ce5676040518163ffffffff1660e01b8152600401602060405180830381865afa158015611212573d6000803e3d6000fd5b505050506040513d601f19601f82011682018060405250810190611236919061267b565b9050600061124d8984604001518560000151611c95565b9050600082600a61125e91906126a8565b670de0b6b3a76400008361127291906123bf565b61127c9190612430565b9050808661128a91906126f3565b955050505050808061129b90612727565b915050611199565b50809250505092915050565b6000808360040160008473ffffffffffffffffffffffffffffffffffffffff1673ffffffffffffffffffffffffffffffffffffffff168152602001908152602001600020805480602002602001604051908101604052809291908181526020016000905b8282101561143457838290600052602060002090600702016040518060e00160405290816000820160009054906101000a900473ffffffffffffffffffffffffffffffffffffffff1673ffffffffffffffffffffffffffffffffffffffff1673ffffffffffffffffffffffffffffffffffffffff1681526020016001820160009054906101000a900473ffffffffffffffffffffffffffffffffffffffff1673ffffffffffffffffffffffffffffffffffffffff1673ffffffffffffffffffffffffffffffffffffffff168152602001600282015481526020016003820154815260200160048201548152602001600582015481526020016006820160009054906101000a900460ff16151515158152505081526020019060010190611313565b5050505090506000806114478686610d80565b905060005b83518110156116d457600084828151811061146a57611469612613565b5b602002602001015190506000886002016000836000015173ffffffffffffffffffffffffffffffffffffffff1673ffffffffffffffffffffffffffffffffffffffff1681526020019081526020016000206040518060c00160405290816000820160009054906101000a900473ffffffffffffffffffffffffffffffffffffffff1673ffffffffffffffffffffffffffffffffffffffff1673ffffffffffffffffffffffffffffffffffffffff1681526020016000820160149054906101000a900463ffffffff1663ffffffff1663ffffffff1681526020016000820160189054906101000a900463ffffffff1663ffffffff1663ffffffff16815260200160008201601c9054906101000a900463ffffffff1663ffffffff1663ffffffff1681526020016001820160009054906101000a900463ffffffff1663ffffffff1663ffffffff1681526020016001820160049054906101000a900463ffffffff1663ffffffff1663ffffffff168152505090506000826000015173ffffffffffffffffffffffffffffffffffffffff1663313ce5676040518163ffffffff1660e01b8152600401602060405180830381865afa15801561162d573d6000803e3d6000fd5b505050506040513d601f19601f82011682018060405250810190611651919061267b565b905060006116688b85604001518660000151611c95565b9050600082600a61167991906126a8565b670de0b6b3a76400008361168d91906123bf565b6116979190612430565b9050836020015163ffffffff16816116af91906123bf565b886116ba91906126f3565b9750505050505080806116cc90612727565b91505061144c565b5080826116e19190612430565b935050505092915050565b60008060008460030160008573ffffffffffffffffffffffffffffffffffffffff1673ffffffffffffffffffffffffffffffffffffffff16815260200190815260200160002060009054906101000a900473ffffffffffffffffffffffffffffffffffffffff169050600081905060008173ffffffffffffffffffffffffffffffffffffffff1663feaf968c6040518163ffffffff1660e01b815260040160a060405180830381865afa1580156117a7573d6000803e3d6000fd5b505050506040513d601f19601f820116820180604052508101906117cb91906127f2565b50505091505060008273ffffffffffffffffffffffffffffffffffffffff1663313ce5676040518163ffffffff1660e01b8152600401602060405180830381865afa15801561181e573d6000803e3d6000fd5b505050506040513d601f19601f82011682018060405250810190611842919061267b565b60ff169050818195509550505050509250929050565b6000808360040160008473ffffffffffffffffffffffffffffffffffffffff1673ffffffffffffffffffffffffffffffffffffffff168152602001908152602001600020805480602002602001604051908101604052809291908181526020016000905b828210156119dd57838290600052602060002090600702016040518060e00160405290816000820160009054906101000a900473ffffffffffffffffffffffffffffffffffffffff1673ffffffffffffffffffffffffffffffffffffffff1673ffffffffffffffffffffffffffffffffffffffff1681526020016001820160009054906101000a900473ffffffffffffffffffffffffffffffffffffffff1673ffffffffffffffffffffffffffffffffffffffff1673ffffffffffffffffffffffffffffffffffffffff168152602001600282015481526020016003820154815260200160048201548152602001600582015481526020016006820160009054906101000a900460ff161515151581525050815260200190600101906118bc565b5050505090506000806119f08686610d80565b905060005b8351811015611c7d576000848281518110611a1357611a12612613565b5b602002602001015190506000886002016000836000015173ffffffffffffffffffffffffffffffffffffffff1673ffffffffffffffffffffffffffffffffffffffff1681526020019081526020016000206040518060c00160405290816000820160009054906101000a900473ffffffffffffffffffffffffffffffffffffffff1673ffffffffffffffffffffffffffffffffffffffff1673ffffffffffffffffffffffffffffffffffffffff1681526020016000820160149054906101000a900463ffffffff1663ffffffff1663ffffffff1681526020016000820160189054906101000a900463ffffffff1663ffffffff1663ffffffff16815260200160008201601c9054906101000a900463ffffffff1663ffffffff1663ffffffff1681526020016001820160009054906101000a900463ffffffff1663ffffffff1663ffffffff1681526020016001820160049054906101000a900463ffffffff1663ffffffff1663ffffffff168152505090506000826000015173ffffffffffffffffffffffffffffffffffffffff1663313ce5676040518163ffffffff1660e01b8152600401602060405180830381865afa158015611bd6573d6000803e3d6000fd5b505050506040513d601f19601f82011682018060405250810190611bfa919061267b565b90506000611c118b85604001518660000151611c95565b9050600082600a611c2291906126a8565b670de0b6b3a764000083611c3691906123bf565b611c409190612430565b9050836040015163ffffffff1681611c5891906123bf565b88611c6391906126f3565b975050505050508080611c7590612727565b9150506119f5565b508082611c8a9190612430565b935050505092915050565b6000806000611ca486856116ec565b91509150600081600a611cb79190612594565b8387611cc391906123bf565b611ccd9190612430565b90508093505050509392505050565b600080611ce98484610d80565b90506000611cf785856112af565b90506000611d058686611025565b905060008114611d2b57808284611d1c91906123bf565b611d269190612430565b611d4d565b7fffffffffffffffffffffffffffffffffffffffffffffffffffffffffffffffff5b935050505092915050565b6040518060c00160405280600073ffffffffffffffffffffffffffffffffffffffff168152602001600063ffffffff168152602001600063ffffffff168152602001600063ffffffff168152602001600063ffffffff168152602001600063ffffffff1681525090565b600081519050919050565b600082825260208201905092915050565b6000819050602082019050919050565b600073ffffffffffffffffffffffffffffffffffffffff82169050919050565b6000611e1982611dee565b9050919050565b611e2981611e0e565b82525050565b6000611e3b8383611e20565b60208301905092915050565b6000602082019050919050565b6000611e5f82611dc2565b611e698185611dcd565b9350611e7483611dde565b8060005b83811015611ea5578151611e8c8882611e2f565b9750611e9783611e47565b925050600181019050611e78565b5085935050505092915050565b60006020820190508181036000830152611ecc8184611e54565b905092915050565b600080fd5b611ee281611e0e565b8114611eed57600080fd5b50565b600081359050611eff81611ed9565b92915050565b600060208284031215611f1b57611f1a611ed4565b5b6000611f2984828501611ef0565b91505092915050565b6000819050919050565b611f4581611f32565b82525050565b6000602082019050611f606000830184611f3c565b92915050565b6000819050919050565b611f7981611f66565b82525050565b6000602082019050611f946000830184611f70565b92915050565b600081519050919050565b600082825260208201905092915050565b6000819050602082019050919050565b611fcf81611f66565b82525050565b60008115159050919050565b611fea81611fd5565b82525050565b60e0820160008201516120066000850182611e20565b5060208201516120196020850182611e20565b50604082015161202c6040850182611fc6565b50606082015161203f6060850182611fc6565b5060808201516120526080850182611fc6565b5060a082015161206560a0850182611fc6565b5060c082015161207860c0850182611fe1565b50505050565b600061208a8383611ff0565b60e08301905092915050565b6000602082019050919050565b60006120ae82611f9a565b6120b88185611fa5565b93506120c383611fb6565b8060005b838110156120f45781516120db888261207e565b97506120e683612096565b9250506001810190506120c7565b5085935050505092915050565b6000602082019050818103600083015261211b81846120a3565b905092915050565b61212c81611f66565b811461213757600080fd5b50565b60008135905061214981612123565b92915050565b6000806040838503121561216657612165611ed4565b5b600061217485828601611ef0565b92505060206121858582860161213a565b9150509250929050565b600063ffffffff82169050919050565b6121a88161218f565b82525050565b60c0820160008201516121c46000850182611e20565b5060208201516121d7602085018261219f565b5060408201516121ea604085018261219f565b5060608201516121fd606085018261219f565b506080820151612210608085018261219f565b5060a082015161222360a085018261219f565b50505050565b600060c08201905061223e60008301846121ae565b92915050565b600081519050919050565b600082825260208201905092915050565b6000819050602082019050919050565b60c0820160008201516122866000850182611e20565b5060208201516122996020850182611e20565b5060408201516122ac6040850182611fc6565b5060608201516122bf6060850182611fc6565b5060808201516122d26080850182611fc6565b5060a08201516122e560a0850182611fc6565b50505050565b60006122f78383612270565b60c08301905092915050565b6000602082019050919050565b600061231b82612244565b612325818561224f565b935061233083612260565b8060005b8381101561236157815161234888826122eb565b975061235383612303565b925050600181019050612334565b5085935050505092915050565b600060208201905081810360008301526123888184612310565b905092915050565b7f4e487b7100000000000000000000000000000000000000000000000000000000600052601160045260246000fd5b60006123ca82611f66565b91506123d583611f66565b92508282026123e381611f66565b915082820484148315176123fa576123f9612390565b5b5092915050565b7f4e487b7100000000000000000000000000000000000000000000000000000000600052601260045260246000fd5b600061243b82611f66565b915061244683611f66565b92508261245657612455612401565b5b828204905092915050565b60008160011c9050919050565b6000808291508390505b60018511156124b85780860481111561249457612493612390565b5b60018516156124a35780820291505b80810290506124b185612461565b9450612478565b94509492505050565b6000826124d1576001905061258d565b816124df576000905061258d565b81600181146124f557600281146124ff5761252e565b600191505061258d565b60ff84111561251157612510612390565b5b8360020a91508482111561252857612527612390565b5b5061258d565b5060208310610133831016604e8410600b84101617156125635782820a90508381111561255e5761255d612390565b5b61258d565b612570848484600161246e565b9250905081840481111561258757612586612390565b5b81810290505b9392505050565b600061259f82611f66565b91506125aa83611f66565b92506125d77fffffffffffffffffffffffffffffffffffffffffffffffffffffffffffffffff84846124c1565b905092915050565b60006125ea82611f66565b91506125f583611f66565b925082820390508181111561260d5761260c612390565b5b92915050565b7f4e487b7100000000000000000000000000000000000000000000000000000000600052603260045260246000fd5b600060ff82169050919050565b61265881612642565b811461266357600080fd5b50565b6000815190506126758161264f565b92915050565b60006020828403121561269157612690611ed4565b5b600061269f84828501612666565b91505092915050565b60006126b382611f66565b91506126be83612642565b92506126eb7fffffffffffffffffffffffffffffffffffffffffffffffffffffffffffffffff84846124c1565b905092915050565b60006126fe82611f66565b915061270983611f66565b925082820190508082111561272157612720612390565b5b92915050565b600061273282611f66565b91507fffffffffffffffffffffffffffffffffffffffffffffffffffffffffffffffff820361276457612763612390565b5b600182019050919050565b600069ffffffffffffffffffff82169050919050565b61278e8161276f565b811461279957600080fd5b50565b6000815190506127ab81612785565b92915050565b6127ba81611f32565b81146127c557600080fd5b50565b6000815190506127d7816127b1565b92915050565b6000815190506127ec81612123565b92915050565b600080600080600060a0868803121561280e5761280d611ed4565b5b600061281c8882890161279c565b955050602061282d888289016127c8565b945050604061283e888289016127dd565b935050606061284f888289016127dd565b92505060806128608882890161279c565b915050929550929590935056fea26469706673582212209343ececfe8a2b4b68ec908ebfc57ed90e523f8311269d5af99d0f94341a6f6e64736f6c63430008110033",
  "devdoc": {
    "kind": "dev",
    "methods": {},
    "version": 1
  },
  "userdoc": {
    "kind": "user",
    "methods": {},
    "version": 1
  },
  "storageLayout": {
    "storage": [
      {
        "astId": 199,
        "contract": "contracts/facets/GetterFacet.sol:GetterFacet",
        "label": "_TRIGGER",
        "offset": 0,
        "slot": "0",
        "type": "t_bool"
      },
      {
        "astId": 2125,
        "contract": "contracts/facets/GetterFacet.sol:GetterFacet",
        "label": "s",
        "offset": 0,
        "slot": "1",
        "type": "t_struct(AppStorage)1524_storage"
      }
    ],
    "types": {
      "t_address": {
        "encoding": "inplace",
        "label": "address",
        "numberOfBytes": "20"
      },
      "t_array(t_address)dyn_storage": {
        "base": "t_address",
        "encoding": "dynamic_array",
        "label": "address[]",
        "numberOfBytes": "32"
      },
      "t_array(t_struct(BorrowedToken)1478_storage)dyn_storage": {
        "base": "t_struct(BorrowedToken)1478_storage",
        "encoding": "dynamic_array",
        "label": "struct BorrowedToken[]",
        "numberOfBytes": "32"
      },
      "t_array(t_struct(SuppliedToken)1465_storage)dyn_storage": {
        "base": "t_struct(SuppliedToken)1465_storage",
        "encoding": "dynamic_array",
        "label": "struct SuppliedToken[]",
        "numberOfBytes": "32"
      },
      "t_bool": {
        "encoding": "inplace",
        "label": "bool",
        "numberOfBytes": "1"
      },
      "t_mapping(t_address,t_address)": {
        "encoding": "mapping",
        "key": "t_address",
        "label": "mapping(address => address)",
        "numberOfBytes": "32",
        "value": "t_address"
      },
      "t_mapping(t_address,t_array(t_struct(BorrowedToken)1478_storage)dyn_storage)": {
        "encoding": "mapping",
        "key": "t_address",
        "label": "mapping(address => struct BorrowedToken[])",
        "numberOfBytes": "32",
        "value": "t_array(t_struct(BorrowedToken)1478_storage)dyn_storage"
      },
      "t_mapping(t_address,t_array(t_struct(SuppliedToken)1465_storage)dyn_storage)": {
        "encoding": "mapping",
        "key": "t_address",
        "label": "mapping(address => struct SuppliedToken[])",
        "numberOfBytes": "32",
        "value": "t_array(t_struct(SuppliedToken)1465_storage)dyn_storage"
      },
      "t_mapping(t_address,t_struct(Token)1450_storage)": {
        "encoding": "mapping",
        "key": "t_address",
        "label": "mapping(address => struct Token)",
        "numberOfBytes": "32",
        "value": "t_struct(Token)1450_storage"
      },
      "t_mapping(t_address,t_uint256)": {
        "encoding": "mapping",
        "key": "t_address",
        "label": "mapping(address => uint256)",
        "numberOfBytes": "32",
        "value": "t_uint256"
      },
      "t_struct(AppStorage)1524_storage": {
        "encoding": "inplace",
        "label": "struct AppStorage",
        "members": [
          {
            "astId": 1485,
            "contract": "contracts/facets/GetterFacet.sol:GetterFacet",
            "label": "larTokenAddress",
            "offset": 0,
            "slot": "0",
            "type": "t_address"
          },
          {
            "astId": 1488,
            "contract": "contracts/facets/GetterFacet.sol:GetterFacet",
            "label": "supportedTokens",
            "offset": 0,
            "slot": "1",
            "type": "t_array(t_address)dyn_storage"
          },
          {
            "astId": 1493,
            "contract": "contracts/facets/GetterFacet.sol:GetterFacet",
            "label": "addressToToken",
            "offset": 0,
            "slot": "2",
            "type": "t_mapping(t_address,t_struct(Token)1450_storage)"
          },
          {
            "astId": 1497,
            "contract": "contracts/facets/GetterFacet.sol:GetterFacet",
            "label": "tokenToPriceFeed",
            "offset": 0,
            "slot": "3",
            "type": "t_mapping(t_address,t_address)"
          },
          {
            "astId": 1503,
            "contract": "contracts/facets/GetterFacet.sol:GetterFacet",
            "label": "tokensSupplied",
            "offset": 0,
            "slot": "4",
            "type": "t_mapping(t_address,t_array(t_struct(SuppliedToken)1465_storage)dyn_storage)"
          },
          {
            "astId": 1509,
            "contract": "contracts/facets/GetterFacet.sol:GetterFacet",
            "label": "tokensBorrowed",
            "offset": 0,
            "slot": "5",
            "type": "t_mapping(t_address,t_array(t_struct(BorrowedToken)1478_storage)dyn_storage)"
          },
          {
            "astId": 1512,
            "contract": "contracts/facets/GetterFacet.sol:GetterFacet",
            "label": "allSuppliers",
            "offset": 0,
            "slot": "6",
            "type": "t_array(t_address)dyn_storage"
          },
          {
            "astId": 1515,
            "contract": "contracts/facets/GetterFacet.sol:GetterFacet",
            "label": "allBorrowers",
            "offset": 0,
            "slot": "7",
            "type": "t_array(t_address)dyn_storage"
          },
          {
            "astId": 1519,
            "contract": "contracts/facets/GetterFacet.sol:GetterFacet",
            "label": "totalSupplied",
            "offset": 0,
            "slot": "8",
            "type": "t_mapping(t_address,t_uint256)"
          },
          {
            "astId": 1523,
            "contract": "contracts/facets/GetterFacet.sol:GetterFacet",
            "label": "totalBorrowed",
            "offset": 0,
            "slot": "9",
            "type": "t_mapping(t_address,t_uint256)"
          }
        ],
        "numberOfBytes": "320"
      },
      "t_struct(BorrowedToken)1478_storage": {
        "encoding": "inplace",
        "label": "struct BorrowedToken",
        "members": [
          {
            "astId": 1467,
            "contract": "contracts/facets/GetterFacet.sol:GetterFacet",
            "label": "tokenAddress",
            "offset": 0,
            "slot": "0",
            "type": "t_address"
          },
          {
            "astId": 1469,
            "contract": "contracts/facets/GetterFacet.sol:GetterFacet",
            "label": "borrowerAddress",
            "offset": 0,
            "slot": "1",
            "type": "t_address"
          },
          {
            "astId": 1471,
            "contract": "contracts/facets/GetterFacet.sol:GetterFacet",
            "label": "amountBorrowed",
            "offset": 0,
            "slot": "2",
            "type": "t_uint256"
          },
          {
            "astId": 1473,
            "contract": "contracts/facets/GetterFacet.sol:GetterFacet",
            "label": "startAccumulatingDay",
            "offset": 0,
            "slot": "3",
            "type": "t_uint256"
          },
          {
            "astId": 1475,
            "contract": "contracts/facets/GetterFacet.sol:GetterFacet",
            "label": "borrowedInterest",
            "offset": 0,
            "slot": "4",
            "type": "t_uint256"
          },
          {
            "astId": 1477,
            "contract": "contracts/facets/GetterFacet.sol:GetterFacet",
            "label": "stableRate",
            "offset": 0,
            "slot": "5",
            "type": "t_uint256"
          }
        ],
        "numberOfBytes": "192"
      },
      "t_struct(SuppliedToken)1465_storage": {
        "encoding": "inplace",
        "label": "struct SuppliedToken",
        "members": [
          {
            "astId": 1452,
            "contract": "contracts/facets/GetterFacet.sol:GetterFacet",
            "label": "tokenAddress",
            "offset": 0,
            "slot": "0",
            "type": "t_address"
          },
          {
            "astId": 1454,
            "contract": "contracts/facets/GetterFacet.sol:GetterFacet",
            "label": "supplierAddress",
            "offset": 0,
            "slot": "1",
            "type": "t_address"
          },
          {
            "astId": 1456,
            "contract": "contracts/facets/GetterFacet.sol:GetterFacet",
            "label": "amountSupplied",
            "offset": 0,
            "slot": "2",
            "type": "t_uint256"
          },
          {
            "astId": 1458,
            "contract": "contracts/facets/GetterFacet.sol:GetterFacet",
            "label": "supplyInterest",
            "offset": 0,
            "slot": "3",
            "type": "t_uint256"
          },
          {
            "astId": 1460,
            "contract": "contracts/facets/GetterFacet.sol:GetterFacet",
            "label": "supplyStableRate",
            "offset": 0,
            "slot": "4",
            "type": "t_uint256"
          },
          {
            "astId": 1462,
            "contract": "contracts/facets/GetterFacet.sol:GetterFacet",
            "label": "startAccumulatingDay",
            "offset": 0,
            "slot": "5",
            "type": "t_uint256"
          },
          {
            "astId": 1464,
            "contract": "contracts/facets/GetterFacet.sol:GetterFacet",
            "label": "isCollateral",
            "offset": 0,
            "slot": "6",
            "type": "t_bool"
          }
        ],
        "numberOfBytes": "224"
      },
      "t_struct(Token)1450_storage": {
        "encoding": "inplace",
        "label": "struct Token",
        "members": [
          {
            "astId": 1439,
            "contract": "contracts/facets/GetterFacet.sol:GetterFacet",
            "label": "tokenAddress",
            "offset": 0,
            "slot": "0",
            "type": "t_address"
          },
          {
            "astId": 1441,
            "contract": "contracts/facets/GetterFacet.sol:GetterFacet",
            "label": "liquidationThreshold",
            "offset": 20,
            "slot": "0",
            "type": "t_uint32"
          },
          {
            "astId": 1443,
            "contract": "contracts/facets/GetterFacet.sol:GetterFacet",
            "label": "loanToValue",
            "offset": 24,
            "slot": "0",
            "type": "t_uint32"
          },
          {
            "astId": 1445,
            "contract": "contracts/facets/GetterFacet.sol:GetterFacet",
            "label": "borrowStableRate",
            "offset": 28,
            "slot": "0",
            "type": "t_uint32"
          },
          {
            "astId": 1447,
            "contract": "contracts/facets/GetterFacet.sol:GetterFacet",
            "label": "supplyStableRate",
            "offset": 0,
            "slot": "1",
            "type": "t_uint32"
          },
          {
            "astId": 1449,
            "contract": "contracts/facets/GetterFacet.sol:GetterFacet",
            "label": "liquidationPenalty",
            "offset": 4,
            "slot": "1",
            "type": "t_uint32"
          }
        ],
        "numberOfBytes": "64"
      },
      "t_uint256": {
        "encoding": "inplace",
        "label": "uint256",
        "numberOfBytes": "32"
      },
      "t_uint32": {
        "encoding": "inplace",
        "label": "uint32",
        "numberOfBytes": "4"
      }
    }
  }
}