{
  "address": "0xb45e4DaE6B521153cBE1Ad5A6c130cdD3911DB89",
  "abi": [
    {
      "inputs": [
        {
          "internalType": "address",
          "name": "newTokenAddress",
          "type": "address"
        }
      ],
      "name": "addToState",
      "outputs": [],
      "stateMutability": "nonpayable",
      "type": "function"
    },
    {
      "inputs": [
        {
          "internalType": "address",
          "name": "tokenAddress",
          "type": "address"
        },
        {
          "internalType": "uint256",
          "name": "usdAmount",
          "type": "uint256"
        }
      ],
      "name": "convertUsdToToken",
      "outputs": [
        {
          "internalType": "uint256",
          "name": "",
          "type": "uint256"
        }
      ],
      "stateMutability": "view",
      "type": "function"
    },
    {
      "inputs": [],
      "name": "getAllBorrowers",
      "outputs": [
        {
          "internalType": "address[]",
          "name": "",
          "type": "address[]"
        }
      ],
      "stateMutability": "view",
      "type": "function"
    },
    {
      "inputs": [
        {
          "internalType": "address",
          "name": "user",
          "type": "address"
        }
      ],
      "name": "getAllBorrows",
      "outputs": [
        {
          "components": [
            {
              "internalType": "address",
              "name": "tokenAddress",
              "type": "address"
            },
            {
              "internalType": "address",
              "name": "borrowerAddress",
              "type": "address"
            },
            {
              "internalType": "uint256",
              "name": "amountBorrowed",
              "type": "uint256"
            },
            {
              "internalType": "uint256",
              "name": "startAccumulatingDay",
              "type": "uint256"
            },
            {
              "internalType": "uint256",
              "name": "borrowedInterest",
              "type": "uint256"
            },
            {
              "internalType": "uint256",
              "name": "stableRate",
              "type": "uint256"
            }
          ],
          "internalType": "struct BorrowedToken[]",
          "name": "",
          "type": "tuple[]"
        }
      ],
      "stateMutability": "view",
      "type": "function"
    },
    {
      "inputs": [],
      "name": "getAllSuppliers",
      "outputs": [
        {
          "internalType": "address[]",
          "name": "",
          "type": "address[]"
        }
      ],
      "stateMutability": "view",
      "type": "function"
    },
    {
      "inputs": [
        {
          "internalType": "address",
          "name": "user",
          "type": "address"
        }
      ],
      "name": "getAllSupplies",
      "outputs": [
        {
          "components": [
            {
              "internalType": "address",
              "name": "tokenAddress",
              "type": "address"
            },
            {
              "internalType": "address",
              "name": "supplierAddress",
              "type": "address"
            },
            {
              "internalType": "uint256",
              "name": "amountSupplied",
              "type": "uint256"
            },
            {
              "internalType": "uint256",
              "name": "supplyInterest",
              "type": "uint256"
            },
            {
              "internalType": "uint256",
              "name": "supplyStableRate",
              "type": "uint256"
            },
            {
              "internalType": "uint256",
              "name": "startAccumulatingDay",
              "type": "uint256"
            },
            {
              "internalType": "bool",
              "name": "isCollateral",
              "type": "bool"
            }
          ],
          "internalType": "struct SuppliedToken[]",
          "name": "",
          "type": "tuple[]"
        }
      ],
      "stateMutability": "view",
      "type": "function"
    },
    {
      "inputs": [],
      "name": "getAllSupportedTokens",
      "outputs": [
        {
          "internalType": "address[]",
          "name": "",
          "type": "address[]"
        }
      ],
      "stateMutability": "view",
      "type": "function"
    },
    {
      "inputs": [
        {
          "internalType": "address",
          "name": "user",
          "type": "address"
        }
      ],
      "name": "getBorrowPower",
      "outputs": [
        {
          "internalType": "uint256",
          "name": "",
          "type": "uint256"
        }
      ],
      "stateMutability": "view",
      "type": "function"
    },
    {
      "inputs": [
        {
          "internalType": "address",
          "name": "user",
          "type": "address"
        }
      ],
      "name": "getCurrentLTV",
      "outputs": [
        {
          "internalType": "uint256",
          "name": "",
          "type": "uint256"
        }
      ],
      "stateMutability": "view",
      "type": "function"
    },
    {
      "inputs": [
        {
          "internalType": "address",
          "name": "user",
          "type": "address"
        }
      ],
      "name": "getHealthFactor",
      "outputs": [
        {
          "internalType": "int256",
          "name": "",
          "type": "int256"
        }
      ],
      "stateMutability": "view",
      "type": "function"
    },
    {
      "inputs": [
        {
          "internalType": "address",
          "name": "user",
          "type": "address"
        }
      ],
      "name": "getLiquidationThreshold",
      "outputs": [
        {
          "internalType": "uint256",
          "name": "",
          "type": "uint256"
        }
      ],
      "stateMutability": "view",
      "type": "function"
    },
    {
      "inputs": [
        {
          "internalType": "address",
          "name": "user",
          "type": "address"
        }
      ],
      "name": "getMaxAvailableToBorrowInUsd",
      "outputs": [
        {
          "internalType": "int256",
          "name": "",
          "type": "int256"
        }
      ],
      "stateMutability": "view",
      "type": "function"
    },
    {
      "inputs": [
        {
          "internalType": "address",
          "name": "user",
          "type": "address"
        }
      ],
      "name": "getMaxLTV",
      "outputs": [
        {
          "internalType": "uint256",
          "name": "",
          "type": "uint256"
        }
      ],
      "stateMutability": "view",
      "type": "function"
    },
    {
      "inputs": [
        {
          "internalType": "address",
          "name": "user",
          "type": "address"
        }
      ],
      "name": "getNetworth",
      "outputs": [
        {
          "internalType": "uint256",
          "name": "",
          "type": "uint256"
        }
      ],
      "stateMutability": "view",
      "type": "function"
    },
    {
      "inputs": [
        {
          "internalType": "address",
          "name": "tokenAddress",
          "type": "address"
        }
      ],
      "name": "getTokenDetails",
      "outputs": [
        {
          "components": [
            {
              "internalType": "address",
              "name": "tokenAddress",
              "type": "address"
            },
            {
              "internalType": "uint32",
              "name": "liquidationThreshold",
              "type": "uint32"
            },
            {
              "internalType": "uint32",
              "name": "loanToValue",
              "type": "uint32"
            },
            {
              "internalType": "uint32",
              "name": "borrowStableRate",
              "type": "uint32"
            },
            {
              "internalType": "uint32",
              "name": "supplyStableRate",
              "type": "uint32"
            },
            {
              "internalType": "uint32",
              "name": "liquidationPenalty",
              "type": "uint32"
            }
          ],
          "internalType": "struct Token",
          "name": "",
          "type": "tuple"
        }
      ],
      "stateMutability": "view",
      "type": "function"
    },
    {
      "inputs": [
        {
          "internalType": "address",
          "name": "tokenAddress",
          "type": "address"
        }
      ],
      "name": "getTokenTotalBorrowed",
      "outputs": [
        {
          "internalType": "uint256",
          "name": "",
          "type": "uint256"
        }
      ],
      "stateMutability": "view",
      "type": "function"
    },
    {
      "inputs": [
        {
          "internalType": "address",
          "name": "tokenAddress",
          "type": "address"
        }
      ],
      "name": "getTokenTotalSupplied",
      "outputs": [
        {
          "internalType": "uint256",
          "name": "",
          "type": "uint256"
        }
      ],
      "stateMutability": "view",
      "type": "function"
    },
    {
      "inputs": [
        {
          "internalType": "address",
          "name": "tokenAddress",
          "type": "address"
        },
        {
          "internalType": "uint256",
          "name": "tokenAmount",
          "type": "uint256"
        }
      ],
      "name": "getUsdEquivalence",
      "outputs": [
        {
          "internalType": "uint256",
          "name": "",
          "type": "uint256"
        }
      ],
      "stateMutability": "view",
      "type": "function"
    },
    {
      "inputs": [
        {
          "internalType": "address",
          "name": "user",
          "type": "address"
        }
      ],
      "name": "getUserTotalBorrowedInUsd",
      "outputs": [
        {
          "internalType": "uint256",
          "name": "",
          "type": "uint256"
        }
      ],
      "stateMutability": "view",
      "type": "function"
    },
    {
      "inputs": [
        {
          "internalType": "address",
          "name": "user",
          "type": "address"
        }
      ],
      "name": "getUserTotalCollateralInUsd",
      "outputs": [
        {
          "internalType": "uint256",
          "name": "",
          "type": "uint256"
        }
      ],
      "stateMutability": "view",
      "type": "function"
    }
  ],
  "transactionHash": "0xfaa03fd3780ac9268b18489498e89d7e5724bbf24b16fb3c03f1a8ae7c1724d0",
  "args": [],
  "numDeployments": 2,
  "solcInputHash": "4f30c52359fc92d50983b20d1e38ad8a",
  "bytecode": "0x608060405234801561001057600080fd5b5060016000806101000a81548160ff0219169083151502179055506129bd8061003a6000396000f3fe608060405234801561001057600080fd5b506004361061012c5760003560e01c8063b53305dc116100ad578063dba4e10711610071578063dba4e107146103b7578063ddd3b51a146103e7578063e21f0b5514610417578063f4f11d5f14610447578063fe6bcd7c146104775761012c565b8063b53305dc146102ed578063b89821341461030b578063c3d0dc7a1461033b578063cc3920d81461036b578063d78d16921461039b5761012c565b8063345d5fb2116100f4578063345d5fb2146101fd5780637b86e42c1461022d57806382a8f94e1461025d57806388aa8bee1461028d5780639931e256146102bd5761012c565b80630107e472146101315780631bad665f1461014f5780632a769e661461017f578063312b4f7e146101af57806332abcdbe146101df575b600080fd5b6101396104a7565b6040516101469190611f1f565b60405180910390f35b61016960048036038101906101649190611f72565b610537565b6040516101769190611fb8565b60405180910390f35b61019960048036038101906101949190611f72565b61054b565b6040516101a69190611fec565b60405180910390f35b6101c960048036038101906101c49190611f72565b61055f565b6040516101d6919061216e565b60405180910390f35b6101e76106ef565b6040516101f49190611f1f565b60405180910390f35b61021760048036038101906102129190611f72565b610780565b6040516102249190611fec565b60405180910390f35b61024760048036038101906102429190611f72565b6107d1565b6040516102549190611fec565b60405180910390f35b610277600480360381019061027291906121bc565b6107e5565b6040516102849190611fec565b60405180910390f35b6102a760048036038101906102a29190611f72565b610826565b6040516102b49190612296565b60405180910390f35b6102d760048036038101906102d29190611f72565b610996565b6040516102e49190611fec565b60405180910390f35b6102f56109aa565b6040516103029190611f1f565b60405180910390f35b61032560048036038101906103209190611f72565b610a3b565b6040516103329190611fec565b60405180910390f35b61035560048036038101906103509190611f72565b610a4f565b6040516103629190611fec565b60405180910390f35b610385600480360381019061038091906121bc565b610a9b565b6040516103929190611fec565b60405180910390f35b6103b560048036038101906103b09190611f72565b610ab1565b005b6103d160048036038101906103cc9190611f72565b610af8565b6040516103de9190611fec565b60405180910390f35b61040160048036038101906103fc9190611f72565b610b21565b60405161040e9190611fec565b60405180910390f35b610431600480360381019061042c9190611f72565b610b6d565b60405161043e9190611fec565b60405180910390f35b610461600480360381019061045c9190611f72565b610bea565b60405161046e91906123db565b60405180910390f35b610491600480360381019061048c9190611f72565b610d5f565b60405161049e9190611fb8565b60405180910390f35b60606001800180548060200260200160405190810160405280929190818152602001828054801561052d57602002820191906000526020600020905b8160009054906101000a900473ffffffffffffffffffffffffffffffffffffffff1673ffffffffffffffffffffffffffffffffffffffff16815260200190600101908083116104e3575b5050505050905090565b6000610544600183610d73565b9050919050565b6000610558600183610dcd565b9050919050565b6060600160040160008373ffffffffffffffffffffffffffffffffffffffff1673ffffffffffffffffffffffffffffffffffffffff168152602001908152602001600020805480602002602001604051908101604052809291908181526020016000905b828210156106e457838290600052602060002090600702016040518060e00160405290816000820160009054906101000a900473ffffffffffffffffffffffffffffffffffffffff1673ffffffffffffffffffffffffffffffffffffffff1673ffffffffffffffffffffffffffffffffffffffff1681526020016001820160009054906101000a900473ffffffffffffffffffffffffffffffffffffffff1673ffffffffffffffffffffffffffffffffffffffff1673ffffffffffffffffffffffffffffffffffffffff168152602001600282015481526020016003820154815260200160048201548152602001600582015481526020016006820160009054906101000a900460ff161515151581525050815260200190600101906105c3565b505050509050919050565b6060600160070180548060200260200160405190810160405280929190818152602001828054801561077657602002820191906000526020600020905b8160009054906101000a900473ffffffffffffffffffffffffffffffffffffffff1673ffffffffffffffffffffffffffffffffffffffff168152602001906001019080831161072c575b5050505050905090565b600080612710610791600185611072565b61079b919061242c565b905060006107aa600185610dcd565b9050600081116107bb5760006107c8565b80826107c7919061249d565b5b92505050919050565b60006107de6001836112fc565b9050919050565b60008060006107f5600186611749565b915091508181600a6108079190612601565b85610812919061242c565b61081c919061249d565b9250505092915050565b61082e611dc5565b600160020160008373ffffffffffffffffffffffffffffffffffffffff1673ffffffffffffffffffffffffffffffffffffffff1681526020019081526020016000206040518060c00160405290816000820160009054906101000a900473ffffffffffffffffffffffffffffffffffffffff1673ffffffffffffffffffffffffffffffffffffffff1673ffffffffffffffffffffffffffffffffffffffff1681526020016000820160149054906101000a900463ffffffff1663ffffffff1663ffffffff1681526020016000820160189054906101000a900463ffffffff1663ffffffff1663ffffffff16815260200160008201601c9054906101000a900463ffffffff1663ffffffff1663ffffffff1681526020016001820160009054906101000a900463ffffffff1663ffffffff1663ffffffff1681526020016001820160049054906101000a900463ffffffff1663ffffffff1663ffffffff16815250509050919050565b60006109a3600183611072565b9050919050565b60606001600601805480602002602001604051908101604052809291908181526020018280548015610a3157602002820191906000526020600020905b8160009054906101000a900473ffffffffffffffffffffffffffffffffffffffff1673ffffffffffffffffffffffffffffffffffffffff16815260200190600101908083116109e7575b5050505050905090565b6000610a486001836118b5565b9050919050565b6000600160080160008373ffffffffffffffffffffffffffffffffffffffff1673ffffffffffffffffffffffffffffffffffffffff168152602001908152602001600020549050919050565b6000610aa960018385611d02565b905092915050565b80600160000160006101000a81548173ffffffffffffffffffffffffffffffffffffffff021916908373ffffffffffffffffffffffffffffffffffffffff16021790555050565b6000610b05600183611072565b610b10600184610dcd565b610b1a919061264c565b9050919050565b6000600160090160008373ffffffffffffffffffffffffffffffffffffffff1673ffffffffffffffffffffffffffffffffffffffff168152602001908152602001600020549050919050565b600080610b7b6001846118b5565b90506000610b8a600185610dcd565b9050600082118015610b9c5750600081115b610ba7576000610be1565b8082610bb3919061242c565b61271080610bc2600188611072565b610bcc919061242c565b610bd6919061242c565b610be0919061249d565b5b92505050919050565b6060600160050160008373ffffffffffffffffffffffffffffffffffffffff1673ffffffffffffffffffffffffffffffffffffffff168152602001908152602001600020805480602002602001604051908101604052809291908181526020016000905b82821015610d5457838290600052602060002090600602016040518060c00160405290816000820160009054906101000a900473ffffffffffffffffffffffffffffffffffffffff1673ffffffffffffffffffffffffffffffffffffffff1673ffffffffffffffffffffffffffffffffffffffff1681526020016001820160009054906101000a900473ffffffffffffffffffffffffffffffffffffffff1673ffffffffffffffffffffffffffffffffffffffff1673ffffffffffffffffffffffffffffffffffffffff16815260200160028201548152602001600382015481526020016004820154815260200160058201548152505081526020019060010190610c4e565b505050509050919050565b6000610d6c600183611d49565b9050919050565b600080610d8084846118b5565b90506000610d8e8585610dcd565b90506000610d9c8686611072565b9050806127108385610dae919061242c565b610db89190612680565b610dc291906126ea565b935050505092915050565b6000808360040160008473ffffffffffffffffffffffffffffffffffffffff1673ffffffffffffffffffffffffffffffffffffffff168152602001908152602001600020805480602002602001604051908101604052809291908181526020016000905b82821015610f5257838290600052602060002090600702016040518060e00160405290816000820160009054906101000a900473ffffffffffffffffffffffffffffffffffffffff1673ffffffffffffffffffffffffffffffffffffffff1673ffffffffffffffffffffffffffffffffffffffff1681526020016001820160009054906101000a900473ffffffffffffffffffffffffffffffffffffffff1673ffffffffffffffffffffffffffffffffffffffff1673ffffffffffffffffffffffffffffffffffffffff168152602001600282015481526020016003820154815260200160048201548152602001600582015481526020016006820160009054906101000a900460ff16151515158152505081526020019060010190610e31565b5050505090506000805b8251811015611066576000838281518110610f7a57610f7961272d565b5b602002602001015190506000816000015173ffffffffffffffffffffffffffffffffffffffff1663313ce5676040518163ffffffff1660e01b8152600401602060405180830381865afa158015610fd5573d6000803e3d6000fd5b505050506040513d601f19601f82011682018060405250810190610ff99190612795565b905060006110108984604001518560000151611d02565b9050600082600a61102191906127c2565b670de0b6b3a764000083611035919061242c565b61103f919061249d565b9050808661104d919061280d565b955050505050808061105e90612841565b915050610f5c565b50809250505092915050565b6000808360050160008473ffffffffffffffffffffffffffffffffffffffff1673ffffffffffffffffffffffffffffffffffffffff168152602001908152602001600020805480602002602001604051908101604052809291908181526020016000905b828210156111dc57838290600052602060002090600602016040518060c00160405290816000820160009054906101000a900473ffffffffffffffffffffffffffffffffffffffff1673ffffffffffffffffffffffffffffffffffffffff1673ffffffffffffffffffffffffffffffffffffffff1681526020016001820160009054906101000a900473ffffffffffffffffffffffffffffffffffffffff1673ffffffffffffffffffffffffffffffffffffffff1673ffffffffffffffffffffffffffffffffffffffff168152602001600282015481526020016003820154815260200160048201548152602001600582015481525050815260200190600101906110d6565b5050505090506000805b82518110156112f05760008382815181106112045761120361272d565b5b602002602001015190506000816000015173ffffffffffffffffffffffffffffffffffffffff1663313ce5676040518163ffffffff1660e01b8152600401602060405180830381865afa15801561125f573d6000803e3d6000fd5b505050506040513d601f19601f820116820180604052508101906112839190612795565b9050600061129a8984604001518560000151611d02565b9050600082600a6112ab91906127c2565b670de0b6b3a7640000836112bf919061242c565b6112c9919061249d565b905080866112d7919061280d565b95505050505080806112e890612841565b9150506111e6565b50809250505092915050565b6000808360040160008473ffffffffffffffffffffffffffffffffffffffff1673ffffffffffffffffffffffffffffffffffffffff168152602001908152602001600020805480602002602001604051908101604052809291908181526020016000905b8282101561148157838290600052602060002090600702016040518060e00160405290816000820160009054906101000a900473ffffffffffffffffffffffffffffffffffffffff1673ffffffffffffffffffffffffffffffffffffffff1673ffffffffffffffffffffffffffffffffffffffff1681526020016001820160009054906101000a900473ffffffffffffffffffffffffffffffffffffffff1673ffffffffffffffffffffffffffffffffffffffff1673ffffffffffffffffffffffffffffffffffffffff168152602001600282015481526020016003820154815260200160048201548152602001600582015481526020016006820160009054906101000a900460ff16151515158152505081526020019060010190611360565b5050505090506000806114948686610dcd565b905060005b83518110156117215760008482815181106114b7576114b661272d565b5b602002602001015190506000886002016000836000015173ffffffffffffffffffffffffffffffffffffffff1673ffffffffffffffffffffffffffffffffffffffff1681526020019081526020016000206040518060c00160405290816000820160009054906101000a900473ffffffffffffffffffffffffffffffffffffffff1673ffffffffffffffffffffffffffffffffffffffff1673ffffffffffffffffffffffffffffffffffffffff1681526020016000820160149054906101000a900463ffffffff1663ffffffff1663ffffffff1681526020016000820160189054906101000a900463ffffffff1663ffffffff1663ffffffff16815260200160008201601c9054906101000a900463ffffffff1663ffffffff1663ffffffff1681526020016001820160009054906101000a900463ffffffff1663ffffffff1663ffffffff1681526020016001820160049054906101000a900463ffffffff1663ffffffff1663ffffffff168152505090506000826000015173ffffffffffffffffffffffffffffffffffffffff1663313ce5676040518163ffffffff1660e01b8152600401602060405180830381865afa15801561167a573d6000803e3d6000fd5b505050506040513d601f19601f8201168201806040525081019061169e9190612795565b905060006116b58b85604001518660000151611d02565b9050600082600a6116c691906127c2565b670de0b6b3a7640000836116da919061242c565b6116e4919061249d565b9050836020015163ffffffff16816116fc919061242c565b88611707919061280d565b97505050505050808061171990612841565b915050611499565b506000811161173157600061173e565b808261173d919061249d565b5b935050505092915050565b60008060008460030160008573ffffffffffffffffffffffffffffffffffffffff1673ffffffffffffffffffffffffffffffffffffffff16815260200190815260200160002060009054906101000a900473ffffffffffffffffffffffffffffffffffffffff169050600081905060008173ffffffffffffffffffffffffffffffffffffffff1663feaf968c6040518163ffffffff1660e01b815260040160a060405180830381865afa158015611804573d6000803e3d6000fd5b505050506040513d601f19601f82011682018060405250810190611828919061290c565b50505091505060008273ffffffffffffffffffffffffffffffffffffffff1663313ce5676040518163ffffffff1660e01b8152600401602060405180830381865afa15801561187b573d6000803e3d6000fd5b505050506040513d601f19601f8201168201806040525081019061189f9190612795565b60ff169050818195509550505050509250929050565b6000808360040160008473ffffffffffffffffffffffffffffffffffffffff1673ffffffffffffffffffffffffffffffffffffffff168152602001908152602001600020805480602002602001604051908101604052809291908181526020016000905b82821015611a3a57838290600052602060002090600702016040518060e00160405290816000820160009054906101000a900473ffffffffffffffffffffffffffffffffffffffff1673ffffffffffffffffffffffffffffffffffffffff1673ffffffffffffffffffffffffffffffffffffffff1681526020016001820160009054906101000a900473ffffffffffffffffffffffffffffffffffffffff1673ffffffffffffffffffffffffffffffffffffffff1673ffffffffffffffffffffffffffffffffffffffff168152602001600282015481526020016003820154815260200160048201548152602001600582015481526020016006820160009054906101000a900460ff16151515158152505081526020019060010190611919565b505050509050600080611a4d8686610dcd565b905060005b8351811015611cda576000848281518110611a7057611a6f61272d565b5b602002602001015190506000886002016000836000015173ffffffffffffffffffffffffffffffffffffffff1673ffffffffffffffffffffffffffffffffffffffff1681526020019081526020016000206040518060c00160405290816000820160009054906101000a900473ffffffffffffffffffffffffffffffffffffffff1673ffffffffffffffffffffffffffffffffffffffff1673ffffffffffffffffffffffffffffffffffffffff1681526020016000820160149054906101000a900463ffffffff1663ffffffff1663ffffffff1681526020016000820160189054906101000a900463ffffffff1663ffffffff1663ffffffff16815260200160008201601c9054906101000a900463ffffffff1663ffffffff1663ffffffff1681526020016001820160009054906101000a900463ffffffff1663ffffffff1663ffffffff1681526020016001820160049054906101000a900463ffffffff1663ffffffff1663ffffffff168152505090506000826000015173ffffffffffffffffffffffffffffffffffffffff1663313ce5676040518163ffffffff1660e01b8152600401602060405180830381865afa158015611c33573d6000803e3d6000fd5b505050506040513d601f19601f82011682018060405250810190611c579190612795565b90506000611c6e8b85604001518660000151611d02565b9050600082600a611c7f91906127c2565b670de0b6b3a764000083611c93919061242c565b611c9d919061249d565b9050836040015163ffffffff1681611cb5919061242c565b88611cc0919061280d565b975050505050508080611cd290612841565b915050611a52565b5060008111611cea576000611cf7565b8082611cf6919061249d565b5b935050505092915050565b6000806000611d118685611749565b91509150600081600a611d249190612601565b8387611d30919061242c565b611d3a919061249d565b90508093505050509392505050565b600080611d568484610dcd565b90506000611d6485856112fc565b90506000611d728686611072565b905060008114611d9857808284611d89919061242c565b611d93919061249d565b611dba565b7fffffffffffffffffffffffffffffffffffffffffffffffffffffffffffffffff5b935050505092915050565b6040518060c00160405280600073ffffffffffffffffffffffffffffffffffffffff168152602001600063ffffffff168152602001600063ffffffff168152602001600063ffffffff168152602001600063ffffffff168152602001600063ffffffff1681525090565b600081519050919050565b600082825260208201905092915050565b6000819050602082019050919050565b600073ffffffffffffffffffffffffffffffffffffffff82169050919050565b6000611e8682611e5b565b9050919050565b611e9681611e7b565b82525050565b6000611ea88383611e8d565b60208301905092915050565b6000602082019050919050565b6000611ecc82611e2f565b611ed68185611e3a565b9350611ee183611e4b565b8060005b83811015611f12578151611ef98882611e9c565b9750611f0483611eb4565b925050600181019050611ee5565b5085935050505092915050565b60006020820190508181036000830152611f398184611ec1565b905092915050565b600080fd5b611f4f81611e7b565b8114611f5a57600080fd5b50565b600081359050611f6c81611f46565b92915050565b600060208284031215611f8857611f87611f41565b5b6000611f9684828501611f5d565b91505092915050565b6000819050919050565b611fb281611f9f565b82525050565b6000602082019050611fcd6000830184611fa9565b92915050565b6000819050919050565b611fe681611fd3565b82525050565b60006020820190506120016000830184611fdd565b92915050565b600081519050919050565b600082825260208201905092915050565b6000819050602082019050919050565b61203c81611fd3565b82525050565b60008115159050919050565b61205781612042565b82525050565b60e0820160008201516120736000850182611e8d565b5060208201516120866020850182611e8d565b5060408201516120996040850182612033565b5060608201516120ac6060850182612033565b5060808201516120bf6080850182612033565b5060a08201516120d260a0850182612033565b5060c08201516120e560c085018261204e565b50505050565b60006120f7838361205d565b60e08301905092915050565b6000602082019050919050565b600061211b82612007565b6121258185612012565b935061213083612023565b8060005b8381101561216157815161214888826120eb565b975061215383612103565b925050600181019050612134565b5085935050505092915050565b600060208201905081810360008301526121888184612110565b905092915050565b61219981611fd3565b81146121a457600080fd5b50565b6000813590506121b681612190565b92915050565b600080604083850312156121d3576121d2611f41565b5b60006121e185828601611f5d565b92505060206121f2858286016121a7565b9150509250929050565b600063ffffffff82169050919050565b612215816121fc565b82525050565b60c0820160008201516122316000850182611e8d565b506020820151612244602085018261220c565b506040820151612257604085018261220c565b50606082015161226a606085018261220c565b50608082015161227d608085018261220c565b5060a082015161229060a085018261220c565b50505050565b600060c0820190506122ab600083018461221b565b92915050565b600081519050919050565b600082825260208201905092915050565b6000819050602082019050919050565b60c0820160008201516122f36000850182611e8d565b5060208201516123066020850182611e8d565b5060408201516123196040850182612033565b50606082015161232c6060850182612033565b50608082015161233f6080850182612033565b5060a082015161235260a0850182612033565b50505050565b600061236483836122dd565b60c08301905092915050565b6000602082019050919050565b6000612388826122b1565b61239281856122bc565b935061239d836122cd565b8060005b838110156123ce5781516123b58882612358565b97506123c083612370565b9250506001810190506123a1565b5085935050505092915050565b600060208201905081810360008301526123f5818461237d565b905092915050565b7f4e487b7100000000000000000000000000000000000000000000000000000000600052601160045260246000fd5b600061243782611fd3565b915061244283611fd3565b925082820261245081611fd3565b91508282048414831517612467576124666123fd565b5b5092915050565b7f4e487b7100000000000000000000000000000000000000000000000000000000600052601260045260246000fd5b60006124a882611fd3565b91506124b383611fd3565b9250826124c3576124c261246e565b5b828204905092915050565b60008160011c9050919050565b6000808291508390505b600185111561252557808604811115612501576125006123fd565b5b60018516156125105780820291505b808102905061251e856124ce565b94506124e5565b94509492505050565b60008261253e57600190506125fa565b8161254c57600090506125fa565b8160018114612562576002811461256c5761259b565b60019150506125fa565b60ff84111561257e5761257d6123fd565b5b8360020a915084821115612595576125946123fd565b5b506125fa565b5060208310610133831016604e8410600b84101617156125d05782820a9050838111156125cb576125ca6123fd565b5b6125fa565b6125dd84848460016124db565b925090508184048111156125f4576125f36123fd565b5b81810290505b9392505050565b600061260c82611fd3565b915061261783611fd3565b92506126447fffffffffffffffffffffffffffffffffffffffffffffffffffffffffffffffff848461252e565b905092915050565b600061265782611fd3565b915061266283611fd3565b925082820390508181111561267a576126796123fd565b5b92915050565b600061268b82611f9f565b915061269683611f9f565b9250826126a6576126a561246e565b5b600160000383147f8000000000000000000000000000000000000000000000000000000000000000831416156126df576126de6123fd565b5b828205905092915050565b60006126f582611f9f565b915061270083611f9f565b9250828203905081811260008412168282136000851215161715612727576127266123fd565b5b92915050565b7f4e487b7100000000000000000000000000000000000000000000000000000000600052603260045260246000fd5b600060ff82169050919050565b6127728161275c565b811461277d57600080fd5b50565b60008151905061278f81612769565b92915050565b6000602082840312156127ab576127aa611f41565b5b60006127b984828501612780565b91505092915050565b60006127cd82611fd3565b91506127d88361275c565b92506128057fffffffffffffffffffffffffffffffffffffffffffffffffffffffffffffffff848461252e565b905092915050565b600061281882611fd3565b915061282383611fd3565b925082820190508082111561283b5761283a6123fd565b5b92915050565b600061284c82611fd3565b91507fffffffffffffffffffffffffffffffffffffffffffffffffffffffffffffffff820361287e5761287d6123fd565b5b600182019050919050565b600069ffffffffffffffffffff82169050919050565b6128a881612889565b81146128b357600080fd5b50565b6000815190506128c58161289f565b92915050565b6128d481611f9f565b81146128df57600080fd5b50565b6000815190506128f1816128cb565b92915050565b60008151905061290681612190565b92915050565b600080600080600060a0868803121561292857612927611f41565b5b6000612936888289016128b6565b9550506020612947888289016128e2565b9450506040612958888289016128f7565b9350506060612969888289016128f7565b925050608061297a888289016128b6565b915050929550929590935056fea26469706673582212203252968a74562f038b703283c04d3768154a0b742bdc6e4b4e7dec6f0ed494e864736f6c63430008110033",
  "devdoc": {
    "kind": "dev",
    "methods": {},
    "version": 1
  },
  "userdoc": {
    "kind": "user",
    "methods": {},
    "version": 1
  },
  "storageLayout": {
    "storage": [
      {
        "astId": 134,
        "contract": "contracts/facets/GetterFacet.sol:GetterFacet",
        "label": "_TRIGGER",
        "offset": 0,
        "slot": "0",
        "type": "t_bool"
      },
      {
        "astId": 1350,
        "contract": "contracts/facets/GetterFacet.sol:GetterFacet",
        "label": "s",
        "offset": 0,
        "slot": "1",
        "type": "t_struct(AppStorage)733_storage"
      }
    ],
    "types": {
      "t_address": {
        "encoding": "inplace",
        "label": "address",
        "numberOfBytes": "20"
      },
      "t_array(t_address)dyn_storage": {
        "base": "t_address",
        "encoding": "dynamic_array",
        "label": "address[]",
        "numberOfBytes": "32"
      },
      "t_array(t_struct(BorrowedToken)687_storage)dyn_storage": {
        "base": "t_struct(BorrowedToken)687_storage",
        "encoding": "dynamic_array",
        "label": "struct BorrowedToken[]",
        "numberOfBytes": "32"
      },
      "t_array(t_struct(SuppliedToken)674_storage)dyn_storage": {
        "base": "t_struct(SuppliedToken)674_storage",
        "encoding": "dynamic_array",
        "label": "struct SuppliedToken[]",
        "numberOfBytes": "32"
      },
      "t_bool": {
        "encoding": "inplace",
        "label": "bool",
        "numberOfBytes": "1"
      },
      "t_mapping(t_address,t_address)": {
        "encoding": "mapping",
        "key": "t_address",
        "label": "mapping(address => address)",
        "numberOfBytes": "32",
        "value": "t_address"
      },
      "t_mapping(t_address,t_array(t_struct(BorrowedToken)687_storage)dyn_storage)": {
        "encoding": "mapping",
        "key": "t_address",
        "label": "mapping(address => struct BorrowedToken[])",
        "numberOfBytes": "32",
        "value": "t_array(t_struct(BorrowedToken)687_storage)dyn_storage"
      },
      "t_mapping(t_address,t_array(t_struct(SuppliedToken)674_storage)dyn_storage)": {
        "encoding": "mapping",
        "key": "t_address",
        "label": "mapping(address => struct SuppliedToken[])",
        "numberOfBytes": "32",
        "value": "t_array(t_struct(SuppliedToken)674_storage)dyn_storage"
      },
      "t_mapping(t_address,t_struct(Token)659_storage)": {
        "encoding": "mapping",
        "key": "t_address",
        "label": "mapping(address => struct Token)",
        "numberOfBytes": "32",
        "value": "t_struct(Token)659_storage"
      },
      "t_mapping(t_address,t_uint256)": {
        "encoding": "mapping",
        "key": "t_address",
        "label": "mapping(address => uint256)",
        "numberOfBytes": "32",
        "value": "t_uint256"
      },
      "t_struct(AppStorage)733_storage": {
        "encoding": "inplace",
        "label": "struct AppStorage",
        "members": [
          {
            "astId": 694,
            "contract": "contracts/facets/GetterFacet.sol:GetterFacet",
            "label": "larTokenAddress",
            "offset": 0,
            "slot": "0",
            "type": "t_address"
          },
          {
            "astId": 697,
            "contract": "contracts/facets/GetterFacet.sol:GetterFacet",
            "label": "supportedTokens",
            "offset": 0,
            "slot": "1",
            "type": "t_array(t_address)dyn_storage"
          },
          {
            "astId": 702,
            "contract": "contracts/facets/GetterFacet.sol:GetterFacet",
            "label": "addressToToken",
            "offset": 0,
            "slot": "2",
            "type": "t_mapping(t_address,t_struct(Token)659_storage)"
          },
          {
            "astId": 706,
            "contract": "contracts/facets/GetterFacet.sol:GetterFacet",
            "label": "tokenToPriceFeed",
            "offset": 0,
            "slot": "3",
            "type": "t_mapping(t_address,t_address)"
          },
          {
            "astId": 712,
            "contract": "contracts/facets/GetterFacet.sol:GetterFacet",
            "label": "tokensSupplied",
            "offset": 0,
            "slot": "4",
            "type": "t_mapping(t_address,t_array(t_struct(SuppliedToken)674_storage)dyn_storage)"
          },
          {
            "astId": 718,
            "contract": "contracts/facets/GetterFacet.sol:GetterFacet",
            "label": "tokensBorrowed",
            "offset": 0,
            "slot": "5",
            "type": "t_mapping(t_address,t_array(t_struct(BorrowedToken)687_storage)dyn_storage)"
          },
          {
            "astId": 721,
            "contract": "contracts/facets/GetterFacet.sol:GetterFacet",
            "label": "allSuppliers",
            "offset": 0,
            "slot": "6",
            "type": "t_array(t_address)dyn_storage"
          },
          {
            "astId": 724,
            "contract": "contracts/facets/GetterFacet.sol:GetterFacet",
            "label": "allBorrowers",
            "offset": 0,
            "slot": "7",
            "type": "t_array(t_address)dyn_storage"
          },
          {
            "astId": 728,
            "contract": "contracts/facets/GetterFacet.sol:GetterFacet",
            "label": "totalSupplied",
            "offset": 0,
            "slot": "8",
            "type": "t_mapping(t_address,t_uint256)"
          },
          {
            "astId": 732,
            "contract": "contracts/facets/GetterFacet.sol:GetterFacet",
            "label": "totalBorrowed",
            "offset": 0,
            "slot": "9",
            "type": "t_mapping(t_address,t_uint256)"
          }
        ],
        "numberOfBytes": "320"
      },
      "t_struct(BorrowedToken)687_storage": {
        "encoding": "inplace",
        "label": "struct BorrowedToken",
        "members": [
          {
            "astId": 676,
            "contract": "contracts/facets/GetterFacet.sol:GetterFacet",
            "label": "tokenAddress",
            "offset": 0,
            "slot": "0",
            "type": "t_address"
          },
          {
            "astId": 678,
            "contract": "contracts/facets/GetterFacet.sol:GetterFacet",
            "label": "borrowerAddress",
            "offset": 0,
            "slot": "1",
            "type": "t_address"
          },
          {
            "astId": 680,
            "contract": "contracts/facets/GetterFacet.sol:GetterFacet",
            "label": "amountBorrowed",
            "offset": 0,
            "slot": "2",
            "type": "t_uint256"
          },
          {
            "astId": 682,
            "contract": "contracts/facets/GetterFacet.sol:GetterFacet",
            "label": "startAccumulatingDay",
            "offset": 0,
            "slot": "3",
            "type": "t_uint256"
          },
          {
            "astId": 684,
            "contract": "contracts/facets/GetterFacet.sol:GetterFacet",
            "label": "borrowedInterest",
            "offset": 0,
            "slot": "4",
            "type": "t_uint256"
          },
          {
            "astId": 686,
            "contract": "contracts/facets/GetterFacet.sol:GetterFacet",
            "label": "stableRate",
            "offset": 0,
            "slot": "5",
            "type": "t_uint256"
          }
        ],
        "numberOfBytes": "192"
      },
      "t_struct(SuppliedToken)674_storage": {
        "encoding": "inplace",
        "label": "struct SuppliedToken",
        "members": [
          {
            "astId": 661,
            "contract": "contracts/facets/GetterFacet.sol:GetterFacet",
            "label": "tokenAddress",
            "offset": 0,
            "slot": "0",
            "type": "t_address"
          },
          {
            "astId": 663,
            "contract": "contracts/facets/GetterFacet.sol:GetterFacet",
            "label": "supplierAddress",
            "offset": 0,
            "slot": "1",
            "type": "t_address"
          },
          {
            "astId": 665,
            "contract": "contracts/facets/GetterFacet.sol:GetterFacet",
            "label": "amountSupplied",
            "offset": 0,
            "slot": "2",
            "type": "t_uint256"
          },
          {
            "astId": 667,
            "contract": "contracts/facets/GetterFacet.sol:GetterFacet",
            "label": "supplyInterest",
            "offset": 0,
            "slot": "3",
            "type": "t_uint256"
          },
          {
            "astId": 669,
            "contract": "contracts/facets/GetterFacet.sol:GetterFacet",
            "label": "supplyStableRate",
            "offset": 0,
            "slot": "4",
            "type": "t_uint256"
          },
          {
            "astId": 671,
            "contract": "contracts/facets/GetterFacet.sol:GetterFacet",
            "label": "startAccumulatingDay",
            "offset": 0,
            "slot": "5",
            "type": "t_uint256"
          },
          {
            "astId": 673,
            "contract": "contracts/facets/GetterFacet.sol:GetterFacet",
            "label": "isCollateral",
            "offset": 0,
            "slot": "6",
            "type": "t_bool"
          }
        ],
        "numberOfBytes": "224"
      },
      "t_struct(Token)659_storage": {
        "encoding": "inplace",
        "label": "struct Token",
        "members": [
          {
            "astId": 648,
            "contract": "contracts/facets/GetterFacet.sol:GetterFacet",
            "label": "tokenAddress",
            "offset": 0,
            "slot": "0",
            "type": "t_address"
          },
          {
            "astId": 650,
            "contract": "contracts/facets/GetterFacet.sol:GetterFacet",
            "label": "liquidationThreshold",
            "offset": 20,
            "slot": "0",
            "type": "t_uint32"
          },
          {
            "astId": 652,
            "contract": "contracts/facets/GetterFacet.sol:GetterFacet",
            "label": "loanToValue",
            "offset": 24,
            "slot": "0",
            "type": "t_uint32"
          },
          {
            "astId": 654,
            "contract": "contracts/facets/GetterFacet.sol:GetterFacet",
            "label": "borrowStableRate",
            "offset": 28,
            "slot": "0",
            "type": "t_uint32"
          },
          {
            "astId": 656,
            "contract": "contracts/facets/GetterFacet.sol:GetterFacet",
            "label": "supplyStableRate",
            "offset": 0,
            "slot": "1",
            "type": "t_uint32"
          },
          {
            "astId": 658,
            "contract": "contracts/facets/GetterFacet.sol:GetterFacet",
            "label": "liquidationPenalty",
            "offset": 4,
            "slot": "1",
            "type": "t_uint32"
          }
        ],
        "numberOfBytes": "64"
      },
      "t_uint256": {
        "encoding": "inplace",
        "label": "uint256",
        "numberOfBytes": "32"
      },
      "t_uint32": {
        "encoding": "inplace",
        "label": "uint32",
        "numberOfBytes": "4"
      }
    }
  }
}