{
  "address": "0x478e787a4D707A4B2C1a60bA2A3f51BF6ab862Dc",
  "abi": [
    {
      "inputs": [],
      "name": "CannotBorrowAmount",
      "type": "error"
    },
    {
      "inputs": [],
      "name": "InsufficientFunds",
      "type": "error"
    },
    {
      "inputs": [],
      "name": "NoAmountAvailableToBorrow",
      "type": "error"
    },
    {
      "inputs": [],
      "name": "ShouldBeGreaterThanZero",
      "type": "error"
    },
    {
      "inputs": [],
      "name": "TokenNotBorrowed",
      "type": "error"
    },
    {
      "inputs": [],
      "name": "UnsupportedToken",
      "type": "error"
    },
    {
      "inputs": [
        {
          "internalType": "address",
          "name": "user",
          "type": "address"
        },
        {
          "internalType": "address",
          "name": "tokenAddress",
          "type": "address"
        }
      ],
      "name": "getTokenMaxAvailableToRepayInUsd",
      "outputs": [
        {
          "internalType": "uint256",
          "name": "",
          "type": "uint256"
        }
      ],
      "stateMutability": "view",
      "type": "function"
    },
    {
      "inputs": [
        {
          "internalType": "address",
          "name": "tokenAddress",
          "type": "address"
        },
        {
          "components": [
            {
              "internalType": "address",
              "name": "tokenAddress",
              "type": "address"
            },
            {
              "internalType": "address",
              "name": "borrowerAddress",
              "type": "address"
            },
            {
              "internalType": "uint256",
              "name": "amountBorrowed",
              "type": "uint256"
            },
            {
              "internalType": "uint256",
              "name": "startAccumulatingDay",
              "type": "uint256"
            },
            {
              "internalType": "uint256",
              "name": "borrowedInterest",
              "type": "uint256"
            },
            {
              "internalType": "uint256",
              "name": "stableRate",
              "type": "uint256"
            }
          ],
          "internalType": "struct BorrowedToken[]",
          "name": "tokenArray",
          "type": "tuple[]"
        }
      ],
      "name": "indexOf",
      "outputs": [
        {
          "internalType": "int256",
          "name": "",
          "type": "int256"
        }
      ],
      "stateMutability": "pure",
      "type": "function"
    },
    {
      "inputs": [
        {
          "internalType": "address",
          "name": "tokenAddress",
          "type": "address"
        },
        {
          "internalType": "uint256",
          "name": "tokenAmount",
          "type": "uint256"
        }
      ],
      "name": "repay",
      "outputs": [],
      "stateMutability": "nonpayable",
      "type": "function"
    }
  ],
  "transactionHash": "0x359a8b13cdf85663eaba6a615d3c5fc19473bfacd22e9bf9710728160d9d1f4d",
  "args": [],
  "numDeployments": 1,
  "solcInputHash": "75fdbab3f97c25afc930f569c413aee9",
  "bytecode": "0x608060405234801561001057600080fd5b5060016000819055506113d8806100286000396000f3fe608060405234801561001057600080fd5b50600436106100415760003560e01c806322867d78146100465780636c15f03c14610062578063a3aaf69514610092575b600080fd5b610060600480360381019061005b9190610d35565b6100c2565b005b61007c60048036038101906100779190610f73565b6107df565b6040516100899190610fe8565b60405180910390f35b6100ac60048036038101906100a79190611003565b61088f565b6040516100b99190611052565b60405180910390f35b600081116100fc576040517fa489d71500000000000000000000000000000000000000000000000000000000815260040160405180910390fd5b6000610190836001800180548060200260200160405190810160405280929190818152602001828054801561018657602002820191906000526020600020905b8160009054906101000a900473ffffffffffffffffffffffffffffffffffffffff1673ffffffffffffffffffffffffffffffffffffffff168152602001906001019080831161013c575b5050505050610be8565b90507fffffffffffffffffffffffffffffffffffffffffffffffffffffffffffffffff81036101eb576040517f6a17288200000000000000000000000000000000000000000000000000000000815260040160405180910390fd5b6000600160050160003373ffffffffffffffffffffffffffffffffffffffff1673ffffffffffffffffffffffffffffffffffffffff168152602001908152602001600020805480602002602001604051908101604052809291908181526020016000905b8282101561035557838290600052602060002090600602016040518060c00160405290816000820160009054906101000a900473ffffffffffffffffffffffffffffffffffffffff1673ffffffffffffffffffffffffffffffffffffffff1673ffffffffffffffffffffffffffffffffffffffff1681526020016001820160009054906101000a900473ffffffffffffffffffffffffffffffffffffffff1673ffffffffffffffffffffffffffffffffffffffff1673ffffffffffffffffffffffffffffffffffffffff1681526020016002820154815260200160038201548152602001600482015481526020016005820154815250508152602001906001019061024f565b505050509050600061036785836107df565b90507fffffffffffffffffffffffffffffffffffffffffffffffffffffffffffffffff81036103c2576040517f2d82c39d00000000000000000000000000000000000000000000000000000000815260040160405180910390fd5b6000600160050160003373ffffffffffffffffffffffffffffffffffffffff1673ffffffffffffffffffffffffffffffffffffffff16815260200190815260200160002082815481106104185761041761106d565b5b90600052602060002090600602016040518060c00160405290816000820160009054906101000a900473ffffffffffffffffffffffffffffffffffffffff1673ffffffffffffffffffffffffffffffffffffffff1673ffffffffffffffffffffffffffffffffffffffff1681526020016001820160009054906101000a900473ffffffffffffffffffffffffffffffffffffffff1673ffffffffffffffffffffffffffffffffffffffff1673ffffffffffffffffffffffffffffffffffffffff168152602001600282015481526020016003820154815260200160048201548152602001600582015481525050905060006201518082606001514261051d91906110cb565b610527919061112e565b9050600061271083604001518460a00151610542919061115f565b61054c919061112e565b9050600061016d828461055f919061115f565b610569919061112e565b90506000818961057991906111a1565b9050808a73ffffffffffffffffffffffffffffffffffffffff166370a08231306040518263ffffffff1660e01b81526004016105b591906111e4565b602060405180830381865afa1580156105d2573d6000803e3d6000fd5b505050506040513d601f19601f820116820180604052508101906105f69190611214565b101561062e576040517f356680b700000000000000000000000000000000000000000000000000000000815260040160405180910390fd5b88600160050160003373ffffffffffffffffffffffffffffffffffffffff1673ffffffffffffffffffffffffffffffffffffffff16815260200190815260200160002087815481106106835761068261106d565b5b906000526020600020906006020160020160008282546106a391906110cb565b9250508190555042600160050160003373ffffffffffffffffffffffffffffffffffffffff1673ffffffffffffffffffffffffffffffffffffffff16815260200190815260200160002087815481106106ff576106fe61106d565b5b9060005260206000209060060201600301819055508973ffffffffffffffffffffffffffffffffffffffff166323b872dd3330846040518463ffffffff1660e01b815260040161075193929190611241565b6020604051808303816000875af1158015610770573d6000803e3d6000fd5b505050506040513d601f19601f8201168201806040525081019061079491906112b0565b6107d3576040517f08c379a00000000000000000000000000000000000000000000000000000000081526004016107ca9061133a565b60405180910390fd5b50505050505050505050565b600080600090505b82518110156108645760008382815181106108055761080461106d565b5b602002602001015190508473ffffffffffffffffffffffffffffffffffffffff16816000015173ffffffffffffffffffffffffffffffffffffffff1603610850578192505050610889565b50808061085c9061135a565b9150506107e7565b507fffffffffffffffffffffffffffffffffffffffffffffffffffffffffffffffff90505b92915050565b600080600160050160008573ffffffffffffffffffffffffffffffffffffffff1673ffffffffffffffffffffffffffffffffffffffff168152602001908152602001600020805480602002602001604051908101604052809291908181526020016000905b828210156109fa57838290600052602060002090600602016040518060c00160405290816000820160009054906101000a900473ffffffffffffffffffffffffffffffffffffffff1673ffffffffffffffffffffffffffffffffffffffff1673ffffffffffffffffffffffffffffffffffffffff1681526020016001820160009054906101000a900473ffffffffffffffffffffffffffffffffffffffff1673ffffffffffffffffffffffffffffffffffffffff1673ffffffffffffffffffffffffffffffffffffffff168152602001600282015481526020016003820154815260200160048201548152602001600582015481525050815260200190600101906108f4565b5050505090506000610a0c84836107df565b90507fffffffffffffffffffffffffffffffffffffffffffffffffffffffffffffffff8103610a4057600092505050610be2565b6000600160050160008773ffffffffffffffffffffffffffffffffffffffff1673ffffffffffffffffffffffffffffffffffffffff1681526020019081526020016000208281548110610a9657610a9561106d565b5b90600052602060002090600602016040518060c00160405290816000820160009054906101000a900473ffffffffffffffffffffffffffffffffffffffff1673ffffffffffffffffffffffffffffffffffffffff1673ffffffffffffffffffffffffffffffffffffffff1681526020016001820160009054906101000a900473ffffffffffffffffffffffffffffffffffffffff1673ffffffffffffffffffffffffffffffffffffffff1673ffffffffffffffffffffffffffffffffffffffff1681526020016002820154815260200160038201548152602001600482015481526020016005820154815250509050600062015180826060015142610b9b91906110cb565b610ba5919061112e565b905060006301e13380828460800151610bbe919061115f565b610bc8919061112e565b9050808360400151610bda91906111a1565b955050505050505b92915050565b600080600090505b8251811015610c6257828181518110610c0c57610c0b61106d565b5b602002602001015173ffffffffffffffffffffffffffffffffffffffff168473ffffffffffffffffffffffffffffffffffffffff1603610c4f5780915050610c87565b8080610c5a9061135a565b915050610bf0565b507fffffffffffffffffffffffffffffffffffffffffffffffffffffffffffffffff90505b92915050565b6000604051905090565b600080fd5b600080fd5b600073ffffffffffffffffffffffffffffffffffffffff82169050919050565b6000610ccc82610ca1565b9050919050565b610cdc81610cc1565b8114610ce757600080fd5b50565b600081359050610cf981610cd3565b92915050565b6000819050919050565b610d1281610cff565b8114610d1d57600080fd5b50565b600081359050610d2f81610d09565b92915050565b60008060408385031215610d4c57610d4b610c97565b5b6000610d5a85828601610cea565b9250506020610d6b85828601610d20565b9150509250929050565b600080fd5b6000601f19601f8301169050919050565b7f4e487b7100000000000000000000000000000000000000000000000000000000600052604160045260246000fd5b610dc382610d7a565b810181811067ffffffffffffffff82111715610de257610de1610d8b565b5b80604052505050565b6000610df5610c8d565b9050610e018282610dba565b919050565b600067ffffffffffffffff821115610e2157610e20610d8b565b5b602082029050602081019050919050565b600080fd5b600080fd5b600060c08284031215610e5257610e51610e37565b5b610e5c60c0610deb565b90506000610e6c84828501610cea565b6000830152506020610e8084828501610cea565b6020830152506040610e9484828501610d20565b6040830152506060610ea884828501610d20565b6060830152506080610ebc84828501610d20565b60808301525060a0610ed084828501610d20565b60a08301525092915050565b6000610eef610eea84610e06565b610deb565b90508083825260208201905060c08402830185811115610f1257610f11610e32565b5b835b81811015610f3b5780610f278882610e3c565b84526020840193505060c081019050610f14565b5050509392505050565b600082601f830112610f5a57610f59610d75565b5b8135610f6a848260208601610edc565b91505092915050565b60008060408385031215610f8a57610f89610c97565b5b6000610f9885828601610cea565b925050602083013567ffffffffffffffff811115610fb957610fb8610c9c565b5b610fc585828601610f45565b9150509250929050565b6000819050919050565b610fe281610fcf565b82525050565b6000602082019050610ffd6000830184610fd9565b92915050565b6000806040838503121561101a57611019610c97565b5b600061102885828601610cea565b925050602061103985828601610cea565b9150509250929050565b61104c81610cff565b82525050565b60006020820190506110676000830184611043565b92915050565b7f4e487b7100000000000000000000000000000000000000000000000000000000600052603260045260246000fd5b7f4e487b7100000000000000000000000000000000000000000000000000000000600052601160045260246000fd5b60006110d682610cff565b91506110e183610cff565b92508282039050818111156110f9576110f861109c565b5b92915050565b7f4e487b7100000000000000000000000000000000000000000000000000000000600052601260045260246000fd5b600061113982610cff565b915061114483610cff565b925082611154576111536110ff565b5b828204905092915050565b600061116a82610cff565b915061117583610cff565b925082820261118381610cff565b9150828204841483151761119a5761119961109c565b5b5092915050565b60006111ac82610cff565b91506111b783610cff565b92508282019050808211156111cf576111ce61109c565b5b92915050565b6111de81610cc1565b82525050565b60006020820190506111f960008301846111d5565b92915050565b60008151905061120e81610d09565b92915050565b60006020828403121561122a57611229610c97565b5b6000611238848285016111ff565b91505092915050565b600060608201905061125660008301866111d5565b61126360208301856111d5565b6112706040830184611043565b949350505050565b60008115159050919050565b61128d81611278565b811461129857600080fd5b50565b6000815190506112aa81611284565b92915050565b6000602082840312156112c6576112c5610c97565b5b60006112d48482850161129b565b91505092915050565b600082825260208201905092915050565b7f496e73756666696369656e742066756e64730000000000000000000000000000600082015250565b60006113246012836112dd565b915061132f826112ee565b602082019050919050565b6000602082019050818103600083015261135381611317565b9050919050565b600061136582610cff565b91507fffffffffffffffffffffffffffffffffffffffffffffffffffffffffffffffff82036113975761139661109c565b5b60018201905091905056fea26469706673582212209dcaadc0d4ba0c45c769e12d7cca80744123ec26f7992452b1000e7229ae818664736f6c63430008110033",
  "devdoc": {
    "kind": "dev",
    "methods": {},
    "version": 1
  },
  "userdoc": {
    "kind": "user",
    "methods": {},
    "version": 1
  },
  "storageLayout": {
    "storage": [
      {
        "astId": 56,
        "contract": "contracts/facets/RepayFacet.sol:RepayFacet",
        "label": "_status",
        "offset": 0,
        "slot": "0",
        "type": "t_uint256"
      },
      {
        "astId": 1844,
        "contract": "contracts/facets/RepayFacet.sol:RepayFacet",
        "label": "s",
        "offset": 0,
        "slot": "1",
        "type": "t_struct(AppStorage)3448_storage"
      }
    ],
    "types": {
      "t_address": {
        "encoding": "inplace",
        "label": "address",
        "numberOfBytes": "20"
      },
      "t_array(t_address)dyn_storage": {
        "base": "t_address",
        "encoding": "dynamic_array",
        "label": "address[]",
        "numberOfBytes": "32"
      },
      "t_array(t_struct(BorrowedToken)3410_storage)dyn_storage": {
        "base": "t_struct(BorrowedToken)3410_storage",
        "encoding": "dynamic_array",
        "label": "struct BorrowedToken[]",
        "numberOfBytes": "32"
      },
      "t_array(t_struct(SuppliedToken)3397_storage)dyn_storage": {
        "base": "t_struct(SuppliedToken)3397_storage",
        "encoding": "dynamic_array",
        "label": "struct SuppliedToken[]",
        "numberOfBytes": "32"
      },
      "t_bool": {
        "encoding": "inplace",
        "label": "bool",
        "numberOfBytes": "1"
      },
      "t_mapping(t_address,t_address)": {
        "encoding": "mapping",
        "key": "t_address",
        "label": "mapping(address => address)",
        "numberOfBytes": "32",
        "value": "t_address"
      },
      "t_mapping(t_address,t_array(t_struct(BorrowedToken)3410_storage)dyn_storage)": {
        "encoding": "mapping",
        "key": "t_address",
        "label": "mapping(address => struct BorrowedToken[])",
        "numberOfBytes": "32",
        "value": "t_array(t_struct(BorrowedToken)3410_storage)dyn_storage"
      },
      "t_mapping(t_address,t_array(t_struct(SuppliedToken)3397_storage)dyn_storage)": {
        "encoding": "mapping",
        "key": "t_address",
        "label": "mapping(address => struct SuppliedToken[])",
        "numberOfBytes": "32",
        "value": "t_array(t_struct(SuppliedToken)3397_storage)dyn_storage"
      },
      "t_mapping(t_address,t_struct(Token)3382_storage)": {
        "encoding": "mapping",
        "key": "t_address",
        "label": "mapping(address => struct Token)",
        "numberOfBytes": "32",
        "value": "t_struct(Token)3382_storage"
      },
      "t_struct(AppStorage)3448_storage": {
        "encoding": "inplace",
        "label": "struct AppStorage",
        "members": [
          {
            "astId": 3417,
            "contract": "contracts/facets/RepayFacet.sol:RepayFacet",
            "label": "larTokenAddress",
            "offset": 0,
            "slot": "0",
            "type": "t_address"
          },
          {
            "astId": 3420,
            "contract": "contracts/facets/RepayFacet.sol:RepayFacet",
            "label": "supportedTokens",
            "offset": 0,
            "slot": "1",
            "type": "t_array(t_address)dyn_storage"
          },
          {
            "astId": 3425,
            "contract": "contracts/facets/RepayFacet.sol:RepayFacet",
            "label": "addressToToken",
            "offset": 0,
            "slot": "2",
            "type": "t_mapping(t_address,t_struct(Token)3382_storage)"
          },
          {
            "astId": 3429,
            "contract": "contracts/facets/RepayFacet.sol:RepayFacet",
            "label": "tokenToPriceFeed",
            "offset": 0,
            "slot": "3",
            "type": "t_mapping(t_address,t_address)"
          },
          {
            "astId": 3435,
            "contract": "contracts/facets/RepayFacet.sol:RepayFacet",
            "label": "tokensSupplied",
            "offset": 0,
            "slot": "4",
            "type": "t_mapping(t_address,t_array(t_struct(SuppliedToken)3397_storage)dyn_storage)"
          },
          {
            "astId": 3441,
            "contract": "contracts/facets/RepayFacet.sol:RepayFacet",
            "label": "tokensBorrowed",
            "offset": 0,
            "slot": "5",
            "type": "t_mapping(t_address,t_array(t_struct(BorrowedToken)3410_storage)dyn_storage)"
          },
          {
            "astId": 3444,
            "contract": "contracts/facets/RepayFacet.sol:RepayFacet",
            "label": "allSuppliers",
            "offset": 0,
            "slot": "6",
            "type": "t_array(t_address)dyn_storage"
          },
          {
            "astId": 3447,
            "contract": "contracts/facets/RepayFacet.sol:RepayFacet",
            "label": "allBorrowers",
            "offset": 0,
            "slot": "7",
            "type": "t_array(t_address)dyn_storage"
          }
        ],
        "numberOfBytes": "256"
      },
      "t_struct(BorrowedToken)3410_storage": {
        "encoding": "inplace",
        "label": "struct BorrowedToken",
        "members": [
          {
            "astId": 3399,
            "contract": "contracts/facets/RepayFacet.sol:RepayFacet",
            "label": "tokenAddress",
            "offset": 0,
            "slot": "0",
            "type": "t_address"
          },
          {
            "astId": 3401,
            "contract": "contracts/facets/RepayFacet.sol:RepayFacet",
            "label": "borrowerAddress",
            "offset": 0,
            "slot": "1",
            "type": "t_address"
          },
          {
            "astId": 3403,
            "contract": "contracts/facets/RepayFacet.sol:RepayFacet",
            "label": "amountBorrowed",
            "offset": 0,
            "slot": "2",
            "type": "t_uint256"
          },
          {
            "astId": 3405,
            "contract": "contracts/facets/RepayFacet.sol:RepayFacet",
            "label": "startAccumulatingDay",
            "offset": 0,
            "slot": "3",
            "type": "t_uint256"
          },
          {
            "astId": 3407,
            "contract": "contracts/facets/RepayFacet.sol:RepayFacet",
            "label": "borrowedInterest",
            "offset": 0,
            "slot": "4",
            "type": "t_uint256"
          },
          {
            "astId": 3409,
            "contract": "contracts/facets/RepayFacet.sol:RepayFacet",
            "label": "stableRate",
            "offset": 0,
            "slot": "5",
            "type": "t_uint256"
          }
        ],
        "numberOfBytes": "192"
      },
      "t_struct(SuppliedToken)3397_storage": {
        "encoding": "inplace",
        "label": "struct SuppliedToken",
        "members": [
          {
            "astId": 3384,
            "contract": "contracts/facets/RepayFacet.sol:RepayFacet",
            "label": "tokenAddress",
            "offset": 0,
            "slot": "0",
            "type": "t_address"
          },
          {
            "astId": 3386,
            "contract": "contracts/facets/RepayFacet.sol:RepayFacet",
            "label": "supplierAddress",
            "offset": 0,
            "slot": "1",
            "type": "t_address"
          },
          {
            "astId": 3388,
            "contract": "contracts/facets/RepayFacet.sol:RepayFacet",
            "label": "amountSupplied",
            "offset": 0,
            "slot": "2",
            "type": "t_uint256"
          },
          {
            "astId": 3390,
            "contract": "contracts/facets/RepayFacet.sol:RepayFacet",
            "label": "supplyInterest",
            "offset": 0,
            "slot": "3",
            "type": "t_uint256"
          },
          {
            "astId": 3392,
            "contract": "contracts/facets/RepayFacet.sol:RepayFacet",
            "label": "supplyStableRate",
            "offset": 0,
            "slot": "4",
            "type": "t_uint256"
          },
          {
            "astId": 3394,
            "contract": "contracts/facets/RepayFacet.sol:RepayFacet",
            "label": "startAccumulatingDay",
            "offset": 0,
            "slot": "5",
            "type": "t_uint256"
          },
          {
            "astId": 3396,
            "contract": "contracts/facets/RepayFacet.sol:RepayFacet",
            "label": "isCollateral",
            "offset": 0,
            "slot": "6",
            "type": "t_bool"
          }
        ],
        "numberOfBytes": "224"
      },
      "t_struct(Token)3382_storage": {
        "encoding": "inplace",
        "label": "struct Token",
        "members": [
          {
            "astId": 3371,
            "contract": "contracts/facets/RepayFacet.sol:RepayFacet",
            "label": "tokenAddress",
            "offset": 0,
            "slot": "0",
            "type": "t_address"
          },
          {
            "astId": 3373,
            "contract": "contracts/facets/RepayFacet.sol:RepayFacet",
            "label": "liquidationThreshold",
            "offset": 20,
            "slot": "0",
            "type": "t_uint32"
          },
          {
            "astId": 3375,
            "contract": "contracts/facets/RepayFacet.sol:RepayFacet",
            "label": "loanToValue",
            "offset": 24,
            "slot": "0",
            "type": "t_uint32"
          },
          {
            "astId": 3377,
            "contract": "contracts/facets/RepayFacet.sol:RepayFacet",
            "label": "borrowStableRate",
            "offset": 28,
            "slot": "0",
            "type": "t_uint32"
          },
          {
            "astId": 3379,
            "contract": "contracts/facets/RepayFacet.sol:RepayFacet",
            "label": "supplyStableRate",
            "offset": 0,
            "slot": "1",
            "type": "t_uint32"
          },
          {
            "astId": 3381,
            "contract": "contracts/facets/RepayFacet.sol:RepayFacet",
            "label": "liquidationPenalty",
            "offset": 4,
            "slot": "1",
            "type": "t_uint32"
          }
        ],
        "numberOfBytes": "64"
      },
      "t_uint256": {
        "encoding": "inplace",
        "label": "uint256",
        "numberOfBytes": "32"
      },
      "t_uint32": {
        "encoding": "inplace",
        "label": "uint32",
        "numberOfBytes": "4"
      }
    }
  }
}