{
  "address": "0x03735009eC3393005B0297c4013733eeAD360bCC",
  "abi": [
    {
      "inputs": [],
      "name": "CannotBorrowAmount",
      "type": "error"
    },
    {
      "inputs": [],
      "name": "InsufficientFunds",
      "type": "error"
    },
    {
      "inputs": [],
      "name": "NoAmountAvailableToBorrow",
      "type": "error"
    },
    {
      "inputs": [],
      "name": "ShouldBeGreaterThanZero",
      "type": "error"
    },
    {
      "inputs": [],
      "name": "TokenNotBorrowed",
      "type": "error"
    },
    {
      "inputs": [],
      "name": "UnsupportedToken",
      "type": "error"
    },
    {
      "inputs": [
        {
          "internalType": "address",
          "name": "user",
          "type": "address"
        },
        {
          "internalType": "address",
          "name": "tokenAddress",
          "type": "address"
        }
      ],
      "name": "getTokenMaxAvailableToRepay",
      "outputs": [
        {
          "internalType": "uint256",
          "name": "totalToRepay",
          "type": "uint256"
        }
      ],
      "stateMutability": "view",
      "type": "function"
    },
    {
      "inputs": [
        {
          "internalType": "address",
          "name": "tokenAddress",
          "type": "address"
        },
        {
          "components": [
            {
              "internalType": "address",
              "name": "tokenAddress",
              "type": "address"
            },
            {
              "internalType": "address",
              "name": "borrowerAddress",
              "type": "address"
            },
            {
              "internalType": "uint256",
              "name": "amountBorrowed",
              "type": "uint256"
            },
            {
              "internalType": "uint256",
              "name": "startAccumulatingDay",
              "type": "uint256"
            },
            {
              "internalType": "uint256",
              "name": "borrowedInterest",
              "type": "uint256"
            },
            {
              "internalType": "uint256",
              "name": "stableRate",
              "type": "uint256"
            }
          ],
          "internalType": "struct BorrowedToken[]",
          "name": "tokenArray",
          "type": "tuple[]"
        }
      ],
      "name": "indexOf",
      "outputs": [
        {
          "internalType": "int256",
          "name": "",
          "type": "int256"
        }
      ],
      "stateMutability": "pure",
      "type": "function"
    },
    {
      "inputs": [
        {
          "internalType": "address",
          "name": "tokenAddress",
          "type": "address"
        },
        {
          "internalType": "uint256",
          "name": "tokenAmount",
          "type": "uint256"
        }
      ],
      "name": "repay",
      "outputs": [],
      "stateMutability": "nonpayable",
      "type": "function"
    }
  ],
  "transactionHash": "0x05b3addebe86690c761b6ba5db8e540648a639a7dec9bbaabbe1f21935451897",
  "args": [],
  "numDeployments": 1,
  "solcInputHash": "20934277f27467509ab8e73e7d8d337c",
  "bytecode": "0x608060405234801561001057600080fd5b5060016000819055506116b4806100286000396000f3fe608060405234801561001057600080fd5b50600436106100415760003560e01c806322867d78146100465780636bd2b054146100625780636c15f03c14610092575b600080fd5b610060600480360381019061005b9190610fe2565b6100c2565b005b61007c60048036038101906100779190611022565b610a6e565b6040516100899190611071565b60405180910390f35b6100ac60048036038101906100a7919061128a565b610de5565b6040516100b991906112ff565b60405180910390f35b600081116100fc576040517fa489d71500000000000000000000000000000000000000000000000000000000815260040160405180910390fd5b6000610190836001800180548060200260200160405190810160405280929190818152602001828054801561018657602002820191906000526020600020905b8160009054906101000a900473ffffffffffffffffffffffffffffffffffffffff1673ffffffffffffffffffffffffffffffffffffffff168152602001906001019080831161013c575b5050505050610e95565b90507fffffffffffffffffffffffffffffffffffffffffffffffffffffffffffffffff81036101eb576040517f6a17288200000000000000000000000000000000000000000000000000000000815260040160405180910390fd5b6000600160050160003373ffffffffffffffffffffffffffffffffffffffff1673ffffffffffffffffffffffffffffffffffffffff168152602001908152602001600020805480602002602001604051908101604052809291908181526020016000905b8282101561035557838290600052602060002090600602016040518060c00160405290816000820160009054906101000a900473ffffffffffffffffffffffffffffffffffffffff1673ffffffffffffffffffffffffffffffffffffffff1673ffffffffffffffffffffffffffffffffffffffff1681526020016001820160009054906101000a900473ffffffffffffffffffffffffffffffffffffffff1673ffffffffffffffffffffffffffffffffffffffff1673ffffffffffffffffffffffffffffffffffffffff1681526020016002820154815260200160038201548152602001600482015481526020016005820154815250508152602001906001019061024f565b50505050905060006103678583610de5565b90507fffffffffffffffffffffffffffffffffffffffffffffffffffffffffffffffff81036103c2576040517f2d82c39d00000000000000000000000000000000000000000000000000000000815260040160405180910390fd5b6000600160050160003373ffffffffffffffffffffffffffffffffffffffff1673ffffffffffffffffffffffffffffffffffffffff16815260200190815260200160002082815481106104185761041761131a565b5b90600052602060002090600602016040518060c00160405290816000820160009054906101000a900473ffffffffffffffffffffffffffffffffffffffff1673ffffffffffffffffffffffffffffffffffffffff1673ffffffffffffffffffffffffffffffffffffffff1681526020016001820160009054906101000a900473ffffffffffffffffffffffffffffffffffffffff1673ffffffffffffffffffffffffffffffffffffffff1673ffffffffffffffffffffffffffffffffffffffff168152602001600282015481526020016003820154815260200160048201548152602001600582015481525050905060006201518082606001514261051d9190611378565b61052791906113db565b9050600061271083604001518460a00151610542919061140c565b61054c91906113db565b9050600061016d828461055f919061140c565b61056991906113db565b905060008189610579919061144e565b9050808a73ffffffffffffffffffffffffffffffffffffffff166370a08231306040518263ffffffff1660e01b81526004016105b59190611491565b602060405180830381865afa1580156105d2573d6000803e3d6000fd5b505050506040513d601f19601f820116820180604052508101906105f691906114c1565b101561062e576040517f356680b700000000000000000000000000000000000000000000000000000000815260040160405180910390fd5b88600160050160003373ffffffffffffffffffffffffffffffffffffffff1673ffffffffffffffffffffffffffffffffffffffff16815260200190815260200160002087815481106106835761068261131a565b5b906000526020600020906006020160020160008282546106a39190611378565b9250508190555042600160050160003373ffffffffffffffffffffffffffffffffffffffff1673ffffffffffffffffffffffffffffffffffffffff16815260200190815260200160002087815481106106ff576106fe61131a565b5b90600052602060002090600602016003018190555088600160090160008c73ffffffffffffffffffffffffffffffffffffffff1673ffffffffffffffffffffffffffffffffffffffff16815260200190815260200160002060008282546107669190611378565b92505081905550846040015189106109a3576000600160050160003373ffffffffffffffffffffffffffffffffffffffff1673ffffffffffffffffffffffffffffffffffffffff168152602001908152602001600020905080600182805490506107d09190611378565b815481106107e1576107e061131a565b5b90600052602060002090600602018188815481106108025761080161131a565b5b90600052602060002090600602016000820160009054906101000a900473ffffffffffffffffffffffffffffffffffffffff168160000160006101000a81548173ffffffffffffffffffffffffffffffffffffffff021916908373ffffffffffffffffffffffffffffffffffffffff1602179055506001820160009054906101000a900473ffffffffffffffffffffffffffffffffffffffff168160010160006101000a81548173ffffffffffffffffffffffffffffffffffffffff021916908373ffffffffffffffffffffffffffffffffffffffff160217905550600282015481600201556003820154816003015560048201548160040155600582015481600501559050508080548061091a576109196114ee565b5b6001900381819060005260206000209060060201600080820160006101000a81549073ffffffffffffffffffffffffffffffffffffffff02191690556001820160006101000a81549073ffffffffffffffffffffffffffffffffffffffff0219169055600282016000905560038201600090556004820160009055600582016000905550509055505b8973ffffffffffffffffffffffffffffffffffffffff166323b872dd3330846040518463ffffffff1660e01b81526004016109e09392919061151d565b6020604051808303816000875af11580156109ff573d6000803e3d6000fd5b505050506040513d601f19601f82011682018060405250810190610a23919061158c565b610a62576040517f08c379a0000000000000000000000000000000000000000000000000000000008152600401610a5990611616565b60405180910390fd5b50505050505050505050565b600080600160050160008573ffffffffffffffffffffffffffffffffffffffff1673ffffffffffffffffffffffffffffffffffffffff168152602001908152602001600020805480602002602001604051908101604052809291908181526020016000905b82821015610bd957838290600052602060002090600602016040518060c00160405290816000820160009054906101000a900473ffffffffffffffffffffffffffffffffffffffff1673ffffffffffffffffffffffffffffffffffffffff1673ffffffffffffffffffffffffffffffffffffffff1681526020016001820160009054906101000a900473ffffffffffffffffffffffffffffffffffffffff1673ffffffffffffffffffffffffffffffffffffffff1673ffffffffffffffffffffffffffffffffffffffff16815260200160028201548152602001600382015481526020016004820154815260200160058201548152505081526020019060010190610ad3565b5050505090506000610beb8483610de5565b90507fffffffffffffffffffffffffffffffffffffffffffffffffffffffffffffffff8103610c1d5760009250610ddd565b6000600160050160008773ffffffffffffffffffffffffffffffffffffffff1673ffffffffffffffffffffffffffffffffffffffff1681526020019081526020016000208281548110610c7357610c7261131a565b5b90600052602060002090600602016040518060c00160405290816000820160009054906101000a900473ffffffffffffffffffffffffffffffffffffffff1673ffffffffffffffffffffffffffffffffffffffff1673ffffffffffffffffffffffffffffffffffffffff1681526020016001820160009054906101000a900473ffffffffffffffffffffffffffffffffffffffff1673ffffffffffffffffffffffffffffffffffffffff1673ffffffffffffffffffffffffffffffffffffffff1681526020016002820154815260200160038201548152602001600482015481526020016005820154815250509050600062015180826060015142610d789190611378565b610d8291906113db565b9050600061271083604001518460a00151610d9d919061140c565b610da791906113db565b9050600061016d8284610dba919061140c565b610dc491906113db565b9050808460400151610dd6919061144e565b9650505050505b505092915050565b600080600090505b8251811015610e6a576000838281518110610e0b57610e0a61131a565b5b602002602001015190508473ffffffffffffffffffffffffffffffffffffffff16816000015173ffffffffffffffffffffffffffffffffffffffff1603610e56578192505050610e8f565b508080610e6290611636565b915050610ded565b507fffffffffffffffffffffffffffffffffffffffffffffffffffffffffffffffff90505b92915050565b600080600090505b8251811015610f0f57828181518110610eb957610eb861131a565b5b602002602001015173ffffffffffffffffffffffffffffffffffffffff168473ffffffffffffffffffffffffffffffffffffffff1603610efc5780915050610f34565b8080610f0790611636565b915050610e9d565b507fffffffffffffffffffffffffffffffffffffffffffffffffffffffffffffffff90505b92915050565b6000604051905090565b600080fd5b600080fd5b600073ffffffffffffffffffffffffffffffffffffffff82169050919050565b6000610f7982610f4e565b9050919050565b610f8981610f6e565b8114610f9457600080fd5b50565b600081359050610fa681610f80565b92915050565b6000819050919050565b610fbf81610fac565b8114610fca57600080fd5b50565b600081359050610fdc81610fb6565b92915050565b60008060408385031215610ff957610ff8610f44565b5b600061100785828601610f97565b925050602061101885828601610fcd565b9150509250929050565b6000806040838503121561103957611038610f44565b5b600061104785828601610f97565b925050602061105885828601610f97565b9150509250929050565b61106b81610fac565b82525050565b60006020820190506110866000830184611062565b92915050565b600080fd5b6000601f19601f8301169050919050565b7f4e487b7100000000000000000000000000000000000000000000000000000000600052604160045260246000fd5b6110da82611091565b810181811067ffffffffffffffff821117156110f9576110f86110a2565b5b80604052505050565b600061110c610f3a565b905061111882826110d1565b919050565b600067ffffffffffffffff821115611138576111376110a2565b5b602082029050602081019050919050565b600080fd5b600080fd5b600060c082840312156111695761116861114e565b5b61117360c0611102565b9050600061118384828501610f97565b600083015250602061119784828501610f97565b60208301525060406111ab84828501610fcd565b60408301525060606111bf84828501610fcd565b60608301525060806111d384828501610fcd565b60808301525060a06111e784828501610fcd565b60a08301525092915050565b60006112066112018461111d565b611102565b90508083825260208201905060c0840283018581111561122957611228611149565b5b835b81811015611252578061123e8882611153565b84526020840193505060c08101905061122b565b5050509392505050565b600082601f8301126112715761127061108c565b5b81356112818482602086016111f3565b91505092915050565b600080604083850312156112a1576112a0610f44565b5b60006112af85828601610f97565b925050602083013567ffffffffffffffff8111156112d0576112cf610f49565b5b6112dc8582860161125c565b9150509250929050565b6000819050919050565b6112f9816112e6565b82525050565b600060208201905061131460008301846112f0565b92915050565b7f4e487b7100000000000000000000000000000000000000000000000000000000600052603260045260246000fd5b7f4e487b7100000000000000000000000000000000000000000000000000000000600052601160045260246000fd5b600061138382610fac565b915061138e83610fac565b92508282039050818111156113a6576113a5611349565b5b92915050565b7f4e487b7100000000000000000000000000000000000000000000000000000000600052601260045260246000fd5b60006113e682610fac565b91506113f183610fac565b925082611401576114006113ac565b5b828204905092915050565b600061141782610fac565b915061142283610fac565b925082820261143081610fac565b9150828204841483151761144757611446611349565b5b5092915050565b600061145982610fac565b915061146483610fac565b925082820190508082111561147c5761147b611349565b5b92915050565b61148b81610f6e565b82525050565b60006020820190506114a66000830184611482565b92915050565b6000815190506114bb81610fb6565b92915050565b6000602082840312156114d7576114d6610f44565b5b60006114e5848285016114ac565b91505092915050565b7f4e487b7100000000000000000000000000000000000000000000000000000000600052603160045260246000fd5b60006060820190506115326000830186611482565b61153f6020830185611482565b61154c6040830184611062565b949350505050565b60008115159050919050565b61156981611554565b811461157457600080fd5b50565b60008151905061158681611560565b92915050565b6000602082840312156115a2576115a1610f44565b5b60006115b084828501611577565b91505092915050565b600082825260208201905092915050565b7f496e73756666696369656e742066756e64730000000000000000000000000000600082015250565b60006116006012836115b9565b915061160b826115ca565b602082019050919050565b6000602082019050818103600083015261162f816115f3565b9050919050565b600061164182610fac565b91507fffffffffffffffffffffffffffffffffffffffffffffffffffffffffffffffff820361167357611672611349565b5b60018201905091905056fea26469706673582212202cb057847ceef4b80e969b3463a2518cd1be617bae92637e4805557c254a02d064736f6c63430008110033",
  "devdoc": {
    "kind": "dev",
    "methods": {},
    "version": 1
  },
  "userdoc": {
    "kind": "user",
    "methods": {},
    "version": 1
  },
  "storageLayout": {
    "storage": [
      {
        "astId": 56,
        "contract": "contracts/facets/RepayFacet.sol:RepayFacet",
        "label": "_status",
        "offset": 0,
        "slot": "0",
        "type": "t_uint256"
      },
      {
        "astId": 280,
        "contract": "contracts/facets/RepayFacet.sol:RepayFacet",
        "label": "s",
        "offset": 0,
        "slot": "1",
        "type": "t_struct(AppStorage)1286_storage"
      }
    ],
    "types": {
      "t_address": {
        "encoding": "inplace",
        "label": "address",
        "numberOfBytes": "20"
      },
      "t_array(t_address)dyn_storage": {
        "base": "t_address",
        "encoding": "dynamic_array",
        "label": "address[]",
        "numberOfBytes": "32"
      },
      "t_array(t_struct(BorrowedToken)1240_storage)dyn_storage": {
        "base": "t_struct(BorrowedToken)1240_storage",
        "encoding": "dynamic_array",
        "label": "struct BorrowedToken[]",
        "numberOfBytes": "32"
      },
      "t_array(t_struct(SuppliedToken)1227_storage)dyn_storage": {
        "base": "t_struct(SuppliedToken)1227_storage",
        "encoding": "dynamic_array",
        "label": "struct SuppliedToken[]",
        "numberOfBytes": "32"
      },
      "t_bool": {
        "encoding": "inplace",
        "label": "bool",
        "numberOfBytes": "1"
      },
      "t_mapping(t_address,t_address)": {
        "encoding": "mapping",
        "key": "t_address",
        "label": "mapping(address => address)",
        "numberOfBytes": "32",
        "value": "t_address"
      },
      "t_mapping(t_address,t_array(t_struct(BorrowedToken)1240_storage)dyn_storage)": {
        "encoding": "mapping",
        "key": "t_address",
        "label": "mapping(address => struct BorrowedToken[])",
        "numberOfBytes": "32",
        "value": "t_array(t_struct(BorrowedToken)1240_storage)dyn_storage"
      },
      "t_mapping(t_address,t_array(t_struct(SuppliedToken)1227_storage)dyn_storage)": {
        "encoding": "mapping",
        "key": "t_address",
        "label": "mapping(address => struct SuppliedToken[])",
        "numberOfBytes": "32",
        "value": "t_array(t_struct(SuppliedToken)1227_storage)dyn_storage"
      },
      "t_mapping(t_address,t_struct(Token)1212_storage)": {
        "encoding": "mapping",
        "key": "t_address",
        "label": "mapping(address => struct Token)",
        "numberOfBytes": "32",
        "value": "t_struct(Token)1212_storage"
      },
      "t_mapping(t_address,t_uint256)": {
        "encoding": "mapping",
        "key": "t_address",
        "label": "mapping(address => uint256)",
        "numberOfBytes": "32",
        "value": "t_uint256"
      },
      "t_struct(AppStorage)1286_storage": {
        "encoding": "inplace",
        "label": "struct AppStorage",
        "members": [
          {
            "astId": 1247,
            "contract": "contracts/facets/RepayFacet.sol:RepayFacet",
            "label": "larTokenAddress",
            "offset": 0,
            "slot": "0",
            "type": "t_address"
          },
          {
            "astId": 1250,
            "contract": "contracts/facets/RepayFacet.sol:RepayFacet",
            "label": "supportedTokens",
            "offset": 0,
            "slot": "1",
            "type": "t_array(t_address)dyn_storage"
          },
          {
            "astId": 1255,
            "contract": "contracts/facets/RepayFacet.sol:RepayFacet",
            "label": "addressToToken",
            "offset": 0,
            "slot": "2",
            "type": "t_mapping(t_address,t_struct(Token)1212_storage)"
          },
          {
            "astId": 1259,
            "contract": "contracts/facets/RepayFacet.sol:RepayFacet",
            "label": "tokenToPriceFeed",
            "offset": 0,
            "slot": "3",
            "type": "t_mapping(t_address,t_address)"
          },
          {
            "astId": 1265,
            "contract": "contracts/facets/RepayFacet.sol:RepayFacet",
            "label": "tokensSupplied",
            "offset": 0,
            "slot": "4",
            "type": "t_mapping(t_address,t_array(t_struct(SuppliedToken)1227_storage)dyn_storage)"
          },
          {
            "astId": 1271,
            "contract": "contracts/facets/RepayFacet.sol:RepayFacet",
            "label": "tokensBorrowed",
            "offset": 0,
            "slot": "5",
            "type": "t_mapping(t_address,t_array(t_struct(BorrowedToken)1240_storage)dyn_storage)"
          },
          {
            "astId": 1274,
            "contract": "contracts/facets/RepayFacet.sol:RepayFacet",
            "label": "allSuppliers",
            "offset": 0,
            "slot": "6",
            "type": "t_array(t_address)dyn_storage"
          },
          {
            "astId": 1277,
            "contract": "contracts/facets/RepayFacet.sol:RepayFacet",
            "label": "allBorrowers",
            "offset": 0,
            "slot": "7",
            "type": "t_array(t_address)dyn_storage"
          },
          {
            "astId": 1281,
            "contract": "contracts/facets/RepayFacet.sol:RepayFacet",
            "label": "totalSupplied",
            "offset": 0,
            "slot": "8",
            "type": "t_mapping(t_address,t_uint256)"
          },
          {
            "astId": 1285,
            "contract": "contracts/facets/RepayFacet.sol:RepayFacet",
            "label": "totalBorrowed",
            "offset": 0,
            "slot": "9",
            "type": "t_mapping(t_address,t_uint256)"
          }
        ],
        "numberOfBytes": "320"
      },
      "t_struct(BorrowedToken)1240_storage": {
        "encoding": "inplace",
        "label": "struct BorrowedToken",
        "members": [
          {
            "astId": 1229,
            "contract": "contracts/facets/RepayFacet.sol:RepayFacet",
            "label": "tokenAddress",
            "offset": 0,
            "slot": "0",
            "type": "t_address"
          },
          {
            "astId": 1231,
            "contract": "contracts/facets/RepayFacet.sol:RepayFacet",
            "label": "borrowerAddress",
            "offset": 0,
            "slot": "1",
            "type": "t_address"
          },
          {
            "astId": 1233,
            "contract": "contracts/facets/RepayFacet.sol:RepayFacet",
            "label": "amountBorrowed",
            "offset": 0,
            "slot": "2",
            "type": "t_uint256"
          },
          {
            "astId": 1235,
            "contract": "contracts/facets/RepayFacet.sol:RepayFacet",
            "label": "startAccumulatingDay",
            "offset": 0,
            "slot": "3",
            "type": "t_uint256"
          },
          {
            "astId": 1237,
            "contract": "contracts/facets/RepayFacet.sol:RepayFacet",
            "label": "borrowedInterest",
            "offset": 0,
            "slot": "4",
            "type": "t_uint256"
          },
          {
            "astId": 1239,
            "contract": "contracts/facets/RepayFacet.sol:RepayFacet",
            "label": "stableRate",
            "offset": 0,
            "slot": "5",
            "type": "t_uint256"
          }
        ],
        "numberOfBytes": "192"
      },
      "t_struct(SuppliedToken)1227_storage": {
        "encoding": "inplace",
        "label": "struct SuppliedToken",
        "members": [
          {
            "astId": 1214,
            "contract": "contracts/facets/RepayFacet.sol:RepayFacet",
            "label": "tokenAddress",
            "offset": 0,
            "slot": "0",
            "type": "t_address"
          },
          {
            "astId": 1216,
            "contract": "contracts/facets/RepayFacet.sol:RepayFacet",
            "label": "supplierAddress",
            "offset": 0,
            "slot": "1",
            "type": "t_address"
          },
          {
            "astId": 1218,
            "contract": "contracts/facets/RepayFacet.sol:RepayFacet",
            "label": "amountSupplied",
            "offset": 0,
            "slot": "2",
            "type": "t_uint256"
          },
          {
            "astId": 1220,
            "contract": "contracts/facets/RepayFacet.sol:RepayFacet",
            "label": "supplyInterest",
            "offset": 0,
            "slot": "3",
            "type": "t_uint256"
          },
          {
            "astId": 1222,
            "contract": "contracts/facets/RepayFacet.sol:RepayFacet",
            "label": "supplyStableRate",
            "offset": 0,
            "slot": "4",
            "type": "t_uint256"
          },
          {
            "astId": 1224,
            "contract": "contracts/facets/RepayFacet.sol:RepayFacet",
            "label": "startAccumulatingDay",
            "offset": 0,
            "slot": "5",
            "type": "t_uint256"
          },
          {
            "astId": 1226,
            "contract": "contracts/facets/RepayFacet.sol:RepayFacet",
            "label": "isCollateral",
            "offset": 0,
            "slot": "6",
            "type": "t_bool"
          }
        ],
        "numberOfBytes": "224"
      },
      "t_struct(Token)1212_storage": {
        "encoding": "inplace",
        "label": "struct Token",
        "members": [
          {
            "astId": 1201,
            "contract": "contracts/facets/RepayFacet.sol:RepayFacet",
            "label": "tokenAddress",
            "offset": 0,
            "slot": "0",
            "type": "t_address"
          },
          {
            "astId": 1203,
            "contract": "contracts/facets/RepayFacet.sol:RepayFacet",
            "label": "liquidationThreshold",
            "offset": 20,
            "slot": "0",
            "type": "t_uint32"
          },
          {
            "astId": 1205,
            "contract": "contracts/facets/RepayFacet.sol:RepayFacet",
            "label": "loanToValue",
            "offset": 24,
            "slot": "0",
            "type": "t_uint32"
          },
          {
            "astId": 1207,
            "contract": "contracts/facets/RepayFacet.sol:RepayFacet",
            "label": "borrowStableRate",
            "offset": 28,
            "slot": "0",
            "type": "t_uint32"
          },
          {
            "astId": 1209,
            "contract": "contracts/facets/RepayFacet.sol:RepayFacet",
            "label": "supplyStableRate",
            "offset": 0,
            "slot": "1",
            "type": "t_uint32"
          },
          {
            "astId": 1211,
            "contract": "contracts/facets/RepayFacet.sol:RepayFacet",
            "label": "liquidationPenalty",
            "offset": 4,
            "slot": "1",
            "type": "t_uint32"
          }
        ],
        "numberOfBytes": "64"
      },
      "t_uint256": {
        "encoding": "inplace",
        "label": "uint256",
        "numberOfBytes": "32"
      },
      "t_uint32": {
        "encoding": "inplace",
        "label": "uint32",
        "numberOfBytes": "4"
      }
    }
  }
}