{
  "address": "0x2af986398d93C0028308dcc3b201c96BA3Ad68D3",
  "abi": [
    {
      "inputs": [],
      "name": "CannotBorrowAmount",
      "type": "error"
    },
    {
      "inputs": [],
      "name": "InsufficientFunds",
      "type": "error"
    },
    {
      "inputs": [],
      "name": "NoAmountAvailableToBorrow",
      "type": "error"
    },
    {
      "inputs": [],
      "name": "ShouldBeGreaterThanZero",
      "type": "error"
    },
    {
      "inputs": [],
      "name": "TokenNotBorrowed",
      "type": "error"
    },
    {
      "inputs": [],
      "name": "UnsupportedToken",
      "type": "error"
    },
    {
      "inputs": [
        {
          "internalType": "address",
          "name": "tokenAddress",
          "type": "address"
        },
        {
          "components": [
            {
              "internalType": "address",
              "name": "tokenAddress",
              "type": "address"
            },
            {
              "internalType": "address",
              "name": "borrowerAddress",
              "type": "address"
            },
            {
              "internalType": "uint256",
              "name": "amountBorrowed",
              "type": "uint256"
            },
            {
              "internalType": "uint256",
              "name": "startAccumulatingDay",
              "type": "uint256"
            },
            {
              "internalType": "uint256",
              "name": "borrowedInterest",
              "type": "uint256"
            },
            {
              "internalType": "uint256",
              "name": "stableRate",
              "type": "uint256"
            }
          ],
          "internalType": "struct BorrowedToken[]",
          "name": "tokenArray",
          "type": "tuple[]"
        }
      ],
      "name": "indexOf",
      "outputs": [
        {
          "internalType": "int256",
          "name": "",
          "type": "int256"
        }
      ],
      "stateMutability": "pure",
      "type": "function"
    },
    {
      "inputs": [
        {
          "internalType": "address",
          "name": "tokenAddress",
          "type": "address"
        },
        {
          "internalType": "uint256",
          "name": "tokenAmount",
          "type": "uint256"
        },
        {
          "internalType": "uint256",
          "name": "deadline",
          "type": "uint256"
        },
        {
          "internalType": "uint8",
          "name": "v",
          "type": "uint8"
        },
        {
          "internalType": "bytes32",
          "name": "r",
          "type": "bytes32"
        },
        {
          "internalType": "bytes32",
          "name": "sSig",
          "type": "bytes32"
        }
      ],
      "name": "repayWithPermit",
      "outputs": [],
      "stateMutability": "nonpayable",
      "type": "function"
    }
  ],
  "transactionHash": "0x440faaacce42e92f19472c9b62465ae4dc7d7ed289454dd17e3de227044eb2b8",
  "args": [],
  "numDeployments": 1,
  "solcInputHash": "7470ad7b8cbe3099044609c11404dbd0",
  "bytecode": "0x608060405234801561001057600080fd5b506001600081905550611465806100286000396000f3fe608060405234801561001057600080fd5b50600436106100365760003560e01c80636b6b1ee61461003b5780636c15f03c14610057575b600080fd5b61005560048036038101906100509190610d14565b610087565b005b610071600480360381019061006c9190610f9f565b610aa8565b60405161007e9190611014565b60405180910390f35b600085116100c1576040517fa489d71500000000000000000000000000000000000000000000000000000000815260040160405180910390fd5b6000610155876001800180548060200260200160405190810160405280929190818152602001828054801561014b57602002820191906000526020600020905b8160009054906101000a900473ffffffffffffffffffffffffffffffffffffffff1673ffffffffffffffffffffffffffffffffffffffff1681526020019060010190808311610101575b5050505050610b58565b90507fffffffffffffffffffffffffffffffffffffffffffffffffffffffffffffffff81036101b0576040517f6a17288200000000000000000000000000000000000000000000000000000000815260040160405180910390fd5b6000600160050160003373ffffffffffffffffffffffffffffffffffffffff1673ffffffffffffffffffffffffffffffffffffffff168152602001908152602001600020805480602002602001604051908101604052809291908181526020016000905b8282101561031a57838290600052602060002090600602016040518060c00160405290816000820160009054906101000a900473ffffffffffffffffffffffffffffffffffffffff1673ffffffffffffffffffffffffffffffffffffffff1673ffffffffffffffffffffffffffffffffffffffff1681526020016001820160009054906101000a900473ffffffffffffffffffffffffffffffffffffffff1673ffffffffffffffffffffffffffffffffffffffff1673ffffffffffffffffffffffffffffffffffffffff16815260200160028201548152602001600382015481526020016004820154815260200160058201548152505081526020019060010190610214565b505050509050600061032c8983610aa8565b90507fffffffffffffffffffffffffffffffffffffffffffffffffffffffffffffffff8103610387576040517f2d82c39d00000000000000000000000000000000000000000000000000000000815260040160405180910390fd5b8873ffffffffffffffffffffffffffffffffffffffff1663d505accf33308b8b8b8b8b6040518863ffffffff1660e01b81526004016103cc979695949392919061106b565b600060405180830381600087803b1580156103e657600080fd5b505af11580156103fa573d6000803e3d6000fd5b505050506000600160050160003373ffffffffffffffffffffffffffffffffffffffff1673ffffffffffffffffffffffffffffffffffffffff1681526020019081526020016000208281548110610454576104536110da565b5b90600052602060002090600602016040518060c00160405290816000820160009054906101000a900473ffffffffffffffffffffffffffffffffffffffff1673ffffffffffffffffffffffffffffffffffffffff1673ffffffffffffffffffffffffffffffffffffffff1681526020016001820160009054906101000a900473ffffffffffffffffffffffffffffffffffffffff1673ffffffffffffffffffffffffffffffffffffffff1673ffffffffffffffffffffffffffffffffffffffff16815260200160028201548152602001600382015481526020016004820154815260200160058201548152505090506000620151808260600151426105599190611138565b610563919061119b565b9050600061271083604001518460a0015161057e91906111cc565b610588919061119b565b9050600061016d828461059b91906111cc565b6105a5919061119b565b8c6105b0919061120e565b9050808d73ffffffffffffffffffffffffffffffffffffffff166370a08231306040518263ffffffff1660e01b81526004016105ec9190611242565b602060405180830381865afa158015610609573d6000803e3d6000fd5b505050506040513d601f19601f8201168201806040525081019061062d9190611272565b1015610665576040517f356680b700000000000000000000000000000000000000000000000000000000815260040160405180910390fd5b8b600160050160003373ffffffffffffffffffffffffffffffffffffffff1673ffffffffffffffffffffffffffffffffffffffff16815260200190815260200160002086815481106106ba576106b96110da565b5b906000526020600020906006020160020160008282546106da9190611138565b9250508190555042600160050160003373ffffffffffffffffffffffffffffffffffffffff1673ffffffffffffffffffffffffffffffffffffffff1681526020019081526020016000208681548110610736576107356110da565b5b9060005260206000209060060201600301819055508b600160090160008f73ffffffffffffffffffffffffffffffffffffffff1673ffffffffffffffffffffffffffffffffffffffff168152602001908152602001600020600082825461079d9190611138565b9250508190555083604001518c106109da576000600160050160003373ffffffffffffffffffffffffffffffffffffffff1673ffffffffffffffffffffffffffffffffffffffff168152602001908152602001600020905080600182805490506108079190611138565b81548110610818576108176110da565b5b9060005260206000209060060201818781548110610839576108386110da565b5b90600052602060002090600602016000820160009054906101000a900473ffffffffffffffffffffffffffffffffffffffff168160000160006101000a81548173ffffffffffffffffffffffffffffffffffffffff021916908373ffffffffffffffffffffffffffffffffffffffff1602179055506001820160009054906101000a900473ffffffffffffffffffffffffffffffffffffffff168160010160006101000a81548173ffffffffffffffffffffffffffffffffffffffff021916908373ffffffffffffffffffffffffffffffffffffffff16021790555060028201548160020155600382015481600301556004820154816004015560058201548160050155905050808054806109515761095061129f565b5b6001900381819060005260206000209060060201600080820160006101000a81549073ffffffffffffffffffffffffffffffffffffffff02191690556001820160006101000a81549073ffffffffffffffffffffffffffffffffffffffff0219169055600282016000905560038201600090556004820160009055600582016000905550509055505b8c73ffffffffffffffffffffffffffffffffffffffff166323b872dd3330846040518463ffffffff1660e01b8152600401610a17939291906112ce565b6020604051808303816000875af1158015610a36573d6000803e3d6000fd5b505050506040513d601f19601f82011682018060405250810190610a5a919061133d565b610a99576040517f08c379a0000000000000000000000000000000000000000000000000000000008152600401610a90906113c7565b60405180910390fd5b50505050505050505050505050565b600080600090505b8251811015610b2d576000838281518110610ace57610acd6110da565b5b602002602001015190508473ffffffffffffffffffffffffffffffffffffffff16816000015173ffffffffffffffffffffffffffffffffffffffff1603610b19578192505050610b52565b508080610b25906113e7565b915050610ab0565b507fffffffffffffffffffffffffffffffffffffffffffffffffffffffffffffffff90505b92915050565b600080600090505b8251811015610bd257828181518110610b7c57610b7b6110da565b5b602002602001015173ffffffffffffffffffffffffffffffffffffffff168473ffffffffffffffffffffffffffffffffffffffff1603610bbf5780915050610bf7565b8080610bca906113e7565b915050610b60565b507fffffffffffffffffffffffffffffffffffffffffffffffffffffffffffffffff90505b92915050565b6000604051905090565b600080fd5b600080fd5b600073ffffffffffffffffffffffffffffffffffffffff82169050919050565b6000610c3c82610c11565b9050919050565b610c4c81610c31565b8114610c5757600080fd5b50565b600081359050610c6981610c43565b92915050565b6000819050919050565b610c8281610c6f565b8114610c8d57600080fd5b50565b600081359050610c9f81610c79565b92915050565b600060ff82169050919050565b610cbb81610ca5565b8114610cc657600080fd5b50565b600081359050610cd881610cb2565b92915050565b6000819050919050565b610cf181610cde565b8114610cfc57600080fd5b50565b600081359050610d0e81610ce8565b92915050565b60008060008060008060c08789031215610d3157610d30610c07565b5b6000610d3f89828a01610c5a565b9650506020610d5089828a01610c90565b9550506040610d6189828a01610c90565b9450506060610d7289828a01610cc9565b9350506080610d8389828a01610cff565b92505060a0610d9489828a01610cff565b9150509295509295509295565b600080fd5b6000601f19601f8301169050919050565b7f4e487b7100000000000000000000000000000000000000000000000000000000600052604160045260246000fd5b610def82610da6565b810181811067ffffffffffffffff82111715610e0e57610e0d610db7565b5b80604052505050565b6000610e21610bfd565b9050610e2d8282610de6565b919050565b600067ffffffffffffffff821115610e4d57610e4c610db7565b5b602082029050602081019050919050565b600080fd5b600080fd5b600060c08284031215610e7e57610e7d610e63565b5b610e8860c0610e17565b90506000610e9884828501610c5a565b6000830152506020610eac84828501610c5a565b6020830152506040610ec084828501610c90565b6040830152506060610ed484828501610c90565b6060830152506080610ee884828501610c90565b60808301525060a0610efc84828501610c90565b60a08301525092915050565b6000610f1b610f1684610e32565b610e17565b90508083825260208201905060c08402830185811115610f3e57610f3d610e5e565b5b835b81811015610f675780610f538882610e68565b84526020840193505060c081019050610f40565b5050509392505050565b600082601f830112610f8657610f85610da1565b5b8135610f96848260208601610f08565b91505092915050565b60008060408385031215610fb657610fb5610c07565b5b6000610fc485828601610c5a565b925050602083013567ffffffffffffffff811115610fe557610fe4610c0c565b5b610ff185828601610f71565b9150509250929050565b6000819050919050565b61100e81610ffb565b82525050565b60006020820190506110296000830184611005565b92915050565b61103881610c31565b82525050565b61104781610c6f565b82525050565b61105681610ca5565b82525050565b61106581610cde565b82525050565b600060e082019050611080600083018a61102f565b61108d602083018961102f565b61109a604083018861103e565b6110a7606083018761103e565b6110b4608083018661104d565b6110c160a083018561105c565b6110ce60c083018461105c565b98975050505050505050565b7f4e487b7100000000000000000000000000000000000000000000000000000000600052603260045260246000fd5b7f4e487b7100000000000000000000000000000000000000000000000000000000600052601160045260246000fd5b600061114382610c6f565b915061114e83610c6f565b925082820390508181111561116657611165611109565b5b92915050565b7f4e487b7100000000000000000000000000000000000000000000000000000000600052601260045260246000fd5b60006111a682610c6f565b91506111b183610c6f565b9250826111c1576111c061116c565b5b828204905092915050565b60006111d782610c6f565b91506111e283610c6f565b92508282026111f081610c6f565b9150828204841483151761120757611206611109565b5b5092915050565b600061121982610c6f565b915061122483610c6f565b925082820190508082111561123c5761123b611109565b5b92915050565b6000602082019050611257600083018461102f565b92915050565b60008151905061126c81610c79565b92915050565b60006020828403121561128857611287610c07565b5b60006112968482850161125d565b91505092915050565b7f4e487b7100000000000000000000000000000000000000000000000000000000600052603160045260246000fd5b60006060820190506112e3600083018661102f565b6112f0602083018561102f565b6112fd604083018461103e565b949350505050565b60008115159050919050565b61131a81611305565b811461132557600080fd5b50565b60008151905061133781611311565b92915050565b60006020828403121561135357611352610c07565b5b600061136184828501611328565b91505092915050565b600082825260208201905092915050565b7f496e73756666696369656e742066756e64730000000000000000000000000000600082015250565b60006113b160128361136a565b91506113bc8261137b565b602082019050919050565b600060208201905081810360008301526113e0816113a4565b9050919050565b60006113f282610c6f565b91507fffffffffffffffffffffffffffffffffffffffffffffffffffffffffffffffff820361142457611423611109565b5b60018201905091905056fea26469706673582212207fd5d56413decad8c65ef6a675a3214ee83221511ca75a07e87c1c8b1cb0646b64736f6c63430008110033",
  "devdoc": {
    "kind": "dev",
    "methods": {},
    "version": 1
  },
  "userdoc": {
    "kind": "user",
    "methods": {},
    "version": 1
  },
  "storageLayout": {
    "storage": [
      {
        "astId": 56,
        "contract": "contracts/facets/RepayWithPermitFacet.sol:RepayWithPermitFacet",
        "label": "_status",
        "offset": 0,
        "slot": "0",
        "type": "t_uint256"
      },
      {
        "astId": 202,
        "contract": "contracts/facets/RepayWithPermitFacet.sol:RepayWithPermitFacet",
        "label": "s",
        "offset": 0,
        "slot": "1",
        "type": "t_struct(AppStorage)740_storage"
      }
    ],
    "types": {
      "t_address": {
        "encoding": "inplace",
        "label": "address",
        "numberOfBytes": "20"
      },
      "t_array(t_address)dyn_storage": {
        "base": "t_address",
        "encoding": "dynamic_array",
        "label": "address[]",
        "numberOfBytes": "32"
      },
      "t_array(t_struct(BorrowedToken)694_storage)dyn_storage": {
        "base": "t_struct(BorrowedToken)694_storage",
        "encoding": "dynamic_array",
        "label": "struct BorrowedToken[]",
        "numberOfBytes": "32"
      },
      "t_array(t_struct(SuppliedToken)681_storage)dyn_storage": {
        "base": "t_struct(SuppliedToken)681_storage",
        "encoding": "dynamic_array",
        "label": "struct SuppliedToken[]",
        "numberOfBytes": "32"
      },
      "t_bool": {
        "encoding": "inplace",
        "label": "bool",
        "numberOfBytes": "1"
      },
      "t_mapping(t_address,t_address)": {
        "encoding": "mapping",
        "key": "t_address",
        "label": "mapping(address => address)",
        "numberOfBytes": "32",
        "value": "t_address"
      },
      "t_mapping(t_address,t_array(t_struct(BorrowedToken)694_storage)dyn_storage)": {
        "encoding": "mapping",
        "key": "t_address",
        "label": "mapping(address => struct BorrowedToken[])",
        "numberOfBytes": "32",
        "value": "t_array(t_struct(BorrowedToken)694_storage)dyn_storage"
      },
      "t_mapping(t_address,t_array(t_struct(SuppliedToken)681_storage)dyn_storage)": {
        "encoding": "mapping",
        "key": "t_address",
        "label": "mapping(address => struct SuppliedToken[])",
        "numberOfBytes": "32",
        "value": "t_array(t_struct(SuppliedToken)681_storage)dyn_storage"
      },
      "t_mapping(t_address,t_struct(Token)666_storage)": {
        "encoding": "mapping",
        "key": "t_address",
        "label": "mapping(address => struct Token)",
        "numberOfBytes": "32",
        "value": "t_struct(Token)666_storage"
      },
      "t_mapping(t_address,t_uint256)": {
        "encoding": "mapping",
        "key": "t_address",
        "label": "mapping(address => uint256)",
        "numberOfBytes": "32",
        "value": "t_uint256"
      },
      "t_struct(AppStorage)740_storage": {
        "encoding": "inplace",
        "label": "struct AppStorage",
        "members": [
          {
            "astId": 701,
            "contract": "contracts/facets/RepayWithPermitFacet.sol:RepayWithPermitFacet",
            "label": "larTokenAddress",
            "offset": 0,
            "slot": "0",
            "type": "t_address"
          },
          {
            "astId": 704,
            "contract": "contracts/facets/RepayWithPermitFacet.sol:RepayWithPermitFacet",
            "label": "supportedTokens",
            "offset": 0,
            "slot": "1",
            "type": "t_array(t_address)dyn_storage"
          },
          {
            "astId": 709,
            "contract": "contracts/facets/RepayWithPermitFacet.sol:RepayWithPermitFacet",
            "label": "addressToToken",
            "offset": 0,
            "slot": "2",
            "type": "t_mapping(t_address,t_struct(Token)666_storage)"
          },
          {
            "astId": 713,
            "contract": "contracts/facets/RepayWithPermitFacet.sol:RepayWithPermitFacet",
            "label": "tokenToPriceFeed",
            "offset": 0,
            "slot": "3",
            "type": "t_mapping(t_address,t_address)"
          },
          {
            "astId": 719,
            "contract": "contracts/facets/RepayWithPermitFacet.sol:RepayWithPermitFacet",
            "label": "tokensSupplied",
            "offset": 0,
            "slot": "4",
            "type": "t_mapping(t_address,t_array(t_struct(SuppliedToken)681_storage)dyn_storage)"
          },
          {
            "astId": 725,
            "contract": "contracts/facets/RepayWithPermitFacet.sol:RepayWithPermitFacet",
            "label": "tokensBorrowed",
            "offset": 0,
            "slot": "5",
            "type": "t_mapping(t_address,t_array(t_struct(BorrowedToken)694_storage)dyn_storage)"
          },
          {
            "astId": 728,
            "contract": "contracts/facets/RepayWithPermitFacet.sol:RepayWithPermitFacet",
            "label": "allSuppliers",
            "offset": 0,
            "slot": "6",
            "type": "t_array(t_address)dyn_storage"
          },
          {
            "astId": 731,
            "contract": "contracts/facets/RepayWithPermitFacet.sol:RepayWithPermitFacet",
            "label": "allBorrowers",
            "offset": 0,
            "slot": "7",
            "type": "t_array(t_address)dyn_storage"
          },
          {
            "astId": 735,
            "contract": "contracts/facets/RepayWithPermitFacet.sol:RepayWithPermitFacet",
            "label": "totalSupplied",
            "offset": 0,
            "slot": "8",
            "type": "t_mapping(t_address,t_uint256)"
          },
          {
            "astId": 739,
            "contract": "contracts/facets/RepayWithPermitFacet.sol:RepayWithPermitFacet",
            "label": "totalBorrowed",
            "offset": 0,
            "slot": "9",
            "type": "t_mapping(t_address,t_uint256)"
          }
        ],
        "numberOfBytes": "320"
      },
      "t_struct(BorrowedToken)694_storage": {
        "encoding": "inplace",
        "label": "struct BorrowedToken",
        "members": [
          {
            "astId": 683,
            "contract": "contracts/facets/RepayWithPermitFacet.sol:RepayWithPermitFacet",
            "label": "tokenAddress",
            "offset": 0,
            "slot": "0",
            "type": "t_address"
          },
          {
            "astId": 685,
            "contract": "contracts/facets/RepayWithPermitFacet.sol:RepayWithPermitFacet",
            "label": "borrowerAddress",
            "offset": 0,
            "slot": "1",
            "type": "t_address"
          },
          {
            "astId": 687,
            "contract": "contracts/facets/RepayWithPermitFacet.sol:RepayWithPermitFacet",
            "label": "amountBorrowed",
            "offset": 0,
            "slot": "2",
            "type": "t_uint256"
          },
          {
            "astId": 689,
            "contract": "contracts/facets/RepayWithPermitFacet.sol:RepayWithPermitFacet",
            "label": "startAccumulatingDay",
            "offset": 0,
            "slot": "3",
            "type": "t_uint256"
          },
          {
            "astId": 691,
            "contract": "contracts/facets/RepayWithPermitFacet.sol:RepayWithPermitFacet",
            "label": "borrowedInterest",
            "offset": 0,
            "slot": "4",
            "type": "t_uint256"
          },
          {
            "astId": 693,
            "contract": "contracts/facets/RepayWithPermitFacet.sol:RepayWithPermitFacet",
            "label": "stableRate",
            "offset": 0,
            "slot": "5",
            "type": "t_uint256"
          }
        ],
        "numberOfBytes": "192"
      },
      "t_struct(SuppliedToken)681_storage": {
        "encoding": "inplace",
        "label": "struct SuppliedToken",
        "members": [
          {
            "astId": 668,
            "contract": "contracts/facets/RepayWithPermitFacet.sol:RepayWithPermitFacet",
            "label": "tokenAddress",
            "offset": 0,
            "slot": "0",
            "type": "t_address"
          },
          {
            "astId": 670,
            "contract": "contracts/facets/RepayWithPermitFacet.sol:RepayWithPermitFacet",
            "label": "supplierAddress",
            "offset": 0,
            "slot": "1",
            "type": "t_address"
          },
          {
            "astId": 672,
            "contract": "contracts/facets/RepayWithPermitFacet.sol:RepayWithPermitFacet",
            "label": "amountSupplied",
            "offset": 0,
            "slot": "2",
            "type": "t_uint256"
          },
          {
            "astId": 674,
            "contract": "contracts/facets/RepayWithPermitFacet.sol:RepayWithPermitFacet",
            "label": "supplyInterest",
            "offset": 0,
            "slot": "3",
            "type": "t_uint256"
          },
          {
            "astId": 676,
            "contract": "contracts/facets/RepayWithPermitFacet.sol:RepayWithPermitFacet",
            "label": "supplyStableRate",
            "offset": 0,
            "slot": "4",
            "type": "t_uint256"
          },
          {
            "astId": 678,
            "contract": "contracts/facets/RepayWithPermitFacet.sol:RepayWithPermitFacet",
            "label": "startAccumulatingDay",
            "offset": 0,
            "slot": "5",
            "type": "t_uint256"
          },
          {
            "astId": 680,
            "contract": "contracts/facets/RepayWithPermitFacet.sol:RepayWithPermitFacet",
            "label": "isCollateral",
            "offset": 0,
            "slot": "6",
            "type": "t_bool"
          }
        ],
        "numberOfBytes": "224"
      },
      "t_struct(Token)666_storage": {
        "encoding": "inplace",
        "label": "struct Token",
        "members": [
          {
            "astId": 655,
            "contract": "contracts/facets/RepayWithPermitFacet.sol:RepayWithPermitFacet",
            "label": "tokenAddress",
            "offset": 0,
            "slot": "0",
            "type": "t_address"
          },
          {
            "astId": 657,
            "contract": "contracts/facets/RepayWithPermitFacet.sol:RepayWithPermitFacet",
            "label": "liquidationThreshold",
            "offset": 20,
            "slot": "0",
            "type": "t_uint32"
          },
          {
            "astId": 659,
            "contract": "contracts/facets/RepayWithPermitFacet.sol:RepayWithPermitFacet",
            "label": "loanToValue",
            "offset": 24,
            "slot": "0",
            "type": "t_uint32"
          },
          {
            "astId": 661,
            "contract": "contracts/facets/RepayWithPermitFacet.sol:RepayWithPermitFacet",
            "label": "borrowStableRate",
            "offset": 28,
            "slot": "0",
            "type": "t_uint32"
          },
          {
            "astId": 663,
            "contract": "contracts/facets/RepayWithPermitFacet.sol:RepayWithPermitFacet",
            "label": "supplyStableRate",
            "offset": 0,
            "slot": "1",
            "type": "t_uint32"
          },
          {
            "astId": 665,
            "contract": "contracts/facets/RepayWithPermitFacet.sol:RepayWithPermitFacet",
            "label": "liquidationPenalty",
            "offset": 4,
            "slot": "1",
            "type": "t_uint32"
          }
        ],
        "numberOfBytes": "64"
      },
      "t_uint256": {
        "encoding": "inplace",
        "label": "uint256",
        "numberOfBytes": "32"
      },
      "t_uint32": {
        "encoding": "inplace",
        "label": "uint32",
        "numberOfBytes": "4"
      }
    }
  }
}