{
  "address": "0xf1b23ca576950F68a7724713A1bEe15b77Dbd2F7",
  "abi": [
    {
      "inputs": [],
      "name": "AlreadyOff",
      "type": "error"
    },
    {
      "inputs": [],
      "name": "AlreadyOn",
      "type": "error"
    },
    {
      "inputs": [],
      "name": "CannotSwitchOffCollateral",
      "type": "error"
    },
    {
      "inputs": [],
      "name": "InsufficientFunds",
      "type": "error"
    },
    {
      "inputs": [],
      "name": "InvalidAmount",
      "type": "error"
    },
    {
      "inputs": [],
      "name": "NotSupplier",
      "type": "error"
    },
    {
      "inputs": [],
      "name": "TokenNotFound",
      "type": "error"
    },
    {
      "inputs": [],
      "name": "TokenNotSupported",
      "type": "error"
    },
    {
      "inputs": [
        {
          "internalType": "address",
          "name": "user",
          "type": "address"
        },
        {
          "internalType": "address",
          "name": "tokenAddress",
          "type": "address"
        }
      ],
      "name": "getTokenAvailableLoanAmount",
      "outputs": [
        {
          "internalType": "uint256",
          "name": "",
          "type": "uint256"
        }
      ],
      "stateMutability": "view",
      "type": "function"
    },
    {
      "inputs": [
        {
          "internalType": "address",
          "name": "tokenAddress",
          "type": "address"
        },
        {
          "components": [
            {
              "internalType": "address",
              "name": "tokenAddress",
              "type": "address"
            },
            {
              "internalType": "address",
              "name": "supplierAddress",
              "type": "address"
            },
            {
              "internalType": "uint256",
              "name": "amountSupplied",
              "type": "uint256"
            },
            {
              "internalType": "uint256",
              "name": "supplyInterest",
              "type": "uint256"
            },
            {
              "internalType": "uint256",
              "name": "supplyStableRate",
              "type": "uint256"
            },
            {
              "internalType": "uint256",
              "name": "startAccumulatingDay",
              "type": "uint256"
            },
            {
              "internalType": "bool",
              "name": "isCollateral",
              "type": "bool"
            }
          ],
          "internalType": "struct SuppliedToken[]",
          "name": "tokenArray",
          "type": "tuple[]"
        }
      ],
      "name": "indexOf",
      "outputs": [
        {
          "internalType": "int256",
          "name": "",
          "type": "int256"
        }
      ],
      "stateMutability": "pure",
      "type": "function"
    },
    {
      "inputs": [
        {
          "internalType": "address",
          "name": "tokenAddress",
          "type": "address"
        },
        {
          "internalType": "uint256",
          "name": "tokenAmount",
          "type": "uint256"
        }
      ],
      "name": "supplyToken",
      "outputs": [],
      "stateMutability": "nonpayable",
      "type": "function"
    },
    {
      "inputs": [
        {
          "internalType": "address",
          "name": "tokenAddress",
          "type": "address"
        }
      ],
      "name": "switchOnCollateral",
      "outputs": [],
      "stateMutability": "nonpayable",
      "type": "function"
    },
    {
      "inputs": [
        {
          "internalType": "address",
          "name": "tokenAddress",
          "type": "address"
        }
      ],
      "name": "swithOffCollateral",
      "outputs": [],
      "stateMutability": "nonpayable",
      "type": "function"
    }
  ],
  "transactionHash": "0x193219cf7cad9083c79d8afe18a7911461e0ec55845fb4d0a75e6d2c798b0ed3",
  "args": [],
  "numDeployments": 1,
  "solcInputHash": "cf65816a446aad3e8658e98fd5e0ee94",
  "bytecode": "0x608060405234801561001057600080fd5b50600160008190555061332c806100286000396000f3fe608060405234801561001057600080fd5b50600436106100575760003560e01c80630800381b1461005c5780633566de071461008c5780639d781ea0146100a8578063ac161e04146100c4578063eacd0d1b146100e0575b600080fd5b61007660048036038101906100719190612841565b610110565b604051610083919061289a565b60405180910390f35b6100a660048036038101906100a191906128b5565b61046b565b005b6100c260048036038101906100bd919061290e565b61080d565b005b6100de60048036038101906100d991906128b5565b611479565b005b6100fa60048036038101906100f59190612b98565b611af0565b6040516101079190612c0d565b60405180910390f35b600080600160040160008573ffffffffffffffffffffffffffffffffffffffff1673ffffffffffffffffffffffffffffffffffffffff168152602001908152602001600020805480602002602001604051908101604052809291908181526020016000905b8282101561029657838290600052602060002090600702016040518060e00160405290816000820160009054906101000a900473ffffffffffffffffffffffffffffffffffffffff1673ffffffffffffffffffffffffffffffffffffffff1673ffffffffffffffffffffffffffffffffffffffff1681526020016001820160009054906101000a900473ffffffffffffffffffffffffffffffffffffffff1673ffffffffffffffffffffffffffffffffffffffff1673ffffffffffffffffffffffffffffffffffffffff168152602001600282015481526020016003820154815260200160048201548152602001600582015481526020016006820160009054906101000a900460ff16151515158152505081526020019060010190610175565b50505050905060006102a88483611af0565b905060008282815181106102bf576102be612c28565b5b60200260200101519050600060016002016000836000015173ffffffffffffffffffffffffffffffffffffffff1673ffffffffffffffffffffffffffffffffffffffff1681526020019081526020016000206040518060c00160405290816000820160009054906101000a900473ffffffffffffffffffffffffffffffffffffffff1673ffffffffffffffffffffffffffffffffffffffff1673ffffffffffffffffffffffffffffffffffffffff1681526020016000820160149054906101000a900463ffffffff1663ffffffff1663ffffffff1681526020016000820160189054906101000a900463ffffffff1663ffffffff1663ffffffff16815260200160008201601c9054906101000a900463ffffffff1663ffffffff1663ffffffff1681526020016001820160009054906101000a900463ffffffff1663ffffffff1663ffffffff1681526020016001820160049054906101000a900463ffffffff1663ffffffff1663ffffffff1681525050905060006127108360400151836040015163ffffffff166104519190612c86565b61045b9190612cf7565b9050809550505050505092915050565b6000600160040160003373ffffffffffffffffffffffffffffffffffffffff1673ffffffffffffffffffffffffffffffffffffffff168152602001908152602001600020805480602002602001604051908101604052809291908181526020016000905b828210156105f057838290600052602060002090600702016040518060e00160405290816000820160009054906101000a900473ffffffffffffffffffffffffffffffffffffffff1673ffffffffffffffffffffffffffffffffffffffff1673ffffffffffffffffffffffffffffffffffffffff1681526020016001820160009054906101000a900473ffffffffffffffffffffffffffffffffffffffff1673ffffffffffffffffffffffffffffffffffffffff1673ffffffffffffffffffffffffffffffffffffffff168152602001600282015481526020016003820154815260200160048201548152602001600582015481526020016006820160009054906101000a900460ff161515151581525050815260200190600101906104cf565b5050505090506000815103610631576040517fcbdb7b3000000000000000000000000000000000000000000000000000000000815260040160405180910390fd5b600061063d8383611af0565b90507fffffffffffffffffffffffffffffffffffffffffffffffffffffffffffffffff8103610698576040517fcbdb7b3000000000000000000000000000000000000000000000000000000000815260040160405180910390fd5b6000600160040160003373ffffffffffffffffffffffffffffffffffffffff1673ffffffffffffffffffffffffffffffffffffffff16815260200190815260200160002082815481106106ee576106ed612c28565b5b906000526020600020906007020190503373ffffffffffffffffffffffffffffffffffffffff168160010160009054906101000a900473ffffffffffffffffffffffffffffffffffffffff1673ffffffffffffffffffffffffffffffffffffffff1614610787576040517fc235ae0600000000000000000000000000000000000000000000000000000000815260040160405180910390fd5b600115158160060160009054906101000a900460ff161515036107d6576040517f2c97850c00000000000000000000000000000000000000000000000000000000815260040160405180910390fd5b60018160060160006101000a81548160ff021916908315150217905550600081600301819055506000816005018190555050505050565b600082905060008173ffffffffffffffffffffffffffffffffffffffff1663313ce5676040518163ffffffff1660e01b8152600401602060405180830381865afa15801561085f573d6000803e3d6000fd5b505050506040513d601f19601f820116820180604052508101906108839190612d61565b90506000610919856001800180548060200260200160405190810160405280929190818152602001828054801561090f57602002820191906000526020600020905b8160009054906101000a900473ffffffffffffffffffffffffffffffffffffffff1673ffffffffffffffffffffffffffffffffffffffff16815260200190600101908083116108c5575b5050505050611ba0565b90507fffffffffffffffffffffffffffffffffffffffffffffffffffffffffffffffff8103610974576040517f3dd1b30500000000000000000000000000000000000000000000000000000000815260040160405180910390fd5b838373ffffffffffffffffffffffffffffffffffffffff166370a08231336040518263ffffffff1660e01b81526004016109ae9190612d9d565b602060405180830381865afa1580156109cb573d6000803e3d6000fd5b505050506040513d601f19601f820116820180604052508101906109ef9190612dcd565b1015610a27576040517f356680b700000000000000000000000000000000000000000000000000000000815260040160405180910390fd5b60008411610a61576040517f2c5211c600000000000000000000000000000000000000000000000000000000815260040160405180910390fd5b6000600160040160003373ffffffffffffffffffffffffffffffffffffffff1673ffffffffffffffffffffffffffffffffffffffff168152602001908152602001600020805480602002602001604051908101604052809291908181526020016000905b82821015610be657838290600052602060002090600702016040518060e00160405290816000820160009054906101000a900473ffffffffffffffffffffffffffffffffffffffff1673ffffffffffffffffffffffffffffffffffffffff1673ffffffffffffffffffffffffffffffffffffffff1681526020016001820160009054906101000a900473ffffffffffffffffffffffffffffffffffffffff1673ffffffffffffffffffffffffffffffffffffffff1673ffffffffffffffffffffffffffffffffffffffff168152602001600282015481526020016003820154815260200160048201548152602001600582015481526020016006820160009054906101000a900460ff16151515158152505081526020019060010190610ac5565b5050505090506000600160020160008873ffffffffffffffffffffffffffffffffffffffff1673ffffffffffffffffffffffffffffffffffffffff1681526020019081526020016000206040518060c00160405290816000820160009054906101000a900473ffffffffffffffffffffffffffffffffffffffff1673ffffffffffffffffffffffffffffffffffffffff1673ffffffffffffffffffffffffffffffffffffffff1681526020016000820160149054906101000a900463ffffffff1663ffffffff1663ffffffff1681526020016000820160189054906101000a900463ffffffff1663ffffffff1663ffffffff16815260200160008201601c9054906101000a900463ffffffff1663ffffffff1663ffffffff1681526020016001820160009054906101000a900463ffffffff1663ffffffff1663ffffffff1681526020016001820160049054906101000a900463ffffffff1663ffffffff1663ffffffff168152505090506000825103610fc757610d62612764565b87816000019073ffffffffffffffffffffffffffffffffffffffff16908173ffffffffffffffffffffffffffffffffffffffff168152505033816020019073ffffffffffffffffffffffffffffffffffffffff16908173ffffffffffffffffffffffffffffffffffffffff1681525050868160400181815250506000816060018181525050816080015163ffffffff1681608001818152505060008160a001818152505060018160c0019015159081151581525050600160040160003373ffffffffffffffffffffffffffffffffffffffff1673ffffffffffffffffffffffffffffffffffffffff16815260200190815260200160002081908060018154018082558091505060019003906000526020600020906007020160009091909190915060008201518160000160006101000a81548173ffffffffffffffffffffffffffffffffffffffff021916908373ffffffffffffffffffffffffffffffffffffffff16021790555060208201518160010160006101000a81548173ffffffffffffffffffffffffffffffffffffffff021916908373ffffffffffffffffffffffffffffffffffffffff16021790555060408201518160020155606082015181600301556080820151816004015560a0820151816005015560c08201518160060160006101000a81548160ff02191690831515021790555050506001600601339080600181540180825580915050600190039060005260206000200160009091909190916101000a81548173ffffffffffffffffffffffffffffffffffffffff021916908373ffffffffffffffffffffffffffffffffffffffff16021790555050611288565b6000610fd38884611af0565b90507fffffffffffffffffffffffffffffffffffffffffffffffffffffffffffffffff810361120357611004612764565b88816000019073ffffffffffffffffffffffffffffffffffffffff16908173ffffffffffffffffffffffffffffffffffffffff168152505033816020019073ffffffffffffffffffffffffffffffffffffffff16908173ffffffffffffffffffffffffffffffffffffffff1681525050878160400181815250506000816060018181525050826080015163ffffffff1681608001818152505060008160a001818152505060018160c0019015159081151581525050600160040160003373ffffffffffffffffffffffffffffffffffffffff1673ffffffffffffffffffffffffffffffffffffffff16815260200190815260200160002081908060018154018082558091505060019003906000526020600020906007020160009091909190915060008201518160000160006101000a81548173ffffffffffffffffffffffffffffffffffffffff021916908373ffffffffffffffffffffffffffffffffffffffff16021790555060208201518160010160006101000a81548173ffffffffffffffffffffffffffffffffffffffff021916908373ffffffffffffffffffffffffffffffffffffffff16021790555060408201518160020155606082015181600301556080820151816004015560a0820151816005015560c08201518160060160006101000a81548160ff021916908315150217905550505050611286565b6000600160040160003373ffffffffffffffffffffffffffffffffffffffff1673ffffffffffffffffffffffffffffffffffffffff168152602001908152602001600020828154811061125957611258612c28565b5b906000526020600020906007020190508781600201600082825461127d9190612dfa565b92505081905550505b505b8473ffffffffffffffffffffffffffffffffffffffff166323b872dd3330896040518463ffffffff1660e01b81526004016112c593929190612e2e565b6020604051808303816000875af11580156112e4573d6000803e3d6000fd5b505050506040513d601f19601f820116820180604052508101906113089190612e7a565b611347576040517f08c379a000000000000000000000000000000000000000000000000000000000815260040161133e90612f04565b60405180910390fd5b60006113556001888a611c45565b90506000600160000160009054906101000a900473ffffffffffffffffffffffffffffffffffffffff169050600086600a6113909190613057565b670de0b6b3a7640000846113a49190612c86565b6113ae9190612cf7565b90508173ffffffffffffffffffffffffffffffffffffffff1663a9059cbb33836040518363ffffffff1660e01b81526004016113eb9291906130a2565b6020604051808303816000875af115801561140a573d6000803e3d6000fd5b505050506040513d601f19601f8201168201806040525081019061142e9190612e7a565b61146d576040517f08c379a000000000000000000000000000000000000000000000000000000000815260040161146490613117565b60405180910390fd5b50505050505050505050565b6000600160040160003373ffffffffffffffffffffffffffffffffffffffff1673ffffffffffffffffffffffffffffffffffffffff168152602001908152602001600020805480602002602001604051908101604052809291908181526020016000905b828210156115fe57838290600052602060002090600702016040518060e00160405290816000820160009054906101000a900473ffffffffffffffffffffffffffffffffffffffff1673ffffffffffffffffffffffffffffffffffffffff1673ffffffffffffffffffffffffffffffffffffffff1681526020016001820160009054906101000a900473ffffffffffffffffffffffffffffffffffffffff1673ffffffffffffffffffffffffffffffffffffffff1673ffffffffffffffffffffffffffffffffffffffff168152602001600282015481526020016003820154815260200160048201548152602001600582015481526020016006820160009054906101000a900460ff161515151581525050815260200190600101906114dd565b5050505090506000600160020160008473ffffffffffffffffffffffffffffffffffffffff1673ffffffffffffffffffffffffffffffffffffffff1681526020019081526020016000206040518060c00160405290816000820160009054906101000a900473ffffffffffffffffffffffffffffffffffffffff1673ffffffffffffffffffffffffffffffffffffffff1673ffffffffffffffffffffffffffffffffffffffff1681526020016000820160149054906101000a900463ffffffff1663ffffffff1663ffffffff1681526020016000820160189054906101000a900463ffffffff1663ffffffff1663ffffffff16815260200160008201601c9054906101000a900463ffffffff1663ffffffff1663ffffffff1681526020016001820160009054906101000a900463ffffffff1663ffffffff1663ffffffff1681526020016001820160049054906101000a900463ffffffff1663ffffffff1663ffffffff1681525050905060008373ffffffffffffffffffffffffffffffffffffffff1663313ce5676040518163ffffffff1660e01b8152600401602060405180830381865afa1580156117b6573d6000803e3d6000fd5b505050506040513d601f19601f820116820180604052508101906117da9190612d61565b90506000835103611817576040517fcbdb7b3000000000000000000000000000000000000000000000000000000000815260040160405180910390fd5b60006118238585611af0565b90507fffffffffffffffffffffffffffffffffffffffffffffffffffffffffffffffff810361187e576040517fcbdb7b3000000000000000000000000000000000000000000000000000000000815260040160405180910390fd5b6000600160040160003373ffffffffffffffffffffffffffffffffffffffff1673ffffffffffffffffffffffffffffffffffffffff16815260200190815260200160002082815481106118d4576118d3612c28565b5b906000526020600020906007020190503373ffffffffffffffffffffffffffffffffffffffff168160010160009054906101000a900473ffffffffffffffffffffffffffffffffffffffff1673ffffffffffffffffffffffffffffffffffffffff161461196d576040517fc235ae0600000000000000000000000000000000000000000000000000000000815260040160405180910390fd5b600015158160060160009054906101000a900460ff161515036119bc576040517fa8fb1a6500000000000000000000000000000000000000000000000000000000815260040160405180910390fd5b60006127106119cc600133611c8c565b6119d7600133611f31565b6119e19190612c86565b6119eb9190612cf7565b905060006119f93389610110565b90506000611a096001838b611c45565b9050600086600a611a1a9190613057565b670de0b6b3a764000083611a2e9190612c86565b611a389190612cf7565b90506000611a4760013361236e565b9050808286611a569190613137565b1215611a8e576040517fb9bd492600000000000000000000000000000000000000000000000000000000815260040160405180910390fd5b60008660060160006101000a81548160ff02191690831515021790555061271086600201548a6080015163ffffffff16611ac89190612c86565b611ad29190612cf7565b86600301819055504286600501819055505050505050505050505050565b600080600090505b8251811015611b75576000838281518110611b1657611b15612c28565b5b602002602001015190508473ffffffffffffffffffffffffffffffffffffffff16816000015173ffffffffffffffffffffffffffffffffffffffff1603611b61578192505050611b9a565b508080611b6d9061317a565b915050611af8565b507fffffffffffffffffffffffffffffffffffffffffffffffffffffffffffffffff90505b92915050565b600080600090505b8251811015611c1a57828181518110611bc457611bc3612c28565b5b602002602001015173ffffffffffffffffffffffffffffffffffffffff168473ffffffffffffffffffffffffffffffffffffffff1603611c075780915050611c3f565b8080611c129061317a565b915050611ba8565b507fffffffffffffffffffffffffffffffffffffffffffffffffffffffffffffffff90505b92915050565b6000806000611c5486856125f8565b91509150600081600a611c6791906131c2565b8387611c739190612c86565b611c7d9190612cf7565b90508093505050509392505050565b6000808360040160008473ffffffffffffffffffffffffffffffffffffffff1673ffffffffffffffffffffffffffffffffffffffff168152602001908152602001600020805480602002602001604051908101604052809291908181526020016000905b82821015611e1157838290600052602060002090600702016040518060e00160405290816000820160009054906101000a900473ffffffffffffffffffffffffffffffffffffffff1673ffffffffffffffffffffffffffffffffffffffff1673ffffffffffffffffffffffffffffffffffffffff1681526020016001820160009054906101000a900473ffffffffffffffffffffffffffffffffffffffff1673ffffffffffffffffffffffffffffffffffffffff1673ffffffffffffffffffffffffffffffffffffffff168152602001600282015481526020016003820154815260200160048201548152602001600582015481526020016006820160009054906101000a900460ff16151515158152505081526020019060010190611cf0565b5050505090506000805b8251811015611f25576000838281518110611e3957611e38612c28565b5b602002602001015190506000816000015173ffffffffffffffffffffffffffffffffffffffff1663313ce5676040518163ffffffff1660e01b8152600401602060405180830381865afa158015611e94573d6000803e3d6000fd5b505050506040513d601f19601f82011682018060405250810190611eb89190612d61565b90506000611ecf8984604001518560000151611c45565b9050600082600a611ee09190613057565b670de0b6b3a764000083611ef49190612c86565b611efe9190612cf7565b90508086611f0c9190612dfa565b9550505050508080611f1d9061317a565b915050611e1b565b50809250505092915050565b6000808360040160008473ffffffffffffffffffffffffffffffffffffffff1673ffffffffffffffffffffffffffffffffffffffff168152602001908152602001600020805480602002602001604051908101604052809291908181526020016000905b828210156120b657838290600052602060002090600702016040518060e00160405290816000820160009054906101000a900473ffffffffffffffffffffffffffffffffffffffff1673ffffffffffffffffffffffffffffffffffffffff1673ffffffffffffffffffffffffffffffffffffffff1681526020016001820160009054906101000a900473ffffffffffffffffffffffffffffffffffffffff1673ffffffffffffffffffffffffffffffffffffffff1673ffffffffffffffffffffffffffffffffffffffff168152602001600282015481526020016003820154815260200160048201548152602001600582015481526020016006820160009054906101000a900460ff16151515158152505081526020019060010190611f95565b5050505090506000806120c98686611c8c565b905060005b83518110156123565760008482815181106120ec576120eb612c28565b5b602002602001015190506000886002016000836000015173ffffffffffffffffffffffffffffffffffffffff1673ffffffffffffffffffffffffffffffffffffffff1681526020019081526020016000206040518060c00160405290816000820160009054906101000a900473ffffffffffffffffffffffffffffffffffffffff1673ffffffffffffffffffffffffffffffffffffffff1673ffffffffffffffffffffffffffffffffffffffff1681526020016000820160149054906101000a900463ffffffff1663ffffffff1663ffffffff1681526020016000820160189054906101000a900463ffffffff1663ffffffff1663ffffffff16815260200160008201601c9054906101000a900463ffffffff1663ffffffff1663ffffffff1681526020016001820160009054906101000a900463ffffffff1663ffffffff1663ffffffff1681526020016001820160049054906101000a900463ffffffff1663ffffffff1663ffffffff168152505090506000826000015173ffffffffffffffffffffffffffffffffffffffff1663313ce5676040518163ffffffff1660e01b8152600401602060405180830381865afa1580156122af573d6000803e3d6000fd5b505050506040513d601f19601f820116820180604052508101906122d39190612d61565b905060006122ea8b85604001518660000151611c45565b9050600082600a6122fb9190613057565b670de0b6b3a76400008361230f9190612c86565b6123199190612cf7565b9050836040015163ffffffff16816123319190612c86565b8861233c9190612dfa565b97505050505050808061234e9061317a565b9150506120ce565b5080826123639190612cf7565b935050505092915050565b6000808360050160008473ffffffffffffffffffffffffffffffffffffffff1673ffffffffffffffffffffffffffffffffffffffff168152602001908152602001600020805480602002602001604051908101604052809291908181526020016000905b828210156124d857838290600052602060002090600602016040518060c00160405290816000820160009054906101000a900473ffffffffffffffffffffffffffffffffffffffff1673ffffffffffffffffffffffffffffffffffffffff1673ffffffffffffffffffffffffffffffffffffffff1681526020016001820160009054906101000a900473ffffffffffffffffffffffffffffffffffffffff1673ffffffffffffffffffffffffffffffffffffffff1673ffffffffffffffffffffffffffffffffffffffff168152602001600282015481526020016003820154815260200160048201548152602001600582015481525050815260200190600101906123d2565b5050505090506000805b82518110156125ec576000838281518110612500576124ff612c28565b5b602002602001015190506000816000015173ffffffffffffffffffffffffffffffffffffffff1663313ce5676040518163ffffffff1660e01b8152600401602060405180830381865afa15801561255b573d6000803e3d6000fd5b505050506040513d601f19601f8201168201806040525081019061257f9190612d61565b905060006125968984604001518560000151611c45565b9050600082600a6125a79190613057565b670de0b6b3a7640000836125bb9190612c86565b6125c59190612cf7565b905080866125d39190612dfa565b95505050505080806125e49061317a565b9150506124e2565b50809250505092915050565b60008060008460030160008573ffffffffffffffffffffffffffffffffffffffff1673ffffffffffffffffffffffffffffffffffffffff16815260200190815260200160002060009054906101000a900473ffffffffffffffffffffffffffffffffffffffff169050600081905060008173ffffffffffffffffffffffffffffffffffffffff1663feaf968c6040518163ffffffff1660e01b815260040160a060405180830381865afa1580156126b3573d6000803e3d6000fd5b505050506040513d601f19601f820116820180604052508101906126d7919061327b565b50505091505060008273ffffffffffffffffffffffffffffffffffffffff1663313ce5676040518163ffffffff1660e01b8152600401602060405180830381865afa15801561272a573d6000803e3d6000fd5b505050506040513d601f19601f8201168201806040525081019061274e9190612d61565b60ff169050818195509550505050509250929050565b6040518060e00160405280600073ffffffffffffffffffffffffffffffffffffffff168152602001600073ffffffffffffffffffffffffffffffffffffffff168152602001600081526020016000815260200160008152602001600081526020016000151581525090565b6000604051905090565b600080fd5b600080fd5b600073ffffffffffffffffffffffffffffffffffffffff82169050919050565b600061280e826127e3565b9050919050565b61281e81612803565b811461282957600080fd5b50565b60008135905061283b81612815565b92915050565b60008060408385031215612858576128576127d9565b5b60006128668582860161282c565b92505060206128778582860161282c565b9150509250929050565b6000819050919050565b61289481612881565b82525050565b60006020820190506128af600083018461288b565b92915050565b6000602082840312156128cb576128ca6127d9565b5b60006128d98482850161282c565b91505092915050565b6128eb81612881565b81146128f657600080fd5b50565b600081359050612908816128e2565b92915050565b60008060408385031215612925576129246127d9565b5b60006129338582860161282c565b9250506020612944858286016128f9565b9150509250929050565b600080fd5b6000601f19601f8301169050919050565b7f4e487b7100000000000000000000000000000000000000000000000000000000600052604160045260246000fd5b61299c82612953565b810181811067ffffffffffffffff821117156129bb576129ba612964565b5b80604052505050565b60006129ce6127cf565b90506129da8282612993565b919050565b600067ffffffffffffffff8211156129fa576129f9612964565b5b602082029050602081019050919050565b600080fd5b600080fd5b60008115159050919050565b612a2a81612a15565b8114612a3557600080fd5b50565b600081359050612a4781612a21565b92915050565b600060e08284031215612a6357612a62612a10565b5b612a6d60e06129c4565b90506000612a7d8482850161282c565b6000830152506020612a918482850161282c565b6020830152506040612aa5848285016128f9565b6040830152506060612ab9848285016128f9565b6060830152506080612acd848285016128f9565b60808301525060a0612ae1848285016128f9565b60a08301525060c0612af584828501612a38565b60c08301525092915050565b6000612b14612b0f846129df565b6129c4565b90508083825260208201905060e08402830185811115612b3757612b36612a0b565b5b835b81811015612b605780612b4c8882612a4d565b84526020840193505060e081019050612b39565b5050509392505050565b600082601f830112612b7f57612b7e61294e565b5b8135612b8f848260208601612b01565b91505092915050565b60008060408385031215612baf57612bae6127d9565b5b6000612bbd8582860161282c565b925050602083013567ffffffffffffffff811115612bde57612bdd6127de565b5b612bea85828601612b6a565b9150509250929050565b6000819050919050565b612c0781612bf4565b82525050565b6000602082019050612c226000830184612bfe565b92915050565b7f4e487b7100000000000000000000000000000000000000000000000000000000600052603260045260246000fd5b7f4e487b7100000000000000000000000000000000000000000000000000000000600052601160045260246000fd5b6000612c9182612881565b9150612c9c83612881565b9250828202612caa81612881565b91508282048414831517612cc157612cc0612c57565b5b5092915050565b7f4e487b7100000000000000000000000000000000000000000000000000000000600052601260045260246000fd5b6000612d0282612881565b9150612d0d83612881565b925082612d1d57612d1c612cc8565b5b828204905092915050565b600060ff82169050919050565b612d3e81612d28565b8114612d4957600080fd5b50565b600081519050612d5b81612d35565b92915050565b600060208284031215612d7757612d766127d9565b5b6000612d8584828501612d4c565b91505092915050565b612d9781612803565b82525050565b6000602082019050612db26000830184612d8e565b92915050565b600081519050612dc7816128e2565b92915050565b600060208284031215612de357612de26127d9565b5b6000612df184828501612db8565b91505092915050565b6000612e0582612881565b9150612e1083612881565b9250828201905080821115612e2857612e27612c57565b5b92915050565b6000606082019050612e436000830186612d8e565b612e506020830185612d8e565b612e5d604083018461288b565b949350505050565b600081519050612e7481612a21565b92915050565b600060208284031215612e9057612e8f6127d9565b5b6000612e9e84828501612e65565b91505092915050565b600082825260208201905092915050565b7f5472616e736665722066726f6d206661696c6564000000000000000000000000600082015250565b6000612eee601483612ea7565b9150612ef982612eb8565b602082019050919050565b60006020820190508181036000830152612f1d81612ee1565b9050919050565b60008160011c9050919050565b6000808291508390505b6001851115612f7b57808604811115612f5757612f56612c57565b5b6001851615612f665780820291505b8081029050612f7485612f24565b9450612f3b565b94509492505050565b600082612f945760019050613050565b81612fa25760009050613050565b8160018114612fb85760028114612fc257612ff1565b6001915050613050565b60ff841115612fd457612fd3612c57565b5b8360020a915084821115612feb57612fea612c57565b5b50613050565b5060208310610133831016604e8410600b84101617156130265782820a90508381111561302157613020612c57565b5b613050565b6130338484846001612f31565b9250905081840481111561304a57613049612c57565b5b81810290505b9392505050565b600061306282612881565b915061306d83612d28565b925061309a7fffffffffffffffffffffffffffffffffffffffffffffffffffffffffffffffff8484612f84565b905092915050565b60006040820190506130b76000830185612d8e565b6130c4602083018461288b565b9392505050565b7f5472616e73666572206661696c65640000000000000000000000000000000000600082015250565b6000613101600f83612ea7565b915061310c826130cb565b602082019050919050565b60006020820190508181036000830152613130816130f4565b9050919050565b600061314282612bf4565b915061314d83612bf4565b925082820390508181126000841216828213600085121516171561317457613173612c57565b5b92915050565b600061318582612881565b91507fffffffffffffffffffffffffffffffffffffffffffffffffffffffffffffffff82036131b7576131b6612c57565b5b600182019050919050565b60006131cd82612881565b91506131d883612881565b92506132057fffffffffffffffffffffffffffffffffffffffffffffffffffffffffffffffff8484612f84565b905092915050565b600069ffffffffffffffffffff82169050919050565b61322c8161320d565b811461323757600080fd5b50565b60008151905061324981613223565b92915050565b61325881612bf4565b811461326357600080fd5b50565b6000815190506132758161324f565b92915050565b600080600080600060a08688031215613297576132966127d9565b5b60006132a58882890161323a565b95505060206132b688828901613266565b94505060406132c788828901612db8565b93505060606132d888828901612db8565b92505060806132e98882890161323a565b915050929550929590935056fea2646970667358221220f91bbdde10749000fdeeaf84eb30c3388675844046ceb5538b35157efbb851aa64736f6c63430008110033",
  "devdoc": {
    "kind": "dev",
    "methods": {},
    "version": 1
  },
  "userdoc": {
    "kind": "user",
    "methods": {},
    "version": 1
  },
  "storageLayout": {
    "storage": [
      {
        "astId": 56,
        "contract": "contracts/facets/SupplyFacet.sol:SupplyFacet",
        "label": "_status",
        "offset": 0,
        "slot": "0",
        "type": "t_uint256"
      },
      {
        "astId": 4815,
        "contract": "contracts/facets/SupplyFacet.sol:SupplyFacet",
        "label": "s",
        "offset": 0,
        "slot": "1",
        "type": "t_struct(AppStorage)4214_storage"
      }
    ],
    "types": {
      "t_address": {
        "encoding": "inplace",
        "label": "address",
        "numberOfBytes": "20"
      },
      "t_array(t_address)dyn_storage": {
        "base": "t_address",
        "encoding": "dynamic_array",
        "label": "address[]",
        "numberOfBytes": "32"
      },
      "t_array(t_struct(BorrowedToken)4176_storage)dyn_storage": {
        "base": "t_struct(BorrowedToken)4176_storage",
        "encoding": "dynamic_array",
        "label": "struct BorrowedToken[]",
        "numberOfBytes": "32"
      },
      "t_array(t_struct(SuppliedToken)4163_storage)dyn_storage": {
        "base": "t_struct(SuppliedToken)4163_storage",
        "encoding": "dynamic_array",
        "label": "struct SuppliedToken[]",
        "numberOfBytes": "32"
      },
      "t_bool": {
        "encoding": "inplace",
        "label": "bool",
        "numberOfBytes": "1"
      },
      "t_mapping(t_address,t_address)": {
        "encoding": "mapping",
        "key": "t_address",
        "label": "mapping(address => address)",
        "numberOfBytes": "32",
        "value": "t_address"
      },
      "t_mapping(t_address,t_array(t_struct(BorrowedToken)4176_storage)dyn_storage)": {
        "encoding": "mapping",
        "key": "t_address",
        "label": "mapping(address => struct BorrowedToken[])",
        "numberOfBytes": "32",
        "value": "t_array(t_struct(BorrowedToken)4176_storage)dyn_storage"
      },
      "t_mapping(t_address,t_array(t_struct(SuppliedToken)4163_storage)dyn_storage)": {
        "encoding": "mapping",
        "key": "t_address",
        "label": "mapping(address => struct SuppliedToken[])",
        "numberOfBytes": "32",
        "value": "t_array(t_struct(SuppliedToken)4163_storage)dyn_storage"
      },
      "t_mapping(t_address,t_struct(Token)4148_storage)": {
        "encoding": "mapping",
        "key": "t_address",
        "label": "mapping(address => struct Token)",
        "numberOfBytes": "32",
        "value": "t_struct(Token)4148_storage"
      },
      "t_struct(AppStorage)4214_storage": {
        "encoding": "inplace",
        "label": "struct AppStorage",
        "members": [
          {
            "astId": 4183,
            "contract": "contracts/facets/SupplyFacet.sol:SupplyFacet",
            "label": "larTokenAddress",
            "offset": 0,
            "slot": "0",
            "type": "t_address"
          },
          {
            "astId": 4186,
            "contract": "contracts/facets/SupplyFacet.sol:SupplyFacet",
            "label": "supportedTokens",
            "offset": 0,
            "slot": "1",
            "type": "t_array(t_address)dyn_storage"
          },
          {
            "astId": 4191,
            "contract": "contracts/facets/SupplyFacet.sol:SupplyFacet",
            "label": "addressToToken",
            "offset": 0,
            "slot": "2",
            "type": "t_mapping(t_address,t_struct(Token)4148_storage)"
          },
          {
            "astId": 4195,
            "contract": "contracts/facets/SupplyFacet.sol:SupplyFacet",
            "label": "tokenToPriceFeed",
            "offset": 0,
            "slot": "3",
            "type": "t_mapping(t_address,t_address)"
          },
          {
            "astId": 4201,
            "contract": "contracts/facets/SupplyFacet.sol:SupplyFacet",
            "label": "tokensSupplied",
            "offset": 0,
            "slot": "4",
            "type": "t_mapping(t_address,t_array(t_struct(SuppliedToken)4163_storage)dyn_storage)"
          },
          {
            "astId": 4207,
            "contract": "contracts/facets/SupplyFacet.sol:SupplyFacet",
            "label": "tokensBorrowed",
            "offset": 0,
            "slot": "5",
            "type": "t_mapping(t_address,t_array(t_struct(BorrowedToken)4176_storage)dyn_storage)"
          },
          {
            "astId": 4210,
            "contract": "contracts/facets/SupplyFacet.sol:SupplyFacet",
            "label": "allSuppliers",
            "offset": 0,
            "slot": "6",
            "type": "t_array(t_address)dyn_storage"
          },
          {
            "astId": 4213,
            "contract": "contracts/facets/SupplyFacet.sol:SupplyFacet",
            "label": "allBorrowers",
            "offset": 0,
            "slot": "7",
            "type": "t_array(t_address)dyn_storage"
          }
        ],
        "numberOfBytes": "256"
      },
      "t_struct(BorrowedToken)4176_storage": {
        "encoding": "inplace",
        "label": "struct BorrowedToken",
        "members": [
          {
            "astId": 4165,
            "contract": "contracts/facets/SupplyFacet.sol:SupplyFacet",
            "label": "tokenAddress",
            "offset": 0,
            "slot": "0",
            "type": "t_address"
          },
          {
            "astId": 4167,
            "contract": "contracts/facets/SupplyFacet.sol:SupplyFacet",
            "label": "borrowerAddress",
            "offset": 0,
            "slot": "1",
            "type": "t_address"
          },
          {
            "astId": 4169,
            "contract": "contracts/facets/SupplyFacet.sol:SupplyFacet",
            "label": "amountBorrowed",
            "offset": 0,
            "slot": "2",
            "type": "t_uint256"
          },
          {
            "astId": 4171,
            "contract": "contracts/facets/SupplyFacet.sol:SupplyFacet",
            "label": "startAccumulatingDay",
            "offset": 0,
            "slot": "3",
            "type": "t_uint256"
          },
          {
            "astId": 4173,
            "contract": "contracts/facets/SupplyFacet.sol:SupplyFacet",
            "label": "borrowedInterest",
            "offset": 0,
            "slot": "4",
            "type": "t_uint256"
          },
          {
            "astId": 4175,
            "contract": "contracts/facets/SupplyFacet.sol:SupplyFacet",
            "label": "stableRate",
            "offset": 0,
            "slot": "5",
            "type": "t_uint256"
          }
        ],
        "numberOfBytes": "192"
      },
      "t_struct(SuppliedToken)4163_storage": {
        "encoding": "inplace",
        "label": "struct SuppliedToken",
        "members": [
          {
            "astId": 4150,
            "contract": "contracts/facets/SupplyFacet.sol:SupplyFacet",
            "label": "tokenAddress",
            "offset": 0,
            "slot": "0",
            "type": "t_address"
          },
          {
            "astId": 4152,
            "contract": "contracts/facets/SupplyFacet.sol:SupplyFacet",
            "label": "supplierAddress",
            "offset": 0,
            "slot": "1",
            "type": "t_address"
          },
          {
            "astId": 4154,
            "contract": "contracts/facets/SupplyFacet.sol:SupplyFacet",
            "label": "amountSupplied",
            "offset": 0,
            "slot": "2",
            "type": "t_uint256"
          },
          {
            "astId": 4156,
            "contract": "contracts/facets/SupplyFacet.sol:SupplyFacet",
            "label": "supplyInterest",
            "offset": 0,
            "slot": "3",
            "type": "t_uint256"
          },
          {
            "astId": 4158,
            "contract": "contracts/facets/SupplyFacet.sol:SupplyFacet",
            "label": "supplyStableRate",
            "offset": 0,
            "slot": "4",
            "type": "t_uint256"
          },
          {
            "astId": 4160,
            "contract": "contracts/facets/SupplyFacet.sol:SupplyFacet",
            "label": "startAccumulatingDay",
            "offset": 0,
            "slot": "5",
            "type": "t_uint256"
          },
          {
            "astId": 4162,
            "contract": "contracts/facets/SupplyFacet.sol:SupplyFacet",
            "label": "isCollateral",
            "offset": 0,
            "slot": "6",
            "type": "t_bool"
          }
        ],
        "numberOfBytes": "224"
      },
      "t_struct(Token)4148_storage": {
        "encoding": "inplace",
        "label": "struct Token",
        "members": [
          {
            "astId": 4137,
            "contract": "contracts/facets/SupplyFacet.sol:SupplyFacet",
            "label": "tokenAddress",
            "offset": 0,
            "slot": "0",
            "type": "t_address"
          },
          {
            "astId": 4139,
            "contract": "contracts/facets/SupplyFacet.sol:SupplyFacet",
            "label": "liquidationThreshold",
            "offset": 20,
            "slot": "0",
            "type": "t_uint32"
          },
          {
            "astId": 4141,
            "contract": "contracts/facets/SupplyFacet.sol:SupplyFacet",
            "label": "loanToValue",
            "offset": 24,
            "slot": "0",
            "type": "t_uint32"
          },
          {
            "astId": 4143,
            "contract": "contracts/facets/SupplyFacet.sol:SupplyFacet",
            "label": "borrowStableRate",
            "offset": 28,
            "slot": "0",
            "type": "t_uint32"
          },
          {
            "astId": 4145,
            "contract": "contracts/facets/SupplyFacet.sol:SupplyFacet",
            "label": "supplyStableRate",
            "offset": 0,
            "slot": "1",
            "type": "t_uint32"
          },
          {
            "astId": 4147,
            "contract": "contracts/facets/SupplyFacet.sol:SupplyFacet",
            "label": "liquidationPenalty",
            "offset": 4,
            "slot": "1",
            "type": "t_uint32"
          }
        ],
        "numberOfBytes": "64"
      },
      "t_uint256": {
        "encoding": "inplace",
        "label": "uint256",
        "numberOfBytes": "32"
      },
      "t_uint32": {
        "encoding": "inplace",
        "label": "uint32",
        "numberOfBytes": "4"
      }
    }
  }
}