{
  "address": "0x916EdfB9a4C7560c22284182049aC8CDC3b2Bc5f",
  "abi": [
    {
      "inputs": [],
      "name": "AddressZero",
      "type": "error"
    },
    {
      "inputs": [],
      "name": "AlreadyOff",
      "type": "error"
    },
    {
      "inputs": [],
      "name": "AlreadyOn",
      "type": "error"
    },
    {
      "inputs": [],
      "name": "AmountCannotBeZero",
      "type": "error"
    },
    {
      "inputs": [],
      "name": "CannotSwitchOffCollateral",
      "type": "error"
    },
    {
      "inputs": [],
      "name": "InsufficientFunds",
      "type": "error"
    },
    {
      "inputs": [],
      "name": "InvalidAmount",
      "type": "error"
    },
    {
      "inputs": [],
      "name": "NotSupplier",
      "type": "error"
    },
    {
      "inputs": [],
      "name": "OnlyOwnerCanCall",
      "type": "error"
    },
    {
      "inputs": [],
      "name": "TokenNotFound",
      "type": "error"
    },
    {
      "inputs": [],
      "name": "TokenNotSupported",
      "type": "error"
    },
    {
      "inputs": [
        {
          "internalType": "address",
          "name": "user",
          "type": "address"
        },
        {
          "internalType": "address",
          "name": "tokenAddress",
          "type": "address"
        }
      ],
      "name": "getTokenAvailableLoanAmount",
      "outputs": [
        {
          "internalType": "uint256",
          "name": "",
          "type": "uint256"
        }
      ],
      "stateMutability": "view",
      "type": "function"
    },
    {
      "inputs": [
        {
          "internalType": "address",
          "name": "tokenAddress",
          "type": "address"
        },
        {
          "components": [
            {
              "internalType": "address",
              "name": "tokenAddress",
              "type": "address"
            },
            {
              "internalType": "address",
              "name": "supplierAddress",
              "type": "address"
            },
            {
              "internalType": "uint256",
              "name": "amountSupplied",
              "type": "uint256"
            },
            {
              "internalType": "uint256",
              "name": "supplyInterest",
              "type": "uint256"
            },
            {
              "internalType": "uint256",
              "name": "supplyStableRate",
              "type": "uint256"
            },
            {
              "internalType": "uint256",
              "name": "startAccumulatingDay",
              "type": "uint256"
            },
            {
              "internalType": "bool",
              "name": "isCollateral",
              "type": "bool"
            }
          ],
          "internalType": "struct SuppliedToken[]",
          "name": "tokenArray",
          "type": "tuple[]"
        }
      ],
      "name": "indexOf",
      "outputs": [
        {
          "internalType": "int256",
          "name": "",
          "type": "int256"
        }
      ],
      "stateMutability": "pure",
      "type": "function"
    },
    {
      "inputs": [
        {
          "internalType": "address",
          "name": "tokenAddress",
          "type": "address"
        },
        {
          "internalType": "uint256",
          "name": "tokenAmount",
          "type": "uint256"
        },
        {
          "internalType": "uint256",
          "name": "deadline",
          "type": "uint256"
        },
        {
          "internalType": "uint8",
          "name": "v",
          "type": "uint8"
        },
        {
          "internalType": "bytes32",
          "name": "r",
          "type": "bytes32"
        },
        {
          "internalType": "bytes32",
          "name": "sSig",
          "type": "bytes32"
        }
      ],
      "name": "supplyWithPermit",
      "outputs": [],
      "stateMutability": "nonpayable",
      "type": "function"
    }
  ],
  "transactionHash": "0x4dc962b829d77b0b8cbe48ce4d110169738b24044351bb225b576b89234156ec",
  "args": [],
  "numDeployments": 1,
  "solcInputHash": "add135865e2a65a1ac2d214cad607b72",
  "bytecode": "0x608060405234801561001057600080fd5b506001600081905550611fdb806100286000396000f3fe608060405234801561001057600080fd5b50600436106100415760003560e01c80630800381b146100465780636fff45ed14610076578063eacd0d1b14610092575b600080fd5b610060600480360381019061005b919061143b565b6100c2565b60405161006d9190611494565b60405180910390f35b610090600480360381019061008b919061154a565b61041d565b005b6100ac60048036038101906100a79190611821565b6110c1565b6040516100b99190611896565b60405180910390f35b600080600160040160008573ffffffffffffffffffffffffffffffffffffffff1673ffffffffffffffffffffffffffffffffffffffff168152602001908152602001600020805480602002602001604051908101604052809291908181526020016000905b8282101561024857838290600052602060002090600702016040518060e00160405290816000820160009054906101000a900473ffffffffffffffffffffffffffffffffffffffff1673ffffffffffffffffffffffffffffffffffffffff1673ffffffffffffffffffffffffffffffffffffffff1681526020016001820160009054906101000a900473ffffffffffffffffffffffffffffffffffffffff1673ffffffffffffffffffffffffffffffffffffffff1673ffffffffffffffffffffffffffffffffffffffff168152602001600282015481526020016003820154815260200160048201548152602001600582015481526020016006820160009054906101000a900460ff16151515158152505081526020019060010190610127565b505050509050600061025a84836110c1565b90506000828281518110610271576102706118b1565b5b60200260200101519050600060016002016000836000015173ffffffffffffffffffffffffffffffffffffffff1673ffffffffffffffffffffffffffffffffffffffff1681526020019081526020016000206040518060c00160405290816000820160009054906101000a900473ffffffffffffffffffffffffffffffffffffffff1673ffffffffffffffffffffffffffffffffffffffff1673ffffffffffffffffffffffffffffffffffffffff1681526020016000820160149054906101000a900463ffffffff1663ffffffff1663ffffffff1681526020016000820160189054906101000a900463ffffffff1663ffffffff1663ffffffff16815260200160008201601c9054906101000a900463ffffffff1663ffffffff1663ffffffff1681526020016001820160009054906101000a900463ffffffff1663ffffffff1663ffffffff1681526020016001820160049054906101000a900463ffffffff1663ffffffff1663ffffffff1681525050905060006127108360400151836040015163ffffffff16610403919061190f565b61040d9190611980565b9050809550505050505092915050565b600086905060008173ffffffffffffffffffffffffffffffffffffffff1663313ce5676040518163ffffffff1660e01b8152600401602060405180830381865afa15801561046f573d6000803e3d6000fd5b505050506040513d601f19601f8201168201806040525081019061049391906119c6565b90506000610529896001800180548060200260200160405190810160405280929190818152602001828054801561051f57602002820191906000526020600020905b8160009054906101000a900473ffffffffffffffffffffffffffffffffffffffff1673ffffffffffffffffffffffffffffffffffffffff16815260200190600101908083116104d5575b5050505050611171565b90507fffffffffffffffffffffffffffffffffffffffffffffffffffffffffffffffff8103610584576040517f3dd1b30500000000000000000000000000000000000000000000000000000000815260040160405180910390fd5b878373ffffffffffffffffffffffffffffffffffffffff166370a08231336040518263ffffffff1660e01b81526004016105be9190611a02565b602060405180830381865afa1580156105db573d6000803e3d6000fd5b505050506040513d601f19601f820116820180604052508101906105ff9190611a32565b1015610637576040517f356680b700000000000000000000000000000000000000000000000000000000815260040160405180910390fd5b60008811610671576040517f2c5211c600000000000000000000000000000000000000000000000000000000815260040160405180910390fd5b8873ffffffffffffffffffffffffffffffffffffffff1663d505accf33308b8b8b8b8b6040518863ffffffff1660e01b81526004016106b69796959493929190611a7d565b600060405180830381600087803b1580156106d057600080fd5b505af11580156106e4573d6000803e3d6000fd5b505050506000600160040160003373ffffffffffffffffffffffffffffffffffffffff1673ffffffffffffffffffffffffffffffffffffffff168152602001908152602001600020805480602002602001604051908101604052809291908181526020016000905b8282101561086d57838290600052602060002090600702016040518060e00160405290816000820160009054906101000a900473ffffffffffffffffffffffffffffffffffffffff1673ffffffffffffffffffffffffffffffffffffffff1673ffffffffffffffffffffffffffffffffffffffff1681526020016001820160009054906101000a900473ffffffffffffffffffffffffffffffffffffffff1673ffffffffffffffffffffffffffffffffffffffff1673ffffffffffffffffffffffffffffffffffffffff168152602001600282015481526020016003820154815260200160048201548152602001600582015481526020016006820160009054906101000a900460ff1615151515815250508152602001906001019061074c565b5050505090506000600160020160008c73ffffffffffffffffffffffffffffffffffffffff1673ffffffffffffffffffffffffffffffffffffffff1681526020019081526020016000206040518060c00160405290816000820160009054906101000a900473ffffffffffffffffffffffffffffffffffffffff1673ffffffffffffffffffffffffffffffffffffffff1673ffffffffffffffffffffffffffffffffffffffff1681526020016000820160149054906101000a900463ffffffff1663ffffffff1663ffffffff1681526020016000820160189054906101000a900463ffffffff1663ffffffff1663ffffffff16815260200160008201601c9054906101000a900463ffffffff1663ffffffff1663ffffffff1681526020016001820160009054906101000a900463ffffffff1663ffffffff1663ffffffff1681526020016001820160049054906101000a900463ffffffff1663ffffffff1663ffffffff168152505090506000825103610c035760006040518060e001604052808d73ffffffffffffffffffffffffffffffffffffffff1681526020013373ffffffffffffffffffffffffffffffffffffffff1681526020018c815260200160008152602001836080015163ffffffff16815260200160008152602001600115158152509050600160040160003373ffffffffffffffffffffffffffffffffffffffff1673ffffffffffffffffffffffffffffffffffffffff16815260200190815260200160002081908060018154018082558091505060019003906000526020600020906007020160009091909190915060008201518160000160006101000a81548173ffffffffffffffffffffffffffffffffffffffff021916908373ffffffffffffffffffffffffffffffffffffffff16021790555060208201518160010160006101000a81548173ffffffffffffffffffffffffffffffffffffffff021916908373ffffffffffffffffffffffffffffffffffffffff16021790555060408201518160020155606082015181600301556080820151816004015560a0820151816005015560c08201518160060160006101000a81548160ff02191690831515021790555050506001600601339080600181540180825580915050600190039060005260206000200160009091909190916101000a81548173ffffffffffffffffffffffffffffffffffffffff021916908373ffffffffffffffffffffffffffffffffffffffff16021790555050610e79565b6000610c0f8c846110c1565b90507fffffffffffffffffffffffffffffffffffffffffffffffffffffffffffffffff8103610df45760006040518060e001604052808e73ffffffffffffffffffffffffffffffffffffffff1681526020013373ffffffffffffffffffffffffffffffffffffffff1681526020018d815260200160008152602001846080015163ffffffff16815260200160008152602001600115158152509050600160040160003373ffffffffffffffffffffffffffffffffffffffff1673ffffffffffffffffffffffffffffffffffffffff16815260200190815260200160002081908060018154018082558091505060019003906000526020600020906007020160009091909190915060008201518160000160006101000a81548173ffffffffffffffffffffffffffffffffffffffff021916908373ffffffffffffffffffffffffffffffffffffffff16021790555060208201518160010160006101000a81548173ffffffffffffffffffffffffffffffffffffffff021916908373ffffffffffffffffffffffffffffffffffffffff16021790555060408201518160020155606082015181600301556080820151816004015560a0820151816005015560c08201518160060160006101000a81548160ff021916908315150217905550505050610e77565b6000600160040160003373ffffffffffffffffffffffffffffffffffffffff1673ffffffffffffffffffffffffffffffffffffffff1681526020019081526020016000208281548110610e4a57610e496118b1565b5b906000526020600020906007020190508b816002016000828254610e6e9190611aec565b92505081905550505b505b8473ffffffffffffffffffffffffffffffffffffffff166323b872dd33308d6040518463ffffffff1660e01b8152600401610eb693929190611b20565b6020604051808303816000875af1158015610ed5573d6000803e3d6000fd5b505050506040513d601f19601f82011682018060405250810190610ef99190611b6c565b610f38576040517f08c379a0000000000000000000000000000000000000000000000000000000008152600401610f2f90611bf6565b60405180910390fd5b6000610f4660018c8e611216565b9050600085600a610f579190611d49565b670de0b6b3a764000083610f6b919061190f565b610f759190611980565b9050600160000160009054906101000a900473ffffffffffffffffffffffffffffffffffffffff1673ffffffffffffffffffffffffffffffffffffffff1663a9059cbb33836040518363ffffffff1660e01b8152600401610fd7929190611d94565b6020604051808303816000875af1158015610ff6573d6000803e3d6000fd5b505050506040513d601f19601f8201168201806040525081019061101a9190611b6c565b611059576040517f08c379a000000000000000000000000000000000000000000000000000000000815260040161105090611e09565b60405180910390fd5b8b600160080160008f73ffffffffffffffffffffffffffffffffffffffff1673ffffffffffffffffffffffffffffffffffffffff16815260200190815260200160002060008282546110ab9190611aec565b9250508190555050505050505050505050505050565b600080600090505b82518110156111465760008382815181106110e7576110e66118b1565b5b602002602001015190508473ffffffffffffffffffffffffffffffffffffffff16816000015173ffffffffffffffffffffffffffffffffffffffff160361113257819250505061116b565b50808061113e90611e29565b9150506110c9565b507fffffffffffffffffffffffffffffffffffffffffffffffffffffffffffffffff90505b92915050565b600080600090505b82518110156111eb57828181518110611195576111946118b1565b5b602002602001015173ffffffffffffffffffffffffffffffffffffffff168473ffffffffffffffffffffffffffffffffffffffff16036111d85780915050611210565b80806111e390611e29565b915050611179565b507fffffffffffffffffffffffffffffffffffffffffffffffffffffffffffffffff90505b92915050565b6000806000611225868561125d565b91509150600081600a6112389190611e71565b8387611244919061190f565b61124e9190611980565b90508093505050509392505050565b60008060008460030160008573ffffffffffffffffffffffffffffffffffffffff1673ffffffffffffffffffffffffffffffffffffffff16815260200190815260200160002060009054906101000a900473ffffffffffffffffffffffffffffffffffffffff169050600081905060008173ffffffffffffffffffffffffffffffffffffffff1663feaf968c6040518163ffffffff1660e01b815260040160a060405180830381865afa158015611318573d6000803e3d6000fd5b505050506040513d601f19601f8201168201806040525081019061133c9190611f2a565b50505091505060008273ffffffffffffffffffffffffffffffffffffffff1663313ce5676040518163ffffffff1660e01b8152600401602060405180830381865afa15801561138f573d6000803e3d6000fd5b505050506040513d601f19601f820116820180604052508101906113b391906119c6565b60ff169050818195509550505050509250929050565b6000604051905090565b600080fd5b600080fd5b600073ffffffffffffffffffffffffffffffffffffffff82169050919050565b6000611408826113dd565b9050919050565b611418816113fd565b811461142357600080fd5b50565b6000813590506114358161140f565b92915050565b60008060408385031215611452576114516113d3565b5b600061146085828601611426565b925050602061147185828601611426565b9150509250929050565b6000819050919050565b61148e8161147b565b82525050565b60006020820190506114a96000830184611485565b92915050565b6114b88161147b565b81146114c357600080fd5b50565b6000813590506114d5816114af565b92915050565b600060ff82169050919050565b6114f1816114db565b81146114fc57600080fd5b50565b60008135905061150e816114e8565b92915050565b6000819050919050565b61152781611514565b811461153257600080fd5b50565b6000813590506115448161151e565b92915050565b60008060008060008060c08789031215611567576115666113d3565b5b600061157589828a01611426565b965050602061158689828a016114c6565b955050604061159789828a016114c6565b94505060606115a889828a016114ff565b93505060806115b989828a01611535565b92505060a06115ca89828a01611535565b9150509295509295509295565b600080fd5b6000601f19601f8301169050919050565b7f4e487b7100000000000000000000000000000000000000000000000000000000600052604160045260246000fd5b611625826115dc565b810181811067ffffffffffffffff82111715611644576116436115ed565b5b80604052505050565b60006116576113c9565b9050611663828261161c565b919050565b600067ffffffffffffffff821115611683576116826115ed565b5b602082029050602081019050919050565b600080fd5b600080fd5b60008115159050919050565b6116b38161169e565b81146116be57600080fd5b50565b6000813590506116d0816116aa565b92915050565b600060e082840312156116ec576116eb611699565b5b6116f660e061164d565b9050600061170684828501611426565b600083015250602061171a84828501611426565b602083015250604061172e848285016114c6565b6040830152506060611742848285016114c6565b6060830152506080611756848285016114c6565b60808301525060a061176a848285016114c6565b60a08301525060c061177e848285016116c1565b60c08301525092915050565b600061179d61179884611668565b61164d565b90508083825260208201905060e084028301858111156117c0576117bf611694565b5b835b818110156117e957806117d588826116d6565b84526020840193505060e0810190506117c2565b5050509392505050565b600082601f830112611808576118076115d7565b5b813561181884826020860161178a565b91505092915050565b60008060408385031215611838576118376113d3565b5b600061184685828601611426565b925050602083013567ffffffffffffffff811115611867576118666113d8565b5b611873858286016117f3565b9150509250929050565b6000819050919050565b6118908161187d565b82525050565b60006020820190506118ab6000830184611887565b92915050565b7f4e487b7100000000000000000000000000000000000000000000000000000000600052603260045260246000fd5b7f4e487b7100000000000000000000000000000000000000000000000000000000600052601160045260246000fd5b600061191a8261147b565b91506119258361147b565b92508282026119338161147b565b9150828204841483151761194a576119496118e0565b5b5092915050565b7f4e487b7100000000000000000000000000000000000000000000000000000000600052601260045260246000fd5b600061198b8261147b565b91506119968361147b565b9250826119a6576119a5611951565b5b828204905092915050565b6000815190506119c0816114e8565b92915050565b6000602082840312156119dc576119db6113d3565b5b60006119ea848285016119b1565b91505092915050565b6119fc816113fd565b82525050565b6000602082019050611a1760008301846119f3565b92915050565b600081519050611a2c816114af565b92915050565b600060208284031215611a4857611a476113d3565b5b6000611a5684828501611a1d565b91505092915050565b611a68816114db565b82525050565b611a7781611514565b82525050565b600060e082019050611a92600083018a6119f3565b611a9f60208301896119f3565b611aac6040830188611485565b611ab96060830187611485565b611ac66080830186611a5f565b611ad360a0830185611a6e565b611ae060c0830184611a6e565b98975050505050505050565b6000611af78261147b565b9150611b028361147b565b9250828201905080821115611b1a57611b196118e0565b5b92915050565b6000606082019050611b3560008301866119f3565b611b4260208301856119f3565b611b4f6040830184611485565b949350505050565b600081519050611b66816116aa565b92915050565b600060208284031215611b8257611b816113d3565b5b6000611b9084828501611b57565b91505092915050565b600082825260208201905092915050565b7f5472616e736665722066726f6d206661696c6564000000000000000000000000600082015250565b6000611be0601483611b99565b9150611beb82611baa565b602082019050919050565b60006020820190508181036000830152611c0f81611bd3565b9050919050565b60008160011c9050919050565b6000808291508390505b6001851115611c6d57808604811115611c4957611c486118e0565b5b6001851615611c585780820291505b8081029050611c6685611c16565b9450611c2d565b94509492505050565b600082611c865760019050611d42565b81611c945760009050611d42565b8160018114611caa5760028114611cb457611ce3565b6001915050611d42565b60ff841115611cc657611cc56118e0565b5b8360020a915084821115611cdd57611cdc6118e0565b5b50611d42565b5060208310610133831016604e8410600b8410161715611d185782820a905083811115611d1357611d126118e0565b5b611d42565b611d258484846001611c23565b92509050818404811115611d3c57611d3b6118e0565b5b81810290505b9392505050565b6000611d548261147b565b9150611d5f836114db565b9250611d8c7fffffffffffffffffffffffffffffffffffffffffffffffffffffffffffffffff8484611c76565b905092915050565b6000604082019050611da960008301856119f3565b611db66020830184611485565b9392505050565b7f5472616e73666572206661696c65640000000000000000000000000000000000600082015250565b6000611df3600f83611b99565b9150611dfe82611dbd565b602082019050919050565b60006020820190508181036000830152611e2281611de6565b9050919050565b6000611e348261147b565b91507fffffffffffffffffffffffffffffffffffffffffffffffffffffffffffffffff8203611e6657611e656118e0565b5b600182019050919050565b6000611e7c8261147b565b9150611e878361147b565b9250611eb47fffffffffffffffffffffffffffffffffffffffffffffffffffffffffffffffff8484611c76565b905092915050565b600069ffffffffffffffffffff82169050919050565b611edb81611ebc565b8114611ee657600080fd5b50565b600081519050611ef881611ed2565b92915050565b611f078161187d565b8114611f1257600080fd5b50565b600081519050611f2481611efe565b92915050565b600080600080600060a08688031215611f4657611f456113d3565b5b6000611f5488828901611ee9565b9550506020611f6588828901611f15565b9450506040611f7688828901611a1d565b9350506060611f8788828901611a1d565b9250506080611f9888828901611ee9565b915050929550929590935056fea26469706673582212207e1c7dad317557be3bfe100af27fa14f8b0ee75ea60b3a7d78bffbc5462ae38064736f6c63430008110033",
  "devdoc": {
    "kind": "dev",
    "methods": {},
    "version": 1
  },
  "userdoc": {
    "kind": "user",
    "methods": {},
    "version": 1
  },
  "storageLayout": {
    "storage": [
      {
        "astId": 56,
        "contract": "contracts/facets/SupplyWithPermitFacet.sol:SupplyWithPermitFacet",
        "label": "_status",
        "offset": 0,
        "slot": "0",
        "type": "t_uint256"
      },
      {
        "astId": 1427,
        "contract": "contracts/facets/SupplyWithPermitFacet.sol:SupplyWithPermitFacet",
        "label": "s",
        "offset": 0,
        "slot": "1",
        "type": "t_struct(AppStorage)826_storage"
      }
    ],
    "types": {
      "t_address": {
        "encoding": "inplace",
        "label": "address",
        "numberOfBytes": "20"
      },
      "t_array(t_address)dyn_storage": {
        "base": "t_address",
        "encoding": "dynamic_array",
        "label": "address[]",
        "numberOfBytes": "32"
      },
      "t_array(t_struct(BorrowedToken)780_storage)dyn_storage": {
        "base": "t_struct(BorrowedToken)780_storage",
        "encoding": "dynamic_array",
        "label": "struct BorrowedToken[]",
        "numberOfBytes": "32"
      },
      "t_array(t_struct(SuppliedToken)767_storage)dyn_storage": {
        "base": "t_struct(SuppliedToken)767_storage",
        "encoding": "dynamic_array",
        "label": "struct SuppliedToken[]",
        "numberOfBytes": "32"
      },
      "t_bool": {
        "encoding": "inplace",
        "label": "bool",
        "numberOfBytes": "1"
      },
      "t_mapping(t_address,t_address)": {
        "encoding": "mapping",
        "key": "t_address",
        "label": "mapping(address => address)",
        "numberOfBytes": "32",
        "value": "t_address"
      },
      "t_mapping(t_address,t_array(t_struct(BorrowedToken)780_storage)dyn_storage)": {
        "encoding": "mapping",
        "key": "t_address",
        "label": "mapping(address => struct BorrowedToken[])",
        "numberOfBytes": "32",
        "value": "t_array(t_struct(BorrowedToken)780_storage)dyn_storage"
      },
      "t_mapping(t_address,t_array(t_struct(SuppliedToken)767_storage)dyn_storage)": {
        "encoding": "mapping",
        "key": "t_address",
        "label": "mapping(address => struct SuppliedToken[])",
        "numberOfBytes": "32",
        "value": "t_array(t_struct(SuppliedToken)767_storage)dyn_storage"
      },
      "t_mapping(t_address,t_struct(Token)752_storage)": {
        "encoding": "mapping",
        "key": "t_address",
        "label": "mapping(address => struct Token)",
        "numberOfBytes": "32",
        "value": "t_struct(Token)752_storage"
      },
      "t_mapping(t_address,t_uint256)": {
        "encoding": "mapping",
        "key": "t_address",
        "label": "mapping(address => uint256)",
        "numberOfBytes": "32",
        "value": "t_uint256"
      },
      "t_struct(AppStorage)826_storage": {
        "encoding": "inplace",
        "label": "struct AppStorage",
        "members": [
          {
            "astId": 787,
            "contract": "contracts/facets/SupplyWithPermitFacet.sol:SupplyWithPermitFacet",
            "label": "larTokenAddress",
            "offset": 0,
            "slot": "0",
            "type": "t_address"
          },
          {
            "astId": 790,
            "contract": "contracts/facets/SupplyWithPermitFacet.sol:SupplyWithPermitFacet",
            "label": "supportedTokens",
            "offset": 0,
            "slot": "1",
            "type": "t_array(t_address)dyn_storage"
          },
          {
            "astId": 795,
            "contract": "contracts/facets/SupplyWithPermitFacet.sol:SupplyWithPermitFacet",
            "label": "addressToToken",
            "offset": 0,
            "slot": "2",
            "type": "t_mapping(t_address,t_struct(Token)752_storage)"
          },
          {
            "astId": 799,
            "contract": "contracts/facets/SupplyWithPermitFacet.sol:SupplyWithPermitFacet",
            "label": "tokenToPriceFeed",
            "offset": 0,
            "slot": "3",
            "type": "t_mapping(t_address,t_address)"
          },
          {
            "astId": 805,
            "contract": "contracts/facets/SupplyWithPermitFacet.sol:SupplyWithPermitFacet",
            "label": "tokensSupplied",
            "offset": 0,
            "slot": "4",
            "type": "t_mapping(t_address,t_array(t_struct(SuppliedToken)767_storage)dyn_storage)"
          },
          {
            "astId": 811,
            "contract": "contracts/facets/SupplyWithPermitFacet.sol:SupplyWithPermitFacet",
            "label": "tokensBorrowed",
            "offset": 0,
            "slot": "5",
            "type": "t_mapping(t_address,t_array(t_struct(BorrowedToken)780_storage)dyn_storage)"
          },
          {
            "astId": 814,
            "contract": "contracts/facets/SupplyWithPermitFacet.sol:SupplyWithPermitFacet",
            "label": "allSuppliers",
            "offset": 0,
            "slot": "6",
            "type": "t_array(t_address)dyn_storage"
          },
          {
            "astId": 817,
            "contract": "contracts/facets/SupplyWithPermitFacet.sol:SupplyWithPermitFacet",
            "label": "allBorrowers",
            "offset": 0,
            "slot": "7",
            "type": "t_array(t_address)dyn_storage"
          },
          {
            "astId": 821,
            "contract": "contracts/facets/SupplyWithPermitFacet.sol:SupplyWithPermitFacet",
            "label": "totalSupplied",
            "offset": 0,
            "slot": "8",
            "type": "t_mapping(t_address,t_uint256)"
          },
          {
            "astId": 825,
            "contract": "contracts/facets/SupplyWithPermitFacet.sol:SupplyWithPermitFacet",
            "label": "totalBorrowed",
            "offset": 0,
            "slot": "9",
            "type": "t_mapping(t_address,t_uint256)"
          }
        ],
        "numberOfBytes": "320"
      },
      "t_struct(BorrowedToken)780_storage": {
        "encoding": "inplace",
        "label": "struct BorrowedToken",
        "members": [
          {
            "astId": 769,
            "contract": "contracts/facets/SupplyWithPermitFacet.sol:SupplyWithPermitFacet",
            "label": "tokenAddress",
            "offset": 0,
            "slot": "0",
            "type": "t_address"
          },
          {
            "astId": 771,
            "contract": "contracts/facets/SupplyWithPermitFacet.sol:SupplyWithPermitFacet",
            "label": "borrowerAddress",
            "offset": 0,
            "slot": "1",
            "type": "t_address"
          },
          {
            "astId": 773,
            "contract": "contracts/facets/SupplyWithPermitFacet.sol:SupplyWithPermitFacet",
            "label": "amountBorrowed",
            "offset": 0,
            "slot": "2",
            "type": "t_uint256"
          },
          {
            "astId": 775,
            "contract": "contracts/facets/SupplyWithPermitFacet.sol:SupplyWithPermitFacet",
            "label": "startAccumulatingDay",
            "offset": 0,
            "slot": "3",
            "type": "t_uint256"
          },
          {
            "astId": 777,
            "contract": "contracts/facets/SupplyWithPermitFacet.sol:SupplyWithPermitFacet",
            "label": "borrowedInterest",
            "offset": 0,
            "slot": "4",
            "type": "t_uint256"
          },
          {
            "astId": 779,
            "contract": "contracts/facets/SupplyWithPermitFacet.sol:SupplyWithPermitFacet",
            "label": "stableRate",
            "offset": 0,
            "slot": "5",
            "type": "t_uint256"
          }
        ],
        "numberOfBytes": "192"
      },
      "t_struct(SuppliedToken)767_storage": {
        "encoding": "inplace",
        "label": "struct SuppliedToken",
        "members": [
          {
            "astId": 754,
            "contract": "contracts/facets/SupplyWithPermitFacet.sol:SupplyWithPermitFacet",
            "label": "tokenAddress",
            "offset": 0,
            "slot": "0",
            "type": "t_address"
          },
          {
            "astId": 756,
            "contract": "contracts/facets/SupplyWithPermitFacet.sol:SupplyWithPermitFacet",
            "label": "supplierAddress",
            "offset": 0,
            "slot": "1",
            "type": "t_address"
          },
          {
            "astId": 758,
            "contract": "contracts/facets/SupplyWithPermitFacet.sol:SupplyWithPermitFacet",
            "label": "amountSupplied",
            "offset": 0,
            "slot": "2",
            "type": "t_uint256"
          },
          {
            "astId": 760,
            "contract": "contracts/facets/SupplyWithPermitFacet.sol:SupplyWithPermitFacet",
            "label": "supplyInterest",
            "offset": 0,
            "slot": "3",
            "type": "t_uint256"
          },
          {
            "astId": 762,
            "contract": "contracts/facets/SupplyWithPermitFacet.sol:SupplyWithPermitFacet",
            "label": "supplyStableRate",
            "offset": 0,
            "slot": "4",
            "type": "t_uint256"
          },
          {
            "astId": 764,
            "contract": "contracts/facets/SupplyWithPermitFacet.sol:SupplyWithPermitFacet",
            "label": "startAccumulatingDay",
            "offset": 0,
            "slot": "5",
            "type": "t_uint256"
          },
          {
            "astId": 766,
            "contract": "contracts/facets/SupplyWithPermitFacet.sol:SupplyWithPermitFacet",
            "label": "isCollateral",
            "offset": 0,
            "slot": "6",
            "type": "t_bool"
          }
        ],
        "numberOfBytes": "224"
      },
      "t_struct(Token)752_storage": {
        "encoding": "inplace",
        "label": "struct Token",
        "members": [
          {
            "astId": 741,
            "contract": "contracts/facets/SupplyWithPermitFacet.sol:SupplyWithPermitFacet",
            "label": "tokenAddress",
            "offset": 0,
            "slot": "0",
            "type": "t_address"
          },
          {
            "astId": 743,
            "contract": "contracts/facets/SupplyWithPermitFacet.sol:SupplyWithPermitFacet",
            "label": "liquidationThreshold",
            "offset": 20,
            "slot": "0",
            "type": "t_uint32"
          },
          {
            "astId": 745,
            "contract": "contracts/facets/SupplyWithPermitFacet.sol:SupplyWithPermitFacet",
            "label": "loanToValue",
            "offset": 24,
            "slot": "0",
            "type": "t_uint32"
          },
          {
            "astId": 747,
            "contract": "contracts/facets/SupplyWithPermitFacet.sol:SupplyWithPermitFacet",
            "label": "borrowStableRate",
            "offset": 28,
            "slot": "0",
            "type": "t_uint32"
          },
          {
            "astId": 749,
            "contract": "contracts/facets/SupplyWithPermitFacet.sol:SupplyWithPermitFacet",
            "label": "supplyStableRate",
            "offset": 0,
            "slot": "1",
            "type": "t_uint32"
          },
          {
            "astId": 751,
            "contract": "contracts/facets/SupplyWithPermitFacet.sol:SupplyWithPermitFacet",
            "label": "liquidationPenalty",
            "offset": 4,
            "slot": "1",
            "type": "t_uint32"
          }
        ],
        "numberOfBytes": "64"
      },
      "t_uint256": {
        "encoding": "inplace",
        "label": "uint256",
        "numberOfBytes": "32"
      },
      "t_uint32": {
        "encoding": "inplace",
        "label": "uint32",
        "numberOfBytes": "4"
      }
    }
  }
}