{
  "address": "0x2b790D8E1C219E6eCe281a5708284B91A7741F34",
  "abi": [
    {
      "inputs": [],
      "name": "AddressZero",
      "type": "error"
    },
    {
      "inputs": [],
      "name": "AlreadyOff",
      "type": "error"
    },
    {
      "inputs": [],
      "name": "AlreadyOn",
      "type": "error"
    },
    {
      "inputs": [],
      "name": "AmountCannotBeZero",
      "type": "error"
    },
    {
      "inputs": [],
      "name": "CannotSwitchOffCollateral",
      "type": "error"
    },
    {
      "inputs": [],
      "name": "InsufficientFunds",
      "type": "error"
    },
    {
      "inputs": [],
      "name": "InvalidAmount",
      "type": "error"
    },
    {
      "inputs": [],
      "name": "NotSupplier",
      "type": "error"
    },
    {
      "inputs": [],
      "name": "OnlyOwnerCanCall",
      "type": "error"
    },
    {
      "inputs": [],
      "name": "TokenNotFound",
      "type": "error"
    },
    {
      "inputs": [],
      "name": "TokenNotSupported",
      "type": "error"
    },
    {
      "inputs": [
        {
          "internalType": "address",
          "name": "tokenAddress",
          "type": "address"
        },
        {
          "internalType": "uint256",
          "name": "tokenAmount",
          "type": "uint256"
        }
      ],
      "name": "addToTotalSupply",
      "outputs": [],
      "stateMutability": "nonpayable",
      "type": "function"
    },
    {
      "inputs": [
        {
          "internalType": "address",
          "name": "user",
          "type": "address"
        },
        {
          "internalType": "address",
          "name": "tokenAddress",
          "type": "address"
        }
      ],
      "name": "getTokenAvailableLoanAmount",
      "outputs": [
        {
          "internalType": "uint256",
          "name": "",
          "type": "uint256"
        }
      ],
      "stateMutability": "view",
      "type": "function"
    },
    {
      "inputs": [
        {
          "internalType": "address",
          "name": "tokenAddress",
          "type": "address"
        },
        {
          "components": [
            {
              "internalType": "address",
              "name": "tokenAddress",
              "type": "address"
            },
            {
              "internalType": "address",
              "name": "supplierAddress",
              "type": "address"
            },
            {
              "internalType": "uint256",
              "name": "amountSupplied",
              "type": "uint256"
            },
            {
              "internalType": "uint256",
              "name": "supplyInterest",
              "type": "uint256"
            },
            {
              "internalType": "uint256",
              "name": "supplyStableRate",
              "type": "uint256"
            },
            {
              "internalType": "uint256",
              "name": "startAccumulatingDay",
              "type": "uint256"
            },
            {
              "internalType": "bool",
              "name": "isCollateral",
              "type": "bool"
            }
          ],
          "internalType": "struct SuppliedToken[]",
          "name": "tokenArray",
          "type": "tuple[]"
        }
      ],
      "name": "indexOf",
      "outputs": [
        {
          "internalType": "int256",
          "name": "",
          "type": "int256"
        }
      ],
      "stateMutability": "pure",
      "type": "function"
    },
    {
      "inputs": [
        {
          "internalType": "address",
          "name": "tokenAddress",
          "type": "address"
        },
        {
          "internalType": "uint256",
          "name": "tokenAmount",
          "type": "uint256"
        }
      ],
      "name": "supply",
      "outputs": [],
      "stateMutability": "nonpayable",
      "type": "function"
    },
    {
      "inputs": [
        {
          "internalType": "address",
          "name": "tokenAddress",
          "type": "address"
        }
      ],
      "name": "switchOnCollateral",
      "outputs": [],
      "stateMutability": "nonpayable",
      "type": "function"
    },
    {
      "inputs": [
        {
          "internalType": "address",
          "name": "tokenAddress",
          "type": "address"
        }
      ],
      "name": "swithOffCollateral",
      "outputs": [],
      "stateMutability": "nonpayable",
      "type": "function"
    }
  ],
  "transactionHash": "0x495074acbb1b388a730fc4c00429285b0911a1d49874862623be878b78e5d943",
  "args": [],
  "numDeployments": 1,
  "solcInputHash": "16d279c3dea79da8988f2152f610b405",
  "bytecode": "0x608060405234801561001057600080fd5b506001600081905550613576806100286000396000f3fe608060405234801561001057600080fd5b50600436106100625760003560e01c80630800381b14610067578063316a6343146100975780633566de07146100b3578063ac161e04146100cf578063eacd0d1b146100eb578063f2b9fdb81461011b575b600080fd5b610081600480360381019061007c9190612a8b565b610137565b60405161008e9190612ae4565b60405180910390f35b6100b160048036038101906100ac9190612b2b565b610492565b005b6100cd60048036038101906100c89190612b6b565b61061f565b005b6100e960048036038101906100e49190612b6b565b6109c1565b005b61010560048036038101906101009190612de2565b611038565b6040516101129190612e57565b60405180910390f35b61013560048036038101906101309190612b2b565b6110e8565b005b600080600160040160008573ffffffffffffffffffffffffffffffffffffffff1673ffffffffffffffffffffffffffffffffffffffff168152602001908152602001600020805480602002602001604051908101604052809291908181526020016000905b828210156102bd57838290600052602060002090600702016040518060e00160405290816000820160009054906101000a900473ffffffffffffffffffffffffffffffffffffffff1673ffffffffffffffffffffffffffffffffffffffff1673ffffffffffffffffffffffffffffffffffffffff1681526020016001820160009054906101000a900473ffffffffffffffffffffffffffffffffffffffff1673ffffffffffffffffffffffffffffffffffffffff1673ffffffffffffffffffffffffffffffffffffffff168152602001600282015481526020016003820154815260200160048201548152602001600582015481526020016006820160009054906101000a900460ff1615151515815250508152602001906001019061019c565b50505050905060006102cf8483611038565b905060008282815181106102e6576102e5612e72565b5b60200260200101519050600060016002016000836000015173ffffffffffffffffffffffffffffffffffffffff1673ffffffffffffffffffffffffffffffffffffffff1681526020019081526020016000206040518060c00160405290816000820160009054906101000a900473ffffffffffffffffffffffffffffffffffffffff1673ffffffffffffffffffffffffffffffffffffffff1673ffffffffffffffffffffffffffffffffffffffff1681526020016000820160149054906101000a900463ffffffff1663ffffffff1663ffffffff1681526020016000820160189054906101000a900463ffffffff1663ffffffff1663ffffffff16815260200160008201601c9054906101000a900463ffffffff1663ffffffff1663ffffffff1681526020016001820160009054906101000a900463ffffffff1663ffffffff1663ffffffff1681526020016001820160049054906101000a900463ffffffff1663ffffffff1663ffffffff1681525050905060006127108360400151836040015163ffffffff166104789190612ed0565b6104829190612f41565b9050809550505050505092915050565b61049a611dad565b60040160009054906101000a900473ffffffffffffffffffffffffffffffffffffffff1673ffffffffffffffffffffffffffffffffffffffff163373ffffffffffffffffffffffffffffffffffffffff1614610522576040517f47a8ea5800000000000000000000000000000000000000000000000000000000815260040160405180910390fd5b600073ffffffffffffffffffffffffffffffffffffffff168273ffffffffffffffffffffffffffffffffffffffff1603610588576040517f9fabe1c100000000000000000000000000000000000000000000000000000000815260040160405180910390fd5b600081116105c2576040517fd11b25af00000000000000000000000000000000000000000000000000000000815260040160405180910390fd5b80600160080160008473ffffffffffffffffffffffffffffffffffffffff1673ffffffffffffffffffffffffffffffffffffffff16815260200190815260200160002060008282546106149190612f72565b925050819055505050565b6000600160040160003373ffffffffffffffffffffffffffffffffffffffff1673ffffffffffffffffffffffffffffffffffffffff168152602001908152602001600020805480602002602001604051908101604052809291908181526020016000905b828210156107a457838290600052602060002090600702016040518060e00160405290816000820160009054906101000a900473ffffffffffffffffffffffffffffffffffffffff1673ffffffffffffffffffffffffffffffffffffffff1673ffffffffffffffffffffffffffffffffffffffff1681526020016001820160009054906101000a900473ffffffffffffffffffffffffffffffffffffffff1673ffffffffffffffffffffffffffffffffffffffff1673ffffffffffffffffffffffffffffffffffffffff168152602001600282015481526020016003820154815260200160048201548152602001600582015481526020016006820160009054906101000a900460ff16151515158152505081526020019060010190610683565b50505050905060008151036107e5576040517fcbdb7b3000000000000000000000000000000000000000000000000000000000815260040160405180910390fd5b60006107f18383611038565b90507fffffffffffffffffffffffffffffffffffffffffffffffffffffffffffffffff810361084c576040517fcbdb7b3000000000000000000000000000000000000000000000000000000000815260040160405180910390fd5b6000600160040160003373ffffffffffffffffffffffffffffffffffffffff1673ffffffffffffffffffffffffffffffffffffffff16815260200190815260200160002082815481106108a2576108a1612e72565b5b906000526020600020906007020190503373ffffffffffffffffffffffffffffffffffffffff168160010160009054906101000a900473ffffffffffffffffffffffffffffffffffffffff1673ffffffffffffffffffffffffffffffffffffffff161461093b576040517fc235ae0600000000000000000000000000000000000000000000000000000000815260040160405180910390fd5b600115158160060160009054906101000a900460ff1615150361098a576040517f2c97850c00000000000000000000000000000000000000000000000000000000815260040160405180910390fd5b60018160060160006101000a81548160ff021916908315150217905550600081600301819055506000816005018190555050505050565b6000600160040160003373ffffffffffffffffffffffffffffffffffffffff1673ffffffffffffffffffffffffffffffffffffffff168152602001908152602001600020805480602002602001604051908101604052809291908181526020016000905b82821015610b4657838290600052602060002090600702016040518060e00160405290816000820160009054906101000a900473ffffffffffffffffffffffffffffffffffffffff1673ffffffffffffffffffffffffffffffffffffffff1673ffffffffffffffffffffffffffffffffffffffff1681526020016001820160009054906101000a900473ffffffffffffffffffffffffffffffffffffffff1673ffffffffffffffffffffffffffffffffffffffff1673ffffffffffffffffffffffffffffffffffffffff168152602001600282015481526020016003820154815260200160048201548152602001600582015481526020016006820160009054906101000a900460ff16151515158152505081526020019060010190610a25565b5050505090506000600160020160008473ffffffffffffffffffffffffffffffffffffffff1673ffffffffffffffffffffffffffffffffffffffff1681526020019081526020016000206040518060c00160405290816000820160009054906101000a900473ffffffffffffffffffffffffffffffffffffffff1673ffffffffffffffffffffffffffffffffffffffff1673ffffffffffffffffffffffffffffffffffffffff1681526020016000820160149054906101000a900463ffffffff1663ffffffff1663ffffffff1681526020016000820160189054906101000a900463ffffffff1663ffffffff1663ffffffff16815260200160008201601c9054906101000a900463ffffffff1663ffffffff1663ffffffff1681526020016001820160009054906101000a900463ffffffff1663ffffffff1663ffffffff1681526020016001820160049054906101000a900463ffffffff1663ffffffff1663ffffffff1681525050905060008373ffffffffffffffffffffffffffffffffffffffff1663313ce5676040518163ffffffff1660e01b8152600401602060405180830381865afa158015610cfe573d6000803e3d6000fd5b505050506040513d601f19601f82011682018060405250810190610d229190612fdf565b90506000835103610d5f576040517fcbdb7b3000000000000000000000000000000000000000000000000000000000815260040160405180910390fd5b6000610d6b8585611038565b90507fffffffffffffffffffffffffffffffffffffffffffffffffffffffffffffffff8103610dc6576040517fcbdb7b3000000000000000000000000000000000000000000000000000000000815260040160405180910390fd5b6000600160040160003373ffffffffffffffffffffffffffffffffffffffff1673ffffffffffffffffffffffffffffffffffffffff1681526020019081526020016000208281548110610e1c57610e1b612e72565b5b906000526020600020906007020190503373ffffffffffffffffffffffffffffffffffffffff168160010160009054906101000a900473ffffffffffffffffffffffffffffffffffffffff1673ffffffffffffffffffffffffffffffffffffffff1614610eb5576040517fc235ae0600000000000000000000000000000000000000000000000000000000815260040160405180910390fd5b600015158160060160009054906101000a900460ff16151503610f04576040517fa8fb1a6500000000000000000000000000000000000000000000000000000000815260040160405180910390fd5b6000612710610f14600133611dda565b610f1f60013361207f565b610f299190612ed0565b610f339190612f41565b90506000610f413389610137565b90506000610f516001838b6124cc565b9050600086600a610f62919061313f565b670de0b6b3a764000083610f769190612ed0565b610f809190612f41565b90506000610f8f600133612513565b9050808286610f9e919061318a565b1215610fd6576040517fb9bd492600000000000000000000000000000000000000000000000000000000815260040160405180910390fd5b60008660060160006101000a81548160ff02191690831515021790555061271086600201548a6080015163ffffffff166110109190612ed0565b61101a9190612f41565b86600301819055504286600501819055505050505050505050505050565b600080600090505b82518110156110bd57600083828151811061105e5761105d612e72565b5b602002602001015190508473ffffffffffffffffffffffffffffffffffffffff16816000015173ffffffffffffffffffffffffffffffffffffffff16036110a95781925050506110e2565b5080806110b5906131cd565b915050611040565b507fffffffffffffffffffffffffffffffffffffffffffffffffffffffffffffffff90505b92915050565b600082905060008173ffffffffffffffffffffffffffffffffffffffff1663313ce5676040518163ffffffff1660e01b8152600401602060405180830381865afa15801561113a573d6000803e3d6000fd5b505050506040513d601f19601f8201168201806040525081019061115e9190612fdf565b905060006111f485600180018054806020026020016040519081016040528092919081815260200182805480156111ea57602002820191906000526020600020905b8160009054906101000a900473ffffffffffffffffffffffffffffffffffffffff1673ffffffffffffffffffffffffffffffffffffffff16815260200190600101908083116111a0575b505050505061279d565b90507fffffffffffffffffffffffffffffffffffffffffffffffffffffffffffffffff810361124f576040517f3dd1b30500000000000000000000000000000000000000000000000000000000815260040160405180910390fd5b838373ffffffffffffffffffffffffffffffffffffffff166370a08231336040518263ffffffff1660e01b81526004016112899190613224565b602060405180830381865afa1580156112a6573d6000803e3d6000fd5b505050506040513d601f19601f820116820180604052508101906112ca9190613254565b1015611302576040517f356680b700000000000000000000000000000000000000000000000000000000815260040160405180910390fd5b6000841161133c576040517f2c5211c600000000000000000000000000000000000000000000000000000000815260040160405180910390fd5b6000600160040160003373ffffffffffffffffffffffffffffffffffffffff1673ffffffffffffffffffffffffffffffffffffffff168152602001908152602001600020805480602002602001604051908101604052809291908181526020016000905b828210156114c157838290600052602060002090600702016040518060e00160405290816000820160009054906101000a900473ffffffffffffffffffffffffffffffffffffffff1673ffffffffffffffffffffffffffffffffffffffff1673ffffffffffffffffffffffffffffffffffffffff1681526020016001820160009054906101000a900473ffffffffffffffffffffffffffffffffffffffff1673ffffffffffffffffffffffffffffffffffffffff1673ffffffffffffffffffffffffffffffffffffffff168152602001600282015481526020016003820154815260200160048201548152602001600582015481526020016006820160009054906101000a900460ff161515151581525050815260200190600101906113a0565b5050505090506000600160020160008873ffffffffffffffffffffffffffffffffffffffff1673ffffffffffffffffffffffffffffffffffffffff1681526020019081526020016000206040518060c00160405290816000820160009054906101000a900473ffffffffffffffffffffffffffffffffffffffff1673ffffffffffffffffffffffffffffffffffffffff1673ffffffffffffffffffffffffffffffffffffffff1681526020016000820160149054906101000a900463ffffffff1663ffffffff1663ffffffff1681526020016000820160189054906101000a900463ffffffff1663ffffffff1663ffffffff16815260200160008201601c9054906101000a900463ffffffff1663ffffffff1663ffffffff1681526020016001820160009054906101000a900463ffffffff1663ffffffff1663ffffffff1681526020016001820160049054906101000a900463ffffffff1663ffffffff1663ffffffff1681525050905060008251036118a25761163d6129ae565b87816000019073ffffffffffffffffffffffffffffffffffffffff16908173ffffffffffffffffffffffffffffffffffffffff168152505033816020019073ffffffffffffffffffffffffffffffffffffffff16908173ffffffffffffffffffffffffffffffffffffffff1681525050868160400181815250506000816060018181525050816080015163ffffffff1681608001818152505060008160a001818152505060018160c0019015159081151581525050600160040160003373ffffffffffffffffffffffffffffffffffffffff1673ffffffffffffffffffffffffffffffffffffffff16815260200190815260200160002081908060018154018082558091505060019003906000526020600020906007020160009091909190915060008201518160000160006101000a81548173ffffffffffffffffffffffffffffffffffffffff021916908373ffffffffffffffffffffffffffffffffffffffff16021790555060208201518160010160006101000a81548173ffffffffffffffffffffffffffffffffffffffff021916908373ffffffffffffffffffffffffffffffffffffffff16021790555060408201518160020155606082015181600301556080820151816004015560a0820151816005015560c08201518160060160006101000a81548160ff02191690831515021790555050506001600601339080600181540180825580915050600190039060005260206000200160009091909190916101000a81548173ffffffffffffffffffffffffffffffffffffffff021916908373ffffffffffffffffffffffffffffffffffffffff16021790555050611b63565b60006118ae8884611038565b90507fffffffffffffffffffffffffffffffffffffffffffffffffffffffffffffffff8103611ade576118df6129ae565b88816000019073ffffffffffffffffffffffffffffffffffffffff16908173ffffffffffffffffffffffffffffffffffffffff168152505033816020019073ffffffffffffffffffffffffffffffffffffffff16908173ffffffffffffffffffffffffffffffffffffffff1681525050878160400181815250506000816060018181525050826080015163ffffffff1681608001818152505060008160a001818152505060018160c0019015159081151581525050600160040160003373ffffffffffffffffffffffffffffffffffffffff1673ffffffffffffffffffffffffffffffffffffffff16815260200190815260200160002081908060018154018082558091505060019003906000526020600020906007020160009091909190915060008201518160000160006101000a81548173ffffffffffffffffffffffffffffffffffffffff021916908373ffffffffffffffffffffffffffffffffffffffff16021790555060208201518160010160006101000a81548173ffffffffffffffffffffffffffffffffffffffff021916908373ffffffffffffffffffffffffffffffffffffffff16021790555060408201518160020155606082015181600301556080820151816004015560a0820151816005015560c08201518160060160006101000a81548160ff021916908315150217905550505050611b61565b6000600160040160003373ffffffffffffffffffffffffffffffffffffffff1673ffffffffffffffffffffffffffffffffffffffff1681526020019081526020016000208281548110611b3457611b33612e72565b5b9060005260206000209060070201905087816002016000828254611b589190612f72565b92505081905550505b505b8473ffffffffffffffffffffffffffffffffffffffff166323b872dd3330896040518463ffffffff1660e01b8152600401611ba093929190613281565b6020604051808303816000875af1158015611bbf573d6000803e3d6000fd5b505050506040513d601f19601f82011682018060405250810190611be391906132cd565b611c22576040517f08c379a0000000000000000000000000000000000000000000000000000000008152600401611c1990613357565b60405180910390fd5b6000611c306001888a6124cc565b90506000600160000160009054906101000a900473ffffffffffffffffffffffffffffffffffffffff169050600086600a611c6b919061313f565b670de0b6b3a764000084611c7f9190612ed0565b611c899190612f41565b90508173ffffffffffffffffffffffffffffffffffffffff1663a9059cbb33836040518363ffffffff1660e01b8152600401611cc6929190613377565b6020604051808303816000875af1158015611ce5573d6000803e3d6000fd5b505050506040513d601f19601f82011682018060405250810190611d0991906132cd565b611d48576040517f08c379a0000000000000000000000000000000000000000000000000000000008152600401611d3f906133ec565b60405180910390fd5b88600160080160008c73ffffffffffffffffffffffffffffffffffffffff1673ffffffffffffffffffffffffffffffffffffffff1681526020019081526020016000206000828254611d9a9190612f72565b9250508190555050505050505050505050565b6000807fc8fcad8db84d3cc18b4c41d551ea0ee66dd599cde068d998e57d5e09332c131c90508091505090565b6000808360040160008473ffffffffffffffffffffffffffffffffffffffff1673ffffffffffffffffffffffffffffffffffffffff168152602001908152602001600020805480602002602001604051908101604052809291908181526020016000905b82821015611f5f57838290600052602060002090600702016040518060e00160405290816000820160009054906101000a900473ffffffffffffffffffffffffffffffffffffffff1673ffffffffffffffffffffffffffffffffffffffff1673ffffffffffffffffffffffffffffffffffffffff1681526020016001820160009054906101000a900473ffffffffffffffffffffffffffffffffffffffff1673ffffffffffffffffffffffffffffffffffffffff1673ffffffffffffffffffffffffffffffffffffffff168152602001600282015481526020016003820154815260200160048201548152602001600582015481526020016006820160009054906101000a900460ff16151515158152505081526020019060010190611e3e565b5050505090506000805b8251811015612073576000838281518110611f8757611f86612e72565b5b602002602001015190506000816000015173ffffffffffffffffffffffffffffffffffffffff1663313ce5676040518163ffffffff1660e01b8152600401602060405180830381865afa158015611fe2573d6000803e3d6000fd5b505050506040513d601f19601f820116820180604052508101906120069190612fdf565b9050600061201d89846040015185600001516124cc565b9050600082600a61202e919061313f565b670de0b6b3a7640000836120429190612ed0565b61204c9190612f41565b9050808661205a9190612f72565b955050505050808061206b906131cd565b915050611f69565b50809250505092915050565b6000808360040160008473ffffffffffffffffffffffffffffffffffffffff1673ffffffffffffffffffffffffffffffffffffffff168152602001908152602001600020805480602002602001604051908101604052809291908181526020016000905b8282101561220457838290600052602060002090600702016040518060e00160405290816000820160009054906101000a900473ffffffffffffffffffffffffffffffffffffffff1673ffffffffffffffffffffffffffffffffffffffff1673ffffffffffffffffffffffffffffffffffffffff1681526020016001820160009054906101000a900473ffffffffffffffffffffffffffffffffffffffff1673ffffffffffffffffffffffffffffffffffffffff1673ffffffffffffffffffffffffffffffffffffffff168152602001600282015481526020016003820154815260200160048201548152602001600582015481526020016006820160009054906101000a900460ff161515151581525050815260200190600101906120e3565b5050505090506000806122178686611dda565b905060005b83518110156124a457600084828151811061223a57612239612e72565b5b602002602001015190506000886002016000836000015173ffffffffffffffffffffffffffffffffffffffff1673ffffffffffffffffffffffffffffffffffffffff1681526020019081526020016000206040518060c00160405290816000820160009054906101000a900473ffffffffffffffffffffffffffffffffffffffff1673ffffffffffffffffffffffffffffffffffffffff1673ffffffffffffffffffffffffffffffffffffffff1681526020016000820160149054906101000a900463ffffffff1663ffffffff1663ffffffff1681526020016000820160189054906101000a900463ffffffff1663ffffffff1663ffffffff16815260200160008201601c9054906101000a900463ffffffff1663ffffffff1663ffffffff1681526020016001820160009054906101000a900463ffffffff1663ffffffff1663ffffffff1681526020016001820160049054906101000a900463ffffffff1663ffffffff1663ffffffff168152505090506000826000015173ffffffffffffffffffffffffffffffffffffffff1663313ce5676040518163ffffffff1660e01b8152600401602060405180830381865afa1580156123fd573d6000803e3d6000fd5b505050506040513d601f19601f820116820180604052508101906124219190612fdf565b905060006124388b856040015186600001516124cc565b9050600082600a612449919061313f565b670de0b6b3a76400008361245d9190612ed0565b6124679190612f41565b9050836040015163ffffffff168161247f9190612ed0565b8861248a9190612f72565b97505050505050808061249c906131cd565b91505061221c565b50600081116124b45760006124c1565b80826124c09190612f41565b5b935050505092915050565b60008060006124db8685612842565b91509150600081600a6124ee919061340c565b83876124fa9190612ed0565b6125049190612f41565b90508093505050509392505050565b6000808360050160008473ffffffffffffffffffffffffffffffffffffffff1673ffffffffffffffffffffffffffffffffffffffff168152602001908152602001600020805480602002602001604051908101604052809291908181526020016000905b8282101561267d57838290600052602060002090600602016040518060c00160405290816000820160009054906101000a900473ffffffffffffffffffffffffffffffffffffffff1673ffffffffffffffffffffffffffffffffffffffff1673ffffffffffffffffffffffffffffffffffffffff1681526020016001820160009054906101000a900473ffffffffffffffffffffffffffffffffffffffff1673ffffffffffffffffffffffffffffffffffffffff1673ffffffffffffffffffffffffffffffffffffffff16815260200160028201548152602001600382015481526020016004820154815260200160058201548152505081526020019060010190612577565b5050505090506000805b82518110156127915760008382815181106126a5576126a4612e72565b5b602002602001015190506000816000015173ffffffffffffffffffffffffffffffffffffffff1663313ce5676040518163ffffffff1660e01b8152600401602060405180830381865afa158015612700573d6000803e3d6000fd5b505050506040513d601f19601f820116820180604052508101906127249190612fdf565b9050600061273b89846040015185600001516124cc565b9050600082600a61274c919061313f565b670de0b6b3a7640000836127609190612ed0565b61276a9190612f41565b905080866127789190612f72565b9550505050508080612789906131cd565b915050612687565b50809250505092915050565b600080600090505b8251811015612817578281815181106127c1576127c0612e72565b5b602002602001015173ffffffffffffffffffffffffffffffffffffffff168473ffffffffffffffffffffffffffffffffffffffff1603612804578091505061283c565b808061280f906131cd565b9150506127a5565b507fffffffffffffffffffffffffffffffffffffffffffffffffffffffffffffffff90505b92915050565b60008060008460030160008573ffffffffffffffffffffffffffffffffffffffff1673ffffffffffffffffffffffffffffffffffffffff16815260200190815260200160002060009054906101000a900473ffffffffffffffffffffffffffffffffffffffff169050600081905060008173ffffffffffffffffffffffffffffffffffffffff1663feaf968c6040518163ffffffff1660e01b815260040160a060405180830381865afa1580156128fd573d6000803e3d6000fd5b505050506040513d601f19601f8201168201806040525081019061292191906134c5565b50505091505060008273ffffffffffffffffffffffffffffffffffffffff1663313ce5676040518163ffffffff1660e01b8152600401602060405180830381865afa158015612974573d6000803e3d6000fd5b505050506040513d601f19601f820116820180604052508101906129989190612fdf565b60ff169050818195509550505050509250929050565b6040518060e00160405280600073ffffffffffffffffffffffffffffffffffffffff168152602001600073ffffffffffffffffffffffffffffffffffffffff168152602001600081526020016000815260200160008152602001600081526020016000151581525090565b6000604051905090565b600080fd5b600080fd5b600073ffffffffffffffffffffffffffffffffffffffff82169050919050565b6000612a5882612a2d565b9050919050565b612a6881612a4d565b8114612a7357600080fd5b50565b600081359050612a8581612a5f565b92915050565b60008060408385031215612aa257612aa1612a23565b5b6000612ab085828601612a76565b9250506020612ac185828601612a76565b9150509250929050565b6000819050919050565b612ade81612acb565b82525050565b6000602082019050612af96000830184612ad5565b92915050565b612b0881612acb565b8114612b1357600080fd5b50565b600081359050612b2581612aff565b92915050565b60008060408385031215612b4257612b41612a23565b5b6000612b5085828601612a76565b9250506020612b6185828601612b16565b9150509250929050565b600060208284031215612b8157612b80612a23565b5b6000612b8f84828501612a76565b91505092915050565b600080fd5b6000601f19601f8301169050919050565b7f4e487b7100000000000000000000000000000000000000000000000000000000600052604160045260246000fd5b612be682612b9d565b810181811067ffffffffffffffff82111715612c0557612c04612bae565b5b80604052505050565b6000612c18612a19565b9050612c248282612bdd565b919050565b600067ffffffffffffffff821115612c4457612c43612bae565b5b602082029050602081019050919050565b600080fd5b600080fd5b60008115159050919050565b612c7481612c5f565b8114612c7f57600080fd5b50565b600081359050612c9181612c6b565b92915050565b600060e08284031215612cad57612cac612c5a565b5b612cb760e0612c0e565b90506000612cc784828501612a76565b6000830152506020612cdb84828501612a76565b6020830152506040612cef84828501612b16565b6040830152506060612d0384828501612b16565b6060830152506080612d1784828501612b16565b60808301525060a0612d2b84828501612b16565b60a08301525060c0612d3f84828501612c82565b60c08301525092915050565b6000612d5e612d5984612c29565b612c0e565b90508083825260208201905060e08402830185811115612d8157612d80612c55565b5b835b81811015612daa5780612d968882612c97565b84526020840193505060e081019050612d83565b5050509392505050565b600082601f830112612dc957612dc8612b98565b5b8135612dd9848260208601612d4b565b91505092915050565b60008060408385031215612df957612df8612a23565b5b6000612e0785828601612a76565b925050602083013567ffffffffffffffff811115612e2857612e27612a28565b5b612e3485828601612db4565b9150509250929050565b6000819050919050565b612e5181612e3e565b82525050565b6000602082019050612e6c6000830184612e48565b92915050565b7f4e487b7100000000000000000000000000000000000000000000000000000000600052603260045260246000fd5b7f4e487b7100000000000000000000000000000000000000000000000000000000600052601160045260246000fd5b6000612edb82612acb565b9150612ee683612acb565b9250828202612ef481612acb565b91508282048414831517612f0b57612f0a612ea1565b5b5092915050565b7f4e487b7100000000000000000000000000000000000000000000000000000000600052601260045260246000fd5b6000612f4c82612acb565b9150612f5783612acb565b925082612f6757612f66612f12565b5b828204905092915050565b6000612f7d82612acb565b9150612f8883612acb565b9250828201905080821115612fa057612f9f612ea1565b5b92915050565b600060ff82169050919050565b612fbc81612fa6565b8114612fc757600080fd5b50565b600081519050612fd981612fb3565b92915050565b600060208284031215612ff557612ff4612a23565b5b600061300384828501612fca565b91505092915050565b60008160011c9050919050565b6000808291508390505b60018511156130635780860481111561303f5761303e612ea1565b5b600185161561304e5780820291505b808102905061305c8561300c565b9450613023565b94509492505050565b60008261307c5760019050613138565b8161308a5760009050613138565b81600181146130a057600281146130aa576130d9565b6001915050613138565b60ff8411156130bc576130bb612ea1565b5b8360020a9150848211156130d3576130d2612ea1565b5b50613138565b5060208310610133831016604e8410600b841016171561310e5782820a90508381111561310957613108612ea1565b5b613138565b61311b8484846001613019565b9250905081840481111561313257613131612ea1565b5b81810290505b9392505050565b600061314a82612acb565b915061315583612fa6565b92506131827fffffffffffffffffffffffffffffffffffffffffffffffffffffffffffffffff848461306c565b905092915050565b600061319582612e3e565b91506131a083612e3e565b92508282039050818112600084121682821360008512151617156131c7576131c6612ea1565b5b92915050565b60006131d882612acb565b91507fffffffffffffffffffffffffffffffffffffffffffffffffffffffffffffffff820361320a57613209612ea1565b5b600182019050919050565b61321e81612a4d565b82525050565b60006020820190506132396000830184613215565b92915050565b60008151905061324e81612aff565b92915050565b60006020828403121561326a57613269612a23565b5b60006132788482850161323f565b91505092915050565b60006060820190506132966000830186613215565b6132a36020830185613215565b6132b06040830184612ad5565b949350505050565b6000815190506132c781612c6b565b92915050565b6000602082840312156132e3576132e2612a23565b5b60006132f1848285016132b8565b91505092915050565b600082825260208201905092915050565b7f5472616e736665722066726f6d206661696c6564000000000000000000000000600082015250565b60006133416014836132fa565b915061334c8261330b565b602082019050919050565b6000602082019050818103600083015261337081613334565b9050919050565b600060408201905061338c6000830185613215565b6133996020830184612ad5565b9392505050565b7f5472616e73666572206661696c65640000000000000000000000000000000000600082015250565b60006133d6600f836132fa565b91506133e1826133a0565b602082019050919050565b60006020820190508181036000830152613405816133c9565b9050919050565b600061341782612acb565b915061342283612acb565b925061344f7fffffffffffffffffffffffffffffffffffffffffffffffffffffffffffffffff848461306c565b905092915050565b600069ffffffffffffffffffff82169050919050565b61347681613457565b811461348157600080fd5b50565b6000815190506134938161346d565b92915050565b6134a281612e3e565b81146134ad57600080fd5b50565b6000815190506134bf81613499565b92915050565b600080600080600060a086880312156134e1576134e0612a23565b5b60006134ef88828901613484565b9550506020613500888289016134b0565b94505060406135118882890161323f565b93505060606135228882890161323f565b925050608061353388828901613484565b915050929550929590935056fea2646970667358221220be980517dad2ac63c0079215984e35e40188115670bdcb11978263c2c0b5f94964736f6c63430008110033",
  "devdoc": {
    "kind": "dev",
    "methods": {},
    "version": 1
  },
  "userdoc": {
    "kind": "user",
    "methods": {},
    "version": 1
  },
  "storageLayout": {
    "storage": [
      {
        "astId": 56,
        "contract": "contracts/facets/SupplyFacet.sol:SupplyFacet",
        "label": "_status",
        "offset": 0,
        "slot": "0",
        "type": "t_uint256"
      },
      {
        "astId": 4472,
        "contract": "contracts/facets/SupplyFacet.sol:SupplyFacet",
        "label": "s",
        "offset": 0,
        "slot": "1",
        "type": "t_struct(AppStorage)3855_storage"
      }
    ],
    "types": {
      "t_address": {
        "encoding": "inplace",
        "label": "address",
        "numberOfBytes": "20"
      },
      "t_array(t_address)dyn_storage": {
        "base": "t_address",
        "encoding": "dynamic_array",
        "label": "address[]",
        "numberOfBytes": "32"
      },
      "t_array(t_struct(BorrowedToken)3809_storage)dyn_storage": {
        "base": "t_struct(BorrowedToken)3809_storage",
        "encoding": "dynamic_array",
        "label": "struct BorrowedToken[]",
        "numberOfBytes": "32"
      },
      "t_array(t_struct(SuppliedToken)3796_storage)dyn_storage": {
        "base": "t_struct(SuppliedToken)3796_storage",
        "encoding": "dynamic_array",
        "label": "struct SuppliedToken[]",
        "numberOfBytes": "32"
      },
      "t_bool": {
        "encoding": "inplace",
        "label": "bool",
        "numberOfBytes": "1"
      },
      "t_mapping(t_address,t_address)": {
        "encoding": "mapping",
        "key": "t_address",
        "label": "mapping(address => address)",
        "numberOfBytes": "32",
        "value": "t_address"
      },
      "t_mapping(t_address,t_array(t_struct(BorrowedToken)3809_storage)dyn_storage)": {
        "encoding": "mapping",
        "key": "t_address",
        "label": "mapping(address => struct BorrowedToken[])",
        "numberOfBytes": "32",
        "value": "t_array(t_struct(BorrowedToken)3809_storage)dyn_storage"
      },
      "t_mapping(t_address,t_array(t_struct(SuppliedToken)3796_storage)dyn_storage)": {
        "encoding": "mapping",
        "key": "t_address",
        "label": "mapping(address => struct SuppliedToken[])",
        "numberOfBytes": "32",
        "value": "t_array(t_struct(SuppliedToken)3796_storage)dyn_storage"
      },
      "t_mapping(t_address,t_struct(Token)3781_storage)": {
        "encoding": "mapping",
        "key": "t_address",
        "label": "mapping(address => struct Token)",
        "numberOfBytes": "32",
        "value": "t_struct(Token)3781_storage"
      },
      "t_mapping(t_address,t_uint256)": {
        "encoding": "mapping",
        "key": "t_address",
        "label": "mapping(address => uint256)",
        "numberOfBytes": "32",
        "value": "t_uint256"
      },
      "t_struct(AppStorage)3855_storage": {
        "encoding": "inplace",
        "label": "struct AppStorage",
        "members": [
          {
            "astId": 3816,
            "contract": "contracts/facets/SupplyFacet.sol:SupplyFacet",
            "label": "larTokenAddress",
            "offset": 0,
            "slot": "0",
            "type": "t_address"
          },
          {
            "astId": 3819,
            "contract": "contracts/facets/SupplyFacet.sol:SupplyFacet",
            "label": "supportedTokens",
            "offset": 0,
            "slot": "1",
            "type": "t_array(t_address)dyn_storage"
          },
          {
            "astId": 3824,
            "contract": "contracts/facets/SupplyFacet.sol:SupplyFacet",
            "label": "addressToToken",
            "offset": 0,
            "slot": "2",
            "type": "t_mapping(t_address,t_struct(Token)3781_storage)"
          },
          {
            "astId": 3828,
            "contract": "contracts/facets/SupplyFacet.sol:SupplyFacet",
            "label": "tokenToPriceFeed",
            "offset": 0,
            "slot": "3",
            "type": "t_mapping(t_address,t_address)"
          },
          {
            "astId": 3834,
            "contract": "contracts/facets/SupplyFacet.sol:SupplyFacet",
            "label": "tokensSupplied",
            "offset": 0,
            "slot": "4",
            "type": "t_mapping(t_address,t_array(t_struct(SuppliedToken)3796_storage)dyn_storage)"
          },
          {
            "astId": 3840,
            "contract": "contracts/facets/SupplyFacet.sol:SupplyFacet",
            "label": "tokensBorrowed",
            "offset": 0,
            "slot": "5",
            "type": "t_mapping(t_address,t_array(t_struct(BorrowedToken)3809_storage)dyn_storage)"
          },
          {
            "astId": 3843,
            "contract": "contracts/facets/SupplyFacet.sol:SupplyFacet",
            "label": "allSuppliers",
            "offset": 0,
            "slot": "6",
            "type": "t_array(t_address)dyn_storage"
          },
          {
            "astId": 3846,
            "contract": "contracts/facets/SupplyFacet.sol:SupplyFacet",
            "label": "allBorrowers",
            "offset": 0,
            "slot": "7",
            "type": "t_array(t_address)dyn_storage"
          },
          {
            "astId": 3850,
            "contract": "contracts/facets/SupplyFacet.sol:SupplyFacet",
            "label": "totalSupplied",
            "offset": 0,
            "slot": "8",
            "type": "t_mapping(t_address,t_uint256)"
          },
          {
            "astId": 3854,
            "contract": "contracts/facets/SupplyFacet.sol:SupplyFacet",
            "label": "totalBorrowed",
            "offset": 0,
            "slot": "9",
            "type": "t_mapping(t_address,t_uint256)"
          }
        ],
        "numberOfBytes": "320"
      },
      "t_struct(BorrowedToken)3809_storage": {
        "encoding": "inplace",
        "label": "struct BorrowedToken",
        "members": [
          {
            "astId": 3798,
            "contract": "contracts/facets/SupplyFacet.sol:SupplyFacet",
            "label": "tokenAddress",
            "offset": 0,
            "slot": "0",
            "type": "t_address"
          },
          {
            "astId": 3800,
            "contract": "contracts/facets/SupplyFacet.sol:SupplyFacet",
            "label": "borrowerAddress",
            "offset": 0,
            "slot": "1",
            "type": "t_address"
          },
          {
            "astId": 3802,
            "contract": "contracts/facets/SupplyFacet.sol:SupplyFacet",
            "label": "amountBorrowed",
            "offset": 0,
            "slot": "2",
            "type": "t_uint256"
          },
          {
            "astId": 3804,
            "contract": "contracts/facets/SupplyFacet.sol:SupplyFacet",
            "label": "startAccumulatingDay",
            "offset": 0,
            "slot": "3",
            "type": "t_uint256"
          },
          {
            "astId": 3806,
            "contract": "contracts/facets/SupplyFacet.sol:SupplyFacet",
            "label": "borrowedInterest",
            "offset": 0,
            "slot": "4",
            "type": "t_uint256"
          },
          {
            "astId": 3808,
            "contract": "contracts/facets/SupplyFacet.sol:SupplyFacet",
            "label": "stableRate",
            "offset": 0,
            "slot": "5",
            "type": "t_uint256"
          }
        ],
        "numberOfBytes": "192"
      },
      "t_struct(SuppliedToken)3796_storage": {
        "encoding": "inplace",
        "label": "struct SuppliedToken",
        "members": [
          {
            "astId": 3783,
            "contract": "contracts/facets/SupplyFacet.sol:SupplyFacet",
            "label": "tokenAddress",
            "offset": 0,
            "slot": "0",
            "type": "t_address"
          },
          {
            "astId": 3785,
            "contract": "contracts/facets/SupplyFacet.sol:SupplyFacet",
            "label": "supplierAddress",
            "offset": 0,
            "slot": "1",
            "type": "t_address"
          },
          {
            "astId": 3787,
            "contract": "contracts/facets/SupplyFacet.sol:SupplyFacet",
            "label": "amountSupplied",
            "offset": 0,
            "slot": "2",
            "type": "t_uint256"
          },
          {
            "astId": 3789,
            "contract": "contracts/facets/SupplyFacet.sol:SupplyFacet",
            "label": "supplyInterest",
            "offset": 0,
            "slot": "3",
            "type": "t_uint256"
          },
          {
            "astId": 3791,
            "contract": "contracts/facets/SupplyFacet.sol:SupplyFacet",
            "label": "supplyStableRate",
            "offset": 0,
            "slot": "4",
            "type": "t_uint256"
          },
          {
            "astId": 3793,
            "contract": "contracts/facets/SupplyFacet.sol:SupplyFacet",
            "label": "startAccumulatingDay",
            "offset": 0,
            "slot": "5",
            "type": "t_uint256"
          },
          {
            "astId": 3795,
            "contract": "contracts/facets/SupplyFacet.sol:SupplyFacet",
            "label": "isCollateral",
            "offset": 0,
            "slot": "6",
            "type": "t_bool"
          }
        ],
        "numberOfBytes": "224"
      },
      "t_struct(Token)3781_storage": {
        "encoding": "inplace",
        "label": "struct Token",
        "members": [
          {
            "astId": 3770,
            "contract": "contracts/facets/SupplyFacet.sol:SupplyFacet",
            "label": "tokenAddress",
            "offset": 0,
            "slot": "0",
            "type": "t_address"
          },
          {
            "astId": 3772,
            "contract": "contracts/facets/SupplyFacet.sol:SupplyFacet",
            "label": "liquidationThreshold",
            "offset": 20,
            "slot": "0",
            "type": "t_uint32"
          },
          {
            "astId": 3774,
            "contract": "contracts/facets/SupplyFacet.sol:SupplyFacet",
            "label": "loanToValue",
            "offset": 24,
            "slot": "0",
            "type": "t_uint32"
          },
          {
            "astId": 3776,
            "contract": "contracts/facets/SupplyFacet.sol:SupplyFacet",
            "label": "borrowStableRate",
            "offset": 28,
            "slot": "0",
            "type": "t_uint32"
          },
          {
            "astId": 3778,
            "contract": "contracts/facets/SupplyFacet.sol:SupplyFacet",
            "label": "supplyStableRate",
            "offset": 0,
            "slot": "1",
            "type": "t_uint32"
          },
          {
            "astId": 3780,
            "contract": "contracts/facets/SupplyFacet.sol:SupplyFacet",
            "label": "liquidationPenalty",
            "offset": 4,
            "slot": "1",
            "type": "t_uint32"
          }
        ],
        "numberOfBytes": "64"
      },
      "t_uint256": {
        "encoding": "inplace",
        "label": "uint256",
        "numberOfBytes": "32"
      },
      "t_uint32": {
        "encoding": "inplace",
        "label": "uint32",
        "numberOfBytes": "4"
      }
    }
  }
}