{
  "address": "0xDd1D3550d86c1dE2ee2520f7F696e9d6aEd05d50",
  "abi": [
    {
      "inputs": [],
      "name": "AlreadyOff",
      "type": "error"
    },
    {
      "inputs": [],
      "name": "AlreadyOn",
      "type": "error"
    },
    {
      "inputs": [],
      "name": "CannotSwitchOffCollateral",
      "type": "error"
    },
    {
      "inputs": [],
      "name": "InsufficientFunds",
      "type": "error"
    },
    {
      "inputs": [],
      "name": "InvalidAmount",
      "type": "error"
    },
    {
      "inputs": [],
      "name": "NotSupplier",
      "type": "error"
    },
    {
      "inputs": [],
      "name": "TokenNotFound",
      "type": "error"
    },
    {
      "inputs": [],
      "name": "TokenNotSupported",
      "type": "error"
    },
    {
      "inputs": [
        {
          "internalType": "address",
          "name": "user",
          "type": "address"
        },
        {
          "internalType": "address",
          "name": "tokenAddress",
          "type": "address"
        }
      ],
      "name": "getTokenAvailableLoanAmount",
      "outputs": [
        {
          "internalType": "uint256",
          "name": "",
          "type": "uint256"
        }
      ],
      "stateMutability": "view",
      "type": "function"
    },
    {
      "inputs": [
        {
          "internalType": "address",
          "name": "tokenAddress",
          "type": "address"
        },
        {
          "components": [
            {
              "internalType": "address",
              "name": "tokenAddress",
              "type": "address"
            },
            {
              "internalType": "address",
              "name": "supplierAddress",
              "type": "address"
            },
            {
              "internalType": "uint256",
              "name": "amountSupplied",
              "type": "uint256"
            },
            {
              "internalType": "uint256",
              "name": "supplyInterest",
              "type": "uint256"
            },
            {
              "internalType": "uint256",
              "name": "supplyStableRate",
              "type": "uint256"
            },
            {
              "internalType": "uint256",
              "name": "startAccumulatingDay",
              "type": "uint256"
            },
            {
              "internalType": "bool",
              "name": "isCollateral",
              "type": "bool"
            }
          ],
          "internalType": "struct SuppliedToken[]",
          "name": "tokenArray",
          "type": "tuple[]"
        }
      ],
      "name": "indexOf",
      "outputs": [
        {
          "internalType": "int256",
          "name": "",
          "type": "int256"
        }
      ],
      "stateMutability": "pure",
      "type": "function"
    },
    {
      "inputs": [
        {
          "internalType": "address",
          "name": "tokenAddress",
          "type": "address"
        },
        {
          "internalType": "uint256",
          "name": "tokenAmount",
          "type": "uint256"
        }
      ],
      "name": "supplyToken",
      "outputs": [],
      "stateMutability": "nonpayable",
      "type": "function"
    },
    {
      "inputs": [
        {
          "internalType": "address",
          "name": "tokenAddress",
          "type": "address"
        }
      ],
      "name": "switchOnCollateral",
      "outputs": [],
      "stateMutability": "nonpayable",
      "type": "function"
    },
    {
      "inputs": [
        {
          "internalType": "address",
          "name": "tokenAddress",
          "type": "address"
        }
      ],
      "name": "swithOffCollateral",
      "outputs": [],
      "stateMutability": "nonpayable",
      "type": "function"
    }
  ],
  "transactionHash": "0x2c67ba23b42256c27a3e49a58f176422338172e788f16baf98ce4a3c05c9d522",
  "args": [],
  "numDeployments": 1,
  "solcInputHash": "75fdbab3f97c25afc930f569c413aee9",
  "bytecode": "0x608060405234801561001057600080fd5b506001600081905550612fa1806100286000396000f3fe608060405234801561001057600080fd5b50600436106100575760003560e01c80630800381b1461005c5780633566de071461008c5780639d781ea0146100a8578063ac161e04146100c4578063eacd0d1b146100e0575b600080fd5b61007660048036038101906100719190612501565b610110565b604051610083919061255a565b60405180910390f35b6100a660048036038101906100a19190612575565b61046b565b005b6100c260048036038101906100bd91906125ce565b61080d565b005b6100de60048036038101906100d99190612575565b6113d5565b005b6100fa60048036038101906100f59190612858565b6119a8565b60405161010791906128cd565b60405180910390f35b600080600160040160008573ffffffffffffffffffffffffffffffffffffffff1673ffffffffffffffffffffffffffffffffffffffff168152602001908152602001600020805480602002602001604051908101604052809291908181526020016000905b8282101561029657838290600052602060002090600702016040518060e00160405290816000820160009054906101000a900473ffffffffffffffffffffffffffffffffffffffff1673ffffffffffffffffffffffffffffffffffffffff1673ffffffffffffffffffffffffffffffffffffffff1681526020016001820160009054906101000a900473ffffffffffffffffffffffffffffffffffffffff1673ffffffffffffffffffffffffffffffffffffffff1673ffffffffffffffffffffffffffffffffffffffff168152602001600282015481526020016003820154815260200160048201548152602001600582015481526020016006820160009054906101000a900460ff16151515158152505081526020019060010190610175565b50505050905060006102a884836119a8565b905060008282815181106102bf576102be6128e8565b5b60200260200101519050600060016002016000836000015173ffffffffffffffffffffffffffffffffffffffff1673ffffffffffffffffffffffffffffffffffffffff1681526020019081526020016000206040518060c00160405290816000820160009054906101000a900473ffffffffffffffffffffffffffffffffffffffff1673ffffffffffffffffffffffffffffffffffffffff1673ffffffffffffffffffffffffffffffffffffffff1681526020016000820160149054906101000a900463ffffffff1663ffffffff1663ffffffff1681526020016000820160189054906101000a900463ffffffff1663ffffffff1663ffffffff16815260200160008201601c9054906101000a900463ffffffff1663ffffffff1663ffffffff1681526020016001820160009054906101000a900463ffffffff1663ffffffff1663ffffffff1681526020016001820160049054906101000a900463ffffffff1663ffffffff1663ffffffff1681525050905060006127108360400151836040015163ffffffff166104519190612946565b61045b91906129b7565b9050809550505050505092915050565b6000600160040160003373ffffffffffffffffffffffffffffffffffffffff1673ffffffffffffffffffffffffffffffffffffffff168152602001908152602001600020805480602002602001604051908101604052809291908181526020016000905b828210156105f057838290600052602060002090600702016040518060e00160405290816000820160009054906101000a900473ffffffffffffffffffffffffffffffffffffffff1673ffffffffffffffffffffffffffffffffffffffff1673ffffffffffffffffffffffffffffffffffffffff1681526020016001820160009054906101000a900473ffffffffffffffffffffffffffffffffffffffff1673ffffffffffffffffffffffffffffffffffffffff1673ffffffffffffffffffffffffffffffffffffffff168152602001600282015481526020016003820154815260200160048201548152602001600582015481526020016006820160009054906101000a900460ff161515151581525050815260200190600101906104cf565b5050505090506000815103610631576040517fcbdb7b3000000000000000000000000000000000000000000000000000000000815260040160405180910390fd5b600061063d83836119a8565b90507fffffffffffffffffffffffffffffffffffffffffffffffffffffffffffffffff8103610698576040517fcbdb7b3000000000000000000000000000000000000000000000000000000000815260040160405180910390fd5b6000600160040160003373ffffffffffffffffffffffffffffffffffffffff1673ffffffffffffffffffffffffffffffffffffffff16815260200190815260200160002082815481106106ee576106ed6128e8565b5b906000526020600020906007020190503373ffffffffffffffffffffffffffffffffffffffff168160010160009054906101000a900473ffffffffffffffffffffffffffffffffffffffff1673ffffffffffffffffffffffffffffffffffffffff1614610787576040517fc235ae0600000000000000000000000000000000000000000000000000000000815260040160405180910390fd5b600115158160060160009054906101000a900460ff161515036107d6576040517f2c97850c00000000000000000000000000000000000000000000000000000000815260040160405180910390fd5b60018160060160006101000a81548160ff021916908315150217905550600081600301819055506000816005018190555050505050565b600082905060006108a6846001800180548060200260200160405190810160405280929190818152602001828054801561089c57602002820191906000526020600020905b8160009054906101000a900473ffffffffffffffffffffffffffffffffffffffff1673ffffffffffffffffffffffffffffffffffffffff1681526020019060010190808311610852575b5050505050611a58565b90507fffffffffffffffffffffffffffffffffffffffffffffffffffffffffffffffff8103610901576040517f3dd1b30500000000000000000000000000000000000000000000000000000000815260040160405180910390fd5b828273ffffffffffffffffffffffffffffffffffffffff166370a08231336040518263ffffffff1660e01b815260040161093b91906129f7565b602060405180830381865afa158015610958573d6000803e3d6000fd5b505050506040513d601f19601f8201168201806040525081019061097c9190612a27565b10156109b4576040517f356680b700000000000000000000000000000000000000000000000000000000815260040160405180910390fd5b600083116109ee576040517f2c5211c600000000000000000000000000000000000000000000000000000000815260040160405180910390fd5b6000600160040160003373ffffffffffffffffffffffffffffffffffffffff1673ffffffffffffffffffffffffffffffffffffffff168152602001908152602001600020805480602002602001604051908101604052809291908181526020016000905b82821015610b7357838290600052602060002090600702016040518060e00160405290816000820160009054906101000a900473ffffffffffffffffffffffffffffffffffffffff1673ffffffffffffffffffffffffffffffffffffffff1673ffffffffffffffffffffffffffffffffffffffff1681526020016001820160009054906101000a900473ffffffffffffffffffffffffffffffffffffffff1673ffffffffffffffffffffffffffffffffffffffff1673ffffffffffffffffffffffffffffffffffffffff168152602001600282015481526020016003820154815260200160048201548152602001600582015481526020016006820160009054906101000a900460ff16151515158152505081526020019060010190610a52565b5050505090506000600160020160008773ffffffffffffffffffffffffffffffffffffffff1673ffffffffffffffffffffffffffffffffffffffff1681526020019081526020016000206040518060c00160405290816000820160009054906101000a900473ffffffffffffffffffffffffffffffffffffffff1673ffffffffffffffffffffffffffffffffffffffff1673ffffffffffffffffffffffffffffffffffffffff1681526020016000820160149054906101000a900463ffffffff1663ffffffff1663ffffffff1681526020016000820160189054906101000a900463ffffffff1663ffffffff1663ffffffff16815260200160008201601c9054906101000a900463ffffffff1663ffffffff1663ffffffff1681526020016001820160009054906101000a900463ffffffff1663ffffffff1663ffffffff1681526020016001820160049054906101000a900463ffffffff1663ffffffff1663ffffffff168152505090506000825103610f5457610cef612424565b86816000019073ffffffffffffffffffffffffffffffffffffffff16908173ffffffffffffffffffffffffffffffffffffffff168152505033816020019073ffffffffffffffffffffffffffffffffffffffff16908173ffffffffffffffffffffffffffffffffffffffff1681525050858160400181815250506000816060018181525050816080015163ffffffff1681608001818152505060008160a001818152505060018160c0019015159081151581525050600160040160003373ffffffffffffffffffffffffffffffffffffffff1673ffffffffffffffffffffffffffffffffffffffff16815260200190815260200160002081908060018154018082558091505060019003906000526020600020906007020160009091909190915060008201518160000160006101000a81548173ffffffffffffffffffffffffffffffffffffffff021916908373ffffffffffffffffffffffffffffffffffffffff16021790555060208201518160010160006101000a81548173ffffffffffffffffffffffffffffffffffffffff021916908373ffffffffffffffffffffffffffffffffffffffff16021790555060408201518160020155606082015181600301556080820151816004015560a0820151816005015560c08201518160060160006101000a81548160ff02191690831515021790555050506001600601339080600181540180825580915050600190039060005260206000200160009091909190916101000a81548173ffffffffffffffffffffffffffffffffffffffff021916908373ffffffffffffffffffffffffffffffffffffffff16021790555050611215565b6000610f6087846119a8565b90507fffffffffffffffffffffffffffffffffffffffffffffffffffffffffffffffff810361119057610f91612424565b87816000019073ffffffffffffffffffffffffffffffffffffffff16908173ffffffffffffffffffffffffffffffffffffffff168152505033816020019073ffffffffffffffffffffffffffffffffffffffff16908173ffffffffffffffffffffffffffffffffffffffff1681525050868160400181815250506000816060018181525050826080015163ffffffff1681608001818152505060008160a001818152505060018160c0019015159081151581525050600160040160003373ffffffffffffffffffffffffffffffffffffffff1673ffffffffffffffffffffffffffffffffffffffff16815260200190815260200160002081908060018154018082558091505060019003906000526020600020906007020160009091909190915060008201518160000160006101000a81548173ffffffffffffffffffffffffffffffffffffffff021916908373ffffffffffffffffffffffffffffffffffffffff16021790555060208201518160010160006101000a81548173ffffffffffffffffffffffffffffffffffffffff021916908373ffffffffffffffffffffffffffffffffffffffff16021790555060408201518160020155606082015181600301556080820151816004015560a0820151816005015560c08201518160060160006101000a81548160ff021916908315150217905550505050611213565b6000600160040160003373ffffffffffffffffffffffffffffffffffffffff1673ffffffffffffffffffffffffffffffffffffffff16815260200190815260200160002082815481106111e6576111e56128e8565b5b906000526020600020906007020190508681600201600082825461120a9190612a54565b92505081905550505b505b8373ffffffffffffffffffffffffffffffffffffffff166323b872dd3330886040518463ffffffff1660e01b815260040161125293929190612a88565b6020604051808303816000875af1158015611271573d6000803e3d6000fd5b505050506040513d601f19601f820116820180604052508101906112959190612ad4565b6112d4576040517f08c379a00000000000000000000000000000000000000000000000000000000081526004016112cb90612b5e565b60405180910390fd5b60006112e260018789611afd565b90506000600160000160009054906101000a900473ffffffffffffffffffffffffffffffffffffffff1690508073ffffffffffffffffffffffffffffffffffffffff1663a9059cbb33846040518363ffffffff1660e01b8152600401611349929190612b7e565b6020604051808303816000875af1158015611368573d6000803e3d6000fd5b505050506040513d601f19601f8201168201806040525081019061138c9190612ad4565b6113cb576040517f08c379a00000000000000000000000000000000000000000000000000000000081526004016113c290612bf3565b60405180910390fd5b5050505050505050565b6000600160040160003373ffffffffffffffffffffffffffffffffffffffff1673ffffffffffffffffffffffffffffffffffffffff168152602001908152602001600020805480602002602001604051908101604052809291908181526020016000905b8282101561155a57838290600052602060002090600702016040518060e00160405290816000820160009054906101000a900473ffffffffffffffffffffffffffffffffffffffff1673ffffffffffffffffffffffffffffffffffffffff1673ffffffffffffffffffffffffffffffffffffffff1681526020016001820160009054906101000a900473ffffffffffffffffffffffffffffffffffffffff1673ffffffffffffffffffffffffffffffffffffffff1673ffffffffffffffffffffffffffffffffffffffff168152602001600282015481526020016003820154815260200160048201548152602001600582015481526020016006820160009054906101000a900460ff16151515158152505081526020019060010190611439565b5050505090506000600160020160008473ffffffffffffffffffffffffffffffffffffffff1673ffffffffffffffffffffffffffffffffffffffff1681526020019081526020016000206040518060c00160405290816000820160009054906101000a900473ffffffffffffffffffffffffffffffffffffffff1673ffffffffffffffffffffffffffffffffffffffff1673ffffffffffffffffffffffffffffffffffffffff1681526020016000820160149054906101000a900463ffffffff1663ffffffff1663ffffffff1681526020016000820160189054906101000a900463ffffffff1663ffffffff1663ffffffff16815260200160008201601c9054906101000a900463ffffffff1663ffffffff1663ffffffff1681526020016001820160009054906101000a900463ffffffff1663ffffffff1663ffffffff1681526020016001820160049054906101000a900463ffffffff1663ffffffff1663ffffffff168152505090506000825103611700576040517fcbdb7b3000000000000000000000000000000000000000000000000000000000815260040160405180910390fd5b600061170c84846119a8565b90507fffffffffffffffffffffffffffffffffffffffffffffffffffffffffffffffff8103611767576040517fcbdb7b3000000000000000000000000000000000000000000000000000000000815260040160405180910390fd5b6000600160040160003373ffffffffffffffffffffffffffffffffffffffff1673ffffffffffffffffffffffffffffffffffffffff16815260200190815260200160002082815481106117bd576117bc6128e8565b5b906000526020600020906007020190503373ffffffffffffffffffffffffffffffffffffffff168160010160009054906101000a900473ffffffffffffffffffffffffffffffffffffffff1673ffffffffffffffffffffffffffffffffffffffff1614611856576040517fc235ae0600000000000000000000000000000000000000000000000000000000815260040160405180910390fd5b600015158160060160009054906101000a900460ff161515036118a5576040517fa8fb1a6500000000000000000000000000000000000000000000000000000000815260040160405180910390fd5b60006127106118b5600133611b44565b6118c0600133611d41565b6118ca9190612946565b6118d491906129b7565b905060006118e23388610110565b905060006118f26001838a611afd565b905060006119016001336120d6565b90508082856119109190612c13565b1215611948576040517fb9bd492600000000000000000000000000000000000000000000000000000000815260040160405180910390fd5b60008560060160006101000a81548160ff0219169083151502179055506127108560020154886080015163ffffffff166119829190612946565b61198c91906129b7565b8560030181905550428560050181905550505050505050505050565b600080600090505b8251811015611a2d5760008382815181106119ce576119cd6128e8565b5b602002602001015190508473ffffffffffffffffffffffffffffffffffffffff16816000015173ffffffffffffffffffffffffffffffffffffffff1603611a19578192505050611a52565b508080611a2590612c56565b9150506119b0565b507fffffffffffffffffffffffffffffffffffffffffffffffffffffffffffffffff90505b92915050565b600080600090505b8251811015611ad257828181518110611a7c57611a7b6128e8565b5b602002602001015173ffffffffffffffffffffffffffffffffffffffff168473ffffffffffffffffffffffffffffffffffffffff1603611abf5780915050611af7565b8080611aca90612c56565b915050611a60565b507fffffffffffffffffffffffffffffffffffffffffffffffffffffffffffffffff90505b92915050565b6000806000611b0c86856122b8565b91509150600081600a611b1f9190612dd1565b8387611b2b9190612946565b611b3591906129b7565b90508093505050509392505050565b6000808360040160008473ffffffffffffffffffffffffffffffffffffffff1673ffffffffffffffffffffffffffffffffffffffff168152602001908152602001600020805480602002602001604051908101604052809291908181526020016000905b82821015611cc957838290600052602060002090600702016040518060e00160405290816000820160009054906101000a900473ffffffffffffffffffffffffffffffffffffffff1673ffffffffffffffffffffffffffffffffffffffff1673ffffffffffffffffffffffffffffffffffffffff1681526020016001820160009054906101000a900473ffffffffffffffffffffffffffffffffffffffff1673ffffffffffffffffffffffffffffffffffffffff1673ffffffffffffffffffffffffffffffffffffffff168152602001600282015481526020016003820154815260200160048201548152602001600582015481526020016006820160009054906101000a900460ff16151515158152505081526020019060010190611ba8565b5050505090506000805b8251811015611d35576000838281518110611cf157611cf06128e8565b5b602002602001015190506000611d108883604001518460000151611afd565b90508084611d1e9190612a54565b935050508080611d2d90612c56565b915050611cd3565b50809250505092915050565b6000808360040160008473ffffffffffffffffffffffffffffffffffffffff1673ffffffffffffffffffffffffffffffffffffffff168152602001908152602001600020805480602002602001604051908101604052809291908181526020016000905b82821015611ec657838290600052602060002090600702016040518060e00160405290816000820160009054906101000a900473ffffffffffffffffffffffffffffffffffffffff1673ffffffffffffffffffffffffffffffffffffffff1673ffffffffffffffffffffffffffffffffffffffff1681526020016001820160009054906101000a900473ffffffffffffffffffffffffffffffffffffffff1673ffffffffffffffffffffffffffffffffffffffff1673ffffffffffffffffffffffffffffffffffffffff168152602001600282015481526020016003820154815260200160048201548152602001600582015481526020016006820160009054906101000a900460ff16151515158152505081526020019060010190611da5565b505050509050600080611ed98686611b44565b905060005b83518110156120be576000848281518110611efc57611efb6128e8565b5b602002602001015190506000886002016000836000015173ffffffffffffffffffffffffffffffffffffffff1673ffffffffffffffffffffffffffffffffffffffff1681526020019081526020016000206040518060c00160405290816000820160009054906101000a900473ffffffffffffffffffffffffffffffffffffffff1673ffffffffffffffffffffffffffffffffffffffff1673ffffffffffffffffffffffffffffffffffffffff1681526020016000820160149054906101000a900463ffffffff1663ffffffff1663ffffffff1681526020016000820160189054906101000a900463ffffffff1663ffffffff1663ffffffff16815260200160008201601c9054906101000a900463ffffffff1663ffffffff1663ffffffff1681526020016001820160009054906101000a900463ffffffff1663ffffffff1663ffffffff1681526020016001820160049054906101000a900463ffffffff1663ffffffff1663ffffffff1681525050905060006120838a84604001518560000151611afd565b9050816040015163ffffffff168161209b9190612946565b866120a69190612a54565b955050505080806120b690612c56565b915050611ede565b5080826120cb91906129b7565b935050505092915050565b6000808360050160008473ffffffffffffffffffffffffffffffffffffffff1673ffffffffffffffffffffffffffffffffffffffff168152602001908152602001600020805480602002602001604051908101604052809291908181526020016000905b8282101561224057838290600052602060002090600602016040518060c00160405290816000820160009054906101000a900473ffffffffffffffffffffffffffffffffffffffff1673ffffffffffffffffffffffffffffffffffffffff1673ffffffffffffffffffffffffffffffffffffffff1681526020016001820160009054906101000a900473ffffffffffffffffffffffffffffffffffffffff1673ffffffffffffffffffffffffffffffffffffffff1673ffffffffffffffffffffffffffffffffffffffff1681526020016002820154815260200160038201548152602001600482015481526020016005820154815250508152602001906001019061213a565b5050505090506000805b82518110156122ac576000838281518110612268576122676128e8565b5b6020026020010151905060006122878883604001518460000151611afd565b905080846122959190612a54565b9350505080806122a490612c56565b91505061224a565b50809250505092915050565b60008060008460030160008573ffffffffffffffffffffffffffffffffffffffff1673ffffffffffffffffffffffffffffffffffffffff16815260200190815260200160002060009054906101000a900473ffffffffffffffffffffffffffffffffffffffff169050600081905060008173ffffffffffffffffffffffffffffffffffffffff1663feaf968c6040518163ffffffff1660e01b815260040160a060405180830381865afa158015612373573d6000803e3d6000fd5b505050506040513d601f19601f820116820180604052508101906123979190612e8a565b50505091505060008273ffffffffffffffffffffffffffffffffffffffff1663313ce5676040518163ffffffff1660e01b8152600401602060405180830381865afa1580156123ea573d6000803e3d6000fd5b505050506040513d601f19601f8201168201806040525081019061240e9190612f3e565b60ff169050818195509550505050509250929050565b6040518060e00160405280600073ffffffffffffffffffffffffffffffffffffffff168152602001600073ffffffffffffffffffffffffffffffffffffffff168152602001600081526020016000815260200160008152602001600081526020016000151581525090565b6000604051905090565b600080fd5b600080fd5b600073ffffffffffffffffffffffffffffffffffffffff82169050919050565b60006124ce826124a3565b9050919050565b6124de816124c3565b81146124e957600080fd5b50565b6000813590506124fb816124d5565b92915050565b6000806040838503121561251857612517612499565b5b6000612526858286016124ec565b9250506020612537858286016124ec565b9150509250929050565b6000819050919050565b61255481612541565b82525050565b600060208201905061256f600083018461254b565b92915050565b60006020828403121561258b5761258a612499565b5b6000612599848285016124ec565b91505092915050565b6125ab81612541565b81146125b657600080fd5b50565b6000813590506125c8816125a2565b92915050565b600080604083850312156125e5576125e4612499565b5b60006125f3858286016124ec565b9250506020612604858286016125b9565b9150509250929050565b600080fd5b6000601f19601f8301169050919050565b7f4e487b7100000000000000000000000000000000000000000000000000000000600052604160045260246000fd5b61265c82612613565b810181811067ffffffffffffffff8211171561267b5761267a612624565b5b80604052505050565b600061268e61248f565b905061269a8282612653565b919050565b600067ffffffffffffffff8211156126ba576126b9612624565b5b602082029050602081019050919050565b600080fd5b600080fd5b60008115159050919050565b6126ea816126d5565b81146126f557600080fd5b50565b600081359050612707816126e1565b92915050565b600060e08284031215612723576127226126d0565b5b61272d60e0612684565b9050600061273d848285016124ec565b6000830152506020612751848285016124ec565b6020830152506040612765848285016125b9565b6040830152506060612779848285016125b9565b606083015250608061278d848285016125b9565b60808301525060a06127a1848285016125b9565b60a08301525060c06127b5848285016126f8565b60c08301525092915050565b60006127d46127cf8461269f565b612684565b90508083825260208201905060e084028301858111156127f7576127f66126cb565b5b835b81811015612820578061280c888261270d565b84526020840193505060e0810190506127f9565b5050509392505050565b600082601f83011261283f5761283e61260e565b5b813561284f8482602086016127c1565b91505092915050565b6000806040838503121561286f5761286e612499565b5b600061287d858286016124ec565b925050602083013567ffffffffffffffff81111561289e5761289d61249e565b5b6128aa8582860161282a565b9150509250929050565b6000819050919050565b6128c7816128b4565b82525050565b60006020820190506128e260008301846128be565b92915050565b7f4e487b7100000000000000000000000000000000000000000000000000000000600052603260045260246000fd5b7f4e487b7100000000000000000000000000000000000000000000000000000000600052601160045260246000fd5b600061295182612541565b915061295c83612541565b925082820261296a81612541565b9150828204841483151761298157612980612917565b5b5092915050565b7f4e487b7100000000000000000000000000000000000000000000000000000000600052601260045260246000fd5b60006129c282612541565b91506129cd83612541565b9250826129dd576129dc612988565b5b828204905092915050565b6129f1816124c3565b82525050565b6000602082019050612a0c60008301846129e8565b92915050565b600081519050612a21816125a2565b92915050565b600060208284031215612a3d57612a3c612499565b5b6000612a4b84828501612a12565b91505092915050565b6000612a5f82612541565b9150612a6a83612541565b9250828201905080821115612a8257612a81612917565b5b92915050565b6000606082019050612a9d60008301866129e8565b612aaa60208301856129e8565b612ab7604083018461254b565b949350505050565b600081519050612ace816126e1565b92915050565b600060208284031215612aea57612ae9612499565b5b6000612af884828501612abf565b91505092915050565b600082825260208201905092915050565b7f5472616e736665722066726f6d206661696c6564000000000000000000000000600082015250565b6000612b48601483612b01565b9150612b5382612b12565b602082019050919050565b60006020820190508181036000830152612b7781612b3b565b9050919050565b6000604082019050612b9360008301856129e8565b612ba0602083018461254b565b9392505050565b7f5472616e73666572206661696c65640000000000000000000000000000000000600082015250565b6000612bdd600f83612b01565b9150612be882612ba7565b602082019050919050565b60006020820190508181036000830152612c0c81612bd0565b9050919050565b6000612c1e826128b4565b9150612c29836128b4565b9250828203905081811260008412168282136000851215161715612c5057612c4f612917565b5b92915050565b6000612c6182612541565b91507fffffffffffffffffffffffffffffffffffffffffffffffffffffffffffffffff8203612c9357612c92612917565b5b600182019050919050565b60008160011c9050919050565b6000808291508390505b6001851115612cf557808604811115612cd157612cd0612917565b5b6001851615612ce05780820291505b8081029050612cee85612c9e565b9450612cb5565b94509492505050565b600082612d0e5760019050612dca565b81612d1c5760009050612dca565b8160018114612d325760028114612d3c57612d6b565b6001915050612dca565b60ff841115612d4e57612d4d612917565b5b8360020a915084821115612d6557612d64612917565b5b50612dca565b5060208310610133831016604e8410600b8410161715612da05782820a905083811115612d9b57612d9a612917565b5b612dca565b612dad8484846001612cab565b92509050818404811115612dc457612dc3612917565b5b81810290505b9392505050565b6000612ddc82612541565b9150612de783612541565b9250612e147fffffffffffffffffffffffffffffffffffffffffffffffffffffffffffffffff8484612cfe565b905092915050565b600069ffffffffffffffffffff82169050919050565b612e3b81612e1c565b8114612e4657600080fd5b50565b600081519050612e5881612e32565b92915050565b612e67816128b4565b8114612e7257600080fd5b50565b600081519050612e8481612e5e565b92915050565b600080600080600060a08688031215612ea657612ea5612499565b5b6000612eb488828901612e49565b9550506020612ec588828901612e75565b9450506040612ed688828901612a12565b9350506060612ee788828901612a12565b9250506080612ef888828901612e49565b9150509295509295909350565b600060ff82169050919050565b612f1b81612f05565b8114612f2657600080fd5b50565b600081519050612f3881612f12565b92915050565b600060208284031215612f5457612f53612499565b5b6000612f6284828501612f29565b9150509291505056fea26469706673582212206075ba7cedfec868eab3bb6389fdab8a113260dabe75a938e411ba090253943a64736f6c63430008110033",
  "devdoc": {
    "kind": "dev",
    "methods": {},
    "version": 1
  },
  "userdoc": {
    "kind": "user",
    "methods": {},
    "version": 1
  },
  "storageLayout": {
    "storage": [
      {
        "astId": 56,
        "contract": "contracts/facets/SupplyFacet.sol:SupplyFacet",
        "label": "_status",
        "offset": 0,
        "slot": "0",
        "type": "t_uint256"
      },
      {
        "astId": 3961,
        "contract": "contracts/facets/SupplyFacet.sol:SupplyFacet",
        "label": "s",
        "offset": 0,
        "slot": "1",
        "type": "t_struct(AppStorage)3448_storage"
      }
    ],
    "types": {
      "t_address": {
        "encoding": "inplace",
        "label": "address",
        "numberOfBytes": "20"
      },
      "t_array(t_address)dyn_storage": {
        "base": "t_address",
        "encoding": "dynamic_array",
        "label": "address[]",
        "numberOfBytes": "32"
      },
      "t_array(t_struct(BorrowedToken)3410_storage)dyn_storage": {
        "base": "t_struct(BorrowedToken)3410_storage",
        "encoding": "dynamic_array",
        "label": "struct BorrowedToken[]",
        "numberOfBytes": "32"
      },
      "t_array(t_struct(SuppliedToken)3397_storage)dyn_storage": {
        "base": "t_struct(SuppliedToken)3397_storage",
        "encoding": "dynamic_array",
        "label": "struct SuppliedToken[]",
        "numberOfBytes": "32"
      },
      "t_bool": {
        "encoding": "inplace",
        "label": "bool",
        "numberOfBytes": "1"
      },
      "t_mapping(t_address,t_address)": {
        "encoding": "mapping",
        "key": "t_address",
        "label": "mapping(address => address)",
        "numberOfBytes": "32",
        "value": "t_address"
      },
      "t_mapping(t_address,t_array(t_struct(BorrowedToken)3410_storage)dyn_storage)": {
        "encoding": "mapping",
        "key": "t_address",
        "label": "mapping(address => struct BorrowedToken[])",
        "numberOfBytes": "32",
        "value": "t_array(t_struct(BorrowedToken)3410_storage)dyn_storage"
      },
      "t_mapping(t_address,t_array(t_struct(SuppliedToken)3397_storage)dyn_storage)": {
        "encoding": "mapping",
        "key": "t_address",
        "label": "mapping(address => struct SuppliedToken[])",
        "numberOfBytes": "32",
        "value": "t_array(t_struct(SuppliedToken)3397_storage)dyn_storage"
      },
      "t_mapping(t_address,t_struct(Token)3382_storage)": {
        "encoding": "mapping",
        "key": "t_address",
        "label": "mapping(address => struct Token)",
        "numberOfBytes": "32",
        "value": "t_struct(Token)3382_storage"
      },
      "t_struct(AppStorage)3448_storage": {
        "encoding": "inplace",
        "label": "struct AppStorage",
        "members": [
          {
            "astId": 3417,
            "contract": "contracts/facets/SupplyFacet.sol:SupplyFacet",
            "label": "larTokenAddress",
            "offset": 0,
            "slot": "0",
            "type": "t_address"
          },
          {
            "astId": 3420,
            "contract": "contracts/facets/SupplyFacet.sol:SupplyFacet",
            "label": "supportedTokens",
            "offset": 0,
            "slot": "1",
            "type": "t_array(t_address)dyn_storage"
          },
          {
            "astId": 3425,
            "contract": "contracts/facets/SupplyFacet.sol:SupplyFacet",
            "label": "addressToToken",
            "offset": 0,
            "slot": "2",
            "type": "t_mapping(t_address,t_struct(Token)3382_storage)"
          },
          {
            "astId": 3429,
            "contract": "contracts/facets/SupplyFacet.sol:SupplyFacet",
            "label": "tokenToPriceFeed",
            "offset": 0,
            "slot": "3",
            "type": "t_mapping(t_address,t_address)"
          },
          {
            "astId": 3435,
            "contract": "contracts/facets/SupplyFacet.sol:SupplyFacet",
            "label": "tokensSupplied",
            "offset": 0,
            "slot": "4",
            "type": "t_mapping(t_address,t_array(t_struct(SuppliedToken)3397_storage)dyn_storage)"
          },
          {
            "astId": 3441,
            "contract": "contracts/facets/SupplyFacet.sol:SupplyFacet",
            "label": "tokensBorrowed",
            "offset": 0,
            "slot": "5",
            "type": "t_mapping(t_address,t_array(t_struct(BorrowedToken)3410_storage)dyn_storage)"
          },
          {
            "astId": 3444,
            "contract": "contracts/facets/SupplyFacet.sol:SupplyFacet",
            "label": "allSuppliers",
            "offset": 0,
            "slot": "6",
            "type": "t_array(t_address)dyn_storage"
          },
          {
            "astId": 3447,
            "contract": "contracts/facets/SupplyFacet.sol:SupplyFacet",
            "label": "allBorrowers",
            "offset": 0,
            "slot": "7",
            "type": "t_array(t_address)dyn_storage"
          }
        ],
        "numberOfBytes": "256"
      },
      "t_struct(BorrowedToken)3410_storage": {
        "encoding": "inplace",
        "label": "struct BorrowedToken",
        "members": [
          {
            "astId": 3399,
            "contract": "contracts/facets/SupplyFacet.sol:SupplyFacet",
            "label": "tokenAddress",
            "offset": 0,
            "slot": "0",
            "type": "t_address"
          },
          {
            "astId": 3401,
            "contract": "contracts/facets/SupplyFacet.sol:SupplyFacet",
            "label": "borrowerAddress",
            "offset": 0,
            "slot": "1",
            "type": "t_address"
          },
          {
            "astId": 3403,
            "contract": "contracts/facets/SupplyFacet.sol:SupplyFacet",
            "label": "amountBorrowed",
            "offset": 0,
            "slot": "2",
            "type": "t_uint256"
          },
          {
            "astId": 3405,
            "contract": "contracts/facets/SupplyFacet.sol:SupplyFacet",
            "label": "startAccumulatingDay",
            "offset": 0,
            "slot": "3",
            "type": "t_uint256"
          },
          {
            "astId": 3407,
            "contract": "contracts/facets/SupplyFacet.sol:SupplyFacet",
            "label": "borrowedInterest",
            "offset": 0,
            "slot": "4",
            "type": "t_uint256"
          },
          {
            "astId": 3409,
            "contract": "contracts/facets/SupplyFacet.sol:SupplyFacet",
            "label": "stableRate",
            "offset": 0,
            "slot": "5",
            "type": "t_uint256"
          }
        ],
        "numberOfBytes": "192"
      },
      "t_struct(SuppliedToken)3397_storage": {
        "encoding": "inplace",
        "label": "struct SuppliedToken",
        "members": [
          {
            "astId": 3384,
            "contract": "contracts/facets/SupplyFacet.sol:SupplyFacet",
            "label": "tokenAddress",
            "offset": 0,
            "slot": "0",
            "type": "t_address"
          },
          {
            "astId": 3386,
            "contract": "contracts/facets/SupplyFacet.sol:SupplyFacet",
            "label": "supplierAddress",
            "offset": 0,
            "slot": "1",
            "type": "t_address"
          },
          {
            "astId": 3388,
            "contract": "contracts/facets/SupplyFacet.sol:SupplyFacet",
            "label": "amountSupplied",
            "offset": 0,
            "slot": "2",
            "type": "t_uint256"
          },
          {
            "astId": 3390,
            "contract": "contracts/facets/SupplyFacet.sol:SupplyFacet",
            "label": "supplyInterest",
            "offset": 0,
            "slot": "3",
            "type": "t_uint256"
          },
          {
            "astId": 3392,
            "contract": "contracts/facets/SupplyFacet.sol:SupplyFacet",
            "label": "supplyStableRate",
            "offset": 0,
            "slot": "4",
            "type": "t_uint256"
          },
          {
            "astId": 3394,
            "contract": "contracts/facets/SupplyFacet.sol:SupplyFacet",
            "label": "startAccumulatingDay",
            "offset": 0,
            "slot": "5",
            "type": "t_uint256"
          },
          {
            "astId": 3396,
            "contract": "contracts/facets/SupplyFacet.sol:SupplyFacet",
            "label": "isCollateral",
            "offset": 0,
            "slot": "6",
            "type": "t_bool"
          }
        ],
        "numberOfBytes": "224"
      },
      "t_struct(Token)3382_storage": {
        "encoding": "inplace",
        "label": "struct Token",
        "members": [
          {
            "astId": 3371,
            "contract": "contracts/facets/SupplyFacet.sol:SupplyFacet",
            "label": "tokenAddress",
            "offset": 0,
            "slot": "0",
            "type": "t_address"
          },
          {
            "astId": 3373,
            "contract": "contracts/facets/SupplyFacet.sol:SupplyFacet",
            "label": "liquidationThreshold",
            "offset": 20,
            "slot": "0",
            "type": "t_uint32"
          },
          {
            "astId": 3375,
            "contract": "contracts/facets/SupplyFacet.sol:SupplyFacet",
            "label": "loanToValue",
            "offset": 24,
            "slot": "0",
            "type": "t_uint32"
          },
          {
            "astId": 3377,
            "contract": "contracts/facets/SupplyFacet.sol:SupplyFacet",
            "label": "borrowStableRate",
            "offset": 28,
            "slot": "0",
            "type": "t_uint32"
          },
          {
            "astId": 3379,
            "contract": "contracts/facets/SupplyFacet.sol:SupplyFacet",
            "label": "supplyStableRate",
            "offset": 0,
            "slot": "1",
            "type": "t_uint32"
          },
          {
            "astId": 3381,
            "contract": "contracts/facets/SupplyFacet.sol:SupplyFacet",
            "label": "liquidationPenalty",
            "offset": 4,
            "slot": "1",
            "type": "t_uint32"
          }
        ],
        "numberOfBytes": "64"
      },
      "t_uint256": {
        "encoding": "inplace",
        "label": "uint256",
        "numberOfBytes": "32"
      },
      "t_uint32": {
        "encoding": "inplace",
        "label": "uint32",
        "numberOfBytes": "4"
      }
    }
  }
}