{
  "address": "0x5b86Dd668c826eF9D25bb7E537747d909A95BdeE",
  "abi": [
    {
      "inputs": [],
      "name": "CannotWithdrawAmount",
      "type": "error"
    },
    {
      "inputs": [],
      "name": "InsufficientFunds",
      "type": "error"
    },
    {
      "inputs": [],
      "name": "NoAmountAvailableToWithdraw",
      "type": "error"
    },
    {
      "inputs": [],
      "name": "OnlyOwnerCanCall",
      "type": "error"
    },
    {
      "inputs": [],
      "name": "ShouldBeGreaterThanZero",
      "type": "error"
    },
    {
      "inputs": [],
      "name": "TokenNotSupplied",
      "type": "error"
    },
    {
      "inputs": [],
      "name": "UnsupportedToken",
      "type": "error"
    },
    {
      "inputs": [
        {
          "internalType": "address",
          "name": "user",
          "type": "address"
        }
      ],
      "name": "getMaxAvailableToWithdrawInUsd",
      "outputs": [
        {
          "internalType": "int256",
          "name": "",
          "type": "int256"
        }
      ],
      "stateMutability": "view",
      "type": "function"
    },
    {
      "inputs": [
        {
          "internalType": "address",
          "name": "tokenAddress",
          "type": "address"
        },
        {
          "components": [
            {
              "internalType": "address",
              "name": "tokenAddress",
              "type": "address"
            },
            {
              "internalType": "address",
              "name": "supplierAddress",
              "type": "address"
            },
            {
              "internalType": "uint256",
              "name": "amountSupplied",
              "type": "uint256"
            },
            {
              "internalType": "uint256",
              "name": "supplyInterest",
              "type": "uint256"
            },
            {
              "internalType": "uint256",
              "name": "supplyStableRate",
              "type": "uint256"
            },
            {
              "internalType": "uint256",
              "name": "startAccumulatingDay",
              "type": "uint256"
            },
            {
              "internalType": "bool",
              "name": "isCollateral",
              "type": "bool"
            }
          ],
          "internalType": "struct SuppliedToken[]",
          "name": "tokenArray",
          "type": "tuple[]"
        }
      ],
      "name": "indexOf",
      "outputs": [
        {
          "internalType": "int256",
          "name": "",
          "type": "int256"
        }
      ],
      "stateMutability": "pure",
      "type": "function"
    },
    {
      "inputs": [
        {
          "internalType": "address",
          "name": "tokenAddress",
          "type": "address"
        },
        {
          "internalType": "uint256",
          "name": "tokenAmount",
          "type": "uint256"
        }
      ],
      "name": "withdraw",
      "outputs": [],
      "stateMutability": "nonpayable",
      "type": "function"
    }
  ],
  "transactionHash": "0x769b69b3bd13bf91e94403df2a82d1748713d27f4ee4d8beb8e3f3de2585b6b1",
  "args": [],
  "numDeployments": 1,
  "solcInputHash": "20934277f27467509ab8e73e7d8d337c",
  "bytecode": "0x608060405234801561001057600080fd5b5060016000819055506125f9806100286000396000f3fe608060405234801561001057600080fd5b50600436106100415760003560e01c806323bd853714610046578063eacd0d1b14610076578063f3fef3a3146100a6575b600080fd5b610060600480360381019061005b9190611ad1565b6100c2565b60405161006d9190611b17565b60405180910390f35b610090600480360381019061008b9190611db2565b61011e565b60405161009d9190611b17565b60405180910390f35b6100c060048036038101906100bb9190611e0e565b6101ce565b005b6000806100d0600184610e42565b905060006100df60018561127f565b905060006100ee600186611524565b905082612710826100ff9190611e7d565b6101099190611eee565b826101149190611f1f565b9350505050919050565b600080600090505b82518110156101a357600083828151811061014457610143611f53565b5b602002602001015190508473ffffffffffffffffffffffffffffffffffffffff16816000015173ffffffffffffffffffffffffffffffffffffffff160361018f5781925050506101c8565b50808061019b90611f82565b915050610126565b507fffffffffffffffffffffffffffffffffffffffffffffffffffffffffffffffff90505b92915050565b6101d66117ae565b60008111610210576040517fa489d71500000000000000000000000000000000000000000000000000000000815260040160405180910390fd5b60006102a4836001800180548060200260200160405190810160405280929190818152602001828054801561029a57602002820191906000526020600020905b8160009054906101000a900473ffffffffffffffffffffffffffffffffffffffff1673ffffffffffffffffffffffffffffffffffffffff1681526020019060010190808311610250575b50505050506117fd565b90507fffffffffffffffffffffffffffffffffffffffffffffffffffffffffffffffff81036102ff576040517f6a17288200000000000000000000000000000000000000000000000000000000815260040160405180910390fd5b600061030a336100c2565b905060008113610346576040517fefc3562f00000000000000000000000000000000000000000000000000000000815260040160405180910390fd5b6000610354600185876118a2565b905060008573ffffffffffffffffffffffffffffffffffffffff1663313ce5676040518163ffffffff1660e01b8152600401602060405180830381865afa1580156103a3573d6000803e3d6000fd5b505050506040513d601f19601f820116820180604052508101906103c79190612003565b9050600081600a6103d89190612163565b670de0b6b3a7640000846103ec9190611e7d565b6103f69190611eee565b90506000818561040691906121ae565b121561043e576040517f1fc6a42300000000000000000000000000000000000000000000000000000000815260040160405180910390fd5b858773ffffffffffffffffffffffffffffffffffffffff166370a08231306040518263ffffffff1660e01b81526004016104789190612200565b602060405180830381865afa158015610495573d6000803e3d6000fd5b505050506040513d601f19601f820116820180604052508101906104b99190612230565b10156104f1576040517f356680b700000000000000000000000000000000000000000000000000000000815260040160405180910390fd5b6000600160040160003373ffffffffffffffffffffffffffffffffffffffff1673ffffffffffffffffffffffffffffffffffffffff168152602001908152602001600020805480602002602001604051908101604052809291908181526020016000905b8282101561067657838290600052602060002090600702016040518060e00160405290816000820160009054906101000a900473ffffffffffffffffffffffffffffffffffffffff1673ffffffffffffffffffffffffffffffffffffffff1673ffffffffffffffffffffffffffffffffffffffff1681526020016001820160009054906101000a900473ffffffffffffffffffffffffffffffffffffffff1673ffffffffffffffffffffffffffffffffffffffff1673ffffffffffffffffffffffffffffffffffffffff168152602001600282015481526020016003820154815260200160048201548152602001600582015481526020016006820160009054906101000a900460ff16151515158152505081526020019060010190610555565b5050505090506000610688898361011e565b90507fffffffffffffffffffffffffffffffffffffffffffffffffffffffffffffffff81036106e3576040517f7eefe83400000000000000000000000000000000000000000000000000000000815260040160405180910390fd5b6000600160040160003373ffffffffffffffffffffffffffffffffffffffff1673ffffffffffffffffffffffffffffffffffffffff168152602001908152602001600020828154811061073957610738611f53565b5b90600052602060002090600702016040518060e00160405290816000820160009054906101000a900473ffffffffffffffffffffffffffffffffffffffff1673ffffffffffffffffffffffffffffffffffffffff1673ffffffffffffffffffffffffffffffffffffffff1681526020016001820160009054906101000a900473ffffffffffffffffffffffffffffffffffffffff1673ffffffffffffffffffffffffffffffffffffffff1673ffffffffffffffffffffffffffffffffffffffff168152602001600282015481526020016003820154815260200160048201548152602001600582015481526020016006820160009054906101000a900460ff1615151515815250509050600089905060006108566001878e6118a2565b90508260c001516108d7576000620151808460a00151426108779190611f1f565b6108819190611eee565b905060006127108560400151866080015161089c9190611e7d565b6108a69190611eee565b9050600061016d82846108b99190611e7d565b6108c39190611eee565b905080856108d1919061225d565b94505050505b8a600160040160003373ffffffffffffffffffffffffffffffffffffffff1673ffffffffffffffffffffffffffffffffffffffff168152602001908152602001600020858154811061092c5761092b611f53565b5b9060005260206000209060070201600201600082825461094c9190611f1f565b925050819055508a600160080160008e73ffffffffffffffffffffffffffffffffffffffff1673ffffffffffffffffffffffffffffffffffffffff16815260200190815260200160002060008282546109a59190611f1f565b9250508190555042600160040160003373ffffffffffffffffffffffffffffffffffffffff1673ffffffffffffffffffffffffffffffffffffffff1681526020019081526020016000208581548110610a0157610a00611f53565b5b9060005260206000209060070201600501819055508b73ffffffffffffffffffffffffffffffffffffffff1663a9059cbb33846040518363ffffffff1660e01b8152600401610a519291906122a0565b6020604051808303816000875af1158015610a70573d6000803e3d6000fd5b505050506040513d601f19601f82011682018060405250810190610a9491906122de565b610ad3576040517f08c379a0000000000000000000000000000000000000000000000000000000008152600401610aca90612368565b60405180910390fd5b600160000160009054906101000a900473ffffffffffffffffffffffffffffffffffffffff1673ffffffffffffffffffffffffffffffffffffffff16639dc29fac33836040518363ffffffff1660e01b8152600401610b339291906122a0565b6020604051808303816000875af1158015610b52573d6000803e3d6000fd5b505050506040513d601f19601f82011682018060405250810190610b7691906122de565b610bb5576040517f08c379a0000000000000000000000000000000000000000000000000000000008152600401610bac906123d4565b60405180910390fd5b82604001518b10610e2c576000600160040160003373ffffffffffffffffffffffffffffffffffffffff1673ffffffffffffffffffffffffffffffffffffffff16815260200190815260200160002090508060018280549050610c189190611f1f565b81548110610c2957610c28611f53565b5b9060005260206000209060070201818681548110610c4a57610c49611f53565b5b90600052602060002090600702016000820160009054906101000a900473ffffffffffffffffffffffffffffffffffffffff168160000160006101000a81548173ffffffffffffffffffffffffffffffffffffffff021916908373ffffffffffffffffffffffffffffffffffffffff1602179055506001820160009054906101000a900473ffffffffffffffffffffffffffffffffffffffff168160010160006101000a81548173ffffffffffffffffffffffffffffffffffffffff021916908373ffffffffffffffffffffffffffffffffffffffff160217905550600282015481600201556003820154816003015560048201548160040155600582015481600501556006820160009054906101000a900460ff168160060160006101000a81548160ff02191690831515021790555090505080805480610d8f57610d8e6123f4565b5b6001900381819060005260206000209060070201600080820160006101000a81549073ffffffffffffffffffffffffffffffffffffffff02191690556001820160006101000a81549073ffffffffffffffffffffffffffffffffffffffff021916905560028201600090556003820160009055600482016000905560058201600090556006820160006101000a81549060ff021916905550509055505b50505050505050505050610e3e6118e9565b5050565b6000808360040160008473ffffffffffffffffffffffffffffffffffffffff1673ffffffffffffffffffffffffffffffffffffffff168152602001908152602001600020805480602002602001604051908101604052809291908181526020016000905b82821015610fc757838290600052602060002090600702016040518060e00160405290816000820160009054906101000a900473ffffffffffffffffffffffffffffffffffffffff1673ffffffffffffffffffffffffffffffffffffffff1673ffffffffffffffffffffffffffffffffffffffff1681526020016001820160009054906101000a900473ffffffffffffffffffffffffffffffffffffffff1673ffffffffffffffffffffffffffffffffffffffff1673ffffffffffffffffffffffffffffffffffffffff168152602001600282015481526020016003820154815260200160048201548152602001600582015481526020016006820160009054906101000a900460ff16151515158152505081526020019060010190610ea6565b505050509050600080610fda868661127f565b905060005b8351811015611267576000848281518110610ffd57610ffc611f53565b5b602002602001015190506000886002016000836000015173ffffffffffffffffffffffffffffffffffffffff1673ffffffffffffffffffffffffffffffffffffffff1681526020019081526020016000206040518060c00160405290816000820160009054906101000a900473ffffffffffffffffffffffffffffffffffffffff1673ffffffffffffffffffffffffffffffffffffffff1673ffffffffffffffffffffffffffffffffffffffff1681526020016000820160149054906101000a900463ffffffff1663ffffffff1663ffffffff1681526020016000820160189054906101000a900463ffffffff1663ffffffff1663ffffffff16815260200160008201601c9054906101000a900463ffffffff1663ffffffff1663ffffffff1681526020016001820160009054906101000a900463ffffffff1663ffffffff1663ffffffff1681526020016001820160049054906101000a900463ffffffff1663ffffffff1663ffffffff168152505090506000826000015173ffffffffffffffffffffffffffffffffffffffff1663313ce5676040518163ffffffff1660e01b8152600401602060405180830381865afa1580156111c0573d6000803e3d6000fd5b505050506040513d601f19601f820116820180604052508101906111e49190612003565b905060006111fb8b856040015186600001516118a2565b9050600082600a61120c9190612163565b670de0b6b3a7640000836112209190611e7d565b61122a9190611eee565b9050836040015163ffffffff16816112429190611e7d565b8861124d919061225d565b97505050505050808061125f90611f82565b915050610fdf565b5080826112749190611eee565b935050505092915050565b6000808360040160008473ffffffffffffffffffffffffffffffffffffffff1673ffffffffffffffffffffffffffffffffffffffff168152602001908152602001600020805480602002602001604051908101604052809291908181526020016000905b8282101561140457838290600052602060002090600702016040518060e00160405290816000820160009054906101000a900473ffffffffffffffffffffffffffffffffffffffff1673ffffffffffffffffffffffffffffffffffffffff1673ffffffffffffffffffffffffffffffffffffffff1681526020016001820160009054906101000a900473ffffffffffffffffffffffffffffffffffffffff1673ffffffffffffffffffffffffffffffffffffffff1673ffffffffffffffffffffffffffffffffffffffff168152602001600282015481526020016003820154815260200160048201548152602001600582015481526020016006820160009054906101000a900460ff161515151581525050815260200190600101906112e3565b5050505090506000805b825181101561151857600083828151811061142c5761142b611f53565b5b602002602001015190506000816000015173ffffffffffffffffffffffffffffffffffffffff1663313ce5676040518163ffffffff1660e01b8152600401602060405180830381865afa158015611487573d6000803e3d6000fd5b505050506040513d601f19601f820116820180604052508101906114ab9190612003565b905060006114c289846040015185600001516118a2565b9050600082600a6114d39190612163565b670de0b6b3a7640000836114e79190611e7d565b6114f19190611eee565b905080866114ff919061225d565b955050505050808061151090611f82565b91505061140e565b50809250505092915050565b6000808360050160008473ffffffffffffffffffffffffffffffffffffffff1673ffffffffffffffffffffffffffffffffffffffff168152602001908152602001600020805480602002602001604051908101604052809291908181526020016000905b8282101561168e57838290600052602060002090600602016040518060c00160405290816000820160009054906101000a900473ffffffffffffffffffffffffffffffffffffffff1673ffffffffffffffffffffffffffffffffffffffff1673ffffffffffffffffffffffffffffffffffffffff1681526020016001820160009054906101000a900473ffffffffffffffffffffffffffffffffffffffff1673ffffffffffffffffffffffffffffffffffffffff1673ffffffffffffffffffffffffffffffffffffffff16815260200160028201548152602001600382015481526020016004820154815260200160058201548152505081526020019060010190611588565b5050505090506000805b82518110156117a25760008382815181106116b6576116b5611f53565b5b602002602001015190506000816000015173ffffffffffffffffffffffffffffffffffffffff1663313ce5676040518163ffffffff1660e01b8152600401602060405180830381865afa158015611711573d6000803e3d6000fd5b505050506040513d601f19601f820116820180604052508101906117359190612003565b9050600061174c89846040015185600001516118a2565b9050600082600a61175d9190612163565b670de0b6b3a7640000836117719190611e7d565b61177b9190611eee565b90508086611789919061225d565b955050505050808061179a90611f82565b915050611698565b50809250505092915050565b6002600054036117f3576040517f08c379a00000000000000000000000000000000000000000000000000000000081526004016117ea9061246f565b60405180910390fd5b6002600081905550565b600080600090505b82518110156118775782818151811061182157611820611f53565b5b602002602001015173ffffffffffffffffffffffffffffffffffffffff168473ffffffffffffffffffffffffffffffffffffffff1603611864578091505061189c565b808061186f90611f82565b915050611805565b507fffffffffffffffffffffffffffffffffffffffffffffffffffffffffffffffff90505b92915050565b60008060006118b186856118f3565b91509150600081600a6118c4919061248f565b83876118d09190611e7d565b6118da9190611eee565b90508093505050509392505050565b6001600081905550565b60008060008460030160008573ffffffffffffffffffffffffffffffffffffffff1673ffffffffffffffffffffffffffffffffffffffff16815260200190815260200160002060009054906101000a900473ffffffffffffffffffffffffffffffffffffffff169050600081905060008173ffffffffffffffffffffffffffffffffffffffff1663feaf968c6040518163ffffffff1660e01b815260040160a060405180830381865afa1580156119ae573d6000803e3d6000fd5b505050506040513d601f19601f820116820180604052508101906119d29190612548565b50505091505060008273ffffffffffffffffffffffffffffffffffffffff1663313ce5676040518163ffffffff1660e01b8152600401602060405180830381865afa158015611a25573d6000803e3d6000fd5b505050506040513d601f19601f82011682018060405250810190611a499190612003565b60ff169050818195509550505050509250929050565b6000604051905090565b600080fd5b600080fd5b600073ffffffffffffffffffffffffffffffffffffffff82169050919050565b6000611a9e82611a73565b9050919050565b611aae81611a93565b8114611ab957600080fd5b50565b600081359050611acb81611aa5565b92915050565b600060208284031215611ae757611ae6611a69565b5b6000611af584828501611abc565b91505092915050565b6000819050919050565b611b1181611afe565b82525050565b6000602082019050611b2c6000830184611b08565b92915050565b600080fd5b6000601f19601f8301169050919050565b7f4e487b7100000000000000000000000000000000000000000000000000000000600052604160045260246000fd5b611b8082611b37565b810181811067ffffffffffffffff82111715611b9f57611b9e611b48565b5b80604052505050565b6000611bb2611a5f565b9050611bbe8282611b77565b919050565b600067ffffffffffffffff821115611bde57611bdd611b48565b5b602082029050602081019050919050565b600080fd5b600080fd5b6000819050919050565b611c0c81611bf9565b8114611c1757600080fd5b50565b600081359050611c2981611c03565b92915050565b60008115159050919050565b611c4481611c2f565b8114611c4f57600080fd5b50565b600081359050611c6181611c3b565b92915050565b600060e08284031215611c7d57611c7c611bf4565b5b611c8760e0611ba8565b90506000611c9784828501611abc565b6000830152506020611cab84828501611abc565b6020830152506040611cbf84828501611c1a565b6040830152506060611cd384828501611c1a565b6060830152506080611ce784828501611c1a565b60808301525060a0611cfb84828501611c1a565b60a08301525060c0611d0f84828501611c52565b60c08301525092915050565b6000611d2e611d2984611bc3565b611ba8565b90508083825260208201905060e08402830185811115611d5157611d50611bef565b5b835b81811015611d7a5780611d668882611c67565b84526020840193505060e081019050611d53565b5050509392505050565b600082601f830112611d9957611d98611b32565b5b8135611da9848260208601611d1b565b91505092915050565b60008060408385031215611dc957611dc8611a69565b5b6000611dd785828601611abc565b925050602083013567ffffffffffffffff811115611df857611df7611a6e565b5b611e0485828601611d84565b9150509250929050565b60008060408385031215611e2557611e24611a69565b5b6000611e3385828601611abc565b9250506020611e4485828601611c1a565b9150509250929050565b7f4e487b7100000000000000000000000000000000000000000000000000000000600052601160045260246000fd5b6000611e8882611bf9565b9150611e9383611bf9565b9250828202611ea181611bf9565b91508282048414831517611eb857611eb7611e4e565b5b5092915050565b7f4e487b7100000000000000000000000000000000000000000000000000000000600052601260045260246000fd5b6000611ef982611bf9565b9150611f0483611bf9565b925082611f1457611f13611ebf565b5b828204905092915050565b6000611f2a82611bf9565b9150611f3583611bf9565b9250828203905081811115611f4d57611f4c611e4e565b5b92915050565b7f4e487b7100000000000000000000000000000000000000000000000000000000600052603260045260246000fd5b6000611f8d82611bf9565b91507fffffffffffffffffffffffffffffffffffffffffffffffffffffffffffffffff8203611fbf57611fbe611e4e565b5b600182019050919050565b600060ff82169050919050565b611fe081611fca565b8114611feb57600080fd5b50565b600081519050611ffd81611fd7565b92915050565b60006020828403121561201957612018611a69565b5b600061202784828501611fee565b91505092915050565b60008160011c9050919050565b6000808291508390505b60018511156120875780860481111561206357612062611e4e565b5b60018516156120725780820291505b808102905061208085612030565b9450612047565b94509492505050565b6000826120a0576001905061215c565b816120ae576000905061215c565b81600181146120c457600281146120ce576120fd565b600191505061215c565b60ff8411156120e0576120df611e4e565b5b8360020a9150848211156120f7576120f6611e4e565b5b5061215c565b5060208310610133831016604e8410600b84101617156121325782820a90508381111561212d5761212c611e4e565b5b61215c565b61213f848484600161203d565b9250905081840481111561215657612155611e4e565b5b81810290505b9392505050565b600061216e82611bf9565b915061217983611fca565b92506121a67fffffffffffffffffffffffffffffffffffffffffffffffffffffffffffffffff8484612090565b905092915050565b60006121b982611afe565b91506121c483611afe565b92508282039050818112600084121682821360008512151617156121eb576121ea611e4e565b5b92915050565b6121fa81611a93565b82525050565b600060208201905061221560008301846121f1565b92915050565b60008151905061222a81611c03565b92915050565b60006020828403121561224657612245611a69565b5b60006122548482850161221b565b91505092915050565b600061226882611bf9565b915061227383611bf9565b925082820190508082111561228b5761228a611e4e565b5b92915050565b61229a81611bf9565b82525050565b60006040820190506122b560008301856121f1565b6122c26020830184612291565b9392505050565b6000815190506122d881611c3b565b92915050565b6000602082840312156122f4576122f3611a69565b5b6000612302848285016122c9565b91505092915050565b600082825260208201905092915050565b7f496e73756666696369656e742066756e64730000000000000000000000000000600082015250565b600061235260128361230b565b915061235d8261231c565b602082019050919050565b6000602082019050818103600083015261238181612345565b9050919050565b7f4661696c656420746f206275726e000000000000000000000000000000000000600082015250565b60006123be600e8361230b565b91506123c982612388565b602082019050919050565b600060208201905081810360008301526123ed816123b1565b9050919050565b7f4e487b7100000000000000000000000000000000000000000000000000000000600052603160045260246000fd5b7f5265656e7472616e637947756172643a207265656e7472616e742063616c6c00600082015250565b6000612459601f8361230b565b915061246482612423565b602082019050919050565b600060208201905081810360008301526124888161244c565b9050919050565b600061249a82611bf9565b91506124a583611bf9565b92506124d27fffffffffffffffffffffffffffffffffffffffffffffffffffffffffffffffff8484612090565b905092915050565b600069ffffffffffffffffffff82169050919050565b6124f9816124da565b811461250457600080fd5b50565b600081519050612516816124f0565b92915050565b61252581611afe565b811461253057600080fd5b50565b6000815190506125428161251c565b92915050565b600080600080600060a0868803121561256457612563611a69565b5b600061257288828901612507565b955050602061258388828901612533565b94505060406125948882890161221b565b93505060606125a58882890161221b565b92505060806125b688828901612507565b915050929550929590935056fea2646970667358221220b913be00177f56f67c2a939e0fdd5ac8cfcef2ddf4e229706219cae5e67121d164736f6c63430008110033",
  "devdoc": {
    "kind": "dev",
    "methods": {},
    "version": 1
  },
  "userdoc": {
    "kind": "user",
    "methods": {},
    "version": 1
  },
  "storageLayout": {
    "storage": [
      {
        "astId": 56,
        "contract": "contracts/facets/WithdrawFacet.sol:WithdrawFacet",
        "label": "_status",
        "offset": 0,
        "slot": "0",
        "type": "t_uint256"
      },
      {
        "astId": 1887,
        "contract": "contracts/facets/WithdrawFacet.sol:WithdrawFacet",
        "label": "s",
        "offset": 0,
        "slot": "1",
        "type": "t_struct(AppStorage)1286_storage"
      }
    ],
    "types": {
      "t_address": {
        "encoding": "inplace",
        "label": "address",
        "numberOfBytes": "20"
      },
      "t_array(t_address)dyn_storage": {
        "base": "t_address",
        "encoding": "dynamic_array",
        "label": "address[]",
        "numberOfBytes": "32"
      },
      "t_array(t_struct(BorrowedToken)1240_storage)dyn_storage": {
        "base": "t_struct(BorrowedToken)1240_storage",
        "encoding": "dynamic_array",
        "label": "struct BorrowedToken[]",
        "numberOfBytes": "32"
      },
      "t_array(t_struct(SuppliedToken)1227_storage)dyn_storage": {
        "base": "t_struct(SuppliedToken)1227_storage",
        "encoding": "dynamic_array",
        "label": "struct SuppliedToken[]",
        "numberOfBytes": "32"
      },
      "t_bool": {
        "encoding": "inplace",
        "label": "bool",
        "numberOfBytes": "1"
      },
      "t_mapping(t_address,t_address)": {
        "encoding": "mapping",
        "key": "t_address",
        "label": "mapping(address => address)",
        "numberOfBytes": "32",
        "value": "t_address"
      },
      "t_mapping(t_address,t_array(t_struct(BorrowedToken)1240_storage)dyn_storage)": {
        "encoding": "mapping",
        "key": "t_address",
        "label": "mapping(address => struct BorrowedToken[])",
        "numberOfBytes": "32",
        "value": "t_array(t_struct(BorrowedToken)1240_storage)dyn_storage"
      },
      "t_mapping(t_address,t_array(t_struct(SuppliedToken)1227_storage)dyn_storage)": {
        "encoding": "mapping",
        "key": "t_address",
        "label": "mapping(address => struct SuppliedToken[])",
        "numberOfBytes": "32",
        "value": "t_array(t_struct(SuppliedToken)1227_storage)dyn_storage"
      },
      "t_mapping(t_address,t_struct(Token)1212_storage)": {
        "encoding": "mapping",
        "key": "t_address",
        "label": "mapping(address => struct Token)",
        "numberOfBytes": "32",
        "value": "t_struct(Token)1212_storage"
      },
      "t_mapping(t_address,t_uint256)": {
        "encoding": "mapping",
        "key": "t_address",
        "label": "mapping(address => uint256)",
        "numberOfBytes": "32",
        "value": "t_uint256"
      },
      "t_struct(AppStorage)1286_storage": {
        "encoding": "inplace",
        "label": "struct AppStorage",
        "members": [
          {
            "astId": 1247,
            "contract": "contracts/facets/WithdrawFacet.sol:WithdrawFacet",
            "label": "larTokenAddress",
            "offset": 0,
            "slot": "0",
            "type": "t_address"
          },
          {
            "astId": 1250,
            "contract": "contracts/facets/WithdrawFacet.sol:WithdrawFacet",
            "label": "supportedTokens",
            "offset": 0,
            "slot": "1",
            "type": "t_array(t_address)dyn_storage"
          },
          {
            "astId": 1255,
            "contract": "contracts/facets/WithdrawFacet.sol:WithdrawFacet",
            "label": "addressToToken",
            "offset": 0,
            "slot": "2",
            "type": "t_mapping(t_address,t_struct(Token)1212_storage)"
          },
          {
            "astId": 1259,
            "contract": "contracts/facets/WithdrawFacet.sol:WithdrawFacet",
            "label": "tokenToPriceFeed",
            "offset": 0,
            "slot": "3",
            "type": "t_mapping(t_address,t_address)"
          },
          {
            "astId": 1265,
            "contract": "contracts/facets/WithdrawFacet.sol:WithdrawFacet",
            "label": "tokensSupplied",
            "offset": 0,
            "slot": "4",
            "type": "t_mapping(t_address,t_array(t_struct(SuppliedToken)1227_storage)dyn_storage)"
          },
          {
            "astId": 1271,
            "contract": "contracts/facets/WithdrawFacet.sol:WithdrawFacet",
            "label": "tokensBorrowed",
            "offset": 0,
            "slot": "5",
            "type": "t_mapping(t_address,t_array(t_struct(BorrowedToken)1240_storage)dyn_storage)"
          },
          {
            "astId": 1274,
            "contract": "contracts/facets/WithdrawFacet.sol:WithdrawFacet",
            "label": "allSuppliers",
            "offset": 0,
            "slot": "6",
            "type": "t_array(t_address)dyn_storage"
          },
          {
            "astId": 1277,
            "contract": "contracts/facets/WithdrawFacet.sol:WithdrawFacet",
            "label": "allBorrowers",
            "offset": 0,
            "slot": "7",
            "type": "t_array(t_address)dyn_storage"
          },
          {
            "astId": 1281,
            "contract": "contracts/facets/WithdrawFacet.sol:WithdrawFacet",
            "label": "totalSupplied",
            "offset": 0,
            "slot": "8",
            "type": "t_mapping(t_address,t_uint256)"
          },
          {
            "astId": 1285,
            "contract": "contracts/facets/WithdrawFacet.sol:WithdrawFacet",
            "label": "totalBorrowed",
            "offset": 0,
            "slot": "9",
            "type": "t_mapping(t_address,t_uint256)"
          }
        ],
        "numberOfBytes": "320"
      },
      "t_struct(BorrowedToken)1240_storage": {
        "encoding": "inplace",
        "label": "struct BorrowedToken",
        "members": [
          {
            "astId": 1229,
            "contract": "contracts/facets/WithdrawFacet.sol:WithdrawFacet",
            "label": "tokenAddress",
            "offset": 0,
            "slot": "0",
            "type": "t_address"
          },
          {
            "astId": 1231,
            "contract": "contracts/facets/WithdrawFacet.sol:WithdrawFacet",
            "label": "borrowerAddress",
            "offset": 0,
            "slot": "1",
            "type": "t_address"
          },
          {
            "astId": 1233,
            "contract": "contracts/facets/WithdrawFacet.sol:WithdrawFacet",
            "label": "amountBorrowed",
            "offset": 0,
            "slot": "2",
            "type": "t_uint256"
          },
          {
            "astId": 1235,
            "contract": "contracts/facets/WithdrawFacet.sol:WithdrawFacet",
            "label": "startAccumulatingDay",
            "offset": 0,
            "slot": "3",
            "type": "t_uint256"
          },
          {
            "astId": 1237,
            "contract": "contracts/facets/WithdrawFacet.sol:WithdrawFacet",
            "label": "borrowedInterest",
            "offset": 0,
            "slot": "4",
            "type": "t_uint256"
          },
          {
            "astId": 1239,
            "contract": "contracts/facets/WithdrawFacet.sol:WithdrawFacet",
            "label": "stableRate",
            "offset": 0,
            "slot": "5",
            "type": "t_uint256"
          }
        ],
        "numberOfBytes": "192"
      },
      "t_struct(SuppliedToken)1227_storage": {
        "encoding": "inplace",
        "label": "struct SuppliedToken",
        "members": [
          {
            "astId": 1214,
            "contract": "contracts/facets/WithdrawFacet.sol:WithdrawFacet",
            "label": "tokenAddress",
            "offset": 0,
            "slot": "0",
            "type": "t_address"
          },
          {
            "astId": 1216,
            "contract": "contracts/facets/WithdrawFacet.sol:WithdrawFacet",
            "label": "supplierAddress",
            "offset": 0,
            "slot": "1",
            "type": "t_address"
          },
          {
            "astId": 1218,
            "contract": "contracts/facets/WithdrawFacet.sol:WithdrawFacet",
            "label": "amountSupplied",
            "offset": 0,
            "slot": "2",
            "type": "t_uint256"
          },
          {
            "astId": 1220,
            "contract": "contracts/facets/WithdrawFacet.sol:WithdrawFacet",
            "label": "supplyInterest",
            "offset": 0,
            "slot": "3",
            "type": "t_uint256"
          },
          {
            "astId": 1222,
            "contract": "contracts/facets/WithdrawFacet.sol:WithdrawFacet",
            "label": "supplyStableRate",
            "offset": 0,
            "slot": "4",
            "type": "t_uint256"
          },
          {
            "astId": 1224,
            "contract": "contracts/facets/WithdrawFacet.sol:WithdrawFacet",
            "label": "startAccumulatingDay",
            "offset": 0,
            "slot": "5",
            "type": "t_uint256"
          },
          {
            "astId": 1226,
            "contract": "contracts/facets/WithdrawFacet.sol:WithdrawFacet",
            "label": "isCollateral",
            "offset": 0,
            "slot": "6",
            "type": "t_bool"
          }
        ],
        "numberOfBytes": "224"
      },
      "t_struct(Token)1212_storage": {
        "encoding": "inplace",
        "label": "struct Token",
        "members": [
          {
            "astId": 1201,
            "contract": "contracts/facets/WithdrawFacet.sol:WithdrawFacet",
            "label": "tokenAddress",
            "offset": 0,
            "slot": "0",
            "type": "t_address"
          },
          {
            "astId": 1203,
            "contract": "contracts/facets/WithdrawFacet.sol:WithdrawFacet",
            "label": "liquidationThreshold",
            "offset": 20,
            "slot": "0",
            "type": "t_uint32"
          },
          {
            "astId": 1205,
            "contract": "contracts/facets/WithdrawFacet.sol:WithdrawFacet",
            "label": "loanToValue",
            "offset": 24,
            "slot": "0",
            "type": "t_uint32"
          },
          {
            "astId": 1207,
            "contract": "contracts/facets/WithdrawFacet.sol:WithdrawFacet",
            "label": "borrowStableRate",
            "offset": 28,
            "slot": "0",
            "type": "t_uint32"
          },
          {
            "astId": 1209,
            "contract": "contracts/facets/WithdrawFacet.sol:WithdrawFacet",
            "label": "supplyStableRate",
            "offset": 0,
            "slot": "1",
            "type": "t_uint32"
          },
          {
            "astId": 1211,
            "contract": "contracts/facets/WithdrawFacet.sol:WithdrawFacet",
            "label": "liquidationPenalty",
            "offset": 4,
            "slot": "1",
            "type": "t_uint32"
          }
        ],
        "numberOfBytes": "64"
      },
      "t_uint256": {
        "encoding": "inplace",
        "label": "uint256",
        "numberOfBytes": "32"
      },
      "t_uint32": {
        "encoding": "inplace",
        "label": "uint32",
        "numberOfBytes": "4"
      }
    }
  }
}