{
  "address": "0xc4E523B7d26186eC7f1dCBed8a64DaBDE795C98E",
  "abi": [
    {
      "inputs": [],
      "name": "CannotWithdrawAmount",
      "type": "error"
    },
    {
      "inputs": [],
      "name": "InsufficientFunds",
      "type": "error"
    },
    {
      "inputs": [],
      "name": "NoAmountAvailableToWithdraw",
      "type": "error"
    },
    {
      "inputs": [],
      "name": "OnlyOwnerCanCall",
      "type": "error"
    },
    {
      "inputs": [],
      "name": "ShouldBeGreaterThanZero",
      "type": "error"
    },
    {
      "inputs": [],
      "name": "TokenNotSupplied",
      "type": "error"
    },
    {
      "inputs": [],
      "name": "UnsupportedToken",
      "type": "error"
    },
    {
      "inputs": [
        {
          "internalType": "address",
          "name": "user",
          "type": "address"
        }
      ],
      "name": "getMaxAvailableToWithdrawInUsd",
      "outputs": [
        {
          "internalType": "int256",
          "name": "",
          "type": "int256"
        }
      ],
      "stateMutability": "view",
      "type": "function"
    },
    {
      "inputs": [
        {
          "internalType": "address",
          "name": "tokenAddress",
          "type": "address"
        },
        {
          "components": [
            {
              "internalType": "address",
              "name": "tokenAddress",
              "type": "address"
            },
            {
              "internalType": "address",
              "name": "supplierAddress",
              "type": "address"
            },
            {
              "internalType": "uint256",
              "name": "amountSupplied",
              "type": "uint256"
            },
            {
              "internalType": "uint256",
              "name": "supplyInterest",
              "type": "uint256"
            },
            {
              "internalType": "uint256",
              "name": "supplyStableRate",
              "type": "uint256"
            },
            {
              "internalType": "uint256",
              "name": "startAccumulatingDay",
              "type": "uint256"
            },
            {
              "internalType": "bool",
              "name": "isCollateral",
              "type": "bool"
            }
          ],
          "internalType": "struct SuppliedToken[]",
          "name": "tokenArray",
          "type": "tuple[]"
        }
      ],
      "name": "indexOf",
      "outputs": [
        {
          "internalType": "int256",
          "name": "",
          "type": "int256"
        }
      ],
      "stateMutability": "pure",
      "type": "function"
    },
    {
      "inputs": [
        {
          "internalType": "address",
          "name": "tokenAddress",
          "type": "address"
        },
        {
          "internalType": "uint256",
          "name": "tokenAmount",
          "type": "uint256"
        }
      ],
      "name": "withdraw",
      "outputs": [],
      "stateMutability": "nonpayable",
      "type": "function"
    }
  ],
  "transactionHash": "0xf77516272efeb8a2ad1ae2541c205e0f12b96906f0e61d3c76446b7017819785",
  "args": [],
  "numDeployments": 1,
  "solcInputHash": "456f23117e352bd9d0ed21fbb9047fce",
  "bytecode": "0x608060405234801561001057600080fd5b506001600081905550612609806100286000396000f3fe608060405234801561001057600080fd5b50600436106100415760003560e01c806323bd853714610046578063eacd0d1b14610076578063f3fef3a3146100a6575b600080fd5b610060600480360381019061005b9190611ae1565b6100c2565b60405161006d9190611b27565b60405180910390f35b610090600480360381019061008b9190611dc2565b61011e565b60405161009d9190611b27565b60405180910390f35b6100c060048036038101906100bb9190611e1e565b6101ce565b005b6000806100d0600184610e42565b905060006100df60018561128f565b905060006100ee600186611534565b905082612710826100ff9190611e8d565b6101099190611efe565b826101149190611f2f565b9350505050919050565b600080600090505b82518110156101a357600083828151811061014457610143611f63565b5b602002602001015190508473ffffffffffffffffffffffffffffffffffffffff16816000015173ffffffffffffffffffffffffffffffffffffffff160361018f5781925050506101c8565b50808061019b90611f92565b915050610126565b507fffffffffffffffffffffffffffffffffffffffffffffffffffffffffffffffff90505b92915050565b6101d66117be565b60008111610210576040517fa489d71500000000000000000000000000000000000000000000000000000000815260040160405180910390fd5b60006102a4836001800180548060200260200160405190810160405280929190818152602001828054801561029a57602002820191906000526020600020905b8160009054906101000a900473ffffffffffffffffffffffffffffffffffffffff1673ffffffffffffffffffffffffffffffffffffffff1681526020019060010190808311610250575b505050505061180d565b90507fffffffffffffffffffffffffffffffffffffffffffffffffffffffffffffffff81036102ff576040517f6a17288200000000000000000000000000000000000000000000000000000000815260040160405180910390fd5b600061030a336100c2565b905060008113610346576040517fefc3562f00000000000000000000000000000000000000000000000000000000815260040160405180910390fd5b6000610354600185876118b2565b905060008573ffffffffffffffffffffffffffffffffffffffff1663313ce5676040518163ffffffff1660e01b8152600401602060405180830381865afa1580156103a3573d6000803e3d6000fd5b505050506040513d601f19601f820116820180604052508101906103c79190612013565b9050600081600a6103d89190612173565b670de0b6b3a7640000846103ec9190611e8d565b6103f69190611efe565b90506000818561040691906121be565b121561043e576040517f1fc6a42300000000000000000000000000000000000000000000000000000000815260040160405180910390fd5b858773ffffffffffffffffffffffffffffffffffffffff166370a08231306040518263ffffffff1660e01b81526004016104789190612210565b602060405180830381865afa158015610495573d6000803e3d6000fd5b505050506040513d601f19601f820116820180604052508101906104b99190612240565b10156104f1576040517f356680b700000000000000000000000000000000000000000000000000000000815260040160405180910390fd5b6000600160040160003373ffffffffffffffffffffffffffffffffffffffff1673ffffffffffffffffffffffffffffffffffffffff168152602001908152602001600020805480602002602001604051908101604052809291908181526020016000905b8282101561067657838290600052602060002090600702016040518060e00160405290816000820160009054906101000a900473ffffffffffffffffffffffffffffffffffffffff1673ffffffffffffffffffffffffffffffffffffffff1673ffffffffffffffffffffffffffffffffffffffff1681526020016001820160009054906101000a900473ffffffffffffffffffffffffffffffffffffffff1673ffffffffffffffffffffffffffffffffffffffff1673ffffffffffffffffffffffffffffffffffffffff168152602001600282015481526020016003820154815260200160048201548152602001600582015481526020016006820160009054906101000a900460ff16151515158152505081526020019060010190610555565b5050505090506000610688898361011e565b90507fffffffffffffffffffffffffffffffffffffffffffffffffffffffffffffffff81036106e3576040517f7eefe83400000000000000000000000000000000000000000000000000000000815260040160405180910390fd5b6000600160040160003373ffffffffffffffffffffffffffffffffffffffff1673ffffffffffffffffffffffffffffffffffffffff168152602001908152602001600020828154811061073957610738611f63565b5b90600052602060002090600702016040518060e00160405290816000820160009054906101000a900473ffffffffffffffffffffffffffffffffffffffff1673ffffffffffffffffffffffffffffffffffffffff1673ffffffffffffffffffffffffffffffffffffffff1681526020016001820160009054906101000a900473ffffffffffffffffffffffffffffffffffffffff1673ffffffffffffffffffffffffffffffffffffffff1673ffffffffffffffffffffffffffffffffffffffff168152602001600282015481526020016003820154815260200160048201548152602001600582015481526020016006820160009054906101000a900460ff1615151515815250509050600089905060006108566001878e6118b2565b90508260c001516108d7576000620151808460a00151426108779190611f2f565b6108819190611efe565b905060006127108560400151866080015161089c9190611e8d565b6108a69190611efe565b9050600061016d82846108b99190611e8d565b6108c39190611efe565b905080856108d1919061226d565b94505050505b8a600160040160003373ffffffffffffffffffffffffffffffffffffffff1673ffffffffffffffffffffffffffffffffffffffff168152602001908152602001600020858154811061092c5761092b611f63565b5b9060005260206000209060070201600201600082825461094c9190611f2f565b925050819055508a600160080160008e73ffffffffffffffffffffffffffffffffffffffff1673ffffffffffffffffffffffffffffffffffffffff16815260200190815260200160002060008282546109a59190611f2f565b9250508190555042600160040160003373ffffffffffffffffffffffffffffffffffffffff1673ffffffffffffffffffffffffffffffffffffffff1681526020019081526020016000208581548110610a0157610a00611f63565b5b9060005260206000209060070201600501819055508b73ffffffffffffffffffffffffffffffffffffffff1663a9059cbb33846040518363ffffffff1660e01b8152600401610a519291906122b0565b6020604051808303816000875af1158015610a70573d6000803e3d6000fd5b505050506040513d601f19601f82011682018060405250810190610a9491906122ee565b610ad3576040517f08c379a0000000000000000000000000000000000000000000000000000000008152600401610aca90612378565b60405180910390fd5b600160000160009054906101000a900473ffffffffffffffffffffffffffffffffffffffff1673ffffffffffffffffffffffffffffffffffffffff16639dc29fac33836040518363ffffffff1660e01b8152600401610b339291906122b0565b6020604051808303816000875af1158015610b52573d6000803e3d6000fd5b505050506040513d601f19601f82011682018060405250810190610b7691906122ee565b610bb5576040517f08c379a0000000000000000000000000000000000000000000000000000000008152600401610bac906123e4565b60405180910390fd5b82604001518b10610e2c576000600160040160003373ffffffffffffffffffffffffffffffffffffffff1673ffffffffffffffffffffffffffffffffffffffff16815260200190815260200160002090508060018280549050610c189190611f2f565b81548110610c2957610c28611f63565b5b9060005260206000209060070201818681548110610c4a57610c49611f63565b5b90600052602060002090600702016000820160009054906101000a900473ffffffffffffffffffffffffffffffffffffffff168160000160006101000a81548173ffffffffffffffffffffffffffffffffffffffff021916908373ffffffffffffffffffffffffffffffffffffffff1602179055506001820160009054906101000a900473ffffffffffffffffffffffffffffffffffffffff168160010160006101000a81548173ffffffffffffffffffffffffffffffffffffffff021916908373ffffffffffffffffffffffffffffffffffffffff160217905550600282015481600201556003820154816003015560048201548160040155600582015481600501556006820160009054906101000a900460ff168160060160006101000a81548160ff02191690831515021790555090505080805480610d8f57610d8e612404565b5b6001900381819060005260206000209060070201600080820160006101000a81549073ffffffffffffffffffffffffffffffffffffffff02191690556001820160006101000a81549073ffffffffffffffffffffffffffffffffffffffff021916905560028201600090556003820160009055600482016000905560058201600090556006820160006101000a81549060ff021916905550509055505b50505050505050505050610e3e6118f9565b5050565b6000808360040160008473ffffffffffffffffffffffffffffffffffffffff1673ffffffffffffffffffffffffffffffffffffffff168152602001908152602001600020805480602002602001604051908101604052809291908181526020016000905b82821015610fc757838290600052602060002090600702016040518060e00160405290816000820160009054906101000a900473ffffffffffffffffffffffffffffffffffffffff1673ffffffffffffffffffffffffffffffffffffffff1673ffffffffffffffffffffffffffffffffffffffff1681526020016001820160009054906101000a900473ffffffffffffffffffffffffffffffffffffffff1673ffffffffffffffffffffffffffffffffffffffff1673ffffffffffffffffffffffffffffffffffffffff168152602001600282015481526020016003820154815260200160048201548152602001600582015481526020016006820160009054906101000a900460ff16151515158152505081526020019060010190610ea6565b505050509050600080610fda868661128f565b905060005b8351811015611267576000848281518110610ffd57610ffc611f63565b5b602002602001015190506000886002016000836000015173ffffffffffffffffffffffffffffffffffffffff1673ffffffffffffffffffffffffffffffffffffffff1681526020019081526020016000206040518060c00160405290816000820160009054906101000a900473ffffffffffffffffffffffffffffffffffffffff1673ffffffffffffffffffffffffffffffffffffffff1673ffffffffffffffffffffffffffffffffffffffff1681526020016000820160149054906101000a900463ffffffff1663ffffffff1663ffffffff1681526020016000820160189054906101000a900463ffffffff1663ffffffff1663ffffffff16815260200160008201601c9054906101000a900463ffffffff1663ffffffff1663ffffffff1681526020016001820160009054906101000a900463ffffffff1663ffffffff1663ffffffff1681526020016001820160049054906101000a900463ffffffff1663ffffffff1663ffffffff168152505090506000826000015173ffffffffffffffffffffffffffffffffffffffff1663313ce5676040518163ffffffff1660e01b8152600401602060405180830381865afa1580156111c0573d6000803e3d6000fd5b505050506040513d601f19601f820116820180604052508101906111e49190612013565b905060006111fb8b856040015186600001516118b2565b9050600082600a61120c9190612173565b670de0b6b3a7640000836112209190611e8d565b61122a9190611efe565b9050836040015163ffffffff16816112429190611e8d565b8861124d919061226d565b97505050505050808061125f90611f92565b915050610fdf565b5060008111611277576000611284565b80826112839190611efe565b5b935050505092915050565b6000808360040160008473ffffffffffffffffffffffffffffffffffffffff1673ffffffffffffffffffffffffffffffffffffffff168152602001908152602001600020805480602002602001604051908101604052809291908181526020016000905b8282101561141457838290600052602060002090600702016040518060e00160405290816000820160009054906101000a900473ffffffffffffffffffffffffffffffffffffffff1673ffffffffffffffffffffffffffffffffffffffff1673ffffffffffffffffffffffffffffffffffffffff1681526020016001820160009054906101000a900473ffffffffffffffffffffffffffffffffffffffff1673ffffffffffffffffffffffffffffffffffffffff1673ffffffffffffffffffffffffffffffffffffffff168152602001600282015481526020016003820154815260200160048201548152602001600582015481526020016006820160009054906101000a900460ff161515151581525050815260200190600101906112f3565b5050505090506000805b825181101561152857600083828151811061143c5761143b611f63565b5b602002602001015190506000816000015173ffffffffffffffffffffffffffffffffffffffff1663313ce5676040518163ffffffff1660e01b8152600401602060405180830381865afa158015611497573d6000803e3d6000fd5b505050506040513d601f19601f820116820180604052508101906114bb9190612013565b905060006114d289846040015185600001516118b2565b9050600082600a6114e39190612173565b670de0b6b3a7640000836114f79190611e8d565b6115019190611efe565b9050808661150f919061226d565b955050505050808061152090611f92565b91505061141e565b50809250505092915050565b6000808360050160008473ffffffffffffffffffffffffffffffffffffffff1673ffffffffffffffffffffffffffffffffffffffff168152602001908152602001600020805480602002602001604051908101604052809291908181526020016000905b8282101561169e57838290600052602060002090600602016040518060c00160405290816000820160009054906101000a900473ffffffffffffffffffffffffffffffffffffffff1673ffffffffffffffffffffffffffffffffffffffff1673ffffffffffffffffffffffffffffffffffffffff1681526020016001820160009054906101000a900473ffffffffffffffffffffffffffffffffffffffff1673ffffffffffffffffffffffffffffffffffffffff1673ffffffffffffffffffffffffffffffffffffffff16815260200160028201548152602001600382015481526020016004820154815260200160058201548152505081526020019060010190611598565b5050505090506000805b82518110156117b25760008382815181106116c6576116c5611f63565b5b602002602001015190506000816000015173ffffffffffffffffffffffffffffffffffffffff1663313ce5676040518163ffffffff1660e01b8152600401602060405180830381865afa158015611721573d6000803e3d6000fd5b505050506040513d601f19601f820116820180604052508101906117459190612013565b9050600061175c89846040015185600001516118b2565b9050600082600a61176d9190612173565b670de0b6b3a7640000836117819190611e8d565b61178b9190611efe565b90508086611799919061226d565b95505050505080806117aa90611f92565b9150506116a8565b50809250505092915050565b600260005403611803576040517f08c379a00000000000000000000000000000000000000000000000000000000081526004016117fa9061247f565b60405180910390fd5b6002600081905550565b600080600090505b82518110156118875782818151811061183157611830611f63565b5b602002602001015173ffffffffffffffffffffffffffffffffffffffff168473ffffffffffffffffffffffffffffffffffffffff160361187457809150506118ac565b808061187f90611f92565b915050611815565b507fffffffffffffffffffffffffffffffffffffffffffffffffffffffffffffffff90505b92915050565b60008060006118c18685611903565b91509150600081600a6118d4919061249f565b83876118e09190611e8d565b6118ea9190611efe565b90508093505050509392505050565b6001600081905550565b60008060008460030160008573ffffffffffffffffffffffffffffffffffffffff1673ffffffffffffffffffffffffffffffffffffffff16815260200190815260200160002060009054906101000a900473ffffffffffffffffffffffffffffffffffffffff169050600081905060008173ffffffffffffffffffffffffffffffffffffffff1663feaf968c6040518163ffffffff1660e01b815260040160a060405180830381865afa1580156119be573d6000803e3d6000fd5b505050506040513d601f19601f820116820180604052508101906119e29190612558565b50505091505060008273ffffffffffffffffffffffffffffffffffffffff1663313ce5676040518163ffffffff1660e01b8152600401602060405180830381865afa158015611a35573d6000803e3d6000fd5b505050506040513d601f19601f82011682018060405250810190611a599190612013565b60ff169050818195509550505050509250929050565b6000604051905090565b600080fd5b600080fd5b600073ffffffffffffffffffffffffffffffffffffffff82169050919050565b6000611aae82611a83565b9050919050565b611abe81611aa3565b8114611ac957600080fd5b50565b600081359050611adb81611ab5565b92915050565b600060208284031215611af757611af6611a79565b5b6000611b0584828501611acc565b91505092915050565b6000819050919050565b611b2181611b0e565b82525050565b6000602082019050611b3c6000830184611b18565b92915050565b600080fd5b6000601f19601f8301169050919050565b7f4e487b7100000000000000000000000000000000000000000000000000000000600052604160045260246000fd5b611b9082611b47565b810181811067ffffffffffffffff82111715611baf57611bae611b58565b5b80604052505050565b6000611bc2611a6f565b9050611bce8282611b87565b919050565b600067ffffffffffffffff821115611bee57611bed611b58565b5b602082029050602081019050919050565b600080fd5b600080fd5b6000819050919050565b611c1c81611c09565b8114611c2757600080fd5b50565b600081359050611c3981611c13565b92915050565b60008115159050919050565b611c5481611c3f565b8114611c5f57600080fd5b50565b600081359050611c7181611c4b565b92915050565b600060e08284031215611c8d57611c8c611c04565b5b611c9760e0611bb8565b90506000611ca784828501611acc565b6000830152506020611cbb84828501611acc565b6020830152506040611ccf84828501611c2a565b6040830152506060611ce384828501611c2a565b6060830152506080611cf784828501611c2a565b60808301525060a0611d0b84828501611c2a565b60a08301525060c0611d1f84828501611c62565b60c08301525092915050565b6000611d3e611d3984611bd3565b611bb8565b90508083825260208201905060e08402830185811115611d6157611d60611bff565b5b835b81811015611d8a5780611d768882611c77565b84526020840193505060e081019050611d63565b5050509392505050565b600082601f830112611da957611da8611b42565b5b8135611db9848260208601611d2b565b91505092915050565b60008060408385031215611dd957611dd8611a79565b5b6000611de785828601611acc565b925050602083013567ffffffffffffffff811115611e0857611e07611a7e565b5b611e1485828601611d94565b9150509250929050565b60008060408385031215611e3557611e34611a79565b5b6000611e4385828601611acc565b9250506020611e5485828601611c2a565b9150509250929050565b7f4e487b7100000000000000000000000000000000000000000000000000000000600052601160045260246000fd5b6000611e9882611c09565b9150611ea383611c09565b9250828202611eb181611c09565b91508282048414831517611ec857611ec7611e5e565b5b5092915050565b7f4e487b7100000000000000000000000000000000000000000000000000000000600052601260045260246000fd5b6000611f0982611c09565b9150611f1483611c09565b925082611f2457611f23611ecf565b5b828204905092915050565b6000611f3a82611c09565b9150611f4583611c09565b9250828203905081811115611f5d57611f5c611e5e565b5b92915050565b7f4e487b7100000000000000000000000000000000000000000000000000000000600052603260045260246000fd5b6000611f9d82611c09565b91507fffffffffffffffffffffffffffffffffffffffffffffffffffffffffffffffff8203611fcf57611fce611e5e565b5b600182019050919050565b600060ff82169050919050565b611ff081611fda565b8114611ffb57600080fd5b50565b60008151905061200d81611fe7565b92915050565b60006020828403121561202957612028611a79565b5b600061203784828501611ffe565b91505092915050565b60008160011c9050919050565b6000808291508390505b60018511156120975780860481111561207357612072611e5e565b5b60018516156120825780820291505b808102905061209085612040565b9450612057565b94509492505050565b6000826120b0576001905061216c565b816120be576000905061216c565b81600181146120d457600281146120de5761210d565b600191505061216c565b60ff8411156120f0576120ef611e5e565b5b8360020a91508482111561210757612106611e5e565b5b5061216c565b5060208310610133831016604e8410600b84101617156121425782820a90508381111561213d5761213c611e5e565b5b61216c565b61214f848484600161204d565b9250905081840481111561216657612165611e5e565b5b81810290505b9392505050565b600061217e82611c09565b915061218983611fda565b92506121b67fffffffffffffffffffffffffffffffffffffffffffffffffffffffffffffffff84846120a0565b905092915050565b60006121c982611b0e565b91506121d483611b0e565b92508282039050818112600084121682821360008512151617156121fb576121fa611e5e565b5b92915050565b61220a81611aa3565b82525050565b60006020820190506122256000830184612201565b92915050565b60008151905061223a81611c13565b92915050565b60006020828403121561225657612255611a79565b5b60006122648482850161222b565b91505092915050565b600061227882611c09565b915061228383611c09565b925082820190508082111561229b5761229a611e5e565b5b92915050565b6122aa81611c09565b82525050565b60006040820190506122c56000830185612201565b6122d260208301846122a1565b9392505050565b6000815190506122e881611c4b565b92915050565b60006020828403121561230457612303611a79565b5b6000612312848285016122d9565b91505092915050565b600082825260208201905092915050565b7f496e73756666696369656e742066756e64730000000000000000000000000000600082015250565b600061236260128361231b565b915061236d8261232c565b602082019050919050565b6000602082019050818103600083015261239181612355565b9050919050565b7f4661696c656420746f206275726e000000000000000000000000000000000000600082015250565b60006123ce600e8361231b565b91506123d982612398565b602082019050919050565b600060208201905081810360008301526123fd816123c1565b9050919050565b7f4e487b7100000000000000000000000000000000000000000000000000000000600052603160045260246000fd5b7f5265656e7472616e637947756172643a207265656e7472616e742063616c6c00600082015250565b6000612469601f8361231b565b915061247482612433565b602082019050919050565b600060208201905081810360008301526124988161245c565b9050919050565b60006124aa82611c09565b91506124b583611c09565b92506124e27fffffffffffffffffffffffffffffffffffffffffffffffffffffffffffffffff84846120a0565b905092915050565b600069ffffffffffffffffffff82169050919050565b612509816124ea565b811461251457600080fd5b50565b60008151905061252681612500565b92915050565b61253581611b0e565b811461254057600080fd5b50565b6000815190506125528161252c565b92915050565b600080600080600060a0868803121561257457612573611a79565b5b600061258288828901612517565b955050602061259388828901612543565b94505060406125a48882890161222b565b93505060606125b58882890161222b565b92505060806125c688828901612517565b915050929550929590935056fea264697066735822122046713d9524323971f39dc165c3d80f7b495dd3ab48d3ba22a6732ebc39581c5464736f6c63430008110033",
  "devdoc": {
    "kind": "dev",
    "methods": {},
    "version": 1
  },
  "userdoc": {
    "kind": "user",
    "methods": {},
    "version": 1
  },
  "storageLayout": {
    "storage": [
      {
        "astId": 56,
        "contract": "contracts/facets/WithdrawFacet.sol:WithdrawFacet",
        "label": "_status",
        "offset": 0,
        "slot": "0",
        "type": "t_uint256"
      },
      {
        "astId": 4433,
        "contract": "contracts/facets/WithdrawFacet.sol:WithdrawFacet",
        "label": "s",
        "offset": 0,
        "slot": "1",
        "type": "t_struct(AppStorage)3819_storage"
      }
    ],
    "types": {
      "t_address": {
        "encoding": "inplace",
        "label": "address",
        "numberOfBytes": "20"
      },
      "t_array(t_address)dyn_storage": {
        "base": "t_address",
        "encoding": "dynamic_array",
        "label": "address[]",
        "numberOfBytes": "32"
      },
      "t_array(t_struct(BorrowedToken)3773_storage)dyn_storage": {
        "base": "t_struct(BorrowedToken)3773_storage",
        "encoding": "dynamic_array",
        "label": "struct BorrowedToken[]",
        "numberOfBytes": "32"
      },
      "t_array(t_struct(SuppliedToken)3760_storage)dyn_storage": {
        "base": "t_struct(SuppliedToken)3760_storage",
        "encoding": "dynamic_array",
        "label": "struct SuppliedToken[]",
        "numberOfBytes": "32"
      },
      "t_bool": {
        "encoding": "inplace",
        "label": "bool",
        "numberOfBytes": "1"
      },
      "t_mapping(t_address,t_address)": {
        "encoding": "mapping",
        "key": "t_address",
        "label": "mapping(address => address)",
        "numberOfBytes": "32",
        "value": "t_address"
      },
      "t_mapping(t_address,t_array(t_struct(BorrowedToken)3773_storage)dyn_storage)": {
        "encoding": "mapping",
        "key": "t_address",
        "label": "mapping(address => struct BorrowedToken[])",
        "numberOfBytes": "32",
        "value": "t_array(t_struct(BorrowedToken)3773_storage)dyn_storage"
      },
      "t_mapping(t_address,t_array(t_struct(SuppliedToken)3760_storage)dyn_storage)": {
        "encoding": "mapping",
        "key": "t_address",
        "label": "mapping(address => struct SuppliedToken[])",
        "numberOfBytes": "32",
        "value": "t_array(t_struct(SuppliedToken)3760_storage)dyn_storage"
      },
      "t_mapping(t_address,t_struct(Token)3745_storage)": {
        "encoding": "mapping",
        "key": "t_address",
        "label": "mapping(address => struct Token)",
        "numberOfBytes": "32",
        "value": "t_struct(Token)3745_storage"
      },
      "t_mapping(t_address,t_uint256)": {
        "encoding": "mapping",
        "key": "t_address",
        "label": "mapping(address => uint256)",
        "numberOfBytes": "32",
        "value": "t_uint256"
      },
      "t_struct(AppStorage)3819_storage": {
        "encoding": "inplace",
        "label": "struct AppStorage",
        "members": [
          {
            "astId": 3780,
            "contract": "contracts/facets/WithdrawFacet.sol:WithdrawFacet",
            "label": "larTokenAddress",
            "offset": 0,
            "slot": "0",
            "type": "t_address"
          },
          {
            "astId": 3783,
            "contract": "contracts/facets/WithdrawFacet.sol:WithdrawFacet",
            "label": "supportedTokens",
            "offset": 0,
            "slot": "1",
            "type": "t_array(t_address)dyn_storage"
          },
          {
            "astId": 3788,
            "contract": "contracts/facets/WithdrawFacet.sol:WithdrawFacet",
            "label": "addressToToken",
            "offset": 0,
            "slot": "2",
            "type": "t_mapping(t_address,t_struct(Token)3745_storage)"
          },
          {
            "astId": 3792,
            "contract": "contracts/facets/WithdrawFacet.sol:WithdrawFacet",
            "label": "tokenToPriceFeed",
            "offset": 0,
            "slot": "3",
            "type": "t_mapping(t_address,t_address)"
          },
          {
            "astId": 3798,
            "contract": "contracts/facets/WithdrawFacet.sol:WithdrawFacet",
            "label": "tokensSupplied",
            "offset": 0,
            "slot": "4",
            "type": "t_mapping(t_address,t_array(t_struct(SuppliedToken)3760_storage)dyn_storage)"
          },
          {
            "astId": 3804,
            "contract": "contracts/facets/WithdrawFacet.sol:WithdrawFacet",
            "label": "tokensBorrowed",
            "offset": 0,
            "slot": "5",
            "type": "t_mapping(t_address,t_array(t_struct(BorrowedToken)3773_storage)dyn_storage)"
          },
          {
            "astId": 3807,
            "contract": "contracts/facets/WithdrawFacet.sol:WithdrawFacet",
            "label": "allSuppliers",
            "offset": 0,
            "slot": "6",
            "type": "t_array(t_address)dyn_storage"
          },
          {
            "astId": 3810,
            "contract": "contracts/facets/WithdrawFacet.sol:WithdrawFacet",
            "label": "allBorrowers",
            "offset": 0,
            "slot": "7",
            "type": "t_array(t_address)dyn_storage"
          },
          {
            "astId": 3814,
            "contract": "contracts/facets/WithdrawFacet.sol:WithdrawFacet",
            "label": "totalSupplied",
            "offset": 0,
            "slot": "8",
            "type": "t_mapping(t_address,t_uint256)"
          },
          {
            "astId": 3818,
            "contract": "contracts/facets/WithdrawFacet.sol:WithdrawFacet",
            "label": "totalBorrowed",
            "offset": 0,
            "slot": "9",
            "type": "t_mapping(t_address,t_uint256)"
          }
        ],
        "numberOfBytes": "320"
      },
      "t_struct(BorrowedToken)3773_storage": {
        "encoding": "inplace",
        "label": "struct BorrowedToken",
        "members": [
          {
            "astId": 3762,
            "contract": "contracts/facets/WithdrawFacet.sol:WithdrawFacet",
            "label": "tokenAddress",
            "offset": 0,
            "slot": "0",
            "type": "t_address"
          },
          {
            "astId": 3764,
            "contract": "contracts/facets/WithdrawFacet.sol:WithdrawFacet",
            "label": "borrowerAddress",
            "offset": 0,
            "slot": "1",
            "type": "t_address"
          },
          {
            "astId": 3766,
            "contract": "contracts/facets/WithdrawFacet.sol:WithdrawFacet",
            "label": "amountBorrowed",
            "offset": 0,
            "slot": "2",
            "type": "t_uint256"
          },
          {
            "astId": 3768,
            "contract": "contracts/facets/WithdrawFacet.sol:WithdrawFacet",
            "label": "startAccumulatingDay",
            "offset": 0,
            "slot": "3",
            "type": "t_uint256"
          },
          {
            "astId": 3770,
            "contract": "contracts/facets/WithdrawFacet.sol:WithdrawFacet",
            "label": "borrowedInterest",
            "offset": 0,
            "slot": "4",
            "type": "t_uint256"
          },
          {
            "astId": 3772,
            "contract": "contracts/facets/WithdrawFacet.sol:WithdrawFacet",
            "label": "stableRate",
            "offset": 0,
            "slot": "5",
            "type": "t_uint256"
          }
        ],
        "numberOfBytes": "192"
      },
      "t_struct(SuppliedToken)3760_storage": {
        "encoding": "inplace",
        "label": "struct SuppliedToken",
        "members": [
          {
            "astId": 3747,
            "contract": "contracts/facets/WithdrawFacet.sol:WithdrawFacet",
            "label": "tokenAddress",
            "offset": 0,
            "slot": "0",
            "type": "t_address"
          },
          {
            "astId": 3749,
            "contract": "contracts/facets/WithdrawFacet.sol:WithdrawFacet",
            "label": "supplierAddress",
            "offset": 0,
            "slot": "1",
            "type": "t_address"
          },
          {
            "astId": 3751,
            "contract": "contracts/facets/WithdrawFacet.sol:WithdrawFacet",
            "label": "amountSupplied",
            "offset": 0,
            "slot": "2",
            "type": "t_uint256"
          },
          {
            "astId": 3753,
            "contract": "contracts/facets/WithdrawFacet.sol:WithdrawFacet",
            "label": "supplyInterest",
            "offset": 0,
            "slot": "3",
            "type": "t_uint256"
          },
          {
            "astId": 3755,
            "contract": "contracts/facets/WithdrawFacet.sol:WithdrawFacet",
            "label": "supplyStableRate",
            "offset": 0,
            "slot": "4",
            "type": "t_uint256"
          },
          {
            "astId": 3757,
            "contract": "contracts/facets/WithdrawFacet.sol:WithdrawFacet",
            "label": "startAccumulatingDay",
            "offset": 0,
            "slot": "5",
            "type": "t_uint256"
          },
          {
            "astId": 3759,
            "contract": "contracts/facets/WithdrawFacet.sol:WithdrawFacet",
            "label": "isCollateral",
            "offset": 0,
            "slot": "6",
            "type": "t_bool"
          }
        ],
        "numberOfBytes": "224"
      },
      "t_struct(Token)3745_storage": {
        "encoding": "inplace",
        "label": "struct Token",
        "members": [
          {
            "astId": 3734,
            "contract": "contracts/facets/WithdrawFacet.sol:WithdrawFacet",
            "label": "tokenAddress",
            "offset": 0,
            "slot": "0",
            "type": "t_address"
          },
          {
            "astId": 3736,
            "contract": "contracts/facets/WithdrawFacet.sol:WithdrawFacet",
            "label": "liquidationThreshold",
            "offset": 20,
            "slot": "0",
            "type": "t_uint32"
          },
          {
            "astId": 3738,
            "contract": "contracts/facets/WithdrawFacet.sol:WithdrawFacet",
            "label": "loanToValue",
            "offset": 24,
            "slot": "0",
            "type": "t_uint32"
          },
          {
            "astId": 3740,
            "contract": "contracts/facets/WithdrawFacet.sol:WithdrawFacet",
            "label": "borrowStableRate",
            "offset": 28,
            "slot": "0",
            "type": "t_uint32"
          },
          {
            "astId": 3742,
            "contract": "contracts/facets/WithdrawFacet.sol:WithdrawFacet",
            "label": "supplyStableRate",
            "offset": 0,
            "slot": "1",
            "type": "t_uint32"
          },
          {
            "astId": 3744,
            "contract": "contracts/facets/WithdrawFacet.sol:WithdrawFacet",
            "label": "liquidationPenalty",
            "offset": 4,
            "slot": "1",
            "type": "t_uint32"
          }
        ],
        "numberOfBytes": "64"
      },
      "t_uint256": {
        "encoding": "inplace",
        "label": "uint256",
        "numberOfBytes": "32"
      },
      "t_uint32": {
        "encoding": "inplace",
        "label": "uint32",
        "numberOfBytes": "4"
      }
    }
  }
}